:020000040800F2
:100000000004002021010008D1010008D1010008EE
:10001000D1010008D1010008D1010008D101000878
:10002000D1010008D1010008D10100080102000837
:10003000D1010008D1010008D1010008D102000857
:10004000D101000841190008D1010008D1010008C0
:10005000D1010008D10100084117000871170008FC
:10006000A1170008D1170008011800085111000855
:1000700081110008C1110008011200084112000896
:1000800081120008C1120008D1010008D101000846
:10009000D1010008D1010008D10100083118000881
:1000A000D1010008D1010008D1010008D1010008E8
:1000B000412300086123000881230008611C000817
:1000C000F11D0008D1010008D1010008D10100088C
:1000D000D1010008D1010008D1010008D1010008B8
:0C00E000B1180008D101000871190008D7
:1000F00001E040F8042B8842FBD370470000000069
:100100007047000000000000000000000000000038
:10011000FEE70000000000000000000000000000FA
:1001200072B61D4B83F30988022383F31488BFF34F
:100130006F8F02F085FA194819494FF05532FFF7D1
:10014000D7FF4FF0553217481349FFF7D1FF164A32
:10015000164B03E052F8041B43F8041B14498B426E
:10016000F8D3144814490022FFF7C2FF134CFFF7DD
:10017000C7FF02E054F8043B9847114B9C42F9D367
:1001800002F09EFE0F4C02E054F8043B98470E4BE1
:100190009C42F9D3FFF7BCBF0008002000000020FC
:1001A0000004002000040020503700080008002050
:1001B0000008002000080020800F0020EC0000084C
:1001C000EC000008EC000008EC0000080000000053
:1001D000FEE700000000000000000000000000003A
:1001E00072B6FEE700000000000000000000000002
:1001F00000F03EFA00F0B4FB00F022FA00DF00004D
:1002000000B5EFF30983203383F3098800F030F859
:100210005DF804FB0000000000000000000000008A
:100220000A4B002210B59A60094A0720DA601021B3
:1002300000F0A6F80A204FF4007100F0A1F80B209E
:100240008021BDE8104000F09BB800BF00ED00E049
:100250000000FA050000000000000000000000009F
:10026000202383F311887047000000000000000085
:10027000002383F311887047000000000000000095
:1002800000B5FFF7EDFF0E4B5B6813F4006F13D062
:10029000EFF30983203B83F309884FF08072DA6122
:1002A000084A116892698968926891428CBF064A2F
:1002B000064A9A615DF804FBFFF7DAFF5DF804FB7C
:1002C00000ED00E0300D0020F1010008FC01000805
:1002D00010B500F065F9FFF7C3FF00F099F900F0E1
:1002E000AFF800F07DF9FFF7C3FF00F039F9BDE882
:1002F0001040FFF7C5BF0000000000000000000034
:100300002DE9F04FC1F80CD0D0F80CD0BDE8F08F3B
:1003100008B500F095F9FFF7ABFF2846A04700F0BD
:10032000EFFB08BD0000000000000000000000001E
:1003300070B500F00304E400FF25A54011FA04F4B1
:100340000B4B8208C03253F82260012126EA0505D2
:10035000254343F82250420900F01F0011FA00F033
:1003600002F1600143F8210043F8220070BD00BF94
:1003700000E100E0000000000000000000000000BC
:10038000820800F0030030B5C000FF24844011FA59
:1003900000F0054B063253F8225025EA04040443CA
:1003A00043F8224030BD00BF00ED00E00000000037
:1003B000024B034A9B699A61FEE700BF300D0020A3
:1003C000F02E000800000000000000000000000007
:1003D00037B5FFF725FF00F0F3F900F091F900F0D1
:1003E00047FC00F085FC00F053F840210D4800F078
:1003F000DFFA0D4B0D4D0124C36180F82040A86148
:1004000000F04EF9002383F3118862B60849AA6907
:10041000084891610093C0212246074B00F020FB61
:100420003EBD00BFC008002000040020300D0020A9
:10043000F52E000800080020B103000800000000AD
:1004400010B500F075F80E4B0E4C9B695A6A0132DC
:100450005A62E3680133E3602368A3420FD09A68CD
:10046000013A9A6006E0D368D16011684860016083
:10047000106998472268034891680029F3D010BD9D
:10048000300D0020200D00200000000000000000C2
:10049000034A4021134643F8081B5360704700BFCE
:1004A0001009002000000000000000000000000013
:1004B0000B4B0C495A68C96811600B498969516036
:1004C000816A916090F820101173103203F58161F8
:1004D0008A425A6024BF03F108025A60704700BF85
:1004E00010090020200D0020300D00200000000029
:1004F000014B1860FFF774BE1C0D002000000000C7
:10050000054B1B681BB9054B1B68002B02DC04481C
:10051000FFF7EEBF704700BF0C090020180D002048
:10052000002F000800000000000000000000000094
:10053000054B1B68002B03DB044B1B68002B02DC04
:100540000348FFF7D5BF70470C090020180D0020A5
:10055000062F00080000000000000000000000005E
:1005600010B5FFF77DFE084C2368002B02DD074B1A
:100570001B6813B10648FFF7BBFF2368013B2360EC
:10058000FFF776FE10BD00BF0C090020180D0020FB
:100590000C2F000800000000000000000000000018
:1005A00010B5FFF75DFE084C2368002B02DB074BFC
:1005B0001B6813B10648FFF79BFF236801332360D4
:1005C000FFF756FE10BD00BF0C090020180D0020DB
:1005D000112F0008000000000000000000000000D3
:1005E000074B10B51B68074C002B02DD2368002B5E
:1005F00002DC0548FFF77CFF0023236010BD00BF2D
:100600000C090020180D0020162F00080000000023
:10061000064B10B51B68064C002B01DD236813B197
:100620000448FFF765FF0123236010BD0C0900207B
:10063000180D00201B2F0008000000000000000023
:10064000064B10B51B68064C13B92368002B02DC5F
:100650000448FFF74DFF0023236010BD0C09002064
:10066000180D0020202F00080000000000000000EE
:10067000064B10B51B68064C0BB9236813B105482F
:10068000FFF736FF0123236010BD00BF0C090020D7
:10069000180D0020252F00080000000000000000B9
:1006A000044B1B6813B9044B1B6813B10348FFF7D5
:1006B0001FBF70470C090020180D00202A2F0008CA
:1006C0004B6801604360486018607047000000009C
:1006D0000346006802681A6053607047000000001B
:1006E00042680168116003685A60704700000000AA
:1006F00003681A6802601846704700000000000096
:10070000044B4FF0FF329A6001325B601B60DA608D
:10071000704700BF200D0020000000000000000016
:10072000F8B504460D4616461F46FFF701FF0CB10B
:1007300006B115B90C48FFF7DBFE0C4A2761E660ED
:100740001368104601E01B686D1A9968A942FAD334
:100750005A6883422360626014605C60A56002D0C6
:100760009A68551B9D60F8BD402F0008200D0020A1
:1007700010B50446FFF7DCFE14B90B48FFF7B8FECE
:10078000E36813B90948FFF7B3FE2368084A9342A8
:1007900003D09968A2688A189A6062681360236817
:1007A0005A600023E36010BD4D2F00085C2F000845
:1007B000200D0020000000000000000000000000EC
:1007C000034B00225B601B609A605B611B6170479A
:1007D000300D0020000000000000000000000000BC
:1007E00010B590F8203004460BB10E2B02D1094809
:1007F000FFF77EFE002384F82030A268064B1B68BA
:1008000099689142FBD25A682360626014605C6010
:10081000204610BD702F0008300D002000000000A1
:1008200010B590F820300446032B07D001D8A3B1AF
:100830000BE0052B06D00D2B07D103E0836A9A68E5
:1008400001329A602046FFF74BFF4FF0FF332046FE
:10085000A362BDE81040FFF7C3BF10BD0000000059
:1008600070B50F4D0646FFF74BFEAC69284684F87D
:100870002060FFF72DFF012380F82030A86120467B
:10088000FFF716FEE269ADF124039A4202D905484A
:10089000FFF72EFEA8692146BDE87040FFF730BD86
:1008A000300D0020822F0008000000000000000032
:1008B00070B50E4686B00546FFF722FEB6F1FF3F43
:1008C0000B4C0ED0A36901A831460A4AFFF728FF56
:1008D0002846FFF7C5FF049B33B101A8FFF748FF87
:1008E00002E02846FFF7BCFFA369986A06B070BD16
:1008F000300D00202108000800000000000000006A
:1009000070B5134E04460D46FFF7FAFDB069A268B4
:100910008368A5629A4204D82046BDE87040FFF77C
:100920005FBFFFF75DFF0123054684F82030B46107
:10093000FFF7BEFDEA69ADF124039A4202D90548EA
:10094000FFF7D6FD20462946BDE87040FFF7D8BC2A
:10095000300D0020822F0008000000000000000081
:1009600070B50E4D2846AC69FFF7B2FE012380F842
:100970002030A8612046FFF733FF2046FFF798FD9F
:10098000E269ADF124039A4202D90548FFF7B0FDB0
:10099000A8692146BDE87040FFF7B2BC300D0020C9
:1009A000822F00080000000000000000000000008E
:1009B000022280F82020023A816080F821204164E0
:1009C00002640121C26342628261094A80F82210F6
:1009D000516902614161506100F12C02C26200F173
:1009E00030024263026300F14C020861C261704749
:1009F000300D00200000000000000000000000009A
:100A000001E000F8012B8842FBD370470000000092
:100A10002DE9F04104460D4616461F46DDF81880C4
:100A2000FFF786FD24B1AF2D02D97F2E00D817B96C
:100A30000848FFF75DFD243D074A6319204631460B
:100A4000E3606751C3F804801A62BDE8F041FFF724
:100A5000AFBF00BFA02F0008110300080000000076
:100A60002DE9F34100F14C0804460D461746414676
:100A7000FF221E46FFF7C4FF404661195522FFF7CB
:100A8000BFFFFFF7EDFBFFF7F3FD089B3A4600932E
:100A9000294633462046FFF7BBFF00210446FFF7F7
:100AA0002FFFFFF7CDFDFFF7E3FB2046BDE8FC81FC
:100AB0000F4B10B59C69A06203E0FFF719FEFFF72A
:100AC0008FFEE36A04F12C008342F6D194F82130C2
:100AD00013F0030F04D1636922691A61226953611B
:100AE0000E20FFF7BDFE0348BDE81040FFF700BD34
:100AF000300D0020E72F000800000000000000007B
:100B000010B50446FFF7ACFBFFF7B2FD2046BDE889
:100B10001040FFF7CDBF0000000000000000000003
:100B200010B5044610B90448FFF7E2FC00236460E6
:100B30002460A36010BD00BF30300008000000003A
:100B400010B503460C4659B1074A194690698362AD
:100B5000FFF7B6FD0D202146BDE81040FFF7A8BE07
:100B60004FF0FF3010BD00BF300D0020000000002E
:100B700010B58A1800244060006084604161816182
:100B8000C1600261C36110BD0000000000000000F0
:100B900038B504460D46FFF7CBFCA2696369934262
:100BA000A26800D1AAB90132A26003F8015B2269F0
:100BB0006361934224BFE36863612368A3420BD05F
:100BC0002046FFF785FDFFF70BFE002383621846E2
:100BD00038BD6FF0030038BD002038BD00000000B4
:100BE0002DE9F84304460E461F46C569914612B9E1
:100BF0001B48FFF77DFCFFF733FBFFF739FD4FF094
:100C0000000865B12046A84709E020463946FFF7AD
:100C100097FF20B1FFF714FDFFF72AFB1CE0A36844
:100C2000002BF2D0013BA360A36913F8012B06F857
:100C300008202269A361934224BFE368A361FFF700
:100C4000FFFCFFF715FB08F10108C84504D0FFF7CA
:100C500007FBFFF70DFDD4E74046BDE8F88300BF72
:100C6000D03000080000000000000000000000007C
:100C7000054A064B22F007021A60054A054B22F08E
:100C800007021A60704700BF870F0020500D002038
:100C9000002800204C0D0020000000000000000093
:100CA00010B50446FFF744FC064B0749186809686D
:100CB000E21D22F00702091A914226BF82181A602B
:100CC000002010BD500D00204C0D00200000000041
:100CD00010B50446FFF7C4FAFFF7CAFC2046FFF739
:100CE000DFFF0446FFF7ACFCFFF7C2FA204610BD59
:100CF0000448054B036000238360C3601030FFF796
:100D00000FBF00BF580D0020D10C000800000000EC
:100D100010B500F05DFB00F003FA074801F028FC75
:100D200000F00EF800F0A4F800F002F900F068F905
:100D3000BDE8104001F08CBC6036000800000000E7
:100D400000F0DEBB0000000000000000000000001A
:100D500001230370013B43608360C360036143610F
:100D60001830FFF7DDBE00000000000000000000AA
:100D700038B50D46044610B90C48FFF7B9FBFFF72C
:100D80006FFAFFF775FC2378013BDBB2012B02D928
:100D90000748FFF7ADFB2046656000F0E9FB022342
:100DA0002370FFF74DFCFFF763FA38BD00310008F0
:100DB0000D310008000000000000000000000000ED
:100DC0002DE9F04104460D4616461F46FFF7B0FBDD
:100DD00034B12DB126B1012F05D017F0010F02D08B
:100DE0000B48FFF785FB2378022B06D0042B04D099
:100DF000052B02D00748FFF77BFB03232046A660A4
:100E0000E76025612370BDE8F04100F0E1BB00BF61
:100E1000363100084E3100080000000000000000DC
:100E2000F8B504460F4616461D46FFF719FAFFF7B8
:100E30001FFC636913B10B48FFF75AFB2B460A4DA1
:100E4000394632462046FFF7BBFFAB69022063619B
:100E5000FFF706FDAB699C6AFFF7F2FBFFF708FAA4
:100E60002046F8BDC6310008300D0020000000000B
:100E700000F096BD0000000000000000000000002F
:100E800001230370013B4360704700000000000035
:100E900038B50D46044600B111B90D48FFF728FBDF
:100EA000FFF7DEF9FFF7E4FB2378013BDBB2012B10
:100EB00002D90848FFF71CFB2046656000F078FD6A
:100EC00002232370FFF7BCFBFFF7D2F938BD00BF48
:100ED000003200080D320008000000000000000091
:100EE00038B50D46044628B1122903D8436853F893
:100EF000313013B90A48FFF7FBFAFFF7B1F9FFF7F2
:100F0000B7FB2378022B02D00648FFF7F1FA204600
:100F1000294600F0CDFDFFF793FBFFF7A9F938BD97
:100F2000363200084B3200080000000000000000CC
:100F300001F00EB8000000000000000000000000FA
:100F400001230370013B43600C30FFF7E9BD000053
:100F500038B50D46044600B111B90E48FFF7C8FA7E
:100F600023785A1ED2B2012A04D9052B02D00A488E
:100F7000FFF7BEFAFFF774F9FFF77AFB20466560CA
:100F800000F0FEFF02232370FFF75AFBFFF770F912
:100F900038BD00BF903200089D32000800000000FC
:100FA000F0B5044687B00F4616461D46FFF758F9C0
:100FB000FFF75EFB0023A36023700C9B2046009389
:100FC0000D9B394601930E9B324602930F9B039370
:100FD000109B04932B4601F0FBF8B0F1FF3F054650
:100FE00001D1052300E002232370FFF729FBFFF75F
:100FF0003FF9284607B0F0BD0000000000000000E7
:1010000001F0CEB900000000000000000000000068
:1010100001230370013B43607047000000000000A3
:1010200038B50D46044600B111B90E48FFF760FA15
:10103000FFF716F9FFF71CFB2378013BDBB2012B0E
:1010400002D90948FFF754FA6560AD88204625812A
:1010500001F0C6F902232370FFF7F2FAFFF708F94F
:1010600038BD00BF703300087D3300080000000069
:1010700070B50C461546064608B1032902D90B483F
:10108000FFF736FAFFF7ECF8FFF7F2FA3378022BA6
:1010900002D00748FFF72CFA304621462A4601F0D5
:1010A00047FAFFF7CDFAFFF7E3F870BDD033000839
:1010B000E533000800000000000000000000000010
:1010C000014B5B6883607047001000E00000000087
:1010D000084B5A688368D31A074A12689B1AC26879
:1010E0008360934201D9C36070470269934238BF5D
:1010F00003617047001000E0780D00200000000040
:10110000044B0360044B436000238360C360013BD6
:1011100003617047C1100008D110000800000000F2
:1011200010B5084C86B0002301A82360FFF7E8FF44
:1011300001A8019B9847029B01A89847039B236045
:1011400006B010BD780D0020000000000000000077
:1011500010B5FFF725FA084B0F2219685A60074AA5
:1011600013681BB1506801F00F019847FFF7F8F9B9
:10117000BDE81040FFF784B8000002407C0D00205D
:1011800010B5FFF70DFA094BF02219685A60084AAA
:10119000936823B10909D06801F00F019847FFF760
:1011A000DFF9BDE81040FFF76BB800BF0000024058
:1011B0007C0D002000000000000000000000000086
:1011C00010B5FFF7EDF9094B4FF4706219685A60DA
:1011D000074A136923B1090A506901F00F019847C2
:1011E000FFF7BEF9BDE81040FFF74AB80000024023
:1011F0007C0D002000000000000000000000000046
:1012000010B5FFF7CDF9094B4FF4704219685A60D9
:10121000074A936923B1090BD06901F00F01984780
:10122000FFF79EF9BDE81040FFF72AB80000024022
:101230007C0D002000000000000000000000000005
:1012400010B5FFF7ADF9094B4FF4702219685A60D9
:10125000074A136A23B1090C506A01F00F0198473D
:10126000FFF77EF9BDE81040FFF70AB80000024022
:101270007C0D0020000000000000000000000000C5
:1012800010B5FFF78DF9094B4FF4700219685A60D9
:10129000074A936A23B1090DD06A01F00F019847FC
:1012A000FFF75EF9BDE81040FEF7EABF000002401C
:1012B0007C0D002000000000000000000000000085
:1012C00010B5FFF76DF9094B4FF0706219685A605D
:1012D000074A136B23B1090E506B01F00F019847B9
:1012E000FFF73EF9BDE81040FEF7CABF000002401C
:1012F0007C0D002000000000000000000000000045
:10130000094B00221A6013460849C85800210160A1
:1013100007480C3381500832542BF5D1054B4FF060
:10132000FF325A60704700BFB40D002050340008EF
:101330007C0D0020000002400000000000000000C2
:10134000F8B50C4615461E46074610B91948FFF772
:10135000CFF87B7A012000FA03FC174A11681CEAD7
:10136000010F25D1154840F8335000EBC3035E60F0
:101370004CEA010313F07F0F136004D0104B5A693D
:1013800042F001025A613B680F201A68002622F0E1
:1013900001021A60397A7A6810FA01F111601E6050
:1013A0002DB1B87A2101FEF7C3FF3046F8BD2846BB
:1013B000F8BD00BF20340008B40D00207C0D0020D3
:1013C00000100240000000000000000000000000CB
:1013D0001F4B4FF0FF311A69002219611A61D8685A
:1013E000D9601C481C49DA60486007208A600860A0
:1013F0001A49C86840F08070C8601949086840F010
:1014000001000860D96941F08051D961D96941F082
:101410000061D9611349086840F480700860196A56
:1014200001F44071B1F5407F03D04FF4803119626F
:101430001A621B6A064A13F4004F07D1136A43F479
:1014400040731362136A43F400431362FFF758BFFB
:1014500000100240FFE1040010E000E0F0ED00E0C9
:10146000001000E0007000400000000000000000DC
:101470001D4B1A6842F001021A601B4B1A6812F0E9
:10148000020FFAD01A6802F0F9021A6000225A60BC
:10149000154B5A6812F00C0FFAD11A6842F48032D8
:1014A0001A60114B1A6812F4003FFAD05A6842F4DD
:1014B00080325A601A6842F080721A600A4B1A68C9
:1014C00012F0007FFAD0094A10215A60084A1160D0
:1014D0005A6842F002025A60034B5B6803F00C0347
:1014E000082BF9D1704700BF001002400064410092
:1014F000002002400000000000000000000000008A
:1015000010B5144C2046FFF723FC134A134BE2623C
:1015100042F28A522263124AA362916941F4007135
:10152000916100225A6001329A6008329A600B4B36
:101530009A6812F0080FFAD105229A60074B9A6850
:1015400012F00402FAD19A60054B9A6922F40072F3
:101550009A6110BDB80D00205034000800240140ED
:101560000010024000000000000000000000000029
:1015700038B503780446012B19D10D4DA84212D17C
:10158000C06A05210B4A2346FFF7DAFE10B10A486C
:10159000FEF7AEFFEB6A094A1B689A60084B9A692E
:1015A00042F400729A61A36A00225A609A6038BDC0
:1015B000B80D002051160008B03400084C2401403A
:1015C00000100240000000000000000000000000C9
:1015D000036930B51A68016B0AB141F02001C26895
:1015E0009C88012A84BF41F004015443C26A856883
:1015F0001268D56054601160116841F001011160FA
:101600001969826A41F4807151605969986941F49D
:10161000807141F003019160D060D8691061186A4F
:10162000D062586A9B6A10635363916030BD0000BA
:10163000C36A1A68116821F0010111605A681B7AA7
:101640000F2111FA03F31360836A00229A60704736
:1016500011F0080F38B504460D4621D0FFF7E8FF1A
:101660002369DB684BB10522002122702046984790
:101670002378052B01D1033B237000252561FEF75C
:10168000EFFDFEF7C5FF606928B14FF0FF336561DC
:101690008362FFF7A5F8FEF7A3FFFEF7E9FD38BD6B
:1016A00011F0040F06D003699B681BB1C268816802
:1016B0005208984715F0020F41D021690B688BB191
:1016C0008B68002B3BD0E268012A07D98D8852082D
:1016D0005543A168204601EB450101E0A168204681
:1016E000984738BD2046FFF7A3FF21698B68A3B157
:1016F00004222270E268012A07D98D8852085543D6
:10170000A168204601EB450101E0A1682046984709
:101710002378042B03D1023B00E002232370002531
:101720002561FEF79DFDFEF773FF606918B16561E5
:101730008562FFF755F8FEF753FFFEF799FD38BDB8
:1017400010B5FEF72DFF0748074B01225A61436889
:1017500000215B689847FEF703FFBDE81040FEF7E5
:101760008FBD00BFEC0D0020000401400000000010
:1017700010B5FEF715FF0748074B02225A61436870
:101780000121DB689847FEF7EBFEBDE81040FEF74D
:1017900077BD00BFEC0D00200004014000000000F8
:1017A00010B5FEF7FDFE0748074B04225A61436857
:1017B00002215B699847FEF7D3FEBDE81040FEF7B3
:1017C0005FBD00BFEC0D00200004014000000000E0
:1017D00010B5FEF7E5FE0748074B08225A6143683B
:1017E0000321DB699847FEF7BBFEBDE81040FEF71A
:1017F00047BD00BFEC0D00200004014000000000C8
:1018000010B5FEF7CDFE0748074B10225A6143681A
:1018100004215B6A9847FEF7A3FEBDE81040FEF77F
:101820002FBD00BFEC0D00200004014000000000AF
:1018300010B5FEF7B5FE194A536903F4787413F036
:10184000200F546104D0164805214368DB6A98478D
:1018500014F0400F04D01248062143685B6B984790
:1018600014F0800F04D00E4807214368DB6B9847C3
:1018700014F4807F04D00A48082143685B6C9847C1
:1018800014F4007F04D0064809214368DB6C9847B4
:10189000FEF766FEBDE81040FEF7F2BC0004014012
:1018A000EC0D00200000000000000000000000001F
:1018B00010B5FEF775FE1D4A536903F47C4413F41A
:1018C000806F546104D01A480A2143685B6D9847C1
:1018D00014F4006F04D016480B214368DB6D984761
:1018E00014F4805F04D012480C2143685B6E984763
:1018F00014F4005F04D00E480D214368DB6E984756
:1019000014F4804F04D00A480E2143685B6F984757
:1019100014F4004F04D006480F214368DB6F98474A
:10192000FEF71EFEBDE81040FEF7AABC0004014011
:10193000EC0D00200000000000000000000000008E
:1019400010B5FEF72DFE0848084B4FF480325A615F
:1019500043681021D3F884309847FEF701FEBDE8B4
:101960001040FEF78DBC00BFEC0D002000040140CC
:1019700010B5FEF715FE0848084B4FF480225A6157
:1019800043681221D3F894309847FEF7E9FDBDE88B
:101990001040FEF775BC00BFEC0D002000040140B4
:1019A0000148FFF76DBA00BFEC0D002000000000F9
:1019B0002DE9F04105780446012D27D1062060214C
:1019C000FEF7B6FC07206021FEF7B2FC082060217C
:1019D000FEF7AEFC09206021FEF7AAFC0A20602178
:1019E000FEF7A6FC17206021FEF7A2FC282060214C
:1019F000FEF79EFC28466021FEF79AFC2920602114
:101A0000FEF796FC2A206021FEF792FC0023616815
:101A10001D461E461C4618461A46CF5817F0040F9E
:101A200020D001EB030CDCF804804FF0010CB8F17E
:101A3000000F04D00CFA02FC40EA0C0003E00CFAA0
:101A400002FC44EA0C0417F0010F05D04FF0010C22
:101A50000CFA02FC46EA0C0617F0020F02D001272E
:101A600097403D4301320833132AD6D1B1F898206C
:101A70000A4B9A60B1F89A20DA60B1F89C201A619A
:101A8000B1F89E205A61064B00221A61054A9E60F9
:101A9000DD605A615C601860BDE8F08100000140C3
:101AA00000040140FFFF07000000000000000000EC
:101AB000426810B502EBC1035C680120104B24B1F1
:101AC00088401C682043186003E088405C6820431D
:101AD000586052F8313013F0010F05D001208840D2
:101AE000074A94682043906013F0020F06D001204B
:101AF00010FA01F1024BDA681143D96010BD00BF42
:101B00000004014000000000000000000000000090
:101B1000012010FA01F10A4B10B51A68CC4304EA0F
:101B200002021A605A6804EA02025A609A6804EAD9
:101B300002029A60DA681440DC60596110BD00BF8F
:101B40000004014000000000000000000000000050
:101B5000036B48F200021A8000221A809A809A824F
:101B6000C36A1A68116821F00101116059681B7A73
:101B70000F2212FA03F30B60836A1968086820F0D9
:101B80000100086059681B7A9A400A60704700009B
:101B900070B5C469054654B1FFF7DAFF0023EB6165
:101BA0002046013BA362BDE87040FEF719BE70BD40
:101BB00011F0080F38B50546046B01D0FEF710FB95
:101BC000EB6A1A68116821F0010111605A681B7AEA
:101BD0000F2111FA03F31360A3889BB243F400733F
:101BE000A38038BD000000000000000000000000DD
:101BF00011F0080F70B50446056B01D0FEF7F0FA3E
:101C0000A36A1A68116821F0010111605A681B7AF1
:101C10000F2111FA03F3136094F83460F6B9AB881E
:101C200023F480531B041B0CAB802B8823F48063AC
:101C30001B041B0C2B802B889BB243F400732B805E
:101C4000FEF70EFBFEF7E4FCE06918B1E661866280
:101C5000FEF7C6FDFEF7C4FCFEF70AFB70BD0000F0
:101C60002DE9F0415F4FFEF79BFC3C6B97F8342069
:101C7000238BA58A3E46ADB2002A69D145EA0343CB
:101C8000594A23F07F4393420ED003D8013A93423E
:101C900059D106E0554A934221D00232934252D1A3
:101CA0002AE03B8C23824EE0A38823F400731B04BC
:101CB0001B0CA380BB6A1B681A6842F001021A6001
:101CC000A28892B242F48052A2805B68012B3AD87B
:101CD000238823F480631B041B0C238033E0A38838
:101CE00023F400731B041B0CA380FB6A1B681A6897
:101CF00042F001021A6026E0BB6A1B685E684EB1C2
:101D00003B8C43F001033B8423889BB243F4A063E4
:101D1000238060E0A38823F400731B041B0CA380C2
:101D200023889BB243F400732380FEF799FAFEF7F1
:101D30006FFCF86918B1FE618662FEF751FDFEF78F
:101D40004FFCFEF795FA15F00A0F44D0238B42E0C2
:101D500015F00A0F05D00023A58A3B643B65238B51
:101D6000ADB215F0800F0CD0336DB26CD25C013384
:101D700022823365326CF36C9A4202D3194B0022F3
:101D80001A6515F0400F0BD0336C218AB26BD15419
:101D9000F26B01339342336402D3124B00221A6474
:101DA00015F0100F0AD0A58A2388ADB29BB243F07C
:101DB00001032380736C0BB10A48984715F4806FB8
:101DC00009D0A38A23F480631B041B0CA382736DC8
:101DD0000BB104489847FEF7C3FBBDE8F041FEF79E
:101DE0004FBA00BFF40D002002000300820007007C
:101DF00070B5534DFEF7D4FB2C6BFEF731FAFEF7AE
:101E000007FCEB6A1A68116821F00101116059683A
:101E10001B7A0F2212FA03F30B60AB6A1968086889
:101E200020F00100086059681B7A9A400A60FEF7AA
:101E3000D7FBFEF71DFAA68A16F4807606D0A38A91
:101E4000012623F480731B041B0CA382A38A13F4C2
:101E5000007F07D0A38A46F0020623F400731B0418
:101E60001B0CA38295F834303548BBB9A38A13F410
:101E7000806F1CD0A38A46F0040623F480631B0401
:101E80001B0CA382A38823F400731B041B0CA380E8
:101E900023889BB243F40073238008E0A38A23F4D1
:101EA00080631B041B0CA382436D03B19847A38A74
:101EB00013F4006F07D0A38A46F0080623F40063EA
:101EC0001B041B0CA382A38A13F4805F07D0A38A90
:101ED00046F0100623F480531B041B0CA382A38A34
:101EE00013F4804F07D0A38A46F0200623F48043E2
:101EF0001B041B0CA382A38A1BB2002B06DAA38A45
:101F000046F040065B045B0CA38200E096B1AE6035
:101F1000FEF7A6F9FEF77CFBE86938B1084B002212
:101F2000DA616FF001038362FEF75AFCFEF758FB9B
:101F3000FEF79EF9FEF714FBBDE87040FEF7A0B96E
:101F4000F40D002000000000000000000000000070
:101F500010B5064C2046FEF7F3FF0023E361044B67
:101F60002363044BA3620C3BE36210BDF40D00201D
:101F700000540040983400080000000000000000F9
:101F80008A232DE9F041436203780446012B056B57
:101F90002ED17C4EB0422BD17B4B806A1A690A212C
:101FA00042F400121A6100221A61784A2346FFF7B0
:101FB000C7F910B17648FEF79BFAF06A0A21754A14
:101FC000704BFFF7BDF910B17348FEF791FA6E4BF5
:101FD0001F20DA69A02142F40012DA61FEF7A8F9A5
:101FE0002020A021FEF7A4F9736A43F480537362A2
:101FF000E36A626A1B6842F010011960A16A276BEC
:1020000009680A6005F110028A609A6048F20003CC
:102010002B8000232B804FF41063AB8063685E68D5
:1020200093F80880002E02DD5C4B9E4202DD5C4886
:10203000FEF75EFABB8823F03F031B041B0CBB803A
:10204000BB889BB243F00803BB80564B9E4225DC05
:10205000B8F1010F02D05448FEF74AFA534A76000D
:1020600092FBF6F37343C3F5F40303F590539046E4
:1020700013B14F48FEF73CFA98FBF6F6B6B2032EC2
:1020800002D84C48FEF734FA09234FEA0658B6F551
:10209000805F4FEA18583B8446D248E0464B9E4248
:1020A0006DDCA8F10203DBB2012B03D94348FEF734
:1020B0001FFA5FE0B8F1020F12D13C4A06EB460668
:1020C00092FBF6F37343C3F5F40303F59053904684
:1020D00013B13B48FEF70CFA98FBF6F6B6B24BE0AC
:1020E000B8F1030F46D119235E43304A92FBF6F351
:1020F0007343C3F5F40303F59053904613B131488D
:10210000FEF7F6F998FBF6F6B6B216B92E48FEF7CA
:10211000EFF94FF4804836056FEA4848360D03233F
:1021200066EA58483B8402E02848FEF7E1F9626815
:10213000216BA7F81C8012780B88022A9BB208D06A
:10214000032A0DD0012A0DD123F00A031B041B0C16
:1021500008E043F002024FF6F77302EA030301E0DE
:1021600043F00A030B802B889BB243F001032B80C2
:10217000BDE8F08140F6FF764FF00008CBE74FF066
:102180000008D4E7F40D002000100240F11B000805
:10219000D0340008B11B0008E434000800093D00F9
:1021A000F8340008A08601000E35000800127A00FD
:1021B000263500083E350008801A0600563500080E
:1021C0006E350008863500089E350008B6350008D3
:1021D0002DE9F04F3F4F87B0149E9A46BB69B6F188
:1021E000FF3F044688469146056BC36105D001A8B0
:1021F0003146394A2346FEF793FAFEF721FAFEF7F5
:1022000037F80DE0FEF72CF8FEF732FAB6F1FF3F93
:1022100002D0049B002B55D0FEF712FAFEF728F8E7
:102220002B8B13F0020FEDD12B8813F4007FE9D133
:10223000FEF716F8FEF71CFAB6F1FF3F02D0049B3A
:10224000002B3FD0129B4FF0000B6364109B4FEAB2
:102250004808A364119BA4F82080E364139BC4F88E
:1022600008B06365012384F834302B88C4F83890B3
:1022700023F480731B041B0CC4F83CA0C4F840B0CA
:10228000C4F850B02B80AB8808F0FE0823F400633C
:102290001B041B0CAB80A5F80880AB88B6F1FF3F90
:1022A0009BB243F4C063AB802B889BB243F4806342
:1022B0002B80BB69E36109D0049B33B101A8FEF711
:1022C00057FA03E04FF0FF3B00E09B46584607B04B
:1022D000BDE8F08F300D0020911B000800000000C9
:1022E00038B503694FF6E0711A8A9D890446154096
:1022F00015F0020F198202D043681B69984715F048
:10230000040F03D0636820469B69984715F0080FB7
:1023100003D0636820461B6A984715F0100F03D05E
:10232000636820469B6A984715F0010F03D06368E5
:1023300020469B68984738BD000000000000000060
:1023400010B5FEF72DF90448FFF7CAFFFEF708F9AC
:10235000BDE81040FDF794BF4C0E002000000000C7
:1023600010B5FEF71DF90448FFF7BAFFFEF7F8F8BD
:10237000BDE81040FDF784BF600E002000000000A3
:1023800010B5FEF70DF90448FFF7AAFFFEF7E8F8CD
:10239000BDE81040FDF774BF740E0020000000007F
:1023A00010B50A4C2046FEF733FE4FF08043236100
:1023B000074C2046FEF72CFE064B2361064C2046B8
:1023C000FEF726FE054B236110BD00BF4C0E00201A
:1023D000600E002000040040740E00200008004041
:1023E00038B503780446012B39D14B4B98420CD1B8
:1023F0004A4B1C20DA6942F00102DA611A6942F0A4
:1024000001021A6100221A611EE0454B98420CD16C
:10241000424B1D20DA6942F00202DA611A6942F089
:1024200002021A6100221A610EE03E4B984210D15E
:102430003A4B1E20DA6942F00402DA611A6942F06E
:1024400004021A6100221A617021FDF771FF364BF8
:10245000E360236946F668021A839A8309E00369F8
:1024600000221A809A811A825A639A63DA631A6484
:102470005A626268E3681168B3FBF1F2551EB5F564
:10248000803F02D24A439A4202D02848FEF730F8F1
:10249000238922696168013B9BB21585D3628B8DCC
:1024A0009380CB6803F00F03012B02D0022B04D1E1
:1024B00000E0002343F0010300E00023486900F03E
:1024C0000F00012803D0022803D143F0200343F07A
:1024D0001003C86900F00F00012803D0022803D1BF
:1024E00043F4007343F48073486A00F00F0001283E
:1024F00003D0022803D143F4005343F480531384E0
:10250000012393828B68003B18BF01239381002332
:1025100013828523138038BD4C0E0020001002402A
:10252000600E0020740E00200024F4002036000805
:10253000036910B501F10C0403EB84046260426886
:1025400002EBC102126962B1022010FA01F19A890C
:1025500092B2114205D189B241EA0202C9439A817D
:10256000198210BD00000000000000000000000003
:10257000144B9A6942F07D029A610268124BDA604C
:1025800082685A6042681A60C268104BDA60426919
:102590005A6002691A6082690D4BDA60026A5A60F9
:1025A000C2691A60426A0B4BDA60C26A5A60826A78
:1025B0001A60026B084BDA60826B5A60426B1A60D9
:1025C000704700BF0010024000080140000C0140AD
:1025D00000100140001401400018014000000000FC
:1025E000032AF0B501D1016102E0042A08BF41616C
:1025F000124B08269F5C00231C461A461D461201FA
:102600002D011B01240111F0800F0CBF42F00F02BD
:102610003B4311F4004F0CBF45F00F053C43013E16
:1026200001D04900EBE741680D4045EA04044460ED
:1026300001680A4042EA03030360F0BD4036000827
:10264000FEF716BF000000000000000000000000C0
:1026500070470000000000000000000000000000C3
:1026600082B0002301E0019B01330193019B632BA6
:10267000F9DD02B07047000000000000000000001B
:102680002DE9F041154C4FF480514FF400684FF4A0
:1026900080674FF480764FF4007521612046C4F8BE
:1026A00014800622676126612561FFF799FF2046A5
:1026B00041460622FFF794FF204639460622FFF7DF
:1026C0008FFF204631460622FFF78AFF2046294623
:1026D0000622BDE8F041FFF783BF00BF00080140BC
:1026E000F8B507460F250123AB403B420E4B4FF494
:1026F00080720D4C14BF1A615A614FF40066FFF7E7
:10270000AFFF2661FFF7ACFF6661FFF7A9FF013D50
:10271000E9D24FF480652561FFF7A2FF4FF4007303
:1027200065616361F8BD00BF000801400000000062
:102730000A4B10F0010F1A6822F003021A601CBF46
:1027400042F001021A6010F0020F03D01A6842F042
:1027500002021A601868FFF7C3BF00BF880E00208E
:10276000284B10F0010F1A6822F47E6222F01C023E
:102770001A601CBF42F010021A6010F0020F03D062
:102780001A6842F020021A6010F0040F03D01A6891
:1027900042F040021A6010F0080F03D01A6842F0AD
:1027A00080021A6010F0100F03D01A6842F4807291
:1027B0001A6010F0200F03D01A6842F400721A60F9
:1027C00010F0400F03D01A6842F480621A6010F0D3
:1027D000800F03D01A6842F400621A601A6812F07F
:1027E000F00F03D0074942F004020A601A6812F49D
:1027F000706F03D0034942F008020A601868FFF7BF
:102800006FBF00BF880E0020000000000000000025
:1028100082B0002301E0019B01330193019B632BF4
:10282000F9DD02B070470000000000000000000069
:1028300070B502220F4C0F484FF48061FFF7D0FEB5
:102840004FF480564FF400514FF40065216120464B
:10285000266106222561FFF7C3FE20463146062287
:10286000FFF7BEFE204629460622BDE87040FFF76E
:10287000B7BE00BF000C01400000000000000000D7
:102880002DE9F041184C4FF400556561FFF7C0FF8A
:102890002561FFF7BDFF4FF480536361FFF7B8FF79
:1028A00000242546104E4FF400633361FFF7B0FF5C
:1028B000B36813F4806301D00123A3404FF4006890
:1028C000C6F814800134ED18FFF7A2FF082C064F5C
:1028D000E8D1C7F81080FFF79BFF4FF480533B61AE
:1028E0002846BDE8F08100BF000C01400000000058
:1028F0007047000000000000000000000000000021
:1029000038B5FDF7ADFCFDF783FE0D4D0D4A0023F4
:1029100013702B600AE00C4A0C48D15CFEF738F9C2
:102920000B4B186030B92368013323602B68044CCB
:10293000072BF0D9FDF754FEFDF79AFC38BD00BF18
:10294000B00E0020E40E0020B40E0020C00E0020C7
:10295000BC0E00200000000000000000000000008D
:1029600030B5254887B0254910220023244DFEF7B5
:10297000FFF819232348402111222B60FFF730FE76
:10298000204880211122FFF72BFE1E484FF4804182
:102990000222FFF725FE02221A484FF40041FFF7FA
:1029A0001FFE184B9A689C68920BE40B02F0010220
:1029B00004F00104002A0CBF02220122002C0CBFEB
:1029C00002240024A41810481049FEF7C1FA104A46
:1029D000104B0292104A009303922A680823049233
:1029E000094821460D4A0193FEF7DAFA0C4B1860AC
:1029F0000028E8D107B030BDC00E0020A00E002096
:102A0000EC0E0020000C0140F40D0020A036000860
:102A100001290008E40E0020F1280008B40E00206F
:102A2000980E0020000000000000000000000000E0
:102A300010B52D4C08224FF0FF332C482146FEF7ED
:102A4000CFF82B4B621C18602A4B1A602378013B8D
:102A5000072BEED8DFE803F004090E1321313744C9
:102A6000254B01221A705A70E3E76078FFF760FE89
:102A7000022220E06078FFF773FE03221BE0A078BB
:102A8000E37800021B04C0186378C01823791B0682
:102A9000C01800F0FDF804220DE0E1782379090266
:102AA0001B04C918A3786078C91863791B06C91874
:102AB00000F036F90522104B10E0FFF7E1FE0E4B57
:102AC000062258700AE0607800F06AF80B4B80B27A
:102AD0001880094B07225870000A98701A70A8E7EE
:102AE00000F0CEF9A5E700BF8C0E0020C00E00203C
:102AF000E00E00209C0E0020E40E0020940E00202A
:102B000000B500228DB0009201230292039204923C
:102B1000059206920790089209920A910DF12E02F1
:102B200069460448ADF80430FEF77AF9BDF82E0086
:102B30000DB000BDB80D0020000000000000000036
:102B400010B5022105221348FFF74AFD0421052292
:102B50001048FFF745FD082105220E48FFF740FD0C
:102B6000102105220B48FFF73BFD202105220948D3
:102B7000FFF736FD402105220648FFF731FD802191
:102B800004480522FFF72CFD03480021BDE8104052
:102B9000FEF7EEB800080140B80D0020000000006C
:102BA000013810B5052821D8DFE800F003070C1123
:102BB000161BC0200221FFF7A3FF4FF4C0600321C2
:102BC000FFF79EFF4FF440500421FFF799FF4FF4A9
:102BD000C0300521FFF794FF4FF440200621FFF796
:102BE0008FFF4FF4C0000721FFF78AFF1820012153
:102BF000BDE81040FFF784BF0000000000000000A7
:102C00001F4B10B55A68082122F0E06242F00072B2
:102C10005A605A681B4822F4407242F480725A602B
:102C20005A6822F4406242F400625A601022FFF7B0
:102C3000D7FC10210A461348FFF7D2FC20211022AE
:102C40001048FFF7CDFC10220E484FF48071FFF7BB
:102C5000C7FC10220B484FF40071FFF7C1FC0221A2
:102C600010220848FFF7BCFC012110220548FFF79D
:102C7000B7FC054801211022BDE81040FFF7B0BCA9
:102C800000000140000C014000080140000000006D
:102C90002DE9F0411A491B4F0024012506460F601B
:102CA00088808C60CD600C614D618C61CC610C6260
:102CB0004C628C628C851448FEF7B2F913491448B3
:102CC0000F608E808C60CD600C614D618C61CD6138
:102CD0000C624D628C628C85FEF7A2F90D490E489C
:102CE0000F608E808C60CC600C614C618C61CD611A
:102CF0000C624D628C628C85BDE8F041FEF790B9A4
:102D0000F00E002040420F004C0E0020200F00204B
:102D1000600E0020500F0020740E00200000000004
:102D200010F0010F70B505460C460AD0374842F244
:102D3000107302894A43B2FBF3F2012192B2FEF70B
:102D400097F915F0020F0AD0314842F21073028948
:102D500000216243B2FBF3F292B2FEF789F915F05B
:102D6000040F0AD02A4842F21073028901216243FB
:102D7000B2FBF3F292B2FEF77BF915F0080F0AD01E
:102D8000244842F21073028902216243B2FBF3F23B
:102D900092B2FEF76DF915F0100F0AD01D4842F2FD
:102DA0001073028903216243B2FBF3F292B2FEF781
:102DB0005FF915F0200F0AD0154842F2107302890E
:102DC00003216243B2FBF3F292B2FEF751F915F020
:102DD000400F0AD00E4842F210730289022162436A
:102DE000B2FBF3F292B2FEF743F915F0800F0CD06C
:102DF000064842F21073028900215443B4FBF3F2F7
:102E000092B2BDE87040FEF733B970BD4C0E0020A1
:102E1000600E0020740E0020000000000000000082
:102E200008B5FDF71DFAFDF7F3FBFEF721FB04489B
:102E30000E21FEF76DFEFDF7D3FBFDF719FA08BD75
:102E4000EC0D002000000000000000000000000069
:102E500010B506480649FEF71BF806484FF48041B6
:102E60000222BDE81040FFF7BBBB00BFEC0D002005
:102E7000B036000800100140000000000000000013
:102E800008B50A480E21FEF72BF8094B1A6842F0E4
:102E90000D021A601A6822F002021A60054B1A69C4
:102EA00042F004021A6130BF08BD00BFEC0D0020E3
:102EB0000070004000ED00E0000000000000000095
:102EC00008B5FDF725FFFDF783FAFFF7B1FCFFF723
:102ED000D7FBFFF735FEFFF793FEFFF7B9FFFFF7CC
:102EE0003FFDFFF7A5FD002008BD00000000000029
:102EF00069646C65006D61696E000000000000008F
:102F00005356233131005356233130005356233961
:102F100000535623380053562337005356233600A8
:102F2000535623350053562334005356233300534E
:102F300056233200535623310000000000000000E9
:102F40002263685654536574492228290022636815
:102F50005654526573657449222829006368565493
:102F600052657365744928292C2023310000000024
:102F7000636853636852656164794928292C20236A
:102F80003100737461636B206F766572666C6F7766
:102F90000000000000000000000000000000000031
:102FA0002263685468644372656174654922282904
:102FB000002263685468645365745072696F726963
:102FC0007479222829006368546864526573756DAA
:102FD0006528292C20233100226368546864536CCF
:102FE00065657022282900636854686445786974AF
:102FF0005328292C202331002263685468645761C8
:1030000069742228290063685468645761697428C8
:10301000292C20233100636854686457616974283F
:10302000292C2023320000000000000000000000D6
:103030002263684D7478496E6974222829002263DE
:10304000684D74784C6F636B532228290063684D78
:1030500074784C6F636B5328292C202331006368EC
:103060004D74784C6F636B5328292C202332002237
:1030700063684D74785472794C6F636B53222829BE
:103080000063684D7478556E6C6F636B28292C2033
:1030900023310063684D7478556E6C6F636B28291B
:1030A0002C2023320063684D7478556E6C6F636B0F
:1030B0005328292C2023310063684D7478556E6C99
:1030C0006F636B5328292C2023320000000000007E
:1030D00022636849515265616454696D656F757406
:1030E000222829002263684F515772697465546918
:1030F0006D656F7574222829000000000000000033
:1031000022616463537461727422282900616463CC
:10311000537461727428292C202331002261646366
:1031200053746F702228290061646353746F702890
:10313000292C20233100226164635374617274432B
:103140006F6E76657273696F6E492228290061641B
:10315000635374617274436F6E76657273696F6ED8
:103160004928292C202331002261646353746F7035
:10317000436F6E76657273696F6E222829006164F1
:103180006353746F70436F6E76657273696F6E28E8
:10319000292C202331002261646353746F70436FC4
:1031A0006E76657273696F6E4922282900616463C7
:1031B00053746F70436F6E76657273696F6E4928D2
:1031C000292C20233100616463436F6E766572742D
:1031D00028292C20233100226164634163717569C1
:1031E0007265427573222829002261646352656CFE
:1031F0006561736542757322282900000000000094
:103200002265787453746172742228290065787479
:10321000537461727428292C20233100226578743C
:1032200053746F702228290065787453746F702866
:10323000292C20233100226578744368616E6E6505
:103240006C456E61626C652228290065787443685C
:10325000616E6E656C456E61626C6528292C202359
:103260003100226578744368616E6E656C446973E1
:1032700061626C65222829006578744368616E6E0E
:10328000656C44697361626C6528292C20233100C8
:10329000226932635374617274222829006932638F
:1032A000537461727428292C2023310022693263FF
:1032B00053746F702228290069326353746F702829
:1032C000292C2023310022693263476574457272CC
:1032D0006F727322282900226932634D617374650D
:1032E000725472616E736D697454696D656F757433
:1032F000222829006932634D6173746572547261CA
:103300006E736D697454696D656F757428292C200E
:10331000233100226932634D6173746572526563B3
:103320006569766554696D656F7574222829006931
:1033300032634D61737465725265636569766528A1
:10334000292C20233100226932634163717569722F
:1033500065427573222829002269326352656C65C3
:103360006173654275732228290000000000000087
:103370002270776D53746172742228290070776D02
:10338000537461727428292C202331002270776DC8
:1033900053746F702228290070776D53746F7028F2
:1033A000292C202331002270776D4368616E676598
:1033B000506572696F642228290070776D436861D7
:1033C0006E6765506572696F6428292C202331006F
:1033D0002270776D456E61626C654368616E6E65E3
:1033E0006C2228290070776D456E61626C654368B8
:1033F000616E6E656C28292C2023310070776D4436
:10340000697361626C654368616E6E656C28292C16
:103410002023310000000000000000000000000038
:1034200022646D61416C6C6F6361746522282900B0
:1034300022646D6152656C656173652228290064A0
:103440006D6152656C6561736528292C20233100FC
:10345000080002400400024000000B001C00024073
:103460000400024004010C0030000240040002404D
:1034700008020D0044000240040002400C030E004C
:10348000580002400400024010040F006C0002408B
:1034900004000240140510008000024004000240B5
:1034A00018061100000000000000000000000000ED
:1034B0006164635F6C6C645F737461727428292C3F
:1034C0002023310000000000000000000000000088
:1034D0006932635F6C6C645F737461727428292C49
:1034E000202331006932635F6C6C645F73746172B6
:1034F0007428292C20233200226932635F6C6C64AB
:103500005F7365745F636C6F636B22282900693297
:10351000635F6C6C645F7365745F636C6F636B286F
:10352000292C202331006932635F6C6C645F736502
:10353000745F636C6F636B28292C2023320069321F
:10354000635F6C6C645F7365745F636C6F636B283F
:10355000292C202333006932635F6C6C645F7365D0
:10356000745F636C6F636B28292C202334006932ED
:10357000635F6C6C645F7365745F636C6F636B280F
:10358000292C202335006932635F6C6C645F73659E
:10359000745F636C6F636B28292C202336006932BB
:1035A000635F6C6C645F7365745F636C6F636B28DF
:1035B000292C202337006932635F6C6C645F73656C
:1035C000745F636C6F636B28292C20233800226999
:1035D00032635F6C6C645F6D61737465725F72659A
:1035E00063656976655F74696D656F7574222829F6
:1035F00000226932635F6C6C645F6D617374657225
:103600005F7472616E736D69745F74696D656F75F7
:1036100074222829000000000000000000000000C3
:1036200070776D5F6C6C645F737461727428292CA1
:103630002023310000000000000000000000000016
:103640000402040808000307080808080808080816
:103650000B0F000000000000000000000000000050
:10366000FFFFFFFF4444444444444444FFFFFFFF42
:103670004444444444444444FFFFFFFF444444441E
:1036800044444444FFFFFFFF44444444444444440E
:10369000FFFFFFFF888888888888888800000000EE
:1036A00001000000A08601000100000000000000F1
:1036B000000000000000000000000000000000000A
:1036C00000000000000000000000000000000000FA
:1036D00000000000000000000000000000000000EA
:1036E00000000000000000000000000000000000DA
:1036F00000000000000000000000000000000000CA
:1037000000000000000000000000000000000000B9
:1037100000000000000000000000000000000000A9
:1037200002000000212E0008000000000000000040
:103730000000000000000000000000000000000089
:103740000000000000000000000000000000000277
:04000005080000F0FF
:00000001FF
