:020000040800F2
:10000000000400204101000801020008010200086C
:1000100001020008010200080102000801020008B4
:100020000102000801020008010200085102000854
:100030000102000801020008010200082102000874
:10004000010200086119000801020008010200080D
:10005000010200080102000801170008311700081A
:100060006117000891170008C11700082112000845
:1000700071120008C1120008111300086113000872
:10008000B113000801140008010200080102000871
:10009000010200080102000801020008F11700082F
:1000A0000102000801020008010200080102000824
:1000B000A11F0008C11F0008E11F0008711E0008F1
:1000C000911E000801020008010200080102000858
:1000D00001020008010200080102000801020008F4
:0C00E000A1180008010200089119000896
:1000F000704700BFAFF30080AFF30080AFF3008024
:10010000FEE700BFAFF30080AFF30080AFF30080E5
:1001100084B003900291019206E0039B019A1A6059
:10012000039B03F104030393039A029B9A42F4D3C3
:1001300004B07047AFF30080AFF30080AFF30080EE
:1001400072B6204C84F309884FF0020484F31488BB
:10015000BFF36F8F02F03CF81B481C494FF055323B
:10016000FFF7D6FF1A4817494FF05532FFF7D0FF77
:10017000184D194C05E02B68236004F1040405F1C7
:100180000405164B9C42F6D3154816494FF0000261
:10019000FFF7BEFFFFF7ACFF134C03E0236898475F
:1001A00004F10404114B9C42F8D302F0E9F8104C1E
:1001B00003E02368984704F104040E4B9C42F8D3F3
:1001C000FFF79EFF00080020000000200004002030
:1001D00000040020A02600080008002000080020DD
:1001E000000800208C0E0020EC000008EC00000845
:1001F000EC000008EC000008AFF30080AFF30080D3
:10020000FEE700BFAFF30080AFF30080AFF30080E4
:1002100072B6FEE7AFF30080AFF30080AFF300806B
:1002200008B500F0F5F900F043F800F0C1F900F06E
:1002300037F900F0D5F900F043F800F009FA00F0C2
:1002400047F808BDAFF30080AFF30080AFF3008044
:1002500010B582B0EFF309840194019B03F12003F0
:100260000193019B83F3098800F02AF802B010BDC6
:1002700008B50D4B4FF000029A600B4B0B4ADA6049
:100280004FF007004FF0100100F082F84FF00A0025
:100290004FF4007100F07CF84FF00B004FF080013C
:1002A00000F076F808BD00BF00ED00E00000FA05A0
:1002B0004FF0200383F31188704700BFAFF3008035
:1002C0004FF0000383F31188704700BFAFF3008045
:1002D00010B582B0FFF7ECFF134B5B6803F40063CB
:1002E000002B1DD0EFF309840194019BA3F120039F
:1002F0000193019B83F30988019B4FF08072DA61BF
:100300000A4B1B689A68094B9B699B689A4203D900
:10031000019B074A9A6105E0019B064A9A6101E048
:10032000FFF7CEFF02B010BD00ED00E0300D002061
:10033000410300084C030008AFF30080AFF30080D6
:1003400000F006F900F03CFC00F01AF900DF00BFF5
:1003500003460A462DE9F04FC2F80CD0D3F80CD072
:10036000BDE8F08FAFF30080AFF30080AFF3008003
:1003700008B500F005F9FFF7A3FF2846A04700F0F5
:100380004FFD08BDAFF30080AFF30080AFF30080F6
:1003900010B485B001900091019B03F003034FEA74
:1003A000C3030393104B019A4FEA92020E4901983E
:1003B0004FEA900000F1060051F8200003994FF039
:1003C000FF0404FA01F16FEA010108400399009C5F
:1003D00004FA01F140EA010102F1060243F8221099
:1003E00005B010BC704700BF00ED00E0AFF3008027
:1003F00082B00190024B9B69024A9A61FEE700BFFE
:10040000300D0020B0230008AFF30080AFF3008070
:1004100000B583B0FFF72CFF00F09AFA00F0F8F96E
:1004200000F06EFD00F0CCFD00F062F914484FF0D2
:10043000400100F0F5FB0246124B9A61114B9B699B
:100440004FF0010283F820200E4B9B690E4ADA61BF
:1004500000F066F84FF0000383F3118862B6094B91
:100460009B690A4A9A610A4B4FF0000200920948C0
:100470004FF0C0014FF0010200F07AFC03B000BD64
:10048000C0080020300D002000040020B823000820
:10049000F103000800080020AFF30080AFF30080F4
:1004A00000B583B000F0F4F81A4B9B695A6A02F168
:1004B00001025A62184BDB6803F10102164BDA6045
:1004C000154B1B681A46144B9A4221D0124B1B68DD
:1004D0009A6802F1FF329A6013E0019BDB68009397
:1004E000019B4FF00002DA60019B1B680A4A5A60C8
:1004F000019B1A68084B1A60019B1A69009B104601
:100500009847054B1B680193019B9B68002BE4D027
:1005100003B000BD300D0020200D0020AFF300809F
:1005200008B5064B1B68002B03D1054B1B68002B3D
:1005300002D0044800F024F908BD00BF0C090020D7
:1005400010090020D0230008AFF30080AFF3008033
:1005500008B5084B1B68002B03D1074B1B68002B09
:1005600002D0064800F00CF9034B4FF001021A606C
:1005700008BD00BF0C09002010090020D823000886
:1005800008B5084B1B68002B03D1074B1B68002BD9
:1005900002DC064800F0F4F8034B4FF000021A604A
:1005A00008BD00BF0C09002010090020E02300084E
:1005B00008B5084B1B68002B03DD074B1B68002B9D
:1005C00002D0064800F0DCF8034B4FF001021A603D
:1005D00008BD00BF0C09002010090020E823000816
:1005E00008B5084B1B68002B03DD074B1B68002B6D
:1005F00002DC064800F0C4F8034B4FF000021A601A
:1006000008BD00BF0C09002010090020F0230008DD
:1006100008B5FFF74DFE0A4B1B68002B03DB094BA7
:100620001B68002B02D0084800F0AAF8044B1B6896
:1006300003F10102024B1A60FFF742FE08BD00BF42
:100640000C09002010090020F8230008AFF30080F7
:1006500008B5FFF72DFE0A4B1B68002B03DD094B85
:100660001B68002B02D0084800F08AF8044B1B6876
:1006700003F1FF32024B1A60FFF722FE08BD00BFF4
:100680000C0900201009002000240008AFF30080AE
:1006900008B5064B1B68002B03DB054B1B68002BC2
:1006A00002DC044800F06CF808BD00BF0C09002013
:1006B0001009002008240008AFF30080AFF3008089
:1006C00008B5064B1B68002B03D1054B1B68002B9C
:1006D00002DC044800F054F808BD00BF0C090020FB
:1006E0001009002010240008AFF30080AFF3008051
:1006F000034B4FF040021A60014B024A5A607047A8
:10070000140900201C090020AFF30080AFF3008023
:1007100082B00190124B5B68124AD2681A60104B8B
:100720005B68114A92695A600D4B5B68019A926A44
:100730009A600B4B5B68019A92F820201A73084B61
:100740005B6803F11002064B5A60054B5A68074B71
:100750009A4202D3024B064A5A6002B0704700BF69
:1007600014090020200D0020300D00201C0D002059
:100770001C090020AFF30080AFF30080AFF30080CE
:1007800000B583B00190034B019A1A60FFF740FD5A
:1007900003B000BD1C0D0020AFF30080AFF300805C
:1007A00084B00190019B1B680393039B1A68019B13
:1007B0001A60019B1B68019A5A60039B184604B09B
:1007C000704700BFAFF30080AFF30080AFF300804D
:1007D00082B00190019B5B68019A12681A60019BCC
:1007E0001B68019A52685A60019B184602B0704714
:1007F00084B00190019B1B680393039B1A68019BC3
:100800001A60039B184604B0704700BFAFF3008026
:10081000074A074B5A60064B5A68054B1A60044B4F
:100820004FF0FF329A60024B4FF00002DA607047DF
:10083000200D0020AFF30080AFF30080AFF3008005
:1008400000B587B00390029101920093FFF720FF5B
:10085000039B002B05D0019B002B02D0029B002B99
:1008600002D11C48FFF78CFF039B009A1A61039B7F
:10087000019ADA60184B1B68059307E0059B9B689B
:10088000029AD31A0293059B1B680593059B9A68ED
:10089000029B9A42F2D3039B059A1A60039B1B6842
:1008A0005A68039B5A60039B5B68059A03995160E1
:1008B000059A52681A60039B029A9A60059A064B41
:1008C0009A4205D0059B9A68029BD21A059B9A60B2
:1008D00007B000BD20240008200D0020AFF30080E9
:1008E00000B583B00190FFF7D3FE019B002B02D12E
:1008F0001348FFF745FF019BDB68002B02D111482D
:10090000FFF73EFF019B1A680F4B9A4208D0019BEC
:100910001B68019A12689168019A92688A189A6015
:10092000019B5B68019A12681A60019B1B68019A1F
:1009300052685A60019B4FF00002DA6003B000BDBC
:100940003024000840240008200D0020AFF3008070
:10095000094A094B5A60084B5A68074B1A60064B04
:100960004FF000029A60044A034B5A61024B5A69E5
:10097000014B1A61704700BF300D0020AFF30080BB
:1009800000B585B00190019B93F82030002B04D076
:10099000019B93F820300E2B02D11348FFF7F0FE95
:1009A000019B4FF0000283F82020104B0393039B20
:1009B0001B680393039B9A68019B9B689A42F6D23B
:1009C000019B039A1A60039B5A68019B5A60019B22
:1009D0005B68039A01995160039A52681A60019BFF
:1009E000184605B000BD00BF60240008300D00208F
:1009F00000B585B003468DF80730FFF761FE144B54
:100A00009B690393039B9DF8072083F820201048DF
:100A1000FFF7C6FE02460E4B9A610D4B9B694FF0E5
:100A2000010283F820200398FFF772FE6B46A3F1C2
:100A30002402039BDB699A4202D20648FFF7A0FE1C
:100A4000034B9B6918460399FFF782FC05B000BD74
:100A5000300D002074240008AFF30080AFF3008055
:100A600000B585B00190019B0393039B93F8203060
:100A70000D2B28D801A252F823F000BFD70A000896
:100A8000C70A0008C70A0008B50A0008C70A000814
:100A9000C10A0008C70A0008C70A0008C70A0008F8
:100AA000C70A0008C70A0008C70A0008C70A0008E2
:100AB000C10A0008039B9B6A9A6802F101029A60CE
:100AC0000398FFF785FE039B4FF0FF329A6203986D
:100AD000FFF756FF00E000BF05B000BDAFF3008098
:100AE00000B589B0034600918DF80730FFF7E8FDA7
:100AF000009BB3F1FF3F14D00F4B9B6903AA104634
:100B000000990E4AFFF79CFE9DF807301846FFF744
:100B10006FFF069B002B09D003AB1846FFF7E0FEE2
:100B200004E09DF807301846FFF762FF024B9B690F
:100B30009B6A184609B000BD300D0020610A00080C
:100B400000B585B001900091FFF7BAFD019B009AB6
:100B50009A62019B9A68154B9B699B689A4203D8DD
:100B60000198FFF70DFF1EE0104B9B691846FFF739
:100B700007FF03900D4B019A9A61019B4FF0010210
:100B800083F820200398FFF7C3FD6B46A3F12402EE
:100B9000039BDB699A4202D20548FFF7F1FD0198F9
:100BA0000399FFF7D5FB05B000BD00BF300D002055
:100BB00074240008AFF30080AFF30080AFF300802F
:100BC00000B583B0134B9B6901931248FFF7E8FD12
:100BD0000246104B9A610F4B9B694FF0010283F85C
:100BE00020200198FFF7CCFE0198FFF791FD6B469E
:100BF000A3F12402019BDB699A4202D20648FFF767
:100C0000BFFD044B9B6918460199FFF7A1FB03B098
:100C100000BD00BF300D002074240008AFF3008039
:100C200082B001900091019B009A9A60019B4FF065
:100C3000020283F82020019B4FF0000283F821205C
:100C4000019B009A5A64019B4FF000021A64019BB9
:100C50004FF00002DA63019B4FF000025A62019BE1
:100C60004FF0010283F82220019B4FF000029A61AD
:100C7000134A019B1A61124B5A69019B5A61019BED
:100C80005B690F4A019951610D4A52691A61019BD2
:100C900003F12C031A46019BDA62019B03F1300336
:100CA0001A46019B5A63019B5A6B019B1A63019B75
:100CB00003F14C02019BDA61019B184602B07047B8
:100CC000300D0020AFF30080AFF30080AFF3008061
:100CD00084B00390029113468DF8073007E0039B20
:100CE0009DF807201A70039B03F101030393039AF5
:100CF000029B9A42F3D304B0704700BFAFF3008069
:100D000000B587B00390029101920093039B059375
:100D1000FFF7BEFC039B002B08D0029BAF2B05D92D
:100D2000019B7F2B02D8009B002B02D10E48FFF7BE
:100D300027FD039A029BA3F12403D218059BDA60D6
:100D4000059BDB68009A1A60059BDB68089A5A606D
:100D5000059BDB68054A1A6205980199FFF760FF59
:100D60000346184607B000BD902400087103000830
:100D700000B589B00590049103920293059A059BF2
:100D800003F14C03104619464FF0FF02FFF7A0FF96
:100D9000059B03F14C020599049BCB18104619469C
:100DA0004FF05502FFF794FFFFF782FAFFF7D0FBF1
:100DB0000A9B009305980499039A029BFFF7A0FFF2
:100DC000079007984FF00001FFF7BAFEFFF7D8FB36
:100DD000FFF776FA079B184609B000BDAFF3008015
:100DE00000B583B00190019B002B02D10848FFF7AA
:100DF000C7FCFFF75DFAFFF7ABFB4FF00600019968
:100E0000FFF76EFEFFF7BCFBFFF75AFA03B000BD19
:100E1000D0240008AFF30080AFF30080AFF3008070
:100E200000B583B00190FFF743FAFFF791FB0198FB
:100E300000F006F803B000BDAFF30080AFF3008010
:100E400000B585B00190194B9B690393039B019AF0
:100E50009A6209E0039B03F12C031846FFF7C8FCD4
:100E600003461846FFF78CFD039BDA6A039B03F1E8
:100E70002C039A42EED1039B93F8213003F0030335
:100E8000002B09D1039B5B69039A12691A61039BCA
:100E90001B69039A52695A614FF00E00FFF7A8FDD3
:100EA0000348FFF76DFC05B000BD00BF300D00200A
:100EB000E0240008AFF30080AFF30080AFF30080C0
:100EC00000B583B00190019B002B02D10848FFF7C9
:100ED00057FC019B1A46019B5A60019B5A68019B73
:100EE0001A60019B4FF000029A6003B000BD00BF82
:100EF00030250008AFF30080AFF30080AFF300802F
:100F0000074B03F1070323F007031A46054B1A604A
:100F1000054B23F007031A46044B1A60704700BFC5
:100F20008C0E00204C0D002000500020500D0020A1
:100F300000B585B00190FFF7BBF9FFF709FB0198F9
:100F400000F00EF80390FFF71BFBFFF7B9F9039BC6
:100F5000184605B000BD00BFAFF30080AFF30080BE
:100F600000B585B00190FFF793FB019B03F10703E8
:100F700023F0070301930D4B1B681A460C4B1B68AB
:100F8000D31A1A46019B9A4202D24FF0000309E09D
:100F9000074B1B680393064B1A68019BD218044B3E
:100FA0001A60039B184605B000BD00BF500D00201D
:100FB0004C0D0020AFF30080AFF30080AFF3008052
:100FC00008B5074B074A1A60054B4FF000029A60BC
:100FD000034B4FF00002DA600348FFF771FF08BDD2
:100FE000580D0020310F0008680D0020AFF300807D
:100FF00008B500F095FA00F0D3F8074801F020F8A2
:1010000000F00EF800F03CF800F052F800F070F834
:1010100001F0E6F808BD00BF60260008AFF30080CD
:1010200008B500F025FB08BDAFF30080AFF30080EA
:1010300000B583B00190019B4FF001021A70019B33
:101040004FF000025A60019B4FF000029A60019B32
:101050004FF00002DA60019B4FF000021A61019B21
:101060004FF000025A61019B03F118031846FFF785
:1010700027FF03B000BD00BFAFF30080AFF30080D7
:1010800008B500F09DFC08BDAFF30080AFF3008011
:1010900082B00190019B4FF001021A70019B4FF04A
:1010A00000025A6002B07047AFF30080AFF30080D7
:1010B00008B500F0FDFE08BDAFF30080AFF300807F
:1010C00000B583B00190019B4FF001021A70019BA3
:1010D0004FF000025A60019B03F10C031846FFF722
:1010E000EFFE03B000BD00BFAFF30080AFF30080A0
:1010F00008B500F085FF08BDAFF30080AFF30080B6
:1011000082B00190019B4FF001021A70019B4FF0D9
:1011100000025A6002B07047AFF30080AFF3008066
:1011200082B00190024B5A68019B9A6002B07047EE
:10113000001000E0AFF30080AFF30080AFF3008059
:1011400084B00190114B5B680393019B9B68039AE9
:10115000D21A0F4B1B68D21A019B9A60019B9A68A6
:10116000019BDB689A4204D9019B9A68019BDA6073
:1011700009E0019B9A68019B1B699A4203D2019B7B
:101180009A68019B1A6104B0704700BF001000E02C
:10119000780D0020AFF30080AFF30080AFF3008044
:1011A00000B587B00A4B4FF000021A6001AB184639
:1011B00000F016F8019B01AA10469847029B01AA6D
:1011C00010469847039A024B1A6007B000BD00BF53
:1011D000780D0020AFF30080AFF30080AFF3008004
:1011E00082B00190019B094A1A60019B084A5A602B
:1011F000019B4FF000029A60019B4FF00002DA6001
:10120000019B4FF0FF321A6102B0704721110008B4
:1012100041110008AFF30080AFF30080AFF300800E
:1012200000B583B0FFF7F4F90C4B1B6803F00F0314
:1012300001930A4B4FF00F025A60094B1B68002BB9
:1012400006D0074B1B68064A52681046019998471A
:10125000FFF7FEF9FFF73CF803B000BD00000240C5
:10126000800D0020AFF30080AFF30080AFF300806B
:1012700000B583B0FFF7CCF90D4B1B684FEA131391
:1012800003F00F0301930A4B4FF0F0025A60094B31
:101290009B68002B06D0074B9B68064AD268104615
:1012A00001999847FFF7D4F9FFF712F803B000BD92
:1012B00000000240800D0020AFF30080AFF30080FB
:1012C00000B583B0FFF7A4F90D4B1B684FEA132359
:1012D00003F00F0301930A4B4FF470625A60094BFD
:1012E0001B69002B06D0074B1B69064A5269104642
:1012F00001999847FFF7ACF9FEF7EAFF03B000BD8C
:1013000000000240800D0020AFF30080AFF30080AA
:1013100000B583B0FFF77CF90D4B1B684FEA133320
:1013200003F00F0301930A4B4FF470425A60094BCC
:101330009B69002B06D0074B9B69064AD269104671
:1013400001999847FFF784F9FEF7C2FF03B000BD8B
:1013500000000240800D0020AFF30080AFF300805A
:1013600000B583B0FFF754F90D4B1B684FEA1343E8
:1013700003F00F0301930A4B4FF470225A60094B9C
:101380001B6A002B06D0074B1B6A064A526A10469E
:1013900001999847FFF75CF9FEF79AFF03B000BD8B
:1013A00000000240800D0020AFF30080AFF300800A
:1013B00000B583B0FFF72CF90D4B1B684FEA1353B0
:1013C00003F00F0301930A4B4FF470025A60094B6C
:1013D0009B6A002B06D0074B9B6A064AD26A1046CE
:1013E00001999847FFF734F9FEF772FF03B000BD8B
:1013F00000000240800D0020AFF30080AFF30080BA
:1014000000B583B0FFF704F90D4B1B684FEA136377
:1014100003F00F0301930A4B4FF070625A60094BBF
:101420001B6B002B06D0074B1B6B064A526B1046FA
:1014300001999847FFF70CF9FEF74AFF03B000BD8A
:1014400000000240800D0020AFF30080AFF3008069
:1014500082B0144B4FF000021A604FF0000301936A
:1014600016E01149019A13464FEA43039B184FEACD
:101470008303CB181B684FF000021A600B4B019AD4
:101480004FF0000143F83210019B03F10103019377
:10149000019B062BE5DD064B4FF0FF325A6002B090
:1014A000704700BF7C0D0020E0250008800D002063
:1014B00000000240AFF30080AFF30080AFF3008084
:1014C000134B134A126842F480721A60114B1B6A64
:1014D00003F44073B3F5407F07D00E4B4FF48032D6
:1014E0001A620C4B4FF000021A620A4B1B6A03F49B
:1014F0000043002B0BD1074B064A126A42F440729C
:101500001A62044B034A126A42F400421A6270479C
:101510000070004000100240AFF30080AFF3008085
:1015200008B51E4B1B691D4B4FF0FF321A611B4B58
:101530004FF000021A61194BDB68184B4FF0FF3275
:10154000DA60164B4FF00002DA60154B154A5A600C
:10155000134B4FF000029A60114B4FF007021A60D4
:10156000114B114AD26842F08072DA600F4B0F4A79
:10157000126842F001021A60084B084AD26942F030
:101580008052DA61054B054AD26942F00062DA61A5
:10159000FFF796FFFFF75CFF08BD00BF0010024099
:1015A00010E000E0FFE10400F0ED00E0001000E0DA
:1015B000294B294A126842F001021A6000BF264BEB
:1015C0001B6803F00203002BF9D0234B224A126858
:1015D00002F0F9021A60204B4FF000025A6000BF7F
:1015E0001D4B5B6803F00C03002BF9D11A4B1A4A10
:1015F000126842F480321A6000BF174B1B6803F474
:101600000033002BF9D0144B134A526842F4803255
:101610005A60114B104A126842F080721A6000BF83
:101620000D4B1B6803F00073002BF9D00A4B0B4ADB
:101630005A600B4B4FF010021A60074B064A526873
:1016400042F002025A6000BF034B5B6803F00C03D8
:10165000082BF9D1704700BF001002400064410020
:1016600000200240AFF30080AFF30080AFF30080B2
:1016700008B51E48FFF7DCFC1C4B1D4A9A621B4B49
:101680001C4ADA62194B42F28A521A631A4B1A4AFE
:10169000926942F400729A61154B4FF000025A6051
:1016A000134B4FF001029A60114B4FF009029A6000
:1016B00000BF0F4B9B6803F00803002BF9D10C4BC4
:1016C0004FF005029A6000BF094B9B6803F00403CA
:1016D000002BF9D1064B4FF000029A60064B064AE8
:1016E000926922F400729A6108BD00BFB80D002013
:1016F00000240140E025000800100240AFF3008004
:1017000008B5FEF785FF084B4FF001025A61074B01
:101710005B685B6805484FF000019847FEF798FF4B
:10172000FEF7D6FD08BD00BF00040140EC0D00200F
:1017300008B5FEF76DFF084B4FF002025A61074BE8
:101740005B68DB6805484FF001019847FEF780FFB2
:10175000FEF7BEFD08BD00BF00040140EC0D0020F7
:1017600008B5FEF755FF084B4FF004025A61074BCE
:101770005B685B6905484FF002019847FEF768FF18
:10178000FEF7A6FD08BD00BF00040140EC0D0020DF
:1017900008B5FEF73DFF084B4FF008025A61074BB2
:1017A0005B68DB6905484FF003019847FEF750FF7F
:1017B000FEF78EFD08BD00BF00040140EC0D0020C7
:1017C00008B5FEF725FF084B4FF010025A61074B92
:1017D0005B685B6A05484FF004019847FEF738FFE5
:1017E000FEF776FD08BD00BF00040140EC0D0020AF
:1017F00000B583B0FEF70CFF244B5B6903F47873EC
:101800000193224B019A5A61019B03F02003002BA4
:1018100006D01F4B5B68DB6A1D484FF005019847F7
:10182000019B03F04003002B06D0194B5B685B6BF8
:1018300017484FF006019847019B03F08003002BE7
:1018400006D0134B5B68DB6B11484FF007019847DC
:10185000019B03F48073002B06D00D4B5B685B6C1F
:101860000B484FF008019847019B03F40073002BCD
:1018700006D0074B5B68DB6C05484FF009019847C1
:10188000FEF7E6FEFEF724FD03B000BD00040140B4
:10189000EC0D0020AFF30080AFF30080AFF30080C9
:1018A00000B583B0FEF7B4FE2A4B5B6903F47C43BA
:1018B0000193284B019A5A61019B03F48063002B2A
:1018C00006D0254B5B685B6D23484FF00A019847B3
:1018D000019B03F40063002B06D01F4B5B68DB6D9C
:1018E0001D484FF00B019847019B03F48053002BD8
:1018F00006D0194B5B685B6E17484FF00C01984798
:10190000019B03F40053002B06D0134B5B68DB6E86
:1019100011484FF00D019847019B03F48043002BC1
:1019200006D00D4B5B685B6F0B484FF00E0198477C
:10193000019B03F40043002B06D0074B5B68DB6F71
:1019400005484FF00F019847FEF782FEFEF7C0FCF6
:1019500003B000BD00040140EC0D0020AFF3008097
:1019600008B5FEF755FE084B4FF480325A61074B1D
:101970005B68D3F8843005484FF010019847FEF7B4
:1019800067FEFEF7A5FC08BD00040140EC0D002039
:1019900008B5FEF73DFE084B4FF480225A61074B15
:1019A0005B68D3F8943005484FF012019847FEF772
:1019B0004FFEFEF78DFC08BD00040140EC0D002039
:1019C00008B50248FFF764FB08BD00BFEC0D00201E
:1019D00000B587B00190019B1B6B0493049B1B8B8C
:1019E0009BB20393049B9B8A9BB20593019B93F844
:1019F0003430002B40F0AE80039B4FEA0342059B3E
:101A000042EA030323F07F434E4A934212D04D4AE9
:101A1000934203D84C4A934207D089E04B4A934201
:101A200031D04B4A934241D082E0019B1A8C049BF7
:101A30001A827DE0049B9B889BB223F400739AB2C8
:101A4000049B9A80019B9B6A1B68019A926A1268A8
:101A5000126842F001021A60049B9B889BB243F417
:101A600080539AB2049B9A80019B9B6A1B685B68B7
:101A7000012B5CD8049B1B889BB223F480639AB231
:101A8000049B1A8054E0049B9B889BB223F4007350
:101A90009AB2049B9A80019BDB6A1B68019AD26A06
:101AA0001268126842F001021A6041E0019B9B6AD1
:101AB0001B685B68002B0FD0019B1B8C43F001035C
:101AC0009AB2019B1A84049B1B889BB243F4A063C7
:101AD0009AB2049B1A80B9E0049B9B889BB223F4C2
:101AE00000739AB2049B9A80049B1B889BB243F4B8
:101AF00000739AB2049B1A80FEF7DAFBFEF758FDDA
:101B0000019BDB69002B0DD0019BDB690293019BDC
:101B10004FF00002DA61029B4FF000029A620298D5
:101B2000FEF72EFFFEF75CFDFEF7CAFB00E000BFEC
:101B3000059B03F00A03002B00F08880049B1B8B9D
:101B400084E000BF020003000100030082000700E0
:101B500084000700059B03F00A03002B0FD0019BB4
:101B60004FF000021A64019B4FF000021A65049BBB
:101B70009B8A9BB20593049B1B8B9BB20393059B93
:101B800003F08003002B16D0019B9A6C019B1B6D08
:101B9000D21812781146049A118203F10102019BB6
:101BA0001A65019B1A6C019BDB6C9A4203D3019B63
:101BB0004FF000021A65059B03F04003002B17D07D
:101BC000019B9A6B019B1B6CD2180499098A89B2FC
:101BD000C9B2117003F10102019B1A64019B1A6CD6
:101BE000019BDB6B9A4203D3019B4FF000021A6406
:101BF000059B03F01003002B13D0049B9B8A9BB220
:101C00000593049B1B889BB243F001039AB2049B8B
:101C10001A80019B5B6C002B03D0019B5B6C0198CD
:101C20009847059B03F48063002B0FD0049B9B8A8D
:101C30009BB223F480639AB2049B9A82019B5B6DF2
:101C4000002B03D0019B5B6D0198984707B000BD46
:101C500000B587B00190019B1B6B0493FEF728FB36
:101C6000FEF7A6FC019BDB6A1B68019AD26A126828
:101C7000126822F001021A60019BDB6A5B68019A1C
:101C8000D26A127A4FF00F0101FA02F21A60019B38
:101C90009B6A1B68019A926A1268126822F001021C
:101CA0001A60019B9B6A5B68019A926A127A4FF0F4
:101CB0000F0101FA02F21A60FEF792FCFEF700FB38
:101CC0004FF000030593049B9B8A9BB203F480733F
:101CD000002B0BD0049B9B8A9BB223F480739AB297
:101CE000049B9A82059B43F001030593049B9B8A06
:101CF0009BB203F40073002B0BD0049B9B8A9BB216
:101D000023F400739AB2049B9A82059B43F002036A
:101D10000593019B93F83430002B23D1049B9B8ABD
:101D20009BB203F48063002B2CD0049B9B8A9BB254
:101D300023F480639AB2049B9A82049B9B889BB293
:101D400023F400739AB2049B9A80049B1B889BB275
:101D500043F400739AB2049B1A80059B43F004037A
:101D600005930FE0049B9B8A9BB223F480639AB295
:101D7000049B9A82019B5B6D002B03D0019B5B6DE2
:101D800001989847049B9B8A9BB203F40063002B45
:101D90000BD0049B9B8A9BB223F400639AB2049BF2
:101DA0009A82059B43F008030593049B9B8A9BB290
:101DB00003F48053002B0BD0049B9B8A9BB223F42B
:101DC00080539AB2049B9A82059B43F010030593BB
:101DD000049B9B8A9BB203F48043002B0BD0049B93
:101DE0009B8A9BB223F480439AB2049B9A82059B00
:101DF00043F020030593049B9B8A9BB29BB21BB2CA
:101E0000002B0DDA049B9B8A9BB24FEA43434FEAB7
:101E100053439AB2049B9A82059B43F04003059377
:101E2000059B002B1CD0019B059A9A60FEF740FA97
:101E3000FEF7BEFB019BDB69002B0DD0019BDB692C
:101E40000393019B4FF00002DA61039B6FF00102E4
:101E50009A620398FEF794FDFEF7C2FBFEF730FA94
:101E600007B000BDAFF30080AFF30080AFF3008098
:101E700008B5FEF7CDFB0448FFF7AAFDFEF7E8FB27
:101E8000FEF726FA08BD00BFF40D0020AFF3008076
:101E900008B5FEF7BDFB0448FFF7DAFEFEF7D8FBF6
:101EA000FEF716FA08BD00BFF40D0020AFF3008066
:101EB00008B50848FFF704F9064B4FF00002DA6155
:101EC000044B054A1A63034B044A9A62014B044AC5
:101ED000DA6208BDF40D00200054004028260008F6
:101EE0001C260008AFF30080AFF30080AFF3008042
:101EF00000B585B00190019B1B691B8AADF80E30BF
:101F0000019B1B699B899AB2BDF80E3002EA03035C
:101F1000ADF80E30019B1B694FF6E0721A82BDF8D6
:101F20000E3003F00203002B04D0019B5B681B6999
:101F300001989847BDF80E3003F00403002B04D03D
:101F4000019B5B689B6901989847BDF80E3003F0D0
:101F50000803002B04D0019B5B681B6A019898471B
:101F6000BDF80E3003F01003002B04D0019B5B681A
:101F70009B6A01989847BDF80E3003F00103DBB26D
:101F8000002B04D0019B5B689B680198984705B0C3
:101F900000BD00BFAFF30080AFF30080AFF300805F
:101FA00008B5FEF735FB0448FFF7A2FFFEF750FB2C
:101FB000FEF78EF908BD00BF4C0E0020AFF3008085
:101FC00008B5FEF725FB0448FFF792FFFEF740FB3C
:101FD000FEF77EF908BD00BF600E0020AFF3008061
:101FE00008B5FEF715FB0448FFF782FFFEF730FB4C
:101FF000FEF76EF908BD00BF740E0020AFF300803D
:1020000008B50A48FFF77CF8084B4FF080421A6188
:102010000748FFF775F8064B064A1A610648FFF7AE
:102020006FF8054B054A1A6108BD00BF4C0E002031
:10203000600E002000040040740E002000080040E4
:1020400082B00190214B214A926942F07D029A614F
:102050001F4B019A1268DA601D4B019A92685A6010
:102060001B4B019A52681A601A4B019AD268DA60C7
:10207000184B019A52695A60164B019A12691A60FC
:10208000154B019A9269DA60134B019A126A5A60F1
:10209000114B019AD2691A60104B019A526ADA60A8
:1020A0000E4B019AD26A5A600C4B019A926A1A60DE
:1020B0000B4B019A126BDA60094B019A926B5A60D2
:1020C000074B019A526B1A6002B070470010024031
:1020D00000080140000C01400010014000140140C4
:1020E00000180140AFF30080AFF30080AFF3008031
:1020F0008AB0039002910192019B032B03D1039BB1
:10210000029A1A6105E0019B042B02D1039B029AFB
:102110005A612E4A019BD3181B7804934FF0000399
:102120000693069B0793079B0893089B09934FF020
:102130000003059335E0089B4FEA03130893099BBE
:102140004FEA03130993069B4FEA03130693079B79
:102150004FEA03130793029B03F08003002B04D183
:10216000089B43F00F03089304E0069A049B42EA9D
:1021700003030693029B03F40043002B04D1099B45
:1021800043F00F03099304E0079A049B42EA030318
:102190000793029B4FEA43030293059B03F101035C
:1021A0000593059B072BC6D9039B5A68099B1A40C8
:1021B000079B1A43039B5A60039B1A68089B1A40AB
:1021C000069B1A43039B1A600AB07047402600081A
:1021D00008B5FFF7EDF908BDAFF30080AFF300805D
:1021E000704700BFAFF30080AFF30080AFF3008013
:1021F00082B04FF00003019303E0019B03F1010360
:102200000193019B632BF8DD02B07047AFF30080B0
:1022100008B51C4B4FF480521A611A4B4FF4006200
:102220005A61184B4FF480625A61164B4FF480721A
:102230001A61144B4FF400721A6112484FF4805126
:102240004FF00602FFF754FF0E484FF400614FF0C5
:102250000602FFF74DFF0B484FF480614FF0060276
:10226000FFF746FF07484FF480714FF00602FFF773
:102270003FFF04484FF400714FF00602FFF738FFAC
:1022800008BD00BF00080140AFF30080AFF300803D
:1022900000B585B001904FF00003039329E0039B44
:1022A000C3F10F034FF0010202FA03F31A46019B38
:1022B00002EA03030293029B002B04D0164B4FF457
:1022C00080721A6103E0144B4FF480725A61FFF779
:1022D0008FFF114B4FF400621A61FFF789FF0E4B1D
:1022E0004FF400625A61FFF783FF039B03F1010380
:1022F0000393039B0F2BD2DD074B4FF480621A61CF
:10230000FFF776FF044B4FF480625A61024B4FF4A3
:1023100000725A6105B000BD00080140AFF30080B3
:1023200000B583B00190124B1B6823F00302104BE1
:102330001A60019B03F00103DBB2002B05D00C4BAC
:102340001B6843F001020A4B1A60019B03F0020371
:10235000002B05D0064B1B6843F00202044B1A60A9
:10236000034B1B681846FFF793FF03B000BD00BF87
:10237000880E0020AFF30080AFF30080AFF3008041
:1023800008B5FEF735FEFEF743F8FFF741FF4FF0C3
:102390000100FFF7C5FF4FF00A00FEF721FD4FF0E7
:1023A0000200FFF7BDFF4FF00A00FEF719FDEEE750
:1023B00069646C65000000006D61696E00000000DA
:1023C0005356233100000000535623320000000012
:1023D00053562333000000005356233400000000FE
:1023E00053562335000000005356233600000000EA
:1023F00053562337000000005356233800000000D6
:10240000535623390000000053562331300000009A
:10241000535623313100000000000000000000008E
:10242000226368565453657449222829000000002D
:102430002263685654526573657449222829000046
:102440006368565452657365744928292C202331DA
:10245000000000000000000000000000000000007C
:10246000636853636852656164794928292C202385
:1024700031000000737461636B206F766572666C67
:102480006F77000000000000000000000000000066
:10249000226368546864437265617465492228291F
:1024A00000000000226368546864536574507269C8
:1024B0006F726974792228290000000063685468EB
:1024C00064526573756D6528292C20233100000046
:1024D000226368546864536C656570222829000083
:1024E0006368546864457869745328292C20233123
:1024F00000000000226368546864576169742228F0
:102500002900000063685468645761697428292CA5
:102510002023310063685468645761697428292C4A
:102520002023320000000000000000000000000036
:102530002263684D7478496E69742228290000006E
:102540002263684D74784C6F636B53222829000016
:1025500063684D74784C6F636B5328292C202331AA
:102560000000000063684D74784C6F636B5328293A
:102570002C202332000000002263684D74785472CE
:10258000794C6F636B5322282900000063684D74F7
:1025900078556E6C6F636B28292C20233100000066
:1025A00063684D7478556E6C6F636B28292C2023FB
:1025B0003200000063684D7478556E6C6F636B5326
:1025C00028292C202331000063684D7478556E6CE7
:1025D0006F636B5328292C20233200000000000079
:1025E000080002400400024000000B001C000240F2
:1025F0000400024004010C003000024004000240CC
:1026000008020D0044000240040002400C030E00CA
:10261000580002400400024010040F006C00024009
:102620000400024014051000800002400400024033
:10263000180611000000000000000000000000006B
:102640000402040808000307080808080808080826
:102650000B0F000000000000000000000000000060
:10266000FFFFFFFF4444444444444444FFFFFFFF52
:102670004444444444444444FFFFFFFF444444442E
:1026800044444444FFFFFFFF44444444444444441E
:0C269000FFFFFFFF888888888888888802
:04000005080000F0FF
:00000001FF
