:020000040800F2
:100000000004002031090008F1090008F109000886
:10001000F1090008F1090008F1090008F1090008D8
:10002000F1090008F1090008F1090008410A000877
:10003000F1090008F1090008F1090008110A000897
:10004000F109000811510008F10900086177000862
:10005000F1090008F1090008B14E0008E14E00085E
:10006000114F0008414F0008714F0008614400081B
:10007000B14400080145000851450008A1450008A9
:10008000F145000841460008F1090008E16B00084D
:10009000F16B0008F1090008F1090008A14F000800
:1000A000F1090008F1090008F1090008F109000848
:1000B000B1620008F1090008F1090008A15A00081E
:1000C000C15A0008E15A0008015B0008F109000864
:1000D000F109000801690008F1090008F1090008A8
:0C00E00051500008F109000841510008CF
:1000F00000210A2200F09EBA00220A2300F0E8B98B
:10010000032A70B404460D4626D941EA000313F0D1
:10011000030F13D020782B78984208BF294606D0C9
:100120001EE014F8010F11F8013F984218D1012A7E
:1001300002F1FF32F5D1002070BC70470B46044637
:1001400051F8045B50F8046BAE4204D1043A044603
:10015000032A0B46F2D81D461046002ADAD1EBE7F7
:10016000C01AE9E7000000000000000000000000E5
:10017000032A2DE9F00109D82AB10023CC5CC4542C
:1001800001339342FAD1BDE8F00170470B46821863
:10019000014603E02478013301F8014B11F0030F0D
:1001A0001C46F7D113F003055DD06E42C5F1040C77
:1001B000ED009B594FEACC0C08E00434A7593B46AC
:1001C00007FA0CF748EA070741F8047B571A23FAA5
:1001D00005F8032FF1DC03E014F8013B01F8013BC3
:1001E0008A42F9D8CFE753F8404C41F8404C53F8D5
:1001F0003C4C41F83C4C53F8384C41F8384C53F8DF
:10020000344C41F8344C53F8304C41F8304C53F8EE
:100210002C4C41F82C4C53F8284C41F8284C53F8FE
:10022000244C41F8244C53F8204C41F8204C53F80E
:100230001C4C41F81C4C53F8184C41F8184C53F81E
:10024000144C41F8144C53F8104C41F8104C53F82E
:100250000C4C41F80C4C53F8084C41F8084C53F83E
:10026000044C41F8044C561A1D460C4640334031AC
:100270003F2EB8DC2B460FE053F8101C44F8101C3E
:1002800053F80C1C44F80C1C53F8081C44F8081CC8
:1002900053F8041C44F8041C161B21461D46103458
:1002A00010330F2EE8DC2B4602E0246841F8044BA3
:1002B000551A1C46032D03F10403F6DC90E700BF3A
:1002C000032AC9B270B408D82AB10346121803F839
:1002D000011B9342FBD170BC70478218044601E0B9
:1002E00004F8011B14F0030FFAD14FF0013303FBA4
:1002F00001F31FE044F8403C44F83C3C44F8383CEF
:1003000044F8343C44F8303C44F82C3C44F8283C55
:1003100044F8243C44F8203C44F81C3C44F8183C85
:1003200044F8143C44F8103C44F80C3C44F8083CB5
:1003300044F8043C161B254640343F2EDADC2C469C
:1003400007E044F8103C44F80C3C44F8083C44F8FE
:10035000043C161B254610340F2EF2DC01E045F854
:10036000043B541B032CFADC01E005F8011B954209
:10037000FBD3B0E700000000000000000000000018
:1003800040F60003C2F2000370B41D6810F8013B90
:10039000EC181A46647804F00304012C11F8014BA0
:1003A00008BF03F120022E192346767806F00306D3
:1003B000012E08BF04F12003D21A01D1002BE5D190
:1003C000104670BC704700BF000000000000000035
:1003D00020F0030110F00300C0F1000051F8043BCD
:1003E00000F1040C4FEACC0C6FF000021CBF22FAA3
:1003F0000CF213434FF0010C4CEA0C2C4CEA0C4C61
:10040000A3EB0C0222EA030212EACC1204BF51F859
:10041000043B0430F4D013F0FF0F1FBF013013F47E
:100420007F4F013013F47F0F18BF0130704700BFBA
:10043000F0B40478002C20D00F78064630468FB1F7
:10044000A7421CD04B1C01E0944211D01D4613F86A
:10045000012B002AF8D17478701C44B1064630464E
:10046000002FEDD174780D46701C002CF6D12A783F
:10047000002A08BF0020F0BC70472046FBE73A4640
:10048000F6E700BF000000000000000000000000D0
:10049000F0B40646047874B10F780546064657B1A5
:1004A000BC4218BF0A4602D108E09C4206D012F8AE
:1004B000013F002BF9D1301AF0BC70476C786E1CEC
:1004C000002CF8D03546EBE70000000000000000EB
:1004D0002DE9F04F40F60004C2F2000485B01F463B
:1004E0008C4626680B460390029213F8014B321992
:1004F0001D4692F801B01BF0080BF6D12D2C73D0DD
:100500002B2C08BF15F8014BD7F1010338BF00238E
:10051000102F14BF1A4643F0010232B1302C73D0B1
:100520001BB1302C00F083800A27B946BBF1000FC5
:1005300049460CBF6FF0004A4FF0004ACDF804C0A6
:10054000504600F0B3F950468846494600F080F81E
:1005500033190022DDF804C05B78114613F0040F54
:100560001ED0303CA74225DD814294BF00230123E9
:1005700053EAD2722ED10A1A534243EB0203444586
:10058000D4BF002303F00103002B23D109FB014159
:1005900015F8014B012233195B7813F0040FE0D1F9
:1005A00013F0030306D0012B14BF57233723E41A9B
:1005B000A742D9DCB2F1FF3F1BD00846BBF1000FC8
:1005C00010D1029B1BB152B90299C1F800C005B00D
:1005D000BDE8F08F4FF0FF3215F8014BDBE705F176
:1005E000FF3CF1E74842ECE715F8014B4FF0010BF7
:1005F0008AE70399BBF1000F0CBF6FF000404FF08A
:10060000004022230B60DCE72A78A2F17800414207
:1006100041EB0001582A14BF0A4641F00102002AAA
:100620003FF47EAF10276C78B94602357EE7082785
:10063000B9467BE730B440F60404C2F200040D462C
:10064000134601462A46206830BC41E700000000FE
:100650004A1E08BF7047C0F02481884240F21681CC
:10066000114200F01781B0FA80F3B1FA81F2A2EBE7
:100670000303C3F11F0304A202EB03134FF00002B4
:100680009F4600BFAFF30080B0EBC17F00BF42EBDD
:10069000020228BFA0EBC170B0EB817F00BF42EB2C
:1006A000020228BFA0EB8170B0EB417F00BF42EB9C
:1006B000020228BFA0EB4170B0EB017F00BF42EB0C
:1006C000020228BFA0EB0170B0EBC16F00BF42EB8C
:1006D000020228BFA0EBC160B0EB816F00BF42EB0C
:1006E000020228BFA0EB8160B0EB416F00BF42EB7C
:1006F000020228BFA0EB4160B0EB016F00BF42EBEC
:10070000020228BFA0EB0160B0EBC15F00BF42EB6B
:10071000020228BFA0EBC150B0EB815F00BF42EBEB
:10072000020228BFA0EB8150B0EB415F00BF42EB5B
:10073000020228BFA0EB4150B0EB015F00BF42EBCB
:10074000020228BFA0EB0150B0EBC14F00BF42EB4B
:10075000020228BFA0EBC140B0EB814F00BF42EBCB
:10076000020228BFA0EB8140B0EB414F00BF42EB3B
:10077000020228BFA0EB4140B0EB014F00BF42EBAB
:10078000020228BFA0EB0140B0EBC13F00BF42EB2B
:10079000020228BFA0EBC130B0EB813F00BF42EBAB
:1007A000020228BFA0EB8130B0EB413F00BF42EB1B
:1007B000020228BFA0EB4130B0EB013F00BF42EB8B
:1007C000020228BFA0EB0130B0EBC12F00BF42EB0B
:1007D000020228BFA0EBC120B0EB812F00BF42EB8B
:1007E000020228BFA0EB8120B0EB412F00BF42EBFB
:1007F000020228BFA0EB4120B0EB012F00BF42EB6B
:10080000020228BFA0EB0120B0EBC11F00BF42EBEA
:10081000020228BFA0EBC110B0EB811F00BF42EB6A
:10082000020228BFA0EB8110B0EB411F00BF42EBDA
:10083000020228BFA0EB4110B0EB011F00BF42EB4A
:10084000020228BFA0EB0110B0EBC10F00BF42EBCA
:10085000020228BFA0EBC100B0EB810F00BF42EB4A
:10086000020228BFA0EB8100B0EB410F00BF42EBBA
:10087000020228BFA0EB4100B0EB010F00BF42EB2A
:10088000020228BFA0EB0100104670470CBF0120F8
:1008900000207047B1FA81F2C2F11F0220FA02F083
:1008A000704708B14FF0FF3000F012B80029F8D0BF
:1008B0002DE90340FFF7CCFEBDE8064002FB00F344
:1008C000A1EB0301704700BF000000000000000022
:1008D000704700BF000000000000000000000000A2
:1008E000704700BFAFF30080AFF30080AFF300802C
:1008F000FEE700BFAFF30080AFF30080AFF30080EE
:1009000084B003900291019206E0039B019A1A6061
:10091000039B03F104030393039A029B9A42F4D3CB
:1009200004B07047AFF30080AFF30080AFF30080F6
:1009300072B6204C84F309884FF0020484F31488C3
:10094000BFF36F8F07F024F81B481C494FF0553256
:10095000FFF7D6FF1A4817494FF05532FFF7D0FF7F
:10096000184D194C05E02B68236004F1040405F1CF
:100970000405164B9C42F6D3154816494FF0000269
:10098000FFF7BEFFFFF7ACFF134C03E02368984767
:1009900004F10404114B9C42F8D30CF039FE104CC6
:1009A00003E02368984704F104040E4B9C42F8D3FB
:1009B000FFF79EFF00080020000000200004002038
:1009C00000040020D8EA0008000800206809002080
:1009D0006809002050290020EC000008EC00000805
:1009E000EC000008EC000008AFF30080AFF30080DB
:1009F000FEE700BFAFF30080AFF30080AFF30080ED
:100A000072B6FEE7AFF30080AFF30080AFF3008073
:100A100008B500F07DFA00F043F800F049FA00F064
:100A2000BFF900F05DFA00F043F800F091FA00F031
:100A300047F808BDAFF30080AFF30080AFF300804C
:100A400010B582B0EFF309840194019B03F12003F8
:100A50000193019B83F3098800F02AF802B010BDCE
:100A600008B50D4B4FF000029A600B4B0B4ADA6051
:100A70004FF007004FF0100100F00AF94FF00A00A4
:100A80004FF4007100F004F94FF00B004FF08001BB
:100A900000F0FEF808BD00BF00ED00E00000FA0520
:100AA0004FF0200383F31188704700BFAFF300803D
:100AB0004FF0000383F31188704700BFAFF300804D
:100AC00010B582B0FFF7ECFF134B5B6803F40063D3
:100AD000002B1DD0EFF309840194019BA3F12003A7
:100AE0000193019B83F30988019B4FF08072DA61C7
:100AF0000A4B1B689A68094B9B699B689A4203D909
:100B0000019B074A9A6105E0019B064A9A6101E050
:100B1000FFF7CEFF02B010BD00ED00E0980E002000
:100B2000310B00083C0B0008AFF30080AFF30080EE
:100B300000F08EF900F014FD00F0A2F900DF00BF14
:100B400003460A462DE9F04FC2F80CD0D3F80CD07A
:100B5000BDE8F08FAFF30080AFF30080AFF300800B
:100B600008B500F08DF9FFF7A3FF2846A04700F075
:100B700027FE08BDAFF30080AFF30080AFF3008025
:100B800010B485B001900091019B03F003034FEA7C
:100B9000C30303931E4B019A4FEA92021C4901982A
:100BA0004FEA900000F1C00051F8200003994FF087
:100BB000FF0404FA01F16FEA010108400399009C67
:100BC00004FA01F140EA010102F1C00243F82210E7
:100BD0000F4B019A4FEA5212019901F01F014FF099
:100BE000010000FA01F102F1600243F82210084B03
:100BF000019A4FEA5212019901F01F014FF00100D2
:100C000000FA01F143F8221005B010BC704700BF94
:100C100000E100E0AFF30080AFF30080AFF30080AD
:100C200010B485B00190019B03F003034FEAC303A6
:100C30000393154B019A4FEA5212019901F01F01DB
:100C40004FF0010000FA01F102F1200243F82210F6
:100C50000D4B019A4FEA92020B4901984FEA90001E
:100C600000F1C00051F8200003994FF0FF0404FA8E
:100C700001F16FEA010100EA010102F1C00243F84B
:100C8000221005B010BC704700E100E0AFF3008017
:100C900010B485B001900091019B03F003034FEA6B
:100CA000C3030393104B019A4FEA92020E49019835
:100CB0004FEA900000F1060051F8200003994FF030
:100CC000FF0404FA01F16FEA010108400399009C56
:100CD00004FA01F140EA010102F1060243F8221090
:100CE00005B010BC704700BF00ED00E0AFF300801E
:100CF00082B00190024B9B69024A9A61FEE700BFF5
:100D0000980E002050D60008AFF30080AFF30080AB
:100D100000B583B0FFF7A4FE00F0DAFA00F038FA6D
:100D200001F03EFB01F09CFB00F062F914484FF02B
:100D3000400100F045FC0246124B9A61114B9B6941
:100D40004FF0010283F820200E4B9B690E4ADA61B6
:100D500000F066F84FF0000383F3118862B6094B88
:100D60009B690A4A9A610A4B4FF0000200920948B7
:100D70004FF0C0014FF0010200F0CAFC03B000BD0B
:100D8000280A0020980E00200004002058D60008F1
:100D9000F10C000868090020AFF30080AFF3008079
:100DA00000B583B000F0F4F81A4B9B695A6A02F15F
:100DB00001025A62184BDB6803F10102164BDA603C
:100DC000154B1B681A46144B9A4221D0124B1B68D4
:100DD0009A6802F1FF329A6013E0019BDB6800938E
:100DE000019B4FF00002DA60019B1B680A4A5A60BF
:100DF000019B1A68084B1A60019B1A69009B1046F8
:100E00009847054B1B680193019B9B68002BE4D01E
:100E100003B000BD980E0020880E0020AFF30080C4
:100E200008B5064B1B68002B03D1054B1B68002B34
:100E300002D0044800F024F908BD00BF740A002065
:100E4000780A002070D60008AFF30080AFF300806E
:100E500008B5084B1B68002B03D1074B1B68002B00
:100E600002D0064800F00CF9034B4FF001021A6063
:100E700008BD00BF740A0020780A002078D6000858
:100E800008B5084B1B68002B03D1074B1B68002BD0
:100E900002DC064800F0F4F8034B4FF000021A6041
:100EA00008BD00BF740A0020780A002080D6000820
:100EB00008B5084B1B68002B03DD074B1B68002B94
:100EC00002D0064800F0DCF8034B4FF001021A6034
:100ED00008BD00BF740A0020780A002088D60008E8
:100EE00008B5084B1B68002B03DD074B1B68002B64
:100EF00002DC064800F0C4F8034B4FF000021A6011
:100F000008BD00BF740A0020780A002090D60008AF
:100F100008B5FFF7C5FD0A4B1B68002B03DB094B27
:100F20001B68002B02D0084800F0AAF8044B1B688D
:100F300003F10102024B1A60FFF7BAFD08BD00BFC2
:100F4000740A0020780A002098D60008AFF30080C9
:100F500008B5FFF7A5FD0A4B1B68002B03DD094B05
:100F60001B68002B02D0084800F08AF8044B1B686D
:100F700003F1FF32024B1A60FFF79AFD08BD00BF74
:100F8000740A0020780A0020A0D60008AFF3008081
:100F900008B5064B1B68002B03DB054B1B68002BB9
:100FA00002DC044800F06CF808BD00BF740A0020A1
:100FB000780A0020A8D60008AFF30080AFF30080C5
:100FC00008B5064B1B68002B03D1054B1B68002B93
:100FD00002DC044800F054F808BD00BF740A002089
:100FE000780A0020B0D60008AFF30080AFF300808D
:100FF000034B4FF040021A60014B024A5A6070479F
:101000007C0A0020840A0020AFF30080AFF3008048
:1010100082B00190124B5B68124AD2681A60104B82
:101020005B68114A92695A600D4B5B68019A926A3B
:101030009A600B4B5B68019A92F820201A73084B58
:101040005B6803F11002064B5A60054B5A68074B68
:101050009A4202D3024B064A5A6002B0704700BF60
:101060007C0A0020880E0020980E0020840E0020AC
:10107000840A0020AFF30080AFF30080AFF300805C
:1010800000B583B00190034B019A1A60FFF7B8FCDA
:1010900003B000BD840E0020AFF30080AFF30080EA
:1010A00084B001900091009B0393039B1B68039302
:1010B000009B039A9A4205D0039B9A68019B9B6808
:1010C0009A42F2D2019B039A1A60039B5A68019BD1
:1010D0005A60019B5B68039A01995160039A5268B8
:1010E0001A6004B0704700BFAFF30080AFF3008018
:1010F00082B001900091009A019B1A60009B5A688F
:10110000019B5A60019B5B68009A01995160009AAB
:1011100052681A6002B07047AFF30080AFF30080EE
:1011200084B00190019B1B680393039B1A68019B89
:101130001A60019B1B68019A5A60039B184604B011
:10114000704700BFAFF30080AFF30080AFF30080C3
:1011500082B00190019B5B68019A12681A60019B42
:101160001B68019A52685A60019B184602B070478A
:1011700084B00190019B1B680393039B1A68019B39
:101180001A60039B184604B0704700BFAFF300809D
:10119000074A074B5A60064B5A68054B1A60044BC6
:1011A0004FF0FF329A60024B4FF00002DA60704756
:1011B000880E0020AFF30080AFF30080AFF3008013
:1011C00000B587B00390029101920093FFF7E0FE13
:1011D000039B002B05D0019B002B02D0029B002B10
:1011E00002D11C48FFF74CFF039B009A1A61039B36
:1011F000019ADA60184B1B68059307E0059B9B6812
:10120000029AD31A0293059B1B680593059B9A6863
:10121000029B9A42F2D3039B059A1A60039B1B68B8
:101220005A68039B5A60039B5B68059A0399516057
:10123000059A52681A60039B029A9A60059A064BB7
:101240009A4205D0059B9A68029BD21A059B9A6028
:1012500007B000BDC0D60008880E0020AFF30080A4
:1012600000B583B00190FFF793FE019B002B02D1E4
:101270001348FFF705FF019BDB68002B02D11148E3
:10128000FFF7FEFE019B1A680F4B9A4208D0019BA4
:101290001B68019A12689168019A92688A189A608C
:1012A000019B5B68019A12681A60019B1B68019A96
:1012B00052685A60019B4FF00002DA6003B000BD33
:1012C000D0D60008E0D60008880E0020AFF30080DA
:1012D000094A094B5A60084B5A68074B1A60064B7B
:1012E0004FF000029A60044A034B5A61024B5A695C
:1012F000014B1A61704700BF980E0020AFF30080C9
:1013000000B585B00190019B93F82030002B04D0EC
:10131000019B93F820300E2B02D11348FFF7B0FE4B
:10132000019B4FF0000283F82020104B0393039B96
:101330001B680393039B9A68019B9B689A42F6D2B1
:10134000019B039A1A60039B5A68019B5A60019B98
:101350005B68039A01995160039A52681A60019B75
:10136000184605B000BD00BF00D70008980E002049
:1013700000B585B003468DF80730FFF721FE144B0A
:101380009B690393039B9DF8072083F82020104856
:10139000FFF7C6FE02460E4B9A610D4B9B694FF05C
:1013A000010283F820200398FFF732FE6B46A3F179
:1013B0002402039BDB699A4202D20648FFF760FED3
:1013C000034B9B6918460399FFF7BAFB05B000BDB4
:1013D000980E002014D70008AFF30080AFF3008010
:1013E00000B585B00190019B0393039B93F82030D7
:1013F0000D2B28D801A252F823F000BF5714000883
:101400004714000847140008351400084714000862
:101410004114000847140008471400084714000846
:101420004714000847140008471400084714000830
:1014300041140008039B9B6A9A6802F101029A60BA
:101440000398FFF785FE039B4FF0FF329A620398E3
:10145000FFF756FF00E000BF05B000BDAFF300800E
:1014600000B589B0034600918DF80730FFF7A8FD5D
:10147000009BB3F1FF3F14D00F4B9B6903AA1046AA
:1014800000990E4AFFF79CFE9DF807301846FFF7BB
:101490006FFF069B002B09D003AB1846FFF7E0FE59
:1014A00004E09DF807301846FFF762FF024B9B6986
:1014B0009B6A184609B000BD980E0020E113000891
:1014C00000B585B001900091FFF77AFD019B009A6D
:1014D0009A62019B9A68154B9B699B689A4203D854
:1014E0000198FFF70DFF1EE0104B9B691846FFF7B0
:1014F00007FF03900D4B019A9A61019B4FF0010287
:1015000083F820200398FFF783FD6B46A3F12402A4
:10151000039BDB699A4202D20548FFF7B1FD0198AF
:101520000399FFF70DFB05B000BD00BF980E00202A
:1015300014D70008AFF30080AFF30080AFF3008052
:1015400008B5FFF73DFD054B1B689A68034B9B6987
:101550009B689A4201D900F003F808BD980E00205C
:1015600000B583B0134B9B6901931248FFF7D8FD78
:101570000246104B9A610F4B9B694FF0010283F8B2
:1015800020200198FFF7BCFE0198FFF741FD6B4654
:10159000A3F12402019BDB699A4202D20648FFF7BD
:1015A0006FFD044B9B6918460199FFF7C9FA03B018
:1015B00000BD00BF980E002014D70008AFF30080D4
:1015C00082B001900091019B009A9A60019B4FF0BC
:1015D000020283F82020019B4FF0000283F82120B3
:1015E000019B009A5A64019B4FF000021A64019B10
:1015F0004FF00002DA63019B4FF000025A62019B38
:101600004FF0010283F82220019B4FF000029A6103
:10161000134A019B1A61124B5A69019B5A61019B43
:101620005B690F4A019951610D4A52691A61019B28
:1016300003F12C031A46019BDA62019B03F130038C
:101640001A46019B5A63019B5A6B019B1A63019BCB
:1016500003F14C02019BDA61019B184602B070470E
:10166000980E0020AFF30080AFF30080AFF300804E
:1016700084B00390029113468DF8073007E0039B76
:101680009DF807201A70039B03F101030393039A4B
:10169000029B9A42F3D304B0704700BFAFF30080BF
:1016A00000B587B00390029101920093039B0593CC
:1016B000FFF76EFC039B002B08D0029BAF2B05D9D4
:1016C000019B7F2B02D8009B002B02D10E48FFF715
:1016D000D7FC039A029BA3F12403D218059BDA607E
:1016E000059BDB68009A1A60059BDB68089A5A60C4
:1016F000059BDB68054A1A6205980199FFF760FFB0
:101700000346184607B000BD30D70008610B00083B
:1017100000B589B00590049103920293059A059B48
:1017200003F14C03104619464FF0FF02FFF7A0FFEC
:10173000059B03F14C020599049BCB1810461946F2
:101740004FF05502FFF794FFFFF7AAF9FFF780FB70
:101750000A9B009305980499039A029BFFF7A0FF48
:10176000079007984FF00001FFF7AAFEFFF788FBEC
:10177000FFF79EF9079B184609B000BDAFF3008044
:1017800000B583B00190019B002B02D10848FFF700
:1017900077FCFFF785F9FFF75BFB4FF00600019937
:1017A000FFF75EFEFFF76CFBFFF782F903B000BDA9
:1017B00070D70008AFF30080AFF30080AFF3008074
:1017C00000B583B00190FFF76BF9FFF741FB01987B
:1017D00000F006F803B000BDAFF30080AFF3008067
:1017E00000B585B00190194B9B690393039B019A47
:1017F0009A6209E0039B03F12C031846FFF7B8FC3B
:1018000003461846FFF77CFD039BDA6A039B03F14E
:101810002C039A42EED1039B93F8213003F003038B
:10182000002B09D1039B5B69039A12691A61039B20
:101830001B69039A52695A614FF00E00FFF798FD39
:101840000348FFF71DFC05B000BD00BF980E002047
:1018500080D70008AFF30080AFF30080AFF30080C3
:1018600000B585B00190FFF71BF9FFF7F1FA019B76
:1018700093F82230002B02D12448FFF701FC019B92
:1018800093F8223003F1FF33DAB2019B83F8222070
:10189000019B93F822308DF80F30FFF7F1FAFFF734
:1018A00007F99DF80F30002B2DD1019B93F82030C4
:1018B0000E2B28D1019B93F8213003F00303012B59
:1018C00002D0022B0ED01EE0019B5B69019A1269C7
:1018D0001A61019B1B69019A52695A61019800F0D3
:1018E00057FE10E0019B5B69019A12691A61019B26
:1018F0001B69019A52695A61019B9B6C18460199B8
:1019000000F0EEFE00BF05B000BD00BFE4D7000848
:1019100000B589B00590049103920293059804994B
:1019200000F0B6FD0790079B002B02D14FF000039B
:1019300031E0079A079B03F14C03104619464FF01C
:10194000FF02FFF795FE079B03F14C020799049BEA
:10195000CB18104619464FF05502FFF789FEFFF7E6
:101960009FF8FFF775FA0A9B009307980499039A6A
:10197000029BFFF795FE0690069B4FF0010283F84D
:10198000212006984FF00001FFF79AFDFFF778FA43
:10199000FFF78EF8069B184609B000BDAFF3008034
:1019A00000B583B001900091019B002B02D0009BF9
:1019B000002B02DA0748FFF763FB019B1A46019BE5
:1019C0005A60019B5A68019B1A60019B009A9A60B9
:1019D00003B000BD20D80008AFF30080AFF3008053
:1019E00000B585B00190FFF75BF8FFF731FA019879
:1019F00000F00EF80390FFF743FAFFF759F8039B46
:101A0000184605B000BD00BFAFF30080AFF3008003
:101A100000B583B00190FFF7D3FA019B002B02D1F0
:101A20001C48FFF72DFB019B9B68002B04DB019BEF
:101A30001A68019B9A420BD0019B9B68002B04DA29
:101A4000019B1A68019B9A4202D11348FFF718FBC9
:101A5000019B9B6803F1FF32019B9A60019B9B688D
:101A6000002B12DA0D4B9B69019A9A620B4B9A6913
:101A7000019B10461946FFF73BFB4FF00300FFF7B1
:101A800077FC064B9B699B6A01E04FF00003184608
:101A900003B000BD54D8000864D80008980E002098
:101AA00000B585B00190FFF773FA019B002B02D1BE
:101AB0001748FFF7E5FA019B9B68002B04DB019BAD
:101AC0001A68019B9A420BD0019B9B68002B04DA99
:101AD000019B1A68019B9A4202D10E48FFF7D0FA87
:101AE000019B9B6803F10102019B9A60019B9B682B
:101AF000002B0BDC019B1846FFF712FB0390039BA6
:101B00004FF000029A620398FFF7FAFB05B000BDA0
:101B1000CCD80008E0D80008AFF30080AFF3008015
:101B200000B583B00190019B002B02D10848FFF75C
:101B3000A7FA019B1A46019B5A60019B5A68019BB8
:101B40001A60019B4FF000029A6003B000BD00BF15
:101B500070D90008AFF30080AFF30080AFF30080CE
:101B600000B583B00190FEF79BFFFFF771F9019874
:101B700000F006F8FFF784F9FEF79AFF03B000BD06
:101B800000B585B001903C4B9B690293FFF718FAB2
:101B9000019B002B02D13948FFF772FA019B9B6829
:101BA000002B5CD0019B9B68039335E0029B9A68F5
:101BB000039B9A60039B93F82030042B04D0052BE1
:101BC00011D0002B1AD02DE00398FFF7C1FA02467E
:101BD000039B9B6A10461946FFF762FA039B9B6AB8
:101BE0009B68039318E00398FFF7B2FA0246039B41
:101BF0009B6A10461946FFF753FA0CE0039B4FF01F
:101C0000010283F820200398FFF7A2FA0346184642
:101C1000FFF776FB00BF05E0039B9A68029B9B6879
:101C20009A42C3D3019B02981946FFF739FA029BE7
:101C3000019A9A624FF00400FFF79AFB019B9A68A1
:101C4000029B9A4202D00E48FFF71AFA029B1A6CC6
:101C5000019B9A420DD00B48FFF712FA09E0019B55
:101C6000029A9A60029B1A6C019BDA60029B019AAD
:101C70001A6405B000BD00BF980E002080D900088E
:101C800090D90008A4D90008AFF30080AFF300801A
:101C900000B587B0314B9B690393FEF701FFFFF757
:101CA000D7F8039B1B6C002B02D12D48FFF7E8F9F6
:101CB000039B1B6C9A68039B9A4202D02948FFF74A
:101CC000DFF9039B1B6C0293029BDA68039B1A6487
:101CD000029B1A68029B9A4233D0039B5B6C04936D
:101CE000039B1B6C059311E0059B1A68059B9A42A8
:101CF00009D0059B1B689A68049B9A4203D9059BEF
:101D00001B689B680493059BDB680593059B002B70
:101D1000EAD1039B049A9A60029B1846FFF700FAE7
:101D20000190029B019A9A60019B1A6C029BDA60F7
:101D3000019B029A1A6401984FF00001FFF7C0FB63
:101D400003E0029B4FF000029A60FFF799F8FEF75C
:101D5000AFFE029B184607B000BD00BF980E0020E2
:101D6000CCD90008E0D90008AFF30080AFF30080C1
:101D700000B583B001900091FFF70AF9019B002B99
:101D800002D11648FFF77CF9019BDA6B009B1A43DE
:101D9000019BDA63019B93F82030082B07D1019B4C
:101DA000DA6B019B9B6A02EA0303002B0DD1019BB6
:101DB00093F82030092B0FD1019BDA6B019B9B6AB2
:101DC0001A40019B9B6A9A4206D10198FFF798FA44
:101DD00003464FF000029A6203B000BD5CDA0008CF
:101DE00000B585B001900091FFF7D2F8019B002B60
:101DF00002D10D48FFF744F9019B1B6803930DE0E6
:101E0000039B5A68039B9968009B41EA03031046B1
:101E10001946FFF7ADFF039B1B680393019B039AD1
:101E20009A42EDD105B000BD70DA0008AFF3008032
:101E300000B583B001900091009B002B02D14FF0C0
:101E4000FF3310E0094B9B69019A9A62074B9A692C
:101E5000019B10461946FFF74BF94FF00D00009912
:101E6000FFF7FEFA0346184603B000BD980E0020A7
:101E700084B00390029101920093039B1A46039B46
:101E80005A60039B5A68039B1A60039B4FF0000241
:101E90009A60039B029A5A61039B5A69039B9A6159
:101EA000039B9A69039BDA60029A019BD218039BF9
:101EB0001A61039B009ADA6104B07047AFF30080A7
:101EC00000B583B00190FFF763F8019BDA68019BCE
:101ED0005A61019B5A69019B9A61019B4FF0000274
:101EE0009A600BE0019B1846FFF71AF90346184663
:101EF000FFF706FA03466FF001029A62019B1A6827
:101F0000019B9A42EED103B000BD00BFAFF3008049
:101F100000B583B001900B468DF80330FFF738F819
:101F2000019B5A69019B9B699A4206D1019B9B6860
:101F3000002B02D06FF003032BE0019B9B6803F1A1
:101F40000102019B9A60019B5B699DF803201A7056
:101F500003F10102019B5A61019B5A69019B1B69B4
:101F60009A4203D3019BDA68019B5A61019B1A686C
:101F7000019B9A420BD0019B1846FFF7D1F803460C
:101F80001846FFF7BDF903464FF000029A624FF082
:101F90000003184603B000BDAFF30080AFF300802C
:101FA00000B585B001900091FEF77AFDFEF750FF75
:101FB000019BDB69002B12D0019BDB6901989847DC
:101FC0000EE001980099FFF733FF0390039B002B6D
:101FD00006DAFEF755FFFEF76BFD039B23E000BF1B
:101FE000019B9B68002BECD0019B9B6803F1FF32A7
:101FF000019B9A60019B9B691A788DF80B2003F175
:102000000102019B9A61019B9A69019B1B699A429B
:1020100003D3019BDA68019B9A61FEF731FFFEF75B
:1020200047FD9DF80B30184605B000BDAFF30080AA
:1020300000B587B00390029101920093039BDB6986
:1020400004934FF000030593019B002B02D12B4812
:10205000FFF716F8FEF724FDFEF7FAFE049B002BAF
:1020600010D0049B039898470DE003980099FFF760
:10207000DFFE0346002B06D0FEF702FFFEF718FD39
:10208000059B37E000BF039B9B68002BEDD0039BB3
:102090009B6803F1FF32039B9A60039B9B6919784D
:1020A000029A1170029A02F10102029203F10102F6
:1020B000039B9A61039B9A69039B1B699A4203D312
:1020C000039BDA68039B9A61FEF7DAFEFEF7F0FCE9
:1020D000059B03F101030593019B03F1FF3301937A
:1020E000019B002B01D1059B04E0FEF7D9FCFEF714
:1020F000AFFEB3E7184607B000BD00BFB0DA000876
:1021000084B00390029101920093039B1A46039BB3
:102110005A60039B5A68039B1A60039B019A9A605A
:10212000039B029A5A61039B5A69039B9A61039B22
:102130009A69039BDA60029A019BD218039B1A6189
:10214000039B009ADA6104B0704700BFAFF30080D0
:1021500000B583B00190FEF71BFF019BDA68019B7D
:102160005A61019B5A69019B9A61019B1B691A463E
:10217000019BDB68D31A1A46019B9A600BE0019B16
:102180001846FEF7CDFF03461846FFF7B9F8034699
:102190006FF001029A62019B1A68019B9A42EED18C
:1021A00003B000BDAFF30080AFF30080AFF3008059
:1021B00000B587B003900B4601928DF80B30FEF707
:1021C0006FFCFEF745FE0DE003980199FFF730FE26
:1021D0000590059B002B05DAFEF752FEFEF768FC22
:1021E000059B2AE0039B9B68002BEDD0039B9B681B
:1021F00003F1FF32039B9A60039B5B699DF80B2000
:102200001A7003F10102039B5A61039B5A69039BF5
:102210001B699A4203D3039BDA68039B5A61039BB1
:10222000DB69002B03D0039BDB6903989847FEF71B
:1022300027FEFEF73DFC4FF00003184607B000BD37
:1022400000B585B00190FEF7A3FE019B5A69019B82
:102250009B699A4206D1019B9B68002B02D06FF0CC
:1022600002032BE0019B9B6803F10102019B9A6032
:10227000019B9B691A788DF80F2003F10102019BE5
:102280009A61019B9A69019B1B699A4203D3019B46
:10229000DA68019B9A61019B1A68019B9A420BD0F4
:1022A000019B1846FEF73CFF03461846FFF728F847
:1022B00003464FF000029A629DF80F30184605B0B1
:1022C00000BD00BFAFF30080AFF30080AFF300802C
:1022D00000B587B00390029101920093039BDB69E4
:1022E00004934FF000030593019B002B02D12B4870
:1022F000FEF7C6FEFEF7D4FBFEF7AAFD0CE003983E
:102300000099FFF795FD0346002B05D0FEF7B8FDB9
:10231000FEF7CEFB059B3DE0039B9B68002BEED0B8
:10232000039B9B6803F1FF32039B9A60039B5B69ED
:10233000029A12781A7003F10102039B5A61029B00
:1023400003F101030293039B5A69039B1B699A42A1
:1023500003D3039BDA68039B5A61049B002B02D0D2
:10236000049B03989847FEF78BFDFEF7A1FB059BA6
:1023700003F101030593019B03F1FF330193019BDB
:10238000002B01D1059B05E0FEF78AFBFEF760FDFF
:1023900000BFC1E7184607B000BD00BFC4DA00089F
:1023A000074B03F1070323F007031A46054B1A6096
:1023B000054B23F007031A46044B1A60704700BF11
:1023C00050290020B40E002000500020B80E00203C
:1023D00000B585B00190FEF763FBFEF739FD01986B
:1023E00000F00EF80390FEF74BFDFEF761FB039B38
:1023F000184605B000BD00BFAFF30080AFF300800A
:1024000000B585B00190FEF7C3FD019B03F1070302
:1024100023F0070301930D4B1B681A460C4B1B68F6
:10242000D31A1A46019B9A4202D24FF0000309E0E8
:10243000074B1B680393064B1A68019BD218044B89
:102440001A60039B184605B000BD00BFB80E0020FF
:10245000B40E0020AFF30080AFF30080AFF3008034
:1024600008B5074B074A1A60054B4FF000029A6007
:10247000034B4FF00002DA600348FFF751FB08BD41
:10248000C00E0020D1230008D00E0020AFF3008042
:1024900000B587B001900091019B002B01D1384B12
:1024A0000193009B03F1070323F007030093019BB3
:1024B00003F108030593019B03F110031846FFF78E
:1024C0004FFB36E0059B1B680493049B5A68009BF6
:1024D0009A422CD3049B5A68009B03F108039A424A
:1024E00004D2049B1A68059B1A6017E0009B03F155
:1024F0000803049AD3180393049B1A68039B1A6079
:10250000049B5A68009BD31AA3F10802039B5A60EC
:10251000059B039A1A60049B009A5A60049B019AD7
:102520001A60FFF7B5FB049B03F1080325E0049B49
:102530000593059B1B68002BC4D1FFF7A9FB019BEA
:102540001B68002B17D0019B1B68009A02F1080240
:102550001046984703460493049B002B0BD0049B22
:10256000019A1A60049B009A5A60049B03F10803C5
:102570000493049B01E04FF00003184607B000BD30
:10258000C00E0020AFF30080AFF30080AFF30080F7
:1025900000B587B00190019B002B02D13A48FEF7AD
:1025A0006FFD019BA3F108030493049B1B68039335
:1025B000039B03F108030593039B03F110031846E3
:1025C000FFF7CEFA049A059B9A420BD3059B5B68F2
:1025D00003F10803059AD218049B9A4202D92B48AA
:1025E000FEF74EFD039B03F10802059B9A4203D0C0
:1025F000049A059B9A4242D9059B1B68002B04D084
:10260000059B1A68049B9A4239D9059B1A68049B5A
:102610001A60059B049A1A60049B5B6803F1080327
:10262000049AD218049B1B689A420ED1049B5A68E4
:10263000049B1B685B68D31803F10802049B5A6073
:10264000049B1B681A68049B1A60059B5B6803F176
:102650000803059AD218049B9A420CD1059B5A682C
:10266000049B5B68D31803F10802059B5A60049B26
:102670001A68059B1A60FFF70BFB07B000BD059BAE
:102680001B6805939EE700BFF0DA000800DB000836
:1026900000B585B001900091009B0393FEF778FC94
:1026A000019B002B07D0009B002B04D0009B03F064
:1026B0000703002B02D00648FEF7E2FC019B1A68D4
:1026C000039B1A60019B039A1A6005B000BD00BF0E
:1026D00044DB0008AFF30080AFF30080AFF300806D
:1026E00000B583B001900091FEF7DAF9FEF7B0FB78
:1026F00001980099FFF7CCFFFEF7C2FBFEF7D8F96F
:1027000003B000BDAFF30080AFF30080AFF30080F3
:1027100008B502F0E5F801F0EBFA0B4804F070F9A7
:1027200000F016F800F07CF900F092F900F010FBD0
:1027300000F086FC00F08CFF01F0AAFC01F048FEDE
:1027400005F02EF908BD00BFC0E70008AFF3008018
:1027500008B502F065FA08BDAFF30080AFF3008062
:1027600000B583B00190019B4FF001021A70019BEC
:102770004FF000025A60019B4FF000029A60019BEB
:102780004FF00002DA60019B4FF000021A61019BDA
:102790004FF000025A61019B03F118031846FFF73E
:1027A000BFF903B000BD00BFAFF30080AFF30080FE
:1027B00000B583B001900091019B002B02D111481C
:1027C000FEF75EFCFEF76CF9FEF742FB019B1B78FF
:1027D000012B06D0019B1B78022B02D00A48FEF782
:1027E0004FFC019B009A5A60019802F061FA019B2C
:1027F0004FF002021A70FEF743FBFEF759F903B0DF
:1028000000BD00BF60DB000870DB0008AFF3008094
:1028100000B583B00190019B002B02D10F48FEF759
:102820002FFCFEF73DF9FEF713FB019B1B78012BF4
:1028300006D0019B1B78022B02D00948FEF720FC32
:10284000019802F075FA019B4FF001021A70FEF731
:1028500017FBFEF72DF903B000BD00BF80DB0008B9
:102860008CDB0008AFF30080AFF30080AFF3008093
:1028700000B585B00390029101920093FEF710F924
:10288000FEF7E6FA03980299019A009B00F008F817
:10289000FEF7F6FAFEF70CF905B000BDAFF30080C5
:1028A00000B585B00390029101920093FEF770FB92
:1028B000039B002B0ED0029B002B0BD0019B002B07
:1028C00008D0009B012B08D0009B03F00103DBB272
:1028D000002B02D01148FEF7D3FB039B1B78022B81
:1028E0000AD0039B1B78042B06D0039B1B78052B77
:1028F00002D00B48FEF7C4FB039B019A9A60039B2E
:10290000009ADA60039B029A1A61039B4FF003025C
:102910001A70039802F034FA05B000BD9CDB000881
:10292000B4DB0008AFF30080AFF30080AFF30080AA
:1029300000B585B00190019B002B02D11B48FEF72A
:102940009FFBFEF7ADF8FEF783FA019B1B78022B85
:1029500006D0019B1B78032B02D01548FEF790FB95
:10296000019B1B78022B1AD0019802F081FA019B7F
:102970004FF000021A61019B4FF002021A70019B96
:102980005B69002B0BD0019B5B690393019B4FF0AC
:1029900000025A6103986FF00101FEF791FDFEF706
:1029A0006FFAFEF785F805B000BD00BFD0DB000868
:1029B000E8DB0008AFF30080AFF30080AFF30080E6
:1029C00000B587B00390029101920093FEF768F87A
:1029D000FEF73EFA039B5B69002B02D00E48FEF720
:1029E0004FFB03980299019A009BFFF759FF0B4B8D
:1029F0009A69039B5A614FF00200FEF7B9FC074B3E
:102A00009B699B6A0593FEF73BFAFEF751F8059B1D
:102A1000184607B000BD00BF34DC0008980E002047
:102A200008B502F0A5FB08BDAFF30080AFF300804E
:102A300082B00190019B4FF001021A70019B4FF090
:102A400000025A6002B07047AFF30080AFF300801D
:102A500008B503F065F808BDAFF30080AFF3008060
:102A600000B583B00190019B4FF001021A70019BE9
:102A70004FF000025A60019B03F10C031846FFF768
:102A80004FF803B000BD00BFAFF30080AFF300808C
:102A900000B583B001900091019B002B02D0009BF8
:102AA000002B02D11248FEF7EBFA019B1B78012B99
:102AB0000AD0019B1B78022B06D0019B1B78052BAB
:102AC00002D00C48FEF7DCFAFDF7EAFFFEF7C0F98A
:102AD000019B009A5A60019803F05AF8019B4FF04D
:102AE00002021A70FEF7CCF9FDF7E2FF03B000BD59
:102AF00070DC000880DC0008AFF30080AFF30080DA
:102B000000B583B00190019B002B02D11148FEF764
:102B1000B7FA019B1B78012B0AD0019B1B78022B73
:102B200006D0019B1B78052B02D00B48FEF7A8FAB4
:102B3000FDF7B6FFFEF78CF9019803F019F9019B38
:102B40004FF001021A70FEF79BF9FDF7B1FF03B0D9
:102B500000BD00BF90DC00089CDC0008AFF30080E3
:102B600000B58BB00790059204930B46ADF81A3070
:102B7000079B002B15D0BDF81A30002B11D0049BF9
:102B8000002B0ED0059B002B0BD00D9B002B05D0EE
:102B90000D9B002B05D00C9B002B02D00E9B002B15
:102BA00002D11D48FEF76CFA079B1B78022B02D05E
:102BB0001A48FEF765FAFDF773FFFEF749F9079B20
:102BC0004FF000029A60079B4FF003021A70BDF8A5
:102BD0001A300C9A00920D9A01920E9A029207985E
:102BE0001946059A049B03F0A3F90990099BB3F1D8
:102BF000FF3F04D1079B4FF005021A7003E0079BCB
:102C00004FF002021A70FEF73BF9FDF751FF099BE6
:102C100018460BB000BD00BFC0DC0008E0DC0008B7
:102C200000B589B00590039202930B46ADF81230BF
:102C3000059B002B0CD0BDF81230002B08D0029B56
:102C4000002B05D0039B002B02D00A9B002B02D146
:102C50001A48FEF715FA059B1B78022B02D018487C
:102C6000FEF70EFAFDF71CFFFEF7F2F8059B4FF09A
:102C700000029A60059B4FF004021A70BDF81230F2
:102C80000A9A009205981946039A029B03F0B0F83D
:102C90000790079BB3F1FF3F04D1059B4FF005025E
:102CA0001A7003E0059B4FF002021A70FEF7E8F875
:102CB000FDF7FEFE079B184609B000BD00DD0008C9
:102CC0001CDD0008AFF30080AFF30080AFF300809D
:102CD00000B58DB00990079206930B46ADF82230EF
:102CE000FDF7DEFEFEF7B4F8099B4FF000029A6094
:102CF000099B4FF000021A70BDF822300E9A009224
:102D00000F9A0192109A0292119A0392129A0492C7
:102D100009981946079A069B03F0B2F90B900B9B92
:102D2000B3F1FF3F04D1099B4FF005021A7003E095
:102D3000099B4FF002021A70FEF7A2F8FDF7B8FEE9
:102D40000B9B18460DB000BDAFF30080AFF30080C1
:102D500008B503F0BDFA08BDAFF30080AFF3008003
:102D600082B00190019B4FF001021A70019B4FF05D
:102D700000025A6002B07047AFF30080AFF30080EA
:102D800000B583B001900091019B002B02D0009B05
:102D9000002B02D11248FEF773F9FDF781FEFEF712
:102DA00057F8019B1B78012B06D0019B1B78022B47
:102DB00002D00C48FEF764F9019B009A5A60009B10
:102DC0009A88019B1A81019803F092FA019B4FF0B7
:102DD00002021A70FEF754F8FDF76AFE03B000BD58
:102DE00060DD000870DD0008AFF30080AFF3008005
:102DF00000B583B00190019B002B02D10F48FEF774
:102E00003FF9FDF74DFEFEF723F8019B1B78012BE0
:102E100006D0019B1B78022B02D00948FEF730F93F
:102E2000019803F075FB019B4FF001021A70FEF749
:102E300027F8FDF73DFE03B000BD00BF80DD0008B0
:102E40008CDD0008AFF30080AFF30080AFF30080AB
:102E500000B583B0019013460A468DF80320ADF803
:102E60000030019B002B03D09DF80330032B02D9C7
:102E70000E48FEF705F9FDF713FEFDF7E9FF019B8C
:102E80001B78022B02D00A48FEF7FAF89DF80320BF
:102E9000BDF80030019811461A4603F069FBFDF7B2
:102EA000EFFFFDF705FE03B000BD00BFC8DD000861
:102EB000E0DD0008AFF30080AFF30080AFF30080E7
:102EC00000B585B0039002910192039B03F130039A
:102ED00018460299019A4FF0FF33FFF7F9F90346BC
:102EE000184605B000BD00BFAFF30080AFF300800F
:102EF00000B585B0039002910192039B03F110038A
:102F000018460299019A4FF0FF33FFF791F80346F4
:102F1000184605B000BD00BFAFF30080AFF30080DE
:102F200082B00190019B9B6B002B14BF00230123F7
:102F3000184602B0704700BFAFF30080AFF30080C7
:102F400082B00190019B9B69002B14BF00230123D9
:102F5000184602B0704700BFAFF30080AFF30080A7
:102F600000B585B003900B4601928DF80B30039BA2
:102F700003F130029DF80B3010461946019AFFF715
:102F800017F90346184605B000BD00BFAFF3008037
:102F900000B583B001900091019B03F11003184626
:102FA0000099FEF7FDFF0346184603B000BD00BFC1
:102FB00000B585B00390029101920093039B03F149
:102FC000300318460299019A009BFFF781F90346E6
:102FD000184605B000BD00BFAFF30080AFF300801E
:102FE00000B585B00390029101920093039B03F119
:102FF000100318460299019A009BFFF719F803463F
:10300000184605B000BD00BFAFF30080AFF30080ED
:1030100000B585B00190FDF743FDFDF719FF019B59
:103020009B680393019B4FF000029A60FDF728FF15
:10303000FDF73EFD039B184605B000BDAFF30080D1
:1030400008B503F06DFC08BDAFF30080AFF300805E
:1030500000B585B0039002910192039B154A1A6056
:10306000039B03F104031A46039B5A60039B4FF032
:1030700000029A60039B4FF001021A73039B03F155
:103080001002039B03F15003104619464FF0100243
:10309000029BFEF7EDFE039B03F13002039B03F15D
:1030A0006003104619464FF01002019BFFF728F805
:1030B00005B000BD80E60008AFF30080AFF30080EC
:1030C00000B583B001900091019B002B02D1104804
:1030D000FDF7D6FFFDF7E4FCFDF7BAFE019B1B7B75
:1030E000012B06D0019B1B7B022B02D00948FDF768
:1030F000C7FF0198009903F02BFC019B4FF00202DF
:103100001A73FDF7BDFEFDF7D3FC03B000BD00BF91
:1031100010DE00081CDE0008AFF30080AFF3008073
:1031200000B583B00190019B002B02D11648FDF73A
:10313000A7FFFDF7B5FCFDF78BFE019B1B7B012B69
:1031400006D0019B1B7B022B02D01048FDF798FF95
:10315000019803F02DFC019B4FF001021A73019BB3
:1031600003F130031846FEF7F3FF019B03F1100350
:103170001846FEF7A5FEFEF7E3F9FDF781FEFDF721
:1031800097FC03B000BD00BF2CDE000838DE00084D
:1031900000B583B001900B468DF80330FDF7F8FEC3
:1031A000019B002B02D11848FDF76AFF019B9B6928
:1031B000002B0DD1019B9B6843F00402019B9A6098
:1031C000019B03F1040318464FF00001FEF708FECF
:1031D000019B03F110029DF8033010461946FEF7DB
:1031E00097FE0346002B0DDA019B9B6843F080029B
:1031F000019B9A60019B03F1040318464FF0000104
:10320000FEF7EEFD03B000BD48DE0008AFF300801E
:1032100000B583B00190019B93F84220019B83F895
:103220004A20019803F04CFF019B5B681B68002B50
:1032300006D0019B5B681B6801984FF0010198471D
:10324000019B4FF003021A7003B000BDAFF3008082
:1032500010B584B00190019B93F8403003F07F02D9
:10326000019B93F841304FEA032342EA0303B3F58D
:10327000407F63D0B3F5407F12DC022B00F0008169
:10328000022B05DC002B28D0012B00F0EB80D8E1CD
:10329000B3F5807F32D0B3F5817F00F05681D0E165
:1032A000B3F5C06F78D0B3F5C06F08DC40F20232DE
:1032B000934200F08481B3F5A06F5FD0C1E1B3F514
:1032C000106F00F0A08040F60242934200F0CA80E6
:1032D000B3F5006F00F08780B3E1019B03F1480371
:1032E0001A46019B5A63019B4FF002029A63019BAD
:1032F0004FF00002DA634FF00103A4E1019B93F861
:103300004230012B17D1019BB3F8483023F0020360
:103310009AB2019BA3F84820019B4FF000025A6328
:10332000019B4FF000029A63019B4FF00002DA63A9
:103330004FF0010387E14FF0000384E1019B93F814
:103340004230012B17D1019BB3F8483043F0020300
:103350009AB2019BA3F84820019B4FF000025A63E8
:10336000019B4FF000029A63019B4FF00002DA6369
:103370004FF0010367E14FF0000364E1019B4FF060
:1033800000025A63019B4FF000029A63019B9C4A22
:10339000DA634FF0010356E1019B5B685C68019BB7
:1033A00093F84310019B93F84220019B03F14003E3
:1033B00003F104031B880198A0470390039B002B93
:1033C00002D14FF000033EE1039B5A68019B5A6310
:1033D000039B1A68019B9A63019B4FF00002DA631A
:1033E0004FF001032FE1019B03F14B02019B5A6354
:1033F000019B4FF001029A63019B4FF00002DA63D8
:103400004FF001031FE1019B93F84220019B83F8D9
:103410004B20019B93F84B30002B04D1019B4FF0C4
:1034200003021A7003E0019B4FF004021A70019B23
:103430005B681B68002B06D0019B5B681B680198CA
:103440004FF002019847019B4FF000025A63019B25
:103450004FF000029A63019B4FF00002DA634FF0D5
:103460000103F0E0019B674A5A63019B4FF002029F
:103470009A63019B4FF00002DA634FF00103E2E030
:10348000019B93F84430DBB25BB2002B2EDA019B38
:1034900093F8443003F00F03DBB20198194603F0B0
:1034A00017FF0346012B02D0022B0ED01BE0019B1D
:1034B000554A5A63019B4FF002029A63019B4FF0F9
:1034C0000002DA634FF00103BDE0019B4F4A5A63EB
:1034D000019B4FF002029A63019B4FF00002DA63F6
:1034E0004FF00103AFE04FF00003ACE0019B93F815
:1034F000443003F00F03DBB20198194603F0C8FE15
:103500000346012B02D0022B0ED01BE0019B3E4A4A
:103510005A63019B4FF002029A63019B4FF0000235
:10352000DA634FF001038EE0019B384A5A63019B36
:103530004FF002029A63019B4FF00002DA634FF0F2
:10354000010380E04FF000037DE0019B93F84230DF
:10355000002B02D04FF0000375E0019B93F844303C
:1035600003F00F03002B1BDD019B93F84430DBB20B
:103570005BB2002B0ADA019B93F8443003F00F038F
:10358000DBB20198194604F0C3F809E0019B93F8F7
:10359000443003F00F03DBB20198194604F090F8B1
:1035A000019B4FF000025A63019B4FF000029A63A7
:1035B000019B4FF00002DA634FF0010343E0019BEF
:1035C00093F84230002B02D04FF000033BE0019B08
:1035D00093F8443003F00F03002B23DD019B93F895
:1035E0004430DBB25BB2002B12DA019B93F844301B
:1035F00003F00F03DBB20198194604F041F811E023
:1036000011320008B0E60008D0E60008C0E6000865
:10361000019B93F8443003F00F03DBB20198194685
:1036200004F00EF8019B4FF000025A63019B4FF02B
:1036300000029A63019B4FF00002DA634FF001032E
:1036400001E04FF00003184604B010BDAFF3008056
:1036500008B503F0CDFC08BDAFF30080AFF30080E8
:1036600082B00190019B4FF001021A70019B4FF054
:1036700000025A60019B4FF000029A60019B4FF0DC
:1036800000029A81019B4FF00002DA8102B070477C
:1036900000B585B001900091019B002B02D0009BEA
:1036A000002B02D11A48FDF7EBFCFDF7F9F9FDF705
:1036B000CFFB019B1B78012B06D0019B1B78022BB3
:1036C00002D01448FDF7DCFC019B009A5A604FF0D1
:1036D000000303930BE0019B039A02F104024FF0F5
:1036E000000143F82210039B03F101030393039BA2
:1036F000072BF0D9019803F083FC019B4FF00202E5
:103700001A70FDF7BDFBFDF7D3F905B000BD00BF92
:1037100070DE000880DE0008AFF30080AFF30080A9
:1037200000B585B003900B4601928DF80B30FDF784
:103730002FFC039B002B02D0019B002B02D11F48C2
:10374000FDF79EFC039B1B78042B02D01C48FDF761
:1037500097FC9DF80B20039B02F1040253F82230E2
:10376000002B02D01748FDF78BFC019B1B6803F070
:103770001003002B11D1019B5B6918464FF000012B
:103780004FF00C02FCF79CFD019B9B6918464FF023
:1037900000014FF01002FCF793FD9DF80B20039BF6
:1037A00002F10402019943F822109DF80B300398AE
:1037B000194603F095FC05B000BD00BFACDE000863
:1037C000C4DE0008E0DE0008AFF30080AFF3008045
:1037D00000B583B001900B468DF80330FDF7D8FBA0
:1037E000019B002B02D11648FDF74AFC019BDB89A7
:1037F0001A469DF8033042FA03F303F00103DBB2EB
:10380000002B02D04FF0010317E0019BDB899AB235
:103810009DF803304FF0010101FA03F39BB242EA35
:1038200003039BB29AB2019BDA819DF803300198A1
:10383000194603F0C5FE4FF00003184603B000BD63
:1038400034DF0008AFF30080AFF30080AFF30080F7
:1038500000B583B001900B468DF80330FDF798FB5F
:10386000019B002B02D11648FDF70AFC019B9B89A6
:103870001A469DF8033042FA03F303F00103DBB26A
:10388000002B02D04FF0010317E0019B9B899AB2F5
:103890009DF803304FF0010101FA03F39BB242EAB5
:1038A00003039BB29AB2019B9A819DF80330019861
:1038B000194603F0A5FE4FF00003184603B000BD03
:1038C0004CDF0008AFF30080AFF30080AFF300805F
:1038D00000B585B00190019B4FF002021A70019B68
:1038E0004FF00002A3F84820019B4FF0000283F83C
:1038F0004A20019B4FF0000283F84B20019B4FF0C0
:1039000000029A81019B4FF00002DA814FF0000320
:1039100003930BE0019B039A02F104024FF00001B4
:1039200043F82210039B03F101030393039B072B2E
:10393000F0D9019B4FF0000283F83020019803F08A
:103940008FFB05B000BD00BFAFF30080AFF3008078
:1039500000B585B001900B468DF80330019B4FF008
:10396000000283F83020019B03F140039DF80320FF
:10397000019811461A4603F0CBFC019B5B689B68DB
:10398000002B07D0019B5B689B6801989847034612
:10399000002B27D1019B93F8403003F06003002BEC
:1039A00005D10198FFF754FC0346002B1AD101986A
:1039B0004FF0000103F064FE01984FF0000103F0A6
:1039C0003FFE019B5B681B68002B06D0019B5B6878
:1039D0001B6801984FF005019847019B4FF00502C5
:1039E00083F83020019B03F1400303F106031B8899
:1039F0000393019B9A6B039B9A4202D9019B039A02
:103A00009A63019B93F84030DBB25BB2002B2BDA58
:103A1000019B9B6B002B13D0019B4FF0010283F89D
:103A20003020019B5A6B019B9B6B01984FF000016A
:103A300003F086FD01984FF0000103F0E1FD3EE048
:103A4000019B4FF0020283F8302001984FF00001F3
:103A50004FF000024FF0000303F032FD01984FF0E9
:103A6000000103F0ADFD2AE0019B9B6B002B13D0FE
:103A7000019B4FF0030283F83020019B5A6B019B9E
:103A80009B6B01984FF0000103F01AFD01984FF075
:103A9000000103F095FD12E0019B4FF0040283F852
:103AA000302001984FF000014FF000024FF000036A
:103AB00003F046FD01984FF0000103F0A1FD05B0B1
:103AC00000BD00BFAFF30080AFF30080AFF3008014
:103AD00000B585B001900B468DF80330019B93F83B
:103AE0003030012B02D0042B3BD048E0019B03F186
:103AF000400303F106031B880393019B9A6B039B0E
:103B00009A421AD2019B9B6B019A1269128AB3FBEB
:103B1000F2F102FB01F29B1A002B0ED101984FF03B
:103B200000014FF000024FF0000303F009FD01987F
:103B30004FF0000103F064FD3CE0019B4FF00202F6
:103B400083F8302001984FF000014FF000024FF051
:103B5000000303F0B5FC01984FF0000103F030FDC5
:103B600028E0019BDB6B002B03D0019BDB6B0198F2
:103B70009847019B4FF0000283F830201AE001982B
:103B80004FF0000103F07CFD01984FF0000103F0BD
:103B900057FD019B5B681B68002B06D0019B5B688F
:103BA0001B6801984FF005019847019B4FF00502F3
:103BB00083F8302005B000BDAFF30080AFF3008084
:103BC00000B583B001900B468DF80330019B93F84C
:103BD0003030022B15D0032B28D1019B4FF004026B
:103BE00083F8302001984FF000014FF000024FF0B1
:103BF000000303F0A5FC01984FF0000103F000FD65
:103C00002FE0019B1B699B69DB68002B0DD1019B99
:103C1000DB6B002B03D0019BDB6B01989847019B6A
:103C20004FF0000283F830201BE000BF01984FF0F6
:103C3000000103F025FD01984FF0000103F000FDA5
:103C4000019B5B681B68002B06D0019B5B681B68AF
:103C500001984FF005019847019B4FF0050283F84A
:103C6000302003B000BD00BFAFF30080AFF3008091
:103C700082B00190024B5A68019B9A6002B0704773
:103C8000001000E0AFF30080AFF30080AFF30080DE
:103C900084B00190114B5B680393019B9B68039A6E
:103CA000D21A0F4B1B68D21A019B9A60019B9A682B
:103CB000019BDB689A4204D9019B9A68019BDA60F8
:103CC00009E0019B9A68019B1B699A4203D2019B00
:103CD0009A68019B1A6104B0704700BF001000E0B1
:103CE000E00E0020AFF30080AFF30080AFF3008060
:103CF00000B587B00A4B4FF000021A6001AB1846BE
:103D000000F016F8019B01AA10469847029B01AAF1
:103D100010469847039A024B1A6007B000BD00BFD7
:103D2000E00E0020AFF30080AFF30080AFF300801F
:103D300082B00190019B094A1A60019B084A5A60AF
:103D4000019B4FF000029A60019B4FF00002DA6085
:103D5000019B4FF0FF321A6102B07047713C0008BE
:103D6000913C0008AFF30080AFF30080AFF3008018
:103D700000B585B0039002910192039B03F13003DB
:103D800018460299019A4FF0FF33FEF7A1FA034655
:103D9000184605B000BD00BFAFF30080AFF3008050
:103DA00000B585B0039002910192039B03F11003CB
:103DB00018460299019A4FF0FF33FEF739F903468E
:103DC000184605B000BD00BFAFF30080AFF3008020
:103DD00082B00190019B9B6B002B14BF0023012339
:103DE000184602B0704700BFAFF30080AFF3008009
:103DF00082B00190019B9B69002B14BF002301231B
:103E0000184602B0704700BFAFF30080AFF30080E8
:103E100000B585B003900B4601928DF80B30039BE3
:103E200003F130029DF80B3010461946019AFEF757
:103E3000BFF90346184605B000BD00BFAFF30080D0
:103E400000B583B001900091019B03F11003184667
:103E50000099FEF7A5F80346184603B000BD00BF61
:103E600000B585B00390029101920093039B03F18A
:103E7000300318460299019A009BFEF729FA03467F
:103E8000184605B000BD00BFAFF30080AFF300805F
:103E900000B585B00390029101920093039B03F15A
:103EA000100318460299019A009BFEF7C1F80346D9
:103EB000184605B000BD00BFAFF30080AFF300802F
:103EC00000B585B00190FCF7EBFDFCF7C1FF019B4D
:103ED0009B680393019B4FF000029A60FCF7D0FFB0
:103EE000FCF7E6FD039B184605B000BDAFF300806C
:103EF00000B585B00190019B5B690393039BD3F8E8
:103F0000D0301B68DB8903F00803002B4ED1039BE4
:103F10009B69002B4AD1FCF7B3FFFCF7C9FD039B5B
:103F2000D3F8D0301A68039BDB6910464FF00301C9
:103F30001A464FF0400303F02BFA0290FCF7B0FD55
:103F4000FCF786FF039BD3F8D0301B6818464FF070
:103F50000301FFF73DFC039B9B6843F00402039BB6
:103F60009A60039B03F1040318464FF00001FDF72C
:103F700037FF039BDA69039B9A62039B029A9A615B
:103F80000DE0039B03F110031846FDF7C9F8034643
:103F90001846FDF7B5F903464FF000029A62039BFD
:103FA0001A69039B03F110039A42EAD105B000BDE0
:103FB00000B585B00190019B9B690393039B1B6C2B
:103FC0001A46039BDB6BD31A1A46039B9B6BD31ACF
:103FD0000293039BD3F8D0301B689B8903F0020344
:103FE000002B4ED1FCF74CFFFCF762FD039BD3F88E
:103FF000D0301A68039BDB6B10464FF001011A4664
:10400000029B03F015FAFCF74BFDFCF721FF039B25
:10401000D3F8D0301B6818464FF00101FFF718FCA9
:10402000039B9B6843F00802039B9A60039B03F188
:10403000040318464FF00001FDF7D2FE039BDA6B34
:10404000039B5A64039B1B6C1A46039BDB6BD31ABE
:104050001A46039B9A630DE0039B03F13003184655
:10406000FDF75EF803461846FDF74AF903464FF0A0
:1040700000029A62039B1A6B039B03F130039A427E
:10408000EAD105B000BD00BFAFF30080AFF3008000
:10409000704700BFAFF30080AFF30080AFF3008044
:1040A00000B583B00190019B184A1A60019B03F18F
:1040B00004031A46019B5A60019B4FF000029A606C
:1040C000019B4FF001021A73019B03F11002019B47
:1040D00003F15003104619464FF040020C4BFDF718
:1040E000C7FE019B03F13002019B03F190031046D0
:1040F00019464FF04002074BFEF702F8019A019B68
:104100005A62019A019B9A6403B000BDE0E6000880
:10411000F13E0008B13F0008AFF30080AFF300802C
:1041200000B583B001900091019B002B02D116488D
:10413000FCF7A6FFFCF7B4FCFCF78AFE019B1B7B97
:10414000012B06D0019B1B7B022B02D00F48FCF7F2
:1041500097FF019B009AC3F8D020009B1B68019A2F
:104160009A60019B4FF002021A73FCF789FEFCF77C
:104170009FFC009B1A68009B03F10403104619463C
:10418000FFF786FA03B000BDA0DF0008B0DF00082B
:1041900082B00190019B93F8403003F06003202B24
:1041A00037D1019B93F84130212B04D0222B1ED014
:1041B000202B0ED02AE0019B184A5A63019B4FF036
:1041C00007029A63019B4FF00002DA634FF001038C
:1041D00021E0019B114A5A63019B4FF007029A6349
:1041E000019B4FF00002DA634FF0010313E0019BE3
:1041F0004FF000025A63019B4FF000029A63019B4B
:104200004FF00002DA634FF0010304E04FF00003C7
:1042100001E04FF00003184602B07047F808002094
:1042200000B585B001900B468DF80330019B9B686B
:104230000393FCF735FCFCF73BFE039B1B6C1A4613
:10424000039BDB6BD31A1A46039B9B6BD31A029317
:10425000029B002B48D0FCF743FEFCF729FC039B94
:10426000DB6B9DF80320019811461A46029B03F070
:10427000DFF8FCF715FCFCF71BFE9DF803300198F6
:104280001946FFF7E5FA039B9B6843F00802039B7E
:104290009A60039B03F1040318464FF00001FDF7F9
:1042A0009FFD039BDA6B039B5A64039B1B6C1A46AE
:1042B000039BDB6BD31A1A46039B9A630DE0039BA7
:1042C00003F130031846FCF72BFF03461846FDF7B1
:1042D00017F803464FF000029A62039B1A6B039B88
:1042E00003F130039A42EAD1FCF7FAFDFCF7E0FB58
:1042F00005B000BDAFF30080AFF30080AFF30080E6
:1043000000B585B001900B468DF80330019B9B688A
:104310000393FCF7C5FBFCF7CBFD039B9B69002BCC
:1043200044D1FCF7DDFDFCF7C3FB039BDB699DF883
:104330000320019811461A464FF0400303F028F875
:104340000290FCF7ADFBFCF7B3FD9DF8033001983C
:104350001946FFF73DFA039B9B6843F00402039B59
:104360009A60039B03F1040318464FF00001FDF728
:1043700037FD039BDA69039B9A62039B029A9A6159
:104380000DE0039B03F110031846FCF7C9FE03463A
:104390001846FCF7B5FF03464FF000029A62039BF4
:1043A0001A69039B03F110039A42EAD1FCF798FDC6
:1043B000FCF77EFB05B000BDAFF30080AFF30080DB
:1043C00082B001900B468DF8033002B0704700BFF9
:1043D00008B503F015FA08BDAFF30080AFF3008015
:1043E00000B583B001900091019B002B02D0009B8F
:1043F000002B02D10848FCF743FEFCF751FBFCF709
:1044000027FD0198009903F04BFAFCF739FDFCF702
:104410004FFB03B000BD00BFE0DF0008AFF300803A
:1044200000B583B001900091019B002B02D0009B4E
:10443000002B02D10848FCF723FEFCF731FBFCF708
:1044400007FD0198009903F05BFAFCF719FDFCF7F2
:104450002FFB03B000BD00BFF0DF0008AFF300800A
:1044600000B583B0FCF754FD0C4B1B6803F00F0341
:1044700001930A4B4FF00F025A60094B1B68002B47
:1044800006D0074B1B68064A5268104601999847A8
:10449000FCF75EFDFCF714FB03B000BD000002401A
:1044A000E80E0020AFF30080AFF30080AFF3008090
:1044B00000B583B0FCF72CFD0D4B1B684FEA1313BE
:1044C00003F00F0301930A4B4FF0F0025A60094BBF
:1044D0009B68002B06D0074B9B68064AD2681046A3
:1044E00001999847FCF734FDFCF7EAFA03B000BDE8
:1044F00000000240E80E0020AFF30080AFF3008020
:1045000000B583B0FCF704FD0D4B1B684FEA132385
:1045100003F00F0301930A4B4FF470625A60094B8A
:104520001B69002B06D0074B1B69064A52691046CF
:1045300001999847FCF70CFDFCF7C2FA03B000BDE7
:1045400000000240E80E0020AFF30080AFF30080CF
:1045500000B583B0FCF7DCFC0D4B1B684FEA13334E
:1045600003F00F0301930A4B4FF470425A60094B5A
:104570009B69002B06D0074B9B69064AD2691046FF
:1045800001999847FCF7E4FCFCF79AFA03B000BDE8
:1045900000000240E80E0020AFF30080AFF300807F
:1045A00000B583B0FCF7B4FC0D4B1B684FEA134316
:1045B00003F00F0301930A4B4FF470225A60094B2A
:1045C0001B6A002B06D0074B1B6A064A526A10462C
:1045D00001999847FCF7BCFCFCF772FA03B000BDE8
:1045E00000000240E80E0020AFF30080AFF300802F
:1045F00000B583B0FCF78CFC0D4B1B684FEA1353DE
:1046000003F00F0301930A4B4FF470025A60094BF9
:104610009B6A002B06D0074B9B6A064AD26A10465B
:1046200001999847FCF794FCFCF74AFA03B000BDE7
:1046300000000240E80E0020AFF30080AFF30080DE
:1046400000B583B0FCF764FC0D4B1B684FEA1363A5
:1046500003F00F0301930A4B4FF070625A60094B4D
:104660001B6B002B06D0074B1B6B064A526B104688
:1046700001999847FCF76CFCFCF722FA03B000BDE7
:1046800000000240E80E0020AFF30080AFF300808E
:1046900082B0144B4FF000021A604FF000030193F8
:1046A00016E01149019A13464FEA43039B184FEA5B
:1046B0008303CB181B684FF000021A600B4B019A62
:1046C0004FF0000143F83210019B03F10103019305
:1046D000019B062BE5DD064B4FF0FF325A6002B01E
:1046E000704700BFE40E002010E70008E80E00202D
:1046F00000000240AFF30080AFF30080AFF3008012
:1047000000B585B00390029101920093039B002BAA
:1047100002D13148FCF7B4FC039B5B7A4FF00102F5
:1047200002FA03F31A462D4B1B6802EA0303002B1F
:1047300002D04FF001034BE0039B5B7A1A46284BF3
:10474000019943F83210039B5B7A254A4FEAC30371
:10475000D318009A5A60039B5B7A4FF0010202FA69
:1047600003F31A461D4B1B681A431C4B1A601B4B64
:104770001B6803F07F03002B05D01A4B194A5269BE
:1047800042F001025A61039B1B68039A1268126887
:1047900022F001021A60039B5B68039A127A4FF0C1
:1047A0000F0101FA02F21A60039B1B684FF000022E
:1047B0001A60019B002B09D0039B9B7A1A46029B2F
:1047C0004FEA031310461946FCF7DAF94FF00003DD
:1047D000184605B000BD00BF40E00008E40E002010
:1047E000E80E002000100240AFF30080AFF300801D
:1047F00000B583B00190019B002B02D11948FCF752
:104800003FFC019B5B7A4FF0010202FA03F31A4668
:10481000154B1B6802EA0303002B02D11348FCF777
:104820002FFC019B9B7A1846FCF7FAF9019B5B7AF7
:104830004FF0010202FA03F36FEA03031A460A4B30
:104840001B681A40084B1A60074B1B6803F07F0374
:10485000002B05D1064B064A526922F001025A612B
:1048600003B000BD50E00008E40E002060E0000846
:1048700000100240AFF30080AFF30080AFF3008080
:10488000134B134A126842F480721A60114B1B6A70
:1048900003F44073B3F5407F07D00E4B4FF48032E2
:1048A0001A620C4B4FF000021A620A4B1B6A03F4A7
:1048B0000043002B0BD1074B064A126A42F44072A8
:1048C0001A62044B034A126A42F400421A627047A9
:1048D0000070004000100240AFF30080AFF3008092
:1048E00008B51E4B1B691D4B4FF0FF321A611B4B65
:1048F0004FF000021A61194BDB68184B4FF0FF3282
:10490000DA60164B4FF00002DA60154B154A5A6018
:10491000134B4FF000029A60114B4FF007021A60E0
:10492000114B114AD26842F08072DA600F4B0F4A85
:10493000126842F001021A60084B084AD26942F03C
:104940008052DA61054B054AD26942F00062DA61B1
:10495000FFF796FFFFF79CFE08BD00BF0010024066
:1049600010E000E0FFA50E00F0ED00E0001000E018
:10497000294B294A126842F001021A6000BF264BF7
:104980001B6803F00203002BF9D0234B224A126864
:1049900002F0F9021A60204B4FF000025A6000BF8B
:1049A0001D4B5B6803F00C03002BF9D11A4B1A4A1C
:1049B000126842F480321A6000BF174B1B6803F480
:1049C0000033002BF9D0144B134A526842F488127A
:1049D0005A60114B104A126842F080721A6000BF90
:1049E0000D4B1B6803F00073002BF9D00A4B0B4AE8
:1049F0005A600B4B4FF011021A60074B064A52687F
:104A000042F002025A6000BF034B5B6803F00C03E4
:104A1000082BF9D1704700BF00100240006451001C
:104A200000200240AFF30080AFF30080AFF30080BE
:104A300000B589B001900091009B03F00803002BA2
:104A400039D0019800F014FA019B1B69DB68002B38
:104A500012D0019B4FF005021A70019B1B69DB68A5
:104A600001984FF000019847019B1B78052B03D15B
:104A7000019B4FF002021A70019B4FF000021A6175
:104A8000FCF70EF8FCF714FA019B5B69002B0DD0C4
:104A9000019B5B690793019B4FF000025A61079BE2
:104AA0004FF0FF329A620798FCF72AFCFCF718FADD
:104AB000FBF7FEFFABE0009B03F00403002B0FD0DD
:104AC000019B1B699B68002B0AD0019B1B699B689B
:104AD000019A9168019AD2684FEA52020198984768
:104AE000009B03F00203002B00F09180019B1B69E7
:104AF0001B68002B2DD0019B1B699B68002B00F0CD
:104B00008680019BDB68012B19D9019BDB684FEA8A
:104B100053030693019B1B699B88069A02FB03F3D0
:104B20000593019B1B699B68019A9168059A4FEA5E
:104B300042028A1801981146069A984767E0019B3D
:104B40001B699B68019A9168019AD26801989847FD
:104B50005DE0019800F08CF9019B1B699B68002BBC
:104B600033D0019B4FF004021A70019BDB68012BCC
:104B700019D9019BDB684FEA53030493019B1B691E
:104B80009B88049A02FB03F30393019B1B699B68B8
:104B9000019A9168039A4FEA42028A1801981146D5
:104BA000049A984708E0019B1B699B68019A9168E9
:104BB000019AD26801989847019B1B78042B08D171
:104BC000019B4FF002021A7003E0019B4FF00202BA
:104BD0001A70019B4FF000021A61FBF761FFFCF7AE
:104BE00067F9019B5B69002B0DD0019B5B69029308
:104BF000019B4FF000025A61029B4FF000029A6243
:104C00000298FCF77DFBFCF76BF9FBF751FF09B04D
:104C100000BD00BFAFF30080AFF30080AFF30080B2
:104C200008B51E48FDF79CFD1C4B1D4A9A621B4BA4
:104C30001C4ADA62194B42F28A521A631A4B1A4A18
:104C4000926942F400729A61154B4FF000025A606B
:104C5000134B4FF001029A60114B4FF009029A601A
:104C600000BF0F4B9B6803F00803002BF9D10C4BDE
:104C70004FF005029A6000BF094B9B6803F00403E4
:104C8000002BF9D1064B4FF000029A60064B064A02
:104C9000926922F400729A6108BD00BF200F0020C3
:104CA0000024014010E7000800100240AFF300802C
:104CB00000B585B00190019B1B78012B29D1019A89
:104CC000154B9A421BD1019BDA6A144B10464FF0E8
:104CD00005011A46019BFFF713FD0390039B002B70
:104CE00002D00F48FCF7CCF9019BDB6A1B680D4A28
:104CF0009A600D4B0C4A926942F400729A61019BD2
:104D00009B6A4FF000025A60019B9B6A4FF00002C1
:104D10009A6005B000BD00BF200F0020314A000896
:104D200080E000084C24014000100240AFF30080F6
:104D300000B583B00190019B1B78022B16D1019A1C
:104D40000B4B9A4212D10B4B4FF000025A60094BA9
:104D50004FF000029A60019BDB6A1846FFF748FD9E
:104D6000054B054A926922F400729A6103B000BDB6
:104D7000200F00200024014000100240AFF300800B
:104D800086B00190019B1B690393019B1B6B0593EC
:104D9000039B1B68002B03D0059B43F02003059366
:104DA000019BDB68012B0BD9059B43F004030593A2
:104DB000039B9B88019AD26802FB03F3049302E0F1
:104DC000039B9B880493019BDB6A1B68019A926892
:104DD000DA60019BDB6A1B68049A5A60019BDB6AFC
:104DE0001B68059A1A60019BDB6A1B68019AD26AEC
:104DF0001268126842F001021A60019B9B6A039AD2
:104E0000126942F480725A60019B9A6A039B5B6943
:104E100043F4807343F003039360019B9B6A039AFE
:104E20009269DA60019B9B6A039AD2691A61019BBD
:104E30009B6A039A126ADA62019B9B6A039A526A1E
:104E40001A63019B9B6A039A926A5A63019B9A6A4E
:104E5000039B5B6943F4807343F00303936006B0E4
:104E6000704700BFAFF30080AFF30080AFF3008066
:104E700082B00190019BDB6A1B68019AD26A1268BA
:104E8000126822F001021A60019BDB6A5B68019ADA
:104E9000D26A127A4FF00F0101FA02F21A60019BF6
:104EA0009B6A4FF000029A6002B07047AFF3008037
:104EB00008B5FCF72DF8084B4FF001025A61074B7B
:104EC0005B685B6805484FF000019847FCF740F8C5
:104ED000FBF7F6FD08BD00BF00040140540F0020A1
:104EE00008B5FCF715F8084B4FF002025A61074B62
:104EF0005B68DB6805484FF001019847FCF728F82C
:104F0000FBF7DEFD08BD00BF00040140540F002088
:104F100008B5FBF7FDFF084B4FF004025A61074B41
:104F20005B685B6905484FF002019847FCF710F891
:104F3000FBF7C6FD08BD00BF00040140540F002070
:104F400008B5FBF7E5FF084B4FF008025A61074B25
:104F50005B68DB6905484FF003019847FBF7F8FFF2
:104F6000FBF7AEFD08BD00BF00040140540F002058
:104F700008B5FBF7CDFF084B4FF010025A61074B05
:104F80005B685B6A05484FF004019847FBF7E0FF58
:104F9000FBF796FD08BD00BF00040140540F002040
:104FA00000B583B0FBF7B4FF244B5B6903F478735F
:104FB0000193224B019A5A61019B03F02003002BBD
:104FC00006D01F4B5B68DB6A1D484FF00501984710
:104FD000019B03F04003002B06D0194B5B685B6B11
:104FE00017484FF006019847019B03F08003002B00
:104FF00006D0134B5B68DB6B11484FF007019847F5
:10500000019B03F48073002B06D00D4B5B685B6C37
:105010000B484FF008019847019B03F40073002BE5
:1050200006D0074B5B68DB6C05484FF009019847D9
:10503000FBF78EFFFBF744FD03B000BD0004014009
:10504000540F0020AFF30080AFF30080AFF3008077
:1050500000B583B0FBF75CFF2A4B5B6903F47C432C
:105060000193284B019A5A61019B03F48063002B42
:1050700006D0254B5B685B6D23484FF00A019847CB
:10508000019B03F40063002B06D01F4B5B68DB6DB4
:105090001D484FF00B019847019B03F48053002BF0
:1050A00006D0194B5B685B6E17484FF00C019847B0
:1050B000019B03F40053002B06D0134B5B68DB6E9F
:1050C00011484FF00D019847019B03F48043002BDA
:1050D00006D00D4B5B685B6F0B484FF00E01984795
:1050E000019B03F40043002B06D0074B5B68DB6F8A
:1050F00005484FF00F019847FBF72AFFFBF7E0FC4C
:1051000003B000BD00040140540F0020AFF3008045
:1051100008B5FBF7FDFE084B4FF480325A61074B90
:105120005B68D3F8843005484FF010019847FBF7CF
:105130000FFFFBF7C5FC08BD00040140540F002021
:1051400008B5FBF7E5FE084B4FF480225A61074B88
:105150005B68D3F8943005484FF012019847FBF78D
:10516000F7FEFBF7ADFC08BD00040140540F002022
:1051700008B50248FDF75CFC08BD00BF540F0020D5
:1051800084B00190019B1B6B0393039B4FF400427F
:105190001A80039B4FF000021A80039B4FF000021D
:1051A0009A80039B4FF000029A82019BDB6A1B6886
:1051B000019AD26A1268126822F001021A60019BF9
:1051C000DB6A5B68019AD26A127A4FF00F0101FA2A
:1051D00002F21A60019B9B6A1B68019A926A12682C
:1051E000126822F001021A60019B9B6A5B68019AB7
:1051F000926A127A4FF00F0101FA02F21A6004B0BB
:10520000704700BFAFF30080AFF30080AFF30080C2
:1052100000B585B00190019B0393039BDB69002BD4
:1052200010D0039BDB6902930398FFF7A9FF039B50
:105230004FF00002DA61029B4FF0FF329A6202984F
:10524000FCF75EF805B000BDAFF30080AFF300805F
:1052500000B587B00190019B1B6B0493019B5B68B9
:105260005B680393019B5B681B7A8DF80B30019B95
:10527000002B06D0039B002B03DD039A6E4B9A4252
:1052800002DD6E48FBF7FCFE049B9B889BB223F07B
:105290003F039AB2049B9A80049B9B889BB243F085
:1052A00018039AB2049B9A804FF00003ADF81630B1
:1052B00040F6FF73ADF81430039A614B9A4236DC26
:1052C0009DF80B30012B02D05E48FBF7D9FE039B03
:1052D0004FEA43025C4B93FBF2F102FB01F29B1A93
:1052E000002B02D05948FBF7CBFE039B4FEA430348
:1052F000554A92FBF3F3ADF81430BDF81430032B8C
:1053000002D85348FBF7BCFEBDF814304FEA0353F4
:105310004FEA13539AB2BDF8163042EA03039BB228
:10532000ADF81630049B4FF019021A8475E0039A09
:10533000484B9A4271DC9DF80B30022B06D09DF849
:105340000B30032B02D04448FBF79AFE9DF80B303C
:10535000022B1AD1039A13464FEA43039A183A4B89
:1053600093FBF2F102FB01F29B1A002B02D03B48A7
:10537000FBF786FE039A13464FEA43039B18324A13
:1053800092FBF3F3ADF8143029E09DF80B30032BBA
:1053900025D1039A13464FEA83039B184FEA8302F1
:1053A0009A18294B93FBF2F102FB01F29B1A002B96
:1053B00002D02B48FBF764FE039A13464FEA83039F
:1053C0009B184FEA83029B181F4A92FBF3F3ADF838
:1053D0001430BDF8163043F48043ADF81630BDF8F4
:1053E0001430002B02D11F48FBF74AFEBDF81430E1
:1053F0004FEA03534FEA13539BB26FEA43436FEAFA
:1054000053439AB2BDF8163042EA03039BB2ADF89B
:105410001630049B4FF008021A84BDF8142040F6A1
:10542000FF739A4202D91048FBF72AFE049BBDF88D
:1054300016209A8307B000BD00093D00A0E00008D7
:10544000A0860100B8E0000800366E01D0E0000838
:10545000E8E00008801A060000E1000818E10008F2
:1054600030E1000848E1000860E10008AFF3008087
:1054700086B00190019B1B6B0493019B5B681B78BA
:105480008DF80F30049B1B88ADF816309DF80F3057
:10549000022B0AD0032B15D0012B1AD1BDF81630E0
:1054A00023F00A03ADF8163013E0BDF8163043F0D0
:1054B0000203ADF81630BDF8163023F00803ADF83E
:1054C000163006E0BDF8163043F00A03ADF816308A
:1054D00000BF049BBDF816201A8006B0704700BFBD
:1054E00000B587B00190019B1B6B0493049B1B8B41
:1054F0009BB20393049B9B8A9BB20593019B93F8F9
:105500003430002B40F0AE80039B4FEA0342059BF2
:1055100042EA030323F07F434E4A934212D04D4A9E
:10552000934203D84C4A934207D089E04B4A9342B6
:1055300031D04B4A934241D082E0019B1A8C049BAC
:105540001A827DE0049B9B889BB223F400739AB27D
:10555000049B9A80019B9B6A1B68019A926A12685D
:10556000126842F001021A60049B9B889BB243F4CC
:1055700080539AB2049B9A80019B9B6A1B685B686C
:10558000012B5CD8049B1B889BB223F480639AB2E6
:10559000049B1A8054E0049B9B889BB223F4007305
:1055A0009AB2049B9A80019BDB6A1B68019AD26ABB
:1055B0001268126842F001021A6041E0019B9B6A86
:1055C0001B685B68002B0FD0019B1B8C43F0010311
:1055D0009AB2019B1A84049B1B889BB243F4A0637C
:1055E0009AB2049B1A80B9E0049B9B889BB223F477
:1055F00000739AB2049B9A80049B1B889BB243F46D
:1056000000739AB2049B1A80FBF74AFAFBF750FC2E
:10561000019BDB69002B0DD0019BDB690293019B91
:105620004FF00002DA61029B4FF000029A6202988A
:10563000FBF766FEFBF754FCFBF73AFA00E000BF0D
:10564000059B03F00A03002B00F08880049B1B8B52
:1056500084E000BF02000300010003008200070095
:1056600084000700059B03F00A03002B0FD0019B69
:105670004FF000021A64019B4FF000021A65049B70
:105680009B8A9BB20593049B1B8B9BB20393059B48
:1056900003F08003002B16D0019B9A6C019B1B6DBD
:1056A000D21812781146049A118203F10102019B6B
:1056B0001A65019B1A6C019BDB6C9A4203D3019B18
:1056C0004FF000021A65059B03F04003002B17D032
:1056D000019B9A6B019B1B6CD2180499098A89B2B1
:1056E000C9B2117003F10102019B1A64019B1A6C8B
:1056F000019BDB6B9A4203D3019B4FF000021A64BB
:10570000059B03F01003002B13D0049B9B8A9BB2D4
:105710000593049B1B889BB243F001039AB2049B40
:105720001A80019B5B6C002B03D0019B5B6C019882
:105730009847059B03F48063002B0FD0049B9B8A42
:105740009BB223F480639AB2049B9A82019B5B6DA7
:10575000002B03D0019B5B6D0198984707B000BDFB
:1057600000B585B001900091019B1B6B0393009BDA
:1057700003F00803002B01D0FBF742F9019B9B6A61
:105780001B68019A926A1268126822F001021A607C
:10579000019B9B6A5B68019A926A127A4FF00F0133
:1057A00001FA02F21A60019B93F83430002B31D1D8
:1057B000039B9B889BB223F480539AB2039B9A80ED
:1057C000039B1B889BB223F480639AB2039B1A80CD
:1057D000039B1B889BB243F400739AB2039B1A800D
:1057E000FBF75EF9FBF764FB019BDB69002B0DD037
:1057F000019BDB690293019B4FF00002DA61029B7F
:105800004FF000029A620298FBF77AFDFBF768FB03
:10581000FBF74EF905B000BDAFF30080AFF3008099
:1058200000B585B001900091019B1B6B0393009B19
:1058300003F00803002B01D0FBF7E2F8019BDB6AC1
:105840001B68019AD26A1268126822F001021A607B
:10585000019BDB6A5B68019AD26A127A4FF00F01F2
:1058600001FA02F21A60039B9B889BB243F4007317
:105870009AB2039B9A8005B000BD00BFAFF30080D1
:1058800000B587B00190019B1B6B0493FBF708F9EF
:10589000FBF70EFB019BDB6A1B68019AD26A126858
:1058A000126822F001021A60019BDB6A5B68019AB0
:1058B000D26A127A4FF00F0101FA02F21A60019BCC
:1058C0009B6A1B68019A926A1268126822F00102B0
:1058D0001A60019B9B6A5B68019A926A127A4FF088
:1058E0000F0101FA02F21A60FBF7FAFAFBF7E0F88F
:1058F0004FF000030593049B9B8A9BB203F48073D3
:10590000002B0BD0049B9B8A9BB223F480739AB22A
:10591000049B9A82059B43F001030593049B9B8A99
:105920009BB203F40073002B0BD0049B9B8A9BB2A9
:1059300023F400739AB2049B9A82059B43F00203FE
:105940000593019B93F83430002B23D1049B9B8A51
:105950009BB203F48063002B2CD0049B9B8A9BB2E8
:1059600023F480639AB2049B9A82049B9B889BB227
:1059700023F400739AB2049B9A80049B1B889BB209
:1059800043F400739AB2049B1A80059B43F004030E
:1059900005930FE0049B9B8A9BB223F480639AB229
:1059A000049B9A82019B5B6D002B03D0019B5B6D76
:1059B00001989847049B9B8A9BB203F40063002BD9
:1059C0000BD0049B9B8A9BB223F400639AB2049B86
:1059D0009A82059B43F008030593049B9B8A9BB224
:1059E00003F48053002B0BD0049B9B8A9BB223F4BF
:1059F00080539AB2049B9A82059B43F0100305934F
:105A0000049B9B8A9BB203F48043002B0BD0049B26
:105A10009B8A9BB223F480439AB2049B9A82059B93
:105A200043F020030593049B9B8A9BB29BB21BB25D
:105A3000002B0DDA049B9B8A9BB24FEA43434FEA4B
:105A400053439AB2049B9A82059B43F0400305930B
:105A5000059B002B1CD0019B059A9A60FBF720F850
:105A6000FBF726FA019BDB69002B0DD0019BDB695C
:105A70000393019B4FF00002DA61039B6FF0010278
:105A80009A620398FBF73CFCFBF72AFAFBF710F845
:105A900007B000BDAFF30080AFF30080AFF300802C
:105AA00008B5FBF735FA0448FFF71AFDFBF750FA83
:105AB000FBF706F808BD00BF5C0F0020AFF30080C5
:105AC00008B5FBF725FA0448FFF7DAFEFBF740FAC2
:105AD000FAF7F6FF08BD00BF5C0F0020AFF30080AF
