:020000040800F2
:1000000000040020C1090008710A0008710A0008F4
:10001000710A0008710A0008710A0008710A0008D4
:10002000710A0008710A0008710A0008A10A000894
:10003000710A0008710A0008710A0008710B0008B3
:10004000710A0008E1370008710A0008714E0008C3
:10005000710A0008710A0008E1350008113600082D
:100060004136000871360008A1360008512F0008FB
:10007000812F0008C12F000801300008413000081E
:1000800081300008C1300008710A0008614800088A
:10009000C14B0008710A0008710A0008D136000837
:1000A000710A0008710A0008710A0008710A000844
:1000B00001430008710A0008710A0008213C000889
:1000C000413C0008613C0008813C0008710A0008BE
:1000D000710A000841450008710A0008710A000809
:0C00E00051370008710A000811380008B0
:1000F00000210A2200F0F6BA00220A2300F040BADA
:10010000032A70B404460D4626D941EA000313F0D1
:10011000030F13D020782B78984208BF294606D0C9
:100120001EE014F8010F11F8013F984218D1012A7E
:1001300002F1FF32F5D1002070BC70470B46044637
:1001400051F8045B50F8046BAE4204D1043A044603
:10015000032A0B46F2D81D461046002ADAD1EBE7F7
:10016000C01AE9E7000000000000000000000000E5
:10017000032A2DE9F00109D82AB10023CC5CC4542C
:1001800001339342FAD1BDE8F00170470B46821863
:10019000014603E02478013301F8014B11F0030F0D
:1001A0001C46F7D113F003055DD06E42C5F1040C77
:1001B000ED009B594FEACC0C08E00434A7593B46AC
:1001C00007FA0CF748EA070741F8047B571A23FAA5
:1001D00005F8032FF1DC03E014F8013B01F8013BC3
:1001E0008A42F9D8CFE753F8404C41F8404C53F8D5
:1001F0003C4C41F83C4C53F8384C41F8384C53F8DF
:10020000344C41F8344C53F8304C41F8304C53F8EE
:100210002C4C41F82C4C53F8284C41F8284C53F8FE
:10022000244C41F8244C53F8204C41F8204C53F80E
:100230001C4C41F81C4C53F8184C41F8184C53F81E
:10024000144C41F8144C53F8104C41F8104C53F82E
:100250000C4C41F80C4C53F8084C41F8084C53F83E
:10026000044C41F8044C561A1D460C4640334031AC
:100270003F2EB8DC2B460FE053F8101C44F8101C3E
:1002800053F80C1C44F80C1C53F8081C44F8081CC8
:1002900053F8041C44F8041C161B21461D46103458
:1002A00010330F2EE8DC2B4602E0246841F8044BA3
:1002B000551A1C46032D03F10403F6DC90E700BF3A
:1002C000032AC9B270B408D82AB10346121803F839
:1002D000011B9342FBD170BC70478218044601E0B9
:1002E00004F8011B14F0030FFAD14FF0013303FBA4
:1002F00001F31FE044F8403C44F83C3C44F8383CEF
:1003000044F8343C44F8303C44F82C3C44F8283C55
:1003100044F8243C44F8203C44F81C3C44F8183C85
:1003200044F8143C44F8103C44F80C3C44F8083CB5
:1003300044F8043C161B254640343F2EDADC2C469C
:1003400007E044F8103C44F80C3C44F8083C44F8FE
:10035000043C161B254610340F2EF2DC01E045F854
:10036000043B541B032CFADC01E005F8011B954209
:10037000FBD3B0E700000000000000000000000018
:1003800040F60003C2F2000370B41D6810F8013B90
:10039000EC181A46647804F00304012C11F8014BA0
:1003A00008BF03F120022E192346767806F00306D3
:1003B000012E08BF04F12003D21A01D1002BE5D190
:1003C000104670BC704700BF000000000000000035
:1003D000C9B2F0B4002950D010F0030F10D0037848
:1003E000002B79D0994246D0431C05E013F8012B2D
:1003F000002A3FD091423ED013F0030F1846F5D1AA
:10040000036841EA01270646A3F1013247EA07479C
:1004100022EA030212F0803F1DD187EA0303A3F111
:10042000013222EA030313F0803F14D1043002E0CA
:1004300012F0803F0FD1064650F8043BA3F101357E
:1004400087EA030225EA0303A2F1013413F0803F97
:1004500024EA0202ECD033783046002B3CD099429B
:1004600009D0731C01E0914205D0184613F8012B06
:10047000002AF8D11046F0BC704710F0030F0CD0E2
:100480000378002BF7D0431C03E013F8012B002A5C
:10049000F1D013F0030F1846F7D102680346A2F11A
:1004A000013121EA020212F0803F0AD104300346F2
:1004B00050F8042BA2F1013121EA020212F0803F30
:1004C000F5D01A781846002AD5D00133184613F80B
:1004D000012B002AFAD1CEE71846CCE70000000035
:1004E00020F0030110F00300C0F1000051F8043BBC
:1004F00000F1040C4FEACC0C6FF000021CBF22FA92
:100500000CF213434FF0010C4CEA0C2C4CEA0C4C4F
:10051000A3EB0C0222EA030212EACC1204BF51F848
:10052000043B0430F4D013F0FF0F1FBF013013F46D
:100530007F4F013013F47F0F18BF0130704700BFA9
:10054000F0B40646047874B10F780546064657B1F4
:10055000BC4218BF0A4602D108E09C4206D012F8FD
:10056000013F002BF9D1301AF0BC70476C786E1C3B
:10057000002CF8D03546EBE700000000000000003A
:100580002DE9F04F40F60004C2F2000485B01F468A
:100590008C4626680B460390029213F8014B3219E1
:1005A0001D4692F801B01BF0080BF6D12D2C73D02C
:1005B0002B2C08BF15F8014BD7F1010338BF0023DE
:1005C000102F14BF1A4643F0010232B1302C73D001
:1005D0001BB1302C00F083800A27B946BBF1000F15
:1005E00049460CBF6FF0004A4FF0004ACDF804C0F6
:1005F000504600F0B3F950468846494600F080F86E
:1006000033190022DDF804C05B78114613F0040FA3
:100610001ED0303CA74225DD814294BF0023012338
:1006200053EAD2722ED10A1A534243EB02034445D5
:10063000D4BF002303F00103002B23D109FB0141A8
:1006400015F8014B012233195B7813F0040FE0D148
:1006500013F0030306D0012B14BF57233723E41AEA
:10066000A742D9DCB2F1FF3F1BD00846BBF1000F17
:1006700010D1029B1BB152B90299C1F800C005B05C
:10068000BDE8F08F4FF0FF3215F8014BDBE705F1C5
:10069000FF3CF1E74842ECE715F8014B4FF0010B46
:1006A0008AE70399BBF1000F0CBF6FF000404FF0D9
:1006B000004022230B60DCE72A78A2F17800414257
:1006C00041EB0001582A14BF0A4641F00102002AFA
:1006D0003FF47EAF10276C78B94602357EE70827D5
:1006E000B9467BE730B440F60404C2F200040D467C
:1006F000134601462A46206830BC41E7000000004E
:100700004A1E08BF7047C0F02481884240F216811B
:10071000114200F01781B0FA80F3B1FA81F2A2EB36
:100720000303C3F11F0304A202EB03134FF0000203
:100730009F4600BFAFF30080B0EBC17F00BF42EB2C
:10074000020228BFA0EBC170B0EB817F00BF42EB7B
:10075000020228BFA0EB8170B0EB417F00BF42EBEB
:10076000020228BFA0EB4170B0EB017F00BF42EB5B
:10077000020228BFA0EB0170B0EBC16F00BF42EBDB
:10078000020228BFA0EBC160B0EB816F00BF42EB5B
:10079000020228BFA0EB8160B0EB416F00BF42EBCB
:1007A000020228BFA0EB4160B0EB016F00BF42EB3B
:1007B000020228BFA0EB0160B0EBC15F00BF42EBBB
:1007C000020228BFA0EBC150B0EB815F00BF42EB3B
:1007D000020228BFA0EB8150B0EB415F00BF42EBAB
:1007E000020228BFA0EB4150B0EB015F00BF42EB1B
:1007F000020228BFA0EB0150B0EBC14F00BF42EB9B
:10080000020228BFA0EBC140B0EB814F00BF42EB1A
:10081000020228BFA0EB8140B0EB414F00BF42EB8A
:10082000020228BFA0EB4140B0EB014F00BF42EBFA
:10083000020228BFA0EB0140B0EBC13F00BF42EB7A
:10084000020228BFA0EBC130B0EB813F00BF42EBFA
:10085000020228BFA0EB8130B0EB413F00BF42EB6A
:10086000020228BFA0EB4130B0EB013F00BF42EBDA
:10087000020228BFA0EB0130B0EBC12F00BF42EB5A
:10088000020228BFA0EBC120B0EB812F00BF42EBDA
:10089000020228BFA0EB8120B0EB412F00BF42EB4A
:1008A000020228BFA0EB4120B0EB012F00BF42EBBA
:1008B000020228BFA0EB0120B0EBC11F00BF42EB3A
:1008C000020228BFA0EBC110B0EB811F00BF42EBBA
:1008D000020228BFA0EB8110B0EB411F00BF42EB2A
:1008E000020228BFA0EB4110B0EB011F00BF42EB9A
:1008F000020228BFA0EB0110B0EBC10F00BF42EB1A
:10090000020228BFA0EBC100B0EB810F00BF42EB99
:10091000020228BFA0EB8100B0EB410F00BF42EB09
:10092000020228BFA0EB4100B0EB010F00BF42EB79
:10093000020228BFA0EB0100104670470CBF012047
:1009400000207047B1FA81F2C2F11F0220FA02F0D2
:10095000704708B14FF0FF3000F012B80029F8D00E
:100960002DE90340FFF7CCFEBDE8064002FB00F393
:10097000A1EB0301704700BF000000000000000071
:10098000704700BF000000000000000000000000F1
:1009900001E040F8042B8842FBD3704700000000C0
:1009A0007047000000000000000000000000000090
:1009B000FEE7000000000000000000000000000052
:1009C00072B61D4B83F30988022383F31488BFF3A7
:1009D0006F8F04F0FDFA194819494FF05532FFF7AF
:1009E000D7FF4FF0553217481349FFF7D1FF164A8A
:1009F000164B03E052F8041B43F8041B14498B42C6
:100A0000F8D3144814490022FFF7C2FF134CFFF734
:100A1000C7FF02E054F8043B9847114B9C42F9D3BE
:100A200007F0AEFB0F4C02E054F8043B98470E4B26
:100A30009C42F9D3FFF7BCBF000800200000002053
:100A40000004002000040020C894000800080020D2
:100A5000680900206809002048310020EC000008E7
:100A6000EC000008EC000008EC00000800000000AA
:100A7000FEE7000000000000000000000000000091
:100A800072B6FEE700000000000000000000000059
:100A900000F05EFA00F0E4FB00F042FA00DF000034
:100AA00000B5EFF30983203383F3098800F030F8B1
:100AB0005DF804FB000000000000000000000000E2
:100AC0000A4B002210B59A60094A0720DA6010210B
:100AD00000F0C6F80A204FF4007100F0C1F80B20B6
:100AE0008021BDE8104000F0BBB800BF00ED00E081
:100AF0000000FA05000000000000000000000000F7
:100B0000202383F3118870470000000000000000DC
:100B1000002383F3118870470000000000000000EC
:100B200000B5FFF7EDFF0E4B5B6813F4006F13D0B9
:100B3000EFF30983203B83F309884FF08072DA6179
:100B4000084A116892698968926891428CBF064A86
:100B5000064A9A615DF804FBFFF7DAFF5DF804FBD3
:100B600000ED00E0980E0020910A00089C0A0008A1
:100B700010B500F085F9FFF7C3FF00F0B9F900F0F8
:100B8000CFF800F09DF9FFF7C3FF00F059F9BDE879
:100B90001040FFF7C5BF000000000000000000008B
:100BA0002DE9F04FC1F80CD0D0F80CD0BDE8F08F93
:100BB00008B500F0B5F9FFF7ABFF2846A04700F0F5
:100BC0004FFC08BD00000000000000000000000015
:100BD00070B500F00304E400FF25A54011FA04F409
:100BE0000B4B8208C03253F82260012126EA05052A
:100BF000254343F82250420900F01F0011FA00F08B
:100C000002F1600143F8210043F8220070BD00BFEB
:100C100000E100E000000000000000000000000013
:100C200000F01F030121994042090A4B203210B500
:100C300043F82210820800F00300C000FF2414FAD9
:100C400000F0C03253F8221021EA000043F82200DD
:100C500010BD00BF00E100E0000000000000000047
:100C6000820800F0030030B5C000FF24844011FA70
:100C700000F0054B063253F8225025EA04040443E1
:100C800043F8224030BD00BF00ED00E0000000004E
:100C9000024B034A9B699A61FEE700BF980E002051
:100CA000E0820008000000000000000000000000DA
:100CB00037B5FFF705FF00F003FA00F0A1F900F0E7
:100CC00067FF00F0A5FF00F053F840210D4800F049
:100CD00007FB0D4B0D4D0124C36180F82040A86136
:100CE00000F04EF9002383F3118862B60849AA691F
:100CF000084891610093C0212246074B00F048FB51
:100D00003EBD00BF280A002000040020980E0020ED
:100D1000E582000868090020910C0008000000002E
:100D200010B500F075F80E4B0E4C9B695A6A0132F3
:100D30005A62E3680133E3602368A3420FD09A68E4
:100D4000013A9A6006E0D368D1601168486001609A
:100D5000106998472268034891680029F3D010BDB4
:100D6000980E0020880E0020000000000000000007
:100D7000034A4021134643F8081B5360704700BFE5
:100D8000780A0020000000000000000000000000C1
:100D90000B4B0C495A68C96811600B49896951604D
:100DA000816A916090F820101173103203F581610F
:100DB0008A425A6024BF03F108025A60704700BF9C
:100DC000780A0020880E0020980E00200000000005
:100DD000014B1860FFF754BE840E00200000000095
:100DE000054B1B681BB9054B1B68002B02DC044834
:100DF000FFF7EEBF704700BF740A0020800E00208E
:100E0000F082000800000000000000000000000068
:100E1000054B1B68002B03DB044B1B68002B02DC1B
:100E20000348FFF7D5BF7047740A0020800E0020EA
:100E3000F682000800000000000000000000000032
:100E400010B5FFF75DFE084C2368002B02DD074B51
:100E50001B6813B10648FFF7BBFF2368013B236003
:100E6000FFF756FE10BD00BF740A0020800E002060
:100E7000FC820008000000000000000000000000EC
:100E800010B5FFF73DFE084C2368002B02DB074B33
:100E90001B6813B10648FFF79BFF236801332360EB
:100EA000FFF736FE10BD00BF740A0020800E002040
:100EB00001830008000000000000000000000000A6
:100EC000074B10B51B68074C002B02DD2368002B75
:100ED00002DC0548FFF77CFF0023236010BD00BF44
:100EE000740A0020800E0020068300080000000025
:100EF000064B10B51B68064C002B01DD236813B1AF
:100F00000448FFF765FF0123236010BD740A002029
:100F1000800E00200B83000800000000000000008D
:100F2000064B10B51B68064C13B92368002B02DC76
:100F30000448FFF74DFF0023236010BD740A002012
:100F4000800E002010830008000000000000000058
:100F5000064B10B51B68064C0BB9236813B1054846
:100F6000FFF736FF0123236010BD00BF740A002085
:100F7000800E002015830008000000000000000023
:100F8000044B1B6813B9044B1B6813B10348FFF7EC
:100F90001FBF7047740A0020800E00201A830008CB
:100FA00010B50B461B688B4203D09C688268944244
:100FB000F8D25A68036042601060586010BD0000AB
:100FC0004B68016043604860186070470000000093
:100FD0000346006802681A60536070470000000012
:100FE00042680168116003685A60704700000000A1
:100FF00003681A680260184670470000000000008D
:10100000044B4FF0FF329A6001325B601B60DA6084
:10101000704700BF880E00200000000000000000A4
:10102000F8B504460D4616461F46FFF7F1FE0CB113
:1010300006B115B90C48FFF7CBFE0C4A2761E660F4
:101040001368104601E01B686D1A9968A942FAD32B
:101050005A6883422360626014605C60A56002D0BD
:101060009A68551B9D60F8BD30830008880E0020EB
:1010700010B50446FFF7CCFE14B90B48FFF7A8FEE5
:10108000E36813B90948FFF7A3FE2368084A9342AF
:1010900003D09968A2688A189A606268136023680E
:1010A0005A600023E36010BD3D8300084C830008B4
:1010B000880E00200000000000000000000000007A
:1010C000034B00225B601B609A605B611B61704791
:1010D000980E00200000000000000000000000004A
:1010E00010B590F8203004460BB10E2B02D1094800
:1010F000FFF76EFE002384F82030A268064B1B68C1
:1011000099689142FBD25A682360626014605C6007
:10111000204610BD60830008980E002000000000EB
:1011200010B590F820300446032B07D001D8A3B1A6
:101130000BE0052B06D00D2B07D103E0836A9A68DC
:1011400001329A602046FFF74BFF4FF0FF332046F5
:10115000A362BDE81040FFF7C3BF10BD0000000050
:1011600070B50F4D0646FFF73BFEAC69284684F884
:101170002060FFF72DFF012380F82030A861204672
:10118000FFF706FEE269ADF124039A4202D9054851
:10119000FFF71EFEA8692146BDE87040FFF700BDBD
:1011A000980E00207283000800000000000000007C
:1011B00070B50E4686B00546FFF712FEB6F1FF3F4A
:1011C0000B4C0ED0A36901A831460A4AFFF728FF4D
:1011D0002846FFF7C5FF049B33B101A8FFF748FF7E
:1011E00002E02846FFF7BCFFA369986A06B070BD0D
:1011F000980E0020211100080000000000000000EF
:1012000070B5134E04460D46FFF7EAFDB069A268BB
:101210008368A5629A4204D82046BDE87040FFF773
:101220005FBFFFF75DFF0123054684F82030B461FE
:10123000FFF7AEFDEA69ADF124039A4202D90548F1
:10124000FFF7C6FD20462946BDE87040FFF7A8BC61
:10125000980E0020728300080000000000000000CB
:1012600070B50E4D2846AC69FFF7B2FE012380F839
:101270002030A8612046FFF733FF2046FFF788FDA6
:10128000E269ADF124039A4202D90548FFF7A0FDB7
:10129000A8692146BDE87040FFF782BC980E002087
:1012A0007283000800000000000000000000000041
:1012B00010B5FFF795FD064B1A689B6992689B680D
:1012C0009A4203D9BDE81040FFF7CABF10BD00BF66
:1012D000980E002000000000000000000000000048
:1012E000022280F82020023A816080F821204164A7
:1012F00002640121C26342628261094A80F82210BD
:10130000516902614161506100F12C02C26200F139
:1013100030024263026300F14C020861C26170470F
:10132000980E0020000000000000000000000000F7
:1013300001E000F8012B8842FBD370470000000059
:101340002DE9F04104460D4616461F46DDF818808B
:10135000FFF75EFD24B1AF2D02D97F2E00D817B95B
:101360000848FFF735FD243D074A631920463146FA
:10137000E3606751C3F804801A62BDE8F041FFF7EB
:10138000AFBF00BF90830008B10B00080000000051
:101390002DE9F34100F14C0804460D46174641463D
:1013A000FF221E46FFF7C4FF404661195522FFF792
:1013B000BFFFFFF7A5FBFFF7CBFD089B3A46009365
:1013C000294633462046FFF7BBFF00210446FFF7BE
:1013D00017FFFFF7A5FDFFF79BFB2046BDE8FC814B
:1013E00010B5044610B90848FFF7F2FCFFF788FB78
:1013F000FFF7AEFD21460620FFF7DAFEFFF790FD6E
:10140000FFF786FB10BD00BFC88300080000000086
:101410000F4B10B59C69A06203E0FFF7E9FDFFF7F1
:101420005FFEE36A04F12C008342F6D194F8213088
:1014300013F0030F04D1636922691A6122695361B1
:101440000E20FFF78DFE0348BDE81040FFF7C0BC3B
:10145000980E0020D7830008000000000000000064
:1014600010B50446FFF74CFBFFF772FD2046BDE8C0
:101470001040FFF7CDBF000000000000000000009A
:1014800070B50446FFF73CFBFFF762FD94F822308D
:1014900013B91948FFF79CFC94F82250013DEDB2B6
:1014A00084F82250FFF73CFDFFF732FB002D21D1DD
:1014B00094F820300E2B1DD194F8213003F0030353
:1014C000012B02D0022B15D109E063692269204665
:1014D0001A6122695361BDE8704000F0E9BB63699D
:1014E0002269A06C1A61226921465361BDE87040EF
:1014F00000F046BC70BD00BF328400080000000050
:101500002DE9F3410D4617461E4600F091FB0446B7
:1015100008B300F14C084146FF22FFF709FF40469F
:1015200061195522FFF704FFFFF7EAFAFFF710FDF4
:10153000089B3A460093294633462046FFF700FFB2
:10154000012380F8213000210446FFF759FEFFF700
:10155000E7FCFFF7DDFA2046BDE8FC810000000053
:1015600038B50D46044608B1002902DA0348FFF7F2
:101570002FFC64602460A56038BD00BF7084000843
:1015800038B50546FFF72CFC15B91148FFF720FCCC
:10159000AB68002B2B6802DBAB4202D104E0AB420C
:1015A00002D10C48FFF714FCAB68013B002BAB6089
:1015B0000BDA094C2946A0698562FFF701FD03207B
:1015C000FFF7CEFDA369986A38BD002038BD00BF83
:1015D000A0840008AF840008980E002000000000DE
:1015E00010B50446FFF78CFAFFF7B2FC2046FFF770
:1015F000C7FF0446FFF794FCFFF78AFA204610BDA8
:1016000010B50446FFF704FC14B90F48FFF7E0FBE0
:10161000A368002B236802DBA34202D104E0A342AB
:1016200002D10A48FFF7D4FBA3680133002BA36063
:1016300008DC2046FFF7CCFC00228262BDE81040A7
:10164000FFF74EBD10BD00BF1085000821850008C2
:1016500010B5044610B90448FFF7BAFB00236460D4
:101660002460A36010BD00BFA0850008000000003A
:10167000264B70B505469E69FFF7B2FB15B92448A5
:10168000FFF7A6FBAC6814BB3BE0A36094F82030E6
:10169000042B03D0052B0AD083B11CE02046FFF7B2
:1016A0009FFCA16AFFF77CFCA36A9C680FE02046C0
:1016B000FFF796FCA16AFFF773FC0CE0012384F8A6
:1016C00020302046FFF78CFCFFF70AFD03E0B368EB
:1016D000A2689A42D9D330462946FFF761FC04201C
:1016E000B562FFF73DFDAB68B34202D00948FFF792
:1016F0006FFB336CAB4208D00748BDE87040FFF782
:1017000067BB336CAE60EB60356470BD980E002033
:10171000AE850008BD850008CE85000800000000E9
:1017200010B50446FFF7ECF9FFF712FC2046FFF76F
:101730009FFFFFF7F5FBFFF7EBF910BD000000007E
:101740001C4B70B59D69FFF7DBF9FFF701FC2B6CB3
:1017500013B91948FFF73CFB2B6C9B68AB4202D0D6
:101760001648FFF735FB2C6C2368E668A3422E640D
:1017700017D06B6C07E03268B24203D09268934294
:1017800038BF1346F668002EF5D1AB602046FFF750
:101790001FFC026CA060E26031460464FFF730FD7C
:1017A00001E00023A360FFF7BBFBFFF7B1F9204680
:1017B00070BD00BF980E0020F18500080386000868
:1017C00038B504460D46FFF723FB14B90C48FFF764
:1017D000FFFAE36B1D4394F82030E563082B03D137
:1017E000A36A1D4206D138BD092B08D1A36A1D404A
:1017F0009D4204D12046FFF773FC0023836238BD6D
:101800006A860008000000000000000000000000E0
:1018100070B505460E46FFF7FBFA15B90748FFF706
:10182000D7FA2C6806E0A168606846EA0101FFF774
:10183000C7FF2468AC42F6D170BD00BF8B8600089C
:1018400010B503460C4659B1074A194690698362A0
:10185000FFF7B6FB0D202146BDE81040FFF7A8BCFE
:101860004FF0FF3010BD00BF980E002000000000B8
:1018700010B58A1800244060006084604161816175
:10188000C1600261C36110BD0000000000000000E3
:1018900010B50446FFF7BCFAE3686361A361002357
:1018A000A36007E02046FFF793FBFFF719FC6FF0FA
:1018B000010383622368A342F4D110BD000000003D
:1018C00038B504460D46FFF7A3FAA269636993424F
:1018D000A26800D1AAB90132A26003F8015B2269B3
:1018E0006361934224BFE36863612368A3420BD022
:1018F0002046FFF76DFBFFF7F3FB002383621846DA
:1019000038BD6FF0030038BD002038BD0000000076
:1019100070B504460D46FFF7F3F8FFF719FBE369CE
:101920006BB1204698470AE020462946FFF788FF1A
:10193000061E04DAFFF7F4FAFFF7EAF811E0A368ED
:10194000002BF1D0013BA360A369226913F8016B5E
:101950009342A36124BFE368A361FFF7E1FAFFF7B5
:10196000D7F8304670BD0000000000000000000005
:101970002DE9F84304460E461F46C569914612B943
:101980001B48FFF725FAFFF7BBF8FFF7E1FA4FF026
:10199000000865B12046A84709E020463946FFF710
:1019A0004FFF20B1FFF7BCFAFFF7B2F81CE0A368C5
:1019B000002BF2D0013BA360A36913F8012B06F8BA
:1019C00008202269A361934224BFE368A361FFF763
:1019D000A7FAFFF79DF808F10108C84504D0FFF702
:1019E0008FF8FFF7B5FAD4E74046BDE8F88300BFAB
:1019F000D086000800000000000000000000000089
:101A000041618161C160891840600060826001614C
:101A1000C3617047000000000000000000000000EB
:101A200010B50446FFF7F4F9E36822696361A36126
:101A3000D31AA36007E02046FFF7CAFAFFF750FB6E
:101A40006FF0010383622368A342F4D110BD00004C
:101A5000F8B504460D461646FFF752F8FFF778FA38
:101A60000AE020463146FFF7EBFE071E04DAFFF7D7
:101A700057FAFFF74DF816E0A368002BF1D0013BB1
:101A8000A360636903F8015B22696361934224BF29
:101A9000E3686361E3690BB120469847FFF740FABA
:101AA000FFF736F800273846F8BD000000000000B8
:101AB00038B50546FFF7ACF96A69AB699A42AA687E
:101AC00000D1AAB90132AA6013F8014B2A69AB61AF
:101AD000934224BFEB68AB612B68AB4206D028462B
:101AE000FFF776FAFFF7FCFA00238362204638BD41
:101AF0006FF0020038BD0000000000000000000090
:101B00002DE9F84304460D461F46C669904612B9B2
:101B10001B48FFF75DF9FEF7F3FFFFF719FA4FF0E7
:101B2000000909E020463946FFF78AFE20B1FFF799
:101B3000F7F9FEF7EDFF20E0A368002BF2D0013BA0
:101B4000A3602A78636903F8012B226963619342D9
:101B500024BFE36863610EB12046B047FFF7E0F9A8
:101B6000FEF7D6FFB8F1010809F1010905D00135EA
:101B7000FEF7C6FFFFF7ECF9DEE74846BDE8F8835D
:101B8000E4860008000000000000000000000000E3
:101B9000054A064B22F007021A60054A054B22F05F
:101BA00007021A60704700BF4F310020B80E0020B6
:101BB00000500020B40E00200000000000000000D3
:101BC00010B50446FFF724F9064B07491868096861
:101BD000E21D22F00702091A914226BF82181A60FC
:101BE000002010BDB80E0020B40E00200000000040
:101BF00010B50446FEF784FFFFF7AAF92046FFF769
:101C0000DFFF0446FFF78CF9FEF782FF204610BD88
:101C10000448054B036000238360C3601030FFF766
:101C200017BD00BFC00E0020F11B0008000000001F
:101C3000F8B51D4C0731002818BF044604F1100008
:101C400021F0070604F10807FFF76AFD18E06B684A
:101C5000B34214D306F108029342286801D23860D7
:101C600008E0A918A8506FF00702921BD3184B6028
:101C700039606E6045F8084BFFF762FD11E02F46B2
:101C80003D68002DE3D1FFF75BFD25684DB106F1FE
:101C90000800A84720B10460466000F1080500E094
:101CA00005462846F8BD00BFC00E00200000000019
:101CB0002DE9F041064610B92248FFF789F856F899
:101CC000080CA6F1080500F108071030FFF728FD01
:101CD0003C46A54207D363680833E3189D4202D20D
:101CE0001948FFF775F8BC4201D0A54223D92368F3
:101CF0000BB19D421FD26A6846F8083C256002F18C
:101D0000080356F8080CE918814206D14968EB58D7
:101D1000521808326A6046F8083C636803F108020A
:101D2000A218AA4209D16A689B180833636056F862
:101D3000083C236001E02468CBE7BDE8F041FFF7F1
:101D4000FFBC00BF0F8700081E87000800000000CE
:101D500038B504460D46FFF75BF81CB115B115F018
:101D6000070F02D00348FFF733F823682B60256084
:101D700038BD00BF508700080000000000000000D0
:101D800038B505460C46FEF7BBFEFFF7E1F82846DE
:101D90002146FFF7DDFFFFF7C3F8FEF7B9FE38BDB8
:101DA00010B501F045FA00F09BFE0B4802F0D8FC9C
:101DB00000F016F800F014F900F022F900F040FAF3
:101DC00000F00EFB00F0CCFB00F07AFF01F088F889
:101DD000BDE8104003F004B9408F00080000000087
:101DE00001F0BEBA0000000000000000000000008A
:101DF00001230370013B43608360C360036143615F
:101E00001830FFF725BC00000000000000000000B3
:101E100038B50D46044610B90C48FEF7D9FFFEF759
:101E20006FFEFFF795F82378013BDBB2012B02D957
:101E30000748FEF7CDFF2046656001F0C9FA02238E
:101E40002370FFF76DF8FEF763FE38BD608700086A
:101E50006D87000800000000000000000000000086
:101E600010B5044610B90C48FEF7B2FFFEF748FE65
:101E7000FFF76EF82378013BDBB2012B02D907484C
:101E8000FEF7A6FF204601F0D3FA01232370FFF7E7
:101E900047F8FEF73DFE10BD7C87000888870008E4
:101EA0002DE9F04104460D4616461F46FEF7B0FFE9
:101EB00034B12DB126B1012F05D017F0010F02D09A
:101EC0000B48FEF785FF2378022B06D0042B04D0A5
:101ED000052B02D00748FEF77BFF03232046A660B0
:101EE000E76025612370BDE8F04101F0C1BA00BF91
:101EF00096870008AE870008000000000000000080
:101F0000F8B507460E4615461C46FEF7F9FDFFF7E5
:101F10001FF8384631462A462346FFF7C1FFFEF731
:101F2000FFFFFEF7F5FDF8BD000000000000000017
:101F300010B5044610B91248FEF74AFFFEF7E0FD5F
:101F4000FFF706F82378023BDBB2012B02D90D48DC
:101F5000FEF73EFF2378022B0DD0204601F0B8FAA1
:101F60006069002302222361227020B163616FF057
:101F70000101FFF745F9FEF7D3FFFEF7C9FD10BDDC
:101F8000C8870008DE87000800000000000000008D
:101F9000F8B504460F4616461D46FEF7B1FDFEF79E
:101FA000D7FF636913B10B48FEF712FF2B460A4DAA
:101FB000394632462046FFF773FFAB690220636162
:101FC000FFF7CEF8AB699C6AFEF7AAFFFEF7A0FD0B
:101FD0002046F8BD26880008980E0020000000006A
:101FE00001F02EBC00000000000000000000000016
:101FF00001230370013B43607047000000000000B4
:1020000001F04EBE000000000000000000000000D3
:1020100001230370013B43600C30FFF719BB000044
:1020200038B50D46044600B111B90E48FEF7D0FE92
:1020300023785A1ED2B2012A04D9052B02D00A48AD
:10204000FEF7C6FEFEF75CFDFEF782FF20466560E8
:1020500001F04EFE02232370FEF762FFFEF758FDEB
:1020600038BD00BF608800086D88000800000000CF
:1020700010B5044610B90D48FEF7AAFE23785A1E83
:10208000D2B2012A04D9052B02D00948FEF7A0FEDE
:10209000FEF736FDFEF75CFF204601F079FF0123D5
:1020A0002370FEF73DFFFEF733FD10BD7C8800086E
:1020B0008888000800000000000000000000000008
:1020C0002DE9FF47DDF830A00F4616461D46DDF826
:1020D0003490DDF83880044658B151B14BB142B16B
:1020E000B9F1000F02D0BAF1000F02D0B8F1000F21
:1020F00002D11648FEF76CFE2378022B02D014485A
:10210000FEF766FEFEF7FCFCFEF722FF0023A3604D
:102110000333237020462B4639463246CDF800A0C3
:10212000CDF80490CDF8088001F0E2FFB0F1FF3F58
:10213000054601D1052300E002232370FEF7F0FEDF
:10214000FEF7E6FC284604B0BDE8F087A788000843
:10215000C48800080000000000000000000000002B
:102160002DE9F341DDF820800F4616461D46044652
:1021700028B121B11BB112B1B8F1000F02D114483E
:10218000FEF726FE2378022B02D01248FEF720FE2F
:10219000FEF7B6FCFEF7DCFE0023A36004332370D9
:1021A00020462B4639463246CDF8008001F028FF04
:1021B000B0F1FF3F054601D1052300E00223237063
:1021C000FEF7AEFEFEF7A4FC2846BDE8FC8100BF8A
:1021D000E3880008FF8800080000000000000000FD
:1021E000F0B5044687B00F4616461D46FEF788FC3C
:1021F000FEF7AEFE0023A36023700C9B20460093E5
:102200000D9B394601930E9B324602930F9B03931D
:10221000109B04932B4601F0EBFFB0F1FF3F054606
:1022200001D1052300E002232370FEF779FEFEF7BB
:102230006FFC284607B0F0BD000000000000000061
:1022400002F096B80000000000000000000000004E
:1022500001230370013B4360704700000000000051
:1022600038B50D46044600B111B90E48FEF7B0FD71
:10227000FEF746FCFEF76CFE2378013BDBB2012B38
:1022800002D90948FEF7A4FD6560AD882046258186
:1022900002F07EF802232370FEF742FEFEF738FCC0
:1022A00038BD00BF408900084D89000800000000CB
:1022B00010B5044610B90C48FEF78AFDFEF720FC65
:1022C000FEF746FE2378013BDBB2012B02D907481B
:1022D000FEF77EFD204602F0E3F801232370FEF7AF
:1022E0001FFEFEF715FC10BD5C8900086889000818
:1022F00070B50C461546064608B1032902D90B48AD
:10230000FEF766FDFEF7FCFBFEF722FE3378022B9C
:1023100002D00748FEF75CFD304621462A4602F00F
:10232000DFF8FEF7FDFDFEF7F3FB70BDA0890008A6
:10233000B589000800000000000000000000000057
:10234000806BD0F1010038BF002070470000000012
:102350008069D0F1010038BF002070470000000004
:1023600038B50446FEF7CCFBFEF7F2FD0023A56866
:10237000A360FEF7D5FDFEF7CBFB284638BD000075
:102380001030FFF7F5BA0000000000000000000068
:1023900010304FF0FF33FFF7EBBA000000000000F1
:1023A0003030FFF7ADBB000000000000000000006F
:1023B00030304FF0FF33FFF7A3BB000000000000F8
:1023C0001030FFF7A5BA0000000000000000000078
:1023D0003030FFF73DBB00000000000000000000AF
:1023E00002F05EB9000000000000000000000000E4
:1023F0000B460E4970B51546024642F8041B426072
:102400000022044682600132027304F15001103050
:102410000F32FFF72DFA04F1300004F160011022B1
:102420002B46BDE87040FFF7EBBA00BF508A0008AA
:1024300038B50D46044610B90C48FEF7C9FCFEF746
:102440005FFBFEF785FD237B013BDBB2012B02D94D
:102450000748FEF7BDFC2046294602F031F9022369
:102460002373FEF75DFDFEF753FB38BDF0890008CE
:10247000FC890008000000000000000000000000CF
:1024800010B5044610B91148FEF7A2FCFEF738FB60
:10249000FEF75EFD237B013BDBB2012B02D90C482A
:1024A000FEF796FC204602F043F90123237304F162
:1024B0003000FFF7B5FA04F11000FFF7E9F9FEF775
:1024C000F7FEFEF72DFDFEF723FB10BD0A8A00087C
:1024D000158A000800000000000000000000000055
:1024E00070B504460D46FEF793FC14B90E48FEF78E
:1024F0006FFCA16931B9A368201D43F00403A360F8
:10250000FFF786F904F110002946FFF7D9F90028F2
:1025100009DAA368201D43F080030021A360BDE811
:102520007040FFF775B970BD228A000800000000F6
:1025300010B590F84230044680F84A3002F0D0F9E5
:1025400063681B6813B12046012198470323237059
:1025500010BD0000000000000000000000000000AE
:1025600002F08EB900000000000000000000000032
:1025700001230370013B436083608381C381704703
:1025800038B50D46044600B111B91148FEF720FCDC
:10259000FEF7B6FAFEF7DCFC2378013BDBB2012B39
:1025A00002D90C48FEF714FC002323616361A36188
:1025B000E36123626362A362E3622046656002F026
:1025C00067F902232370FEF7ABFCFEF7A1FA38BDD2
:1025D000908A00089D8A00080000000000000000AA
:1025E0002DE9F04104460E461546FEF711FC04B1F4
:1025F00015B91348FEF7ECFB2378042B02D01148E1
:10260000FEF7E6FB331D54F8233013B10E48FEF7F6
:10261000DFFB2F6817F0100709D139460C226869D3
:10262000FDF74EFEA86939461022FDF749FE331D1D
:102630002046314644F82350BDE8F04102F060B92D
:10264000C68A0008DB8A0008F48A0008000000003F
:1026500070B504460E46FEF7DBFB14B90948FEF7D9
:10266000B7FBE389012053FA06F515F0010508D1FF
:10267000B04040EA0303E3812046314602F080FA8D
:10268000284670BD418B00080000000000000000DB
:1026900070B504460E46FEF7BBFB14B90948FEF7B9
:1026A00097FBA389012053FA06F515F0010508D11F
:1026B000B04040EA0303A3812046314602F070FA9D
:1026C000284670BD568B0008000000000000000086
:1026D000022203460270023AA0F8482083F84A20FA
:1026E00080F84B208281C281026142618261C261B5
:1026F000026242628262C26283F8302002F068B9EC
:10270000002370B500F14002044680F8303002F03A
:102710009FF963689B6823B120469847002840F0E2
:10272000E28094F8403013F0600540F0CB8094F8DC
:10273000416003F07F0343EA0626B6F5407F3BD0B5
:102740000FDC022E77D004DC2EB3012E40F0BA80CD
:102750006BE0B6F5807F25D0B6F5817F40F0B28082
:1027600085E0B6F5C06F39D009DC40F202339E42F5
:1027700000F09080B6F5A06F40F0A4802AE0B6F596
:10278000106F41D040F602439E424ED0B6F5006F26
:1027900040F0988032E004F1480363630223A363AE
:1027A000E663A0E094F84230012B40F08B80B4F84F
:1027B000483023F0020308E094F84230012B40F047
:1027C0008180B4F8483043F00203A4F848306563D0
:1027D000A5634AE06563A563644B71E063682046C6
:1027E0005E6894F8431094F84220B4F84430B0473F
:1027F000002867D043686363036803E004F14B0378
:1028000063630123A36330E094F8423084F84B30D3
:102810000BB9033300E00423237063681B68002BAB
:102820004BD020460221984747E0514B6363022377
:10283000A363023B44E094F8441011F0800F01F0D0
:102840000F0103D0204602F0F3F802E0204602F028
:10285000DFF8012802D0022834D103E0454BA663FB
:10286000636302E0444BA0636363E5633BE094F879
:1028700042303BBB94F8443013F00F011DD013F0ED
:10288000800F03D0204602F0DBFA16E0204602F06B
:10289000BFFA12E094F84230A3B994F8443013F030
:1028A0000F010AD013F0800FC9B203D0204602F006
:1028B0009FFA02E0204602F08BFA00236363A363D1
:1028C000E36310E02046002102F092FA2046002146
:1028D00002F07EFA63681B6813B120460521984711
:1028E000052384F83030B4F84630A26B9A4288BF92
:1028F000A36394F94030A56B002B18DA5DB1012376
:1029000084F8303020460021626B2B4602F020F91B
:102910002046002126E0022384F830302046294654
:102920002A462B4602F0FCF8204629460BE075B1FA
:10293000032384F8303020460021626B2B4602F0DE
:10294000EFF820460021BDE8704002F019B90423D9
:1029500084F83030204629462A462B4602F0F8F803
:1029600020462946BDE8704002F01AB9312500081A
:10297000808A0008B08B0008A08B000800000000CF
:1029800090F8303070B5012B044602D0042B2BD1C7
:1029900025E0836BB0F84620934211D20269128A77
:1029A000B3FBF2F502FB153555B929462A462B46ED
:1029B00002F0CEF820462946BDE8704002F0F0B89B
:1029C0000021022384F8303020460A460B4602F0EC
:1029D000A7F820460021BDE8704002F0D1B8C36BD3
:1029E00003B1984700230DE0002102F001FA2046D0
:1029F000002102F0EDF963681B6813B12046052140
:102A00009847052384F8303070BD000000000000B6
:102A100090F8303010B5022B04460FD0032B16D19E
:102A20000021013380F830300A460B4602F090F85E
:102A300020460021BDE8104002F0B2B803699B694E
:102A4000DB6823B9C36B03B1984700230EE020462F
:102A5000002102F0CDF92046002102F0B9F96368A7
:102A60001B6813B1204605219847052384F83030B0
:102A700010BD000000000000000000000000000089
:102A8000014B5B6883607047001000E000000000AD
:102A9000084B5A688368D31A074A12689B1AC2689F
:102AA0008360934201D9C36070470269934238BF83
:102AB00003617047001000E0E00E002000000000FD
:102AC000044B0360044B436000238360C360013BFD
:102AD00003617047812A0008912A00080000000065
:102AE00010B5084C86B0002301A82360FFF7E8FF6B
:102AF00001A8019B9847029B01A89847039B23606C
:102B000006B010BDE00E0020000000000000000034
:102B1000806BD0F1010038BF00207047000000003A
:102B20008069D0F1010038BF00207047000000002C
:102B300038B50446FDF7E4FFFEF70AFA0023A5685E
:102B4000A360FEF7EDF9FDF7E3FF284638BD00006E
:102B50002DE9F0418469D4F8D030D4F840801B6866
:102B6000E76B9D89A66B15F0020530D1FEF7D8F909
:102B7000FDF7CEFFD4F8D020C7EB08031068012181
:102B8000E26B9B1B01F0ACFFFDF7BAFFFEF7E0F92B
:102B9000D4F8D03001211868FFF77AFDA368201D12
:102BA00043F00803A3602946FEF732FEE36B226C74
:102BB0006364D31AA36305E0FEF70AFAFEF790FAFE
:102BC00000238362236B04F130008342F4D1BDE81B
:102BD000F081000000000000000000000000000084
:102BE00070B54469D4F8D0301B68DB8913F0080F46
:102BF0002FD1A5696DBBFEF793F9FDF789FFD4F8D6
:102C0000D03003211868E269402301F041FF0646F5
:102C1000FDF776FFFEF79CF9D4F8D0300321186851
:102C2000FFF716FDA368201D43F00403A3602946A7
:102C3000FEF7EEFDE369A661A36205E0FEF7C8F9C1
:102C4000FEF74EFA00238362236904F110008342E9
:102C5000F4D170BD00000000000000000000000082
:102C60001030FEF785BE00000000000000000000EC
:102C700010304FF0FF33FEF77BBE00000000000075
:102C80003030FEF73DBF00000000000000000000F3
:102C900030304FF0FF33FEF733BF0000000000007C
:102CA0001030FEF735BE00000000000000000000FC
:102CB0003030FEF7CDBE0000000000000000000034
:102CC000704700000000000000000000000000004D
:102CD0000E4A034610B543F8042B43600023044614
:102CE00083600133037304F1500110304022084B1C
:102CF000FEF7BEFD04F1300004F190014022054BC7
:102D0000FEF77EFE6462A46410BD00BFF08B000875
:102D1000E12B0008512B000800000000000000001B
:102D200070B50E46044610B91048FEF751F8FDF78D
:102D3000E7FEFEF70DF9237B013BDBB2012B02D945
:102D40000B48FEF745F8354655F8043BC4F8D0600B
:102D50009C6002232373FEF7E3F8FDF7D9FE306889
:102D60002946BDE87040FFF70BBC00BFC08B0008D0
:102D7000CD8B0008000000000000000000000000F3
:102D800090F8403003F06003202B1AD190F84120D6
:102D9000212A06D0222AA3F120030DD0202A12D105
:102DA00005E00A4B436307238363073B06E0074ABA
:102DB00042630722826301E043638363C3630120AC
:102DC0007047002070471846704700BFF808002081
:102DD000F8B5846805460E46FDF792FEFEF788F8C2
:102DE000E36B276CFF1AA36BFF1A2AD0FEF768F873
:102DF000FDF78EFE28463146E26B3B4601F070FE41
:102E0000FDF77EFEFEF774F831462846FFF740FCDA
:102E1000A368201D43F00803A3600021FEF7F8FC1F
:102E2000E36B226C6364D31AA36305E0FEF7D0F86A
:102E3000FEF756F900238362236B04F130008342CE
:102E4000F4D1FEF73DF8FDF763FEF8BD0000000089
:102E50002DE9F041846805460F46FDF751FEFEF767
:102E600047F8A66956BBFEF72BF8FDF751FE402345
:102E700028463946E26901F00BFE8046FDF740FE28
:102E8000FEF736F839462846FFF7E2FBA368201D17
:102E900043F00403A3603146FEF7BAFCE369C4F8CB
:102EA0001880A36205E0FEF793F8FEF719F90023F6
:102EB0008362236904F110008342F4D1FEF700F825
:102EC000FDF726FEBDE8F0810000000000000000D4
:102ED000704700000000000000000000000000003B
:102EE00001F0F6BF0000000000000000000000003C
:102EF00038B50C46054600B111B90848FDF768FF22
:102F0000FDF7FEFDFEF724F82846214602F018F8EA
:102F1000FEF706F8FDF7FCFD38BD00BF208C000869
:102F200038B50C46054600B111B90848FDF750FF09
:102F3000FDF7E6FDFEF70CF82846214602F018F8EA
:102F4000FDF7EEFFFDF7E4FD38BD00BF2F8C000854
:102F500010B5FDF795FF084B0F2219685A60074A14
:102F600013681BB1506801F00F019847FDF768FF27
:102F7000BDE81040FDF7D4BD00000240E40E002083
:102F800010B5FDF77DFF094BF02219685A60084A19
:102F9000936823B10909D06801F00F019847FDF744
:102FA0004FFFBDE81040FDF7BBBD00BF0000024071
:102FB000E40E0020000000000000000000000000FF
:102FC00010B5FDF75DFF094B4FF4706219685A6048
:102FD000074A136923B1090A506901F00F019847A4
:102FE000FDF72EFFBDE81040FDF79ABD000002403E
:102FF000E40E0020000000000000000000000000BF
:1030000010B5FDF73DFF094B4FF4704219685A6047
:10301000074A936923B1090BD06901F00F01984762
:10302000FDF70EFFBDE81040FDF77ABD000002403D
:10303000E40E00200000000000000000000000007E
:1030400010B5FDF71DFF094B4FF4702219685A6047
:10305000074A136A23B1090C506A01F00F0198471F
:10306000FDF7EEFEBDE81040FDF75ABD000002403E
:10307000E40E00200000000000000000000000003E
:1030800010B5FDF7FDFE094B4FF4700219685A6048
:10309000074A936A23B1090DD06A01F00F019847DE
:1030A000FDF7CEFEBDE81040FDF73ABD000002403E
:1030B000E40E0020000000000000000000000000FE
:1030C00010B5FDF7DDFE094B4FF0706219685A60CC
:1030D000074A136B23B1090E506B01F00F0198479B
:1030E000FDF7AEFEBDE81040FDF71ABD000002403E
:1030F000E40E0020000000000000000000000000BE
:10310000094B00221A6013460849C8580021016083
:1031100007480C3381500832542BF5D1054B4FF042
:10312000FF325A60704700BF1C0F0020B08C0008AF
:10313000E40E00200000024000000000000000003B
:10314000F8B50C4615461E46074610B91948FDF756
:103150003FFE7B7A012000FA03FC174A11681CEA43
:10316000010F25D1154840F8335000EBC3035E60D2
:103170004CEA010313F07F0F136004D0104B5A691F
:1031800042F001025A613B680F201A68002622F0C3
:1031900001021A60397A7A6810FA01F111601E6032
:1031A0002DB1B87A2101FDF713FD3046F8BD284650
:1031B000F8BD00BF808C00081C0F0020E40E00202A
:1031C00000100240000000000000000000000000AD
:1031D00038B5044610B91048FDF7FAFD637A0122AC
:1031E0009A400E4D2B681A4202D10D48FDF7F0FDB2
:1031F000A07AFDF715FD637A012212FA03F32A681B
:1032000022EA030313F07F0F2B6004D1054B5A69A8
:1032100022F001025A6138BD908C00081C0F00207A
:103220009F8C000800100240000000000000000019
:103230001F4B4FF0FF311A69002219611A61D868DB
:10324000D9601C481C49DA60486007208A60086021
:103250001A49C86840F08070C8601949086840F091
:1032600001000860D96941F08051D961D96941F004
:103270000061D9611349086840F480700860196AD8
:1032800001F44071B1F5407F03D04FF480311962F1
:103290001A621B6A064A13F4004F07D1136A43F4FB
:1032A00040731362136A43F400431362FFF728BFAD
:1032B00000100240FFA50E0010E000E0F0ED00E07D
:1032C000001000E00070004000000000000000005E
:1032D0001D4B1A6842F001021A601B4B1A6812F06B
:1032E000020FFAD01A6802F0F9021A6000225A603E
:1032F000154B5A6812F00C0FFAD11A6842F480325A
:103300001A60114B1A6812F4003FFAD05A6842F45E
:1033100088125A601A6842F080721A600A4B1A6862
:1033200012F0007FFAD0094A11215A60084A116050
:103330005A6842F002025A60034B5B6803F00C03C8
:10334000082BF9D1704700BF001002400064510003
:10335000002002400000000000000000000000000B
:1033600010B5144C2046FEF743FD134A134BE2629E
:1033700042F28A522263124AA362916941F40071B7
:10338000916100225A6001329A6008329A600B4BB8
:103390009A6812F0080FFAD105229A60074B9A68D2
:1033A00012F00402FAD19A60054B9A6922F4007275
:1033B0009A6110BD200F0020B08C0008002401404D
:1033C00000100240000000000000000000000000AB
:1033D00038B503780446012B19D10D4DA84212D1FE
:1033E000C06A05210B4A2346FFF7AAFE10B10A481E
:1033F000FDF7EEFCEB6A094A1B689A60084B9A6974
:1034000042F400729A61A36A00225A609A6038BD41
:10341000200F0020F1340008108D00084C240140DA
:10342000001002400000000000000000000000004A
:1034300008B50378022B0ED1074B98420BD1074BEE
:1034400000225A60C06A9A60FFF7C2FE044B9A6974
:1034500022F400729A6108BD200F00200024014070
:10346000001002400000000000000000000000000A
:10347000036930B51A68016B0AB141F02001C268D6
:103480009C88012A84BF41F004015443C26A8568C4
:103490001268D56054601160116841F0010111603B
:1034A0001969826A41F4807151605969986941F4DF
:1034B000807141F003019160D060D8691061186A91
:1034C000D062586A9B6A10635363916030BD0000FC
:1034D000C36A1A68116821F0010111605A681B7AE9
:1034E0000F2111FA03F31360836A00229A60704778
:1034F00011F0080F38B504460D4621D0FFF7E8FF5C
:103500002369DB684BB105220021227020469847D1
:103510002378052B01D1033B237000252561FDF79E
:10352000EFFAFDF7E5FC606928B14FF0FF33656104
:103530008362FDF7D5FDFDF7C3FCFDF7E9FA38BD61
:1035400011F0040F06D003699B681BB1C268816843
:103550005208984715F0020F41D021690B688BB1D2
:103560008B68002B3BD0E268012A07D98D8852086E
:103570005543A168204601EB450101E0A1682046C2
:10358000984738BD2046FFF7A3FF21698B68A3B198
:1035900004222270E268012A07D98D885208554317
:1035A000A168204601EB450101E0A168204698474B
:1035B0002378042B03D1023B00E002232370002573
:1035C0002561FDF79DFAFDF793FC606918B165610F
:1035D0008562FDF785FDFDF773FCFDF799FA38BDAF
:1035E00010B5FDF74DFC0748074B01225A614368AF
:1035F00000215B689847FDF723FCBDE81040FDF70C
:103600008FBA00BF540F00200004014000000000EA
:1036100010B5FDF735FC0748074B02225A61436895
:103620000121DB689847FDF70BFCBDE81040FDF772
:1036300077BA00BF540F00200004014000000000D2
:1036400010B5FDF71DFC0748074B04225A6143687B
:1036500002215B699847FDF7F3FBBDE81040FDF7D9
:103660005FBA00BF540F00200004014000000000BA
:1036700010B5FDF705FC0748074B08225A6143685F
:103680000321DB699847FDF7DBFBBDE81040FDF740
:1036900047BA00BF540F00200004014000000000A2
:1036A00010B5FDF7EDFB0748074B10225A61436840
:1036B00004215B6A9847FDF7C3FBBDE81040FDF7A6
:1036C0002FBA00BF540F002000040140000000008A
:1036D00010B5FDF7D5FB194A536903F4787413F05C
:1036E000200F546104D0164805214368DB6A9847CF
:1036F00014F0400F04D01248062143685B6B9847D2
:1037000014F0800F04D00E4807214368DB6B984704
:1037100014F4807F04D00A48082143685B6C984702
:1037200014F4007F04D0064809214368DB6C9847F5
:10373000FDF786FBBDE81040FDF7F2B9000401403B
:10374000540F0020000000000000000000000000F6
:1037500010B5FDF795FB1D4A536903F47C4413F43F
:10376000806F546104D01A480A2143685B6D984702
:1037700014F4006F04D016480B214368DB6D9847A2
:1037800014F4805F04D012480C2143685B6E9847A4
:1037900014F4005F04D00E480D214368DB6E984797
:1037A00014F4804F04D00A480E2143685B6F984799
:1037B00014F4004F04D006480F214368DB6F98478C
:1037C000FDF73EFBBDE81040FDF7AAB9000401403B
:1037D000540F002000000000000000000000000066
:1037E00010B5FDF74DFB0848084B4FF480325A6185
:1037F00043681021D3F884309847FDF721FBBDE8DA
:103800001040FDF78DB900BF540F002000040140A7
:1038100010B5FDF735FB0848084B4FF480225A617C
:1038200043681221D3F894309847FDF709FBBDE8AF
:103830001040FDF775B900BF540F0020000401408F
:103840000148FEF7D5BB00BF540F00200000000068
:10385000036B48F200021A8000221A809A809A8232
:10386000C36A1A68116821F00101116059681B7A56
:103870000F2212FA03F30B60836A1968086820F0BC
:103880000100086059681B7A9A400A60704700007E
:1038900070B5C469054654B1FFF7DAFF0023EB6148
:1038A0002046013BA362BDE87040FDF719BC70BD26
:1038B00011F0080F38B50546046B01D0FDF7E0F8AC
:1038C000EB6A1A68116821F0010111605A681B7ACD
:1038D0000F2111FA03F31360A3889BB243F4007322
:1038E000A38038BD000000000000000000000000C0
:1038F00011F0080F70B50446056B01D0FDF7C0F854
:10390000A36A1A68116821F0010111605A681B7AD4
:103910000F2111FA03F3136094F83460F6B9AB8801
:1039200023F480531B041B0CAB802B8823F480638F
:103930001B041B0C2B802B889BB243F400732B8041
:10394000FDF7DEF8FDF7D4FAE06918B1E6618662AA
:10395000FDF7C6FBFDF7B4FAFDF7DAF870BD00001D
:1039600070B5046B0546FDF7CBF8FDF7C1FAEB6ABD
:103970001A68116821F00101116059681B7A0F2241
:1039800012FA03F30B60AB6A1968086820F00100B3
:10399000086059681B7A9A400A60FDF791FAFDF7B2
:1039A000B7F8A68A16F4807606D0A38A012623F4F7
:1039B00080731B041B0CA382A38A13F4007F07D01F
:1039C000A38A46F0020623F400731B041B0CA38297
:1039D00095F83430BBB9A38A13F4806F1DD0A38A45
:1039E00046F0040623F480631B041B0CA382A38807
:1039F00023F400731B041B0CA38023889BB243F4A5
:103A00000073238009E0A38A23F480631B041B0C4A
:103A1000A3826B6D0BB128469847A38A13F4006FFD
:103A200007D0A38A46F0080623F400631B041B0C8E
:103A3000A382A38A13F4805F07D0A38A46F01006FE
:103A400023F480531B041B0CA382A38A13F4804F1E
:103A500007D0A38A46F0200623F480431B041B0CE6
:103A6000A382A38A1BB2002B06DAA38A46F0400683
:103A70005B045B0CA38200E086B1AE60FDF740F80A
:103A8000FDF736FAE86928B10023EB61023B836257
:103A9000FDF726FBFDF714FAFDF73AF870BD0000BC
:103AA000F8B5056B90F834202B8BAE8A0446B6B27D
:103AB000002A69D146EA0343544A23F07F439342E4
:103AC0000ED003D8013A934259D106E0504A9342AE
:103AD00021D00232934252D12AE0038C2B824EE055
:103AE000AB8823F400731B041B0CAB80836A1B6838
:103AF0001A6842F001021A60AA8892B242F4805217
:103B0000AA805B68012B3AD82B8823F480631B04BE
:103B10001B0C2B8033E0AB8823F400731B041B0CBD
:103B2000AB80C36A1B681A6842F001021A6026E083
:103B3000836A1B685F684FB1038C43F00103038401
:103B40002B889BB243F4A0632B80F8BDAB8823F491
:103B500000731B041B0CAB802B889BB243F40073D7
:103B60002B80FCF7CDFFFDF7C3F9E06918B1E761E1
:103B70008762FDF7B5FAFDF7A3F9FCF7C9FF16F068
:103B80000A0F42D02B8BF8BD16F00A0F05D0002388
:103B9000AE8A036403652B8BB6B216F0800F0BD090
:103BA000236DA26CD25C01332A822365226CE36C04
:103BB0009A4201D30023236516F0400F0AD0236CEC
:103BC000298AA26BD154E26B01339342236401D35F
:103BD0000023236416F0100F0AD0AE8A2B88B6B2E9
:103BE0009BB243F001032B80636C0BB120469847D6
:103BF00016F4806F09D0AB8A23F480631B041B0C7E
:103C0000AB82636D0BB120469847F8BD02000300FC
:103C1000820007000000000000000000000000001B
:103C200010B5FDF72DF90448FFF73AFFFDF708F945
:103C3000BDE81040FCF774BF5C0F002000000000DE
:103C400010B5FDF71DF90448FFF78AFEFDF7F8F8F7
:103C5000BDE81040FCF764BF5C0F002000000000CE
:103C600010B5FDF70DF90448FFF71AFFFDF7E8F866
:103C7000BDE81040FCF754BFB40F00200000000066
:103C800010B5FDF7FDF80448FFF76AFEFDF7D8F818
:103C9000BDE81040FCF744BFB40F00200000000056
:103CA00070B50D4C0D4D2046FEF7B2F90C4B0026B9
:103CB0002363A5F10C03A562E362E661094C20468B
:103CC000FEF7A6F9084BE6612363A5F11803243D2E
:103CD000A362E56270BD00BF5C0F0020F88C000895
:103CE00000540040B40F00200058004000000000C5
:103CF0008A232DE9F041436203780446012B056BCA
:103D00005DD18D4EB0422BD18C4B806A1A690A214D
:103D100042F400121A6100221A61894A2346FFF711
:103D20000FFA10B18748FDF753F8F06A0A21864A66
:103D3000814BFFF705FA10B18448FDF749F87F4B36
:103D40001F20DA69A02142F40012DA61FCF740FF7B
:103D50002020A021FCF73CFF736A43F48053736278
:103D60007B4EB4422BD1754BA06A1A690A2142F4EA
:103D700080021A6100221A61714A2346FFF7E0F9B6
:103D800010B17448FDF724F8F06A0A216E4A704BAE
:103D9000FFF7D6F910B17048FDF71AF8674B2120EC
:103DA000DA69A02142F48002DA61FCF711FF2220D7
:103DB000A021FCF70DFF736A43F480537362E36A3A
:103DC000626A1B6842F010011960A16A276B0968DA
:103DD0000A6005F110028A609A6048F200032B80A5
:103DE00000232B804FF41063AB8063685E6893F808
:103DF0000880002E02DD594B9E4202DD5848FCF738
:103E0000E7FFBB8823F03F031B041B0CBB80BB8870
:103E10009BB243F01803BB80524B9E4222DCB8F1A8
:103E2000010F02D05048FCF7D3FF504A760092FBB6
:103E3000F6F17143531A904613B14D48FCF7C8FF91
:103E400098FBF6F6B6B2032E02D84A48FCF7C0FF3C
:103E500019234FEA0658B6F5805F4FEA18583B849D
:103E600040D242E0444B9E4262DCA8F10203DBB246
:103E7000012B03D94148FCF7ABFF26E0B8F1020F54
:103E80000FD1DFF8E88006EB460698FBF6F27243A6
:103E9000C2EB080313B13A48FCF79AFF98FBF6F619
:103EA00015E0B8F1030F10D119235E432F4A92FB9E
:103EB000F6F17143531A904613B13248FCF788FF6C
:103EC00098FBF6F64FF4804803E040F6FF764FF09B
:103ED000000836056FEA4848360D082366EA584858
:103EE0003B8402E02848FCF773FF6268216BA7F867
:103EF0001C8012780B88022A9BB208D0032A0DD0AE
:103F0000012A0DD123F00A031B041B0C08E043F027
:103F100002024FF6F77302EA030301E043F00A03DB
:103F20000B802B889BB243F001032B80BDE8F0810E
:103F30004FF00008D9E700BF5C0F002000100240DE
:103F4000F1380008308D0008B1380008448D0008B1
:103F5000B40F0020588D00086C8D000800093D004A
:103F6000808D0008A0860100968D000800366E0145
:103F7000AE8D0008C68D0008801A0600DE8D000890
:103F8000F68D00080E8E0008268E00080000000046
:103F9000037810B5012B044624D0FFF759FCE06AE2
:103FA000FFF716F9A06AFFF713F90F4B9C420BD1EC
:103FB0001F20FCF735FE2020FCF732FE0B4BDA69A0
:103FC00022F40012DA6110BD094B9C420AD1212073
:103FD000FCF726FE2220FCF723FE044BDA6922F4CC
:103FE0008002DA6110BD00BF5C0F002000100240AB
:103FF000B40F0020000000000000000000000000DE
:104000002DE9F043012B87B00446884691461F46B0
:104010000E9E056B02D83048FCF7DAFEB6F1FF3F82
:1040200005D001A831462D4A2346FCF7F9FFFCF7DD
:1040300077FFFCF76DFD0023A360A36A4FEA4808F1
:104040001B6848F00108A4F82080C3F80C905F605A
:104050000DE0FCF755FDFCF77BFFB6F1FF3F02D00A
:10406000049B002B32D0FCF75BFFFCF751FD2B8B40
:1040700013F0020FEDD12B8813F4007FE9D1FCF788
:104080003FFDFCF765FFB6F1FF3F01D0049BEBB1AC
:10409000002384F83430AB8802209BB243F40073D1
:1040A000AB802B889BB243F4A0632B800C4DAB6993
:1040B000E361FDF755F8B6F1FF3F04D0049B13B15F
:1040C00001A8FCF7D5FFAB69986A01E04FF0FF301B
:1040D00007B0BDE8F08300BF3E8E000891380008AD
:1040E000980E00200000000000000000000000000A
:1040F0002DE9F04F87B0119F0446884691469A46B5
:10410000DDF840B0129E056B3FB1012F02D9BBF123
:10411000000F02D13148FCF75BFEB6F1FF3F05D03E
:1041200001A831462E4A2346FCF77AFFFCF7F8FE39
:10413000FCF7EEFC0023A360E36A4FEA48081B6823
:10414000A4F82080C3F80C90C3F804A0A36A1B68ED
:10415000C3F80CB05F600DE0FCF7D2FCFCF7F8FE92
:10416000B6F1FF3F02D0049B002B32D0FCF7D8FE03
:10417000FCF7CEFC2B8B13F0020FEDD12B8813F440
:10418000007FE9D1FCF7BCFCFCF7E2FEB6F1FF3F93
:1041900001D0049BEBB1002384F83430AB880220BB
:1041A0009BB243F40073AB802B889BB243F48073C3
:1041B0002B800C4DAB69E361FCF7D2FFB6F1FF3FFA
:1041C00004D0049B13B101A8FCF752FFAB69986AB5
:1041D00001E04FF0FF3007B0BDE8F08F618E0008BE
:1041E00091380008980E0020000000000000000038
:1041F0002DE9F04F3F4F87B0149E9A46BB69B6F148
:10420000FF3F044688469146056BC36105D001A86F
:104210003146394A2346FCF703FFFCF781FEFCF7E1
:1042200077FC0DE0FCF76CFCFCF792FEB6F1FF3F6B
:1042300002D0049B002B55D0FCF772FEFCF768FC03
:104240002B8B13F0020FEDD12B8813F4007FE9D1F3
:10425000FCF756FCFCF77CFEB6F1FF3F02D0049B56
:10426000002B3FD0129B4FF0000B6364109B4FEA72
:104270004808A364119BA4F82080E364139BC4F84E
:1042800008B06365012384F834302B88C4F8389073
:1042900023F480731B041B0CC4F83CA0C4F840B08A
:1042A000C4F850B02B80AB8808F0FE0823F40063FC
:1042B0001B041B0CAB80A5F80880AB88B6F1FF3F50
:1042C0009BB243F4C063AB802B889BB243F4806302
:1042D0002B80BB69E36109D0049B33B101A8FCF7D3
:1042E000C7FE03E04FF0FF3B00E09B46584607B097
:1042F000BDE8F08F980E0020913800080000000003
:1043000070B5194CFCF7BCFD23694FF6E0711A8AB1
:104310009D891982154015F0020F03D0636820466D
:104320001B69984715F0040F03D063680E489B691A
:10433000984715F0080F03D063680B481B6A98472D
:1043400015F0100F03D0636807489B6A984715F073
:10435000010F03D0636804489B689847FCF770FD21
:10436000BDE87040FCF7DCBB0C1000200000000032
:1043700010B5044C2046FDF76BFF4FF080432361DE
:1043800010BD00BF0C100020000000000000000065
:1043900038B503780446012B19D13B4B984210D114
:1043A0003A4B1C20DA69702142F00102DA611A6985
:1043B00042F001021A6100221A61FCF709FC344B39
:1043C000E360236946F668021A839A8309E0036969
:1043D00000221A809A811A825A639A63DA631A64F5
:1043E0005A626268E3681168B3FBF1F2551EB5F5D5
:1043F000803F02D24A439A4202D02648FCF7E8FCAA
:10440000238922696168013B9BB21585D3628B8D3C
:104410009380CB6803F00F03012B02D0022B04D151
:1044200000E0002343F0010300E00023486900F0AE
:104430000F00012803D0022803D143F0200343F0EA
:104440001003C86900F00F00012803D0022803D12F
:1044500043F4007343F48073486A00F00F000128AE
:1044600003D0022803D143F4005343F48053138450
:10447000012393828B68003B18BF012393810023A3
:1044800013828523138038BD0C10002000100240D9
:10449000006CDC02908E00080000000000000000AC
:1044A00008B50378022B0FD1036900221A809A8184
:1044B0001A82064B984207D11C20FCF7B1FB044B33
:1044C000DA6922F00102DA6108BD00BF0C10002099
:1044D000001002400000000000000000000000008A
:1044E000036910B501F10C0403EB840462604268B7
:1044F00002EBC102126962B1022010FA01F19A893D
:1045000092B2114205D189B241EA0202C9439A81AD
:10451000198210BD00000000000000000000000033
:10452000034B9A8992B242F080029A81704700BF91
:104530000038014000000000000000000000000002
:104540002DE9F047524EFCF79BFC346FA789258874
:10455000BFB2ADB215F00F0FB4F8048023D015F040
:10456000080918BF4FF0800915F0010F18BF49F076
:10457000200915F0020F18BF49F0400915F0040F8B
:1045800018BF49F48079FCF7BBFAFCF7B1FCB368BB
:10459000404849EA03030021B360FDF739F9FCF70D
:1045A0008FFCFCF7B5FA15F4807F15D0FCF7A8FA5C
:1045B000FCF79EFCB368374843F400730021B360F6
:1045C000FDF726F9FCF77CFCFCF7A2FA238823F41C
:1045D00080731B041B0C238015F0200F0CD0FCF7FC
:1045E0008FFAFCF785FC2A485FFA88F1FDF778FF1F
:1045F000FCF766FCFCF78CFA17F0800F24D015F05E
:10460000800F21D0FCF77CFADFF88480FCF770FC87
:1046100008F13000FDF74CFA002810DAD8F808301D
:1046200008F1040043F00803C8F808300021FDF742
:10463000EFF827F0C00343F04003A38100E0A0801F
:10464000FCF73EFCFCF764FA15F0400F1AD0FCF7BB
:1046500057FAFCF74DFCB3680E4843F010030021F5
:10466000B360FDF7D5F8FCF72BFCFCF751FA4FF6D9
:10467000BF7307EA0303A381238823F040031B04CD
:104680001B0C2380FCF7DCFBBDE8F047FCF748BAC5
:104690002010002024100020000000000000000076
:1046A00010B5044C00212046034AFDF7A1FE034B40
:1046B000236710BD2010002021450008003801406C
:1046C00038B5164C037B002918BF0C46012B054654
:1046D0000BD1134B984208D1124B25209A69C02167
:1046E00042F480429A61FCF773FA22680E492B6FFC
:1046F000B1FBF2F21A81A28842F4045242F02C0279
:104700009A81E28842F040021A82228942F0010234
:104710009A8200221A801A889B8838BDB08E0008C1
:10472000201000200010024000366E010000000042
:10473000037B022B0FD1036F00229A811A829A8287
:10474000054B984207D1054B25209A6922F48042F7
:104750009A61FCF765BA70472010002000100240F3
:10476000144B9A6942F07D029A610268124BDA603A
:1047700082685A6042681A60C268104BDA60426907
:104780005A6002691A6082690D4BDA60026A5A60E7
:10479000C2691A60426A0B4BDA60C26A5A60826A66
:1047A0001A60026B084BDA60826B5A60426B1A60C7
:1047B000704700BF0010024000080140000C01409B
:1047C00000100140001401400018014000000000EA
:1047D000032AF0B501D1016102E0042A08BF41615A
:1047E000124B08269F5C00231C461A461D461201E8
:1047F0002D011B01240111F0800F0CBF42F00F02AC
:104800003B4311F4004F0CBF45F00F053C43013E04
:1048100001D04900EBE741680D4045EA04044460DB
:1048200001680A4042EA03030360F0BDC08E00083D
:1048300040230360704700000000000000000000FB
:1048400010B504680919B1F5007F016002D902486A
:10485000FCF7BEFA204610BDF08E000800000000F4
:1048600010B5FCF70DFBFCF7EBFABDE81040FCF7C8
:1048700057B9000000000000000000000000000028
:104880000148FDF775BE00BF941000200000000035
:10489000037870B5012B044618D10D4A904210D10F
:1048A0000C4A0D4DD169132041F40001D1612B64F4
:1048B0006021FCF78DF91420E021FCF789F9002331
:1048C0002B642046BDE87040FDF702BF70BD00BFFD
:1048D0009410002000100240005C00400000000026
:1048E00090F84A20024B42F08002DA64704700BF21
:1048F000005C00400000000000000000000000001C
:104900000B1D70B550F82340226802F00303013BF1
:10491000022B96BF2C4D4FF4007335F81330A56869
:104920000DB143F02003E56865B112F0100F07D018
:1049300001228A40C58943F440532A43C28101E0E1
:1049400043F4005343EA0105204A25F4F04525F0DD
:10495000700542F8215047F6700552F8216003EACD
:104960000505638A75403E2B42F8215003F1FF3361
:1049700008D943F01F0301335B116FEAC3636FEA89
:10498000534307E043F00103013303EBD3735B02AE
:1049900003F47C430D4A00F14C06156D002205F12D
:1049A000005505F5405505EBC1056D00AA80218A2B
:1049B000AB813046FFF744FF618A28603046FFF73D
:1049C0003FFFA86070BD00BFE08E0008005C0040A3
:1049D0000D4B70B5802200251D655D64DA64426868
:1049E0000446D2684C30AA4214BF4FF41E424FF422
:1049F0001C421A64FFF71CFF044B20462946236122
:104A0000BDE87040FFF77CBF005C0040208F0008CD
:104A1000054B53F8210010F4405004D0B0F5805FEE
:104A20000CBF012002207047005C00400000000025
:104A3000054B53F8213003F03003102B9ABF034A83
:104A4000D05C0220704700BF005C0040008F00086F
:104A50000B4B1B6D03F1005303F5405303EBC103F4
:104A60005B009B6803F1005303F54053590000239A
:104A7000585A0433102B22F8020BF9D1704700BFAB
:104A8000005C00400000000000000000000000008A
:104A9000104810B5006D00F1005000F5405000EBDB
:104AA000C10040008468808904F100548005800DB5
:104AB000834228BF034604F54054013364005B0879
:104AC00004E054F8041B013B22F8021B002BF8D130
:104AD00010BD00BF005C00400000000000000000AE
:104AE0000D4810B5006D00F1005000F5405000EB8E
:104AF000C10040000468838004F1005404F5405470
:104B0000013364005B0804E032F8021B013B44F807
:104B1000041B002BF8D110BD005C00400000000019
:104B2000043150F8210081694A6000228B60CA601C
:104B300013B901230B807047428A501EC318B3FB80
:104B4000F2F20A8070470000000000000000000040
:104B500070B50C1D50F8245000266C69636022600B
:104B6000A6602C8AA34228BF2346BDE87040FFF709
:104B7000B7BF0000000000000000000000000000BF
:104B8000054A52F8213023F4904323F0700383F454
:104B9000405342F821307047005C004000000000A4
:104BA000054A52F8213023F4F04323F0400383F008
:104BB000300342F821307047005C004000000000E4
:104BC0002DE9F047FCF75CF97F4B5C6C14F4806FC7
:104BD0000DD07E4D2846FDF77BFD6B681B6813B139
:104BE000284600219847784B6FF480625A6414F489
:104BF000006F11D0744D75482B6C43F008032B6483
:104C000043681B680BB1032198472B6C43F00403E6
:104C10002B646FF400636B6414F4805F17D06A4BED
:104C20009A6C12F4004F0AD11A6C684822F00802FC
:104C30001A6443681B6833B10421984703E01A6C77
:104C400042F004021A64604B6FF480525A6414F408
:104C5000007F00F0AF805D484368DB6803B1984790
:104C6000594B6FF400725A64A4E0574B04F00F04E0
:104C700053F82480554E221D18F0800F56F822500C
:104C80003AD053F8242022F4F04222F0F00243F804
:104C900024202A6812F0100F24D11B6D696903F1DA
:104CA000005303F5405303EBC4035B009B88886803
:104CB0009BB2C0180A6888604868D218C31A0A6094
:104CC0004B607BB1B5F810E05FFA84F93046494695
:104CD000734528BF7346FFF703FF30464946FFF789
:104CE0005FFF09E00123A340B289304622EA0303B3
:104CF000B3812146AB68984718F4004F58D0324F23
:104D000018F4006F57F8243023F4784323F070032D
:104D100047F8243004D0231D56F823305B680DE09B
:104D20002B6813F0100F0CD00123A340F28922EA64
:104D30000303F381231D56F82330DB682348214603
:104D400035E0AB69214E5FFA84F85A6841469B68AA
:104D50003046FFF79DFE414681463046FFF710FF83
:104D6000AB695A684A445A60DA684A44DA609A6819
:104D7000C9EB02029A601A88013A92B21A8052B1C3
:104D800057F8243023F4904323F0700383F4405306
:104D900047F824300CE00123A340F289043422EACE
:104DA0000303F38156F824303046DB6841469847C8
:104DB000054B5C6C14F4004F7FF457AFFCF740F8E0
:104DC000BDE8F047FBF7ACBE005C0040941000204B
:104DD000054A52F8213023F4904323F0700383F402
:104DE000805342F821307047005C00400000000012
:104DF000054A52F8213023F4F04323F0400383F0B6
:104E0000100342F821307047005C004000000000B1
:104E1000094B53F8212002F44052B2F5405F09D00B
:104E200053F8212022F4F04222F0400282F4005292
:104E300043F82120704700BF005C004000000000E4
:104E4000084B53F8212002F03002302A09D053F8E1
:104E5000212022F4F04222F0400282F0200243F8A6
:104E600021207047005C00400000000000000000AE
:104E700010B5FCF705F8144B9A8812F0080FFAD019
:104E800019889C889A880C4022F007021204120CA0
:104E900014F0010F9A8003D00C4800210368984752
:104EA00014F0020F03D0094801210368984714F059
:104EB000040F03D00548022103689847FBF7C0FFA1
:104EC000BDE81040FBF72CBE00280040F410002085
:104ED000174B9A8812F0080FFAD01A899B8912048E
:104EE0009BB2D2184FF223439A4214D0104B9A88A7
:104EF00012F0200FFAD09A8892B242F010029A80F3
:104F000000221A814FF223429A819A8822F01002DD
:104F10001204120C9A80064A938813F0200FFAD0DC
:104F200000231380034A0320F0211360FBF750BED7
:104F300000280040F41000200000000000000000E5
:104F40000A4B9A8812F0200FFAD09A8892B242F057
:104F500010029A800A68110C19839A839A8822F0A9
:104F600010021204120C9A80704700BF0028004003
:104F700030B5114B9B8813F0080FFAD00E4B1A8BEB
:104F8000988B120480B21218188A9C8A0004A4B26A
:104F90001D8B00199C8B2B04A4B21B199A42EDD1D6
:104FA0000A60064A064B4243D3184FF22442B3FB31
:104FB000F2F39BB24B6030BD0028004018FCFFFFAD
:104FC000B8A8B903000000000000000000000000C5
:104FD000FEF77EB9000000000000000000000000A5
:104FE000704700000000000000000000000000000A
:104FF0000A46014900F004BA808F00080000000052
:10500000002902DD0349FFF7F3BF034B0349DA68C8
:1050100000F0F6B98C8F0008880E0020948F0008ED
:10502000002913B5044605DD184902B0BDE810405B
:10503000FFF7DEBF1649174A00F0E2F9204616498D
:10504000164A00F0DDF920461549164A00F0D8F955
:1050500020461549154A00F0D3F920461449154A4F
:1050600000F0CEF920461449144A00F0C9F9204650
:105070001349144A00F0C4F9134B20460093134916
:10508000134A144B00F0BCF902B010BD9A8F00080F
:105090009F8F0008B28F0008B88F0008CB8F0008E0
:1050A000D58F0008E88F0008F08F000803900008F3
:1050B0000D900008209000083590000848900008E6
:1050C0007090000883900008B19000088A90000852
:1050D000A1900008AD900008000000000000000052
:1050E00038B505460C4604E02846044900F088F926
:1050F00008342268002AF7D138BD00BFBA900008F2
:105100002DE9F04104460D46174698460DE0394614
:10511000FBF736F9064638B9284664684146069AD0
:10512000A0473046BDE8F081083420680028EED161
:105130000130BDE8F0810000000000000000000028
:1051400038B50D4600B108602C6894B120460A4974
:10515000FBF7F6F9241820462021FBF739F92860DF
:1051600018B1002300F8013B28602378002B08BF0A
:105170000024204638BD00BFC081000800000000A8
:10518000014B1B60704700BFF810002000000000BA
:1051900007B5034B00900020FCF7B2F90EBD00BF2D
:1051A0006152000800000000000000000000000044
:1051B0002DE9F84304460F4691460D4623682046E4
:1051C0005B694FF0FF31984706B2002E80463FDB07
:1051D000042E06D12046204900F012F90120BDE836
:1051E000F883082E18D1BD42E8D0236831461B69E8
:1051F0004FF0FF3220469847236820211B694FF06B
:10520000FF3220469847236820461B6931464FF0FD
:10521000FF329847013DD1E70D2E07D120460F49B7
:1052200000F0EEF800202870BDE8F8831F2EC5DDE1
:1052300009F1FF33FB189D42C0D2236820461B6949
:105240005FFA88F14FF0FF32984705F8018BB5E718
:105250000120BDE8F88300BFBE9000086B920008F3
:105260002DE9F041474B04689B69474A4749D0F80C
:10527000048098B09A61204600F0C2F82046444964
:1052800000F0BEF8204602A94022FFF791FF054634
:1052900020B120463F4900F0B3F864E002A817A906
:1052A000FFF74EFF11AF06460AE0042D05D1204658
:1052B000394900F0A5F8002608E047F8040F013549
:1052C000002017A9FFF73CFF0028EED118AA02EB37
:1052D0008503002243F8182C002ECFD030462F49EA
:1052E000FBF74EF820B9002D3DD020462B4907E0B2
:1052F00030462B49FBF744F8B8B925B12849204678
:10530000FFF776FEBAE72046264900F079F82046F6
:105310002549FFF7E5FEB8F1000F03D020464146CE
:10532000FFF7DEFE20462149A6E712AF1E482146C0
:1053300032462B460097FFF7E3FE00289ED0B8F1D7
:10534000000F08D04046214632462B460097FFF713
:10535000D7FE002892D020461549324600F050F87A
:105360002046144988E7FBF7CBFBFBF7F1FD002152
:105370001148FCF74DFA0020FCF74AF8002018B05D
:10538000BDE8F081980E0020C1900008C790000889
:10539000DC900008E1900008EA900008FF90000807
:1053A0000491000809910008000900206B92000890
:1053B0001E91000821910008F81000200000000054
:1053C000F0B500F10B0700F10A06B1FBF2F302FBA6
:1053D000131101F13005392DC8BF01F137053446ED
:1053E00035701946013E002BEFD13A1BE15CC154E8
:1053F00001339342FAD1C018F0BD00000000000054
:105400000EB42DE9F04785B00DAB53F8044B0646BA
:1054100003932178002900F0E9800134252906D082
:10542000336830461B694FF0FF329847F1E7237825
:105430002D2B03D101344FF0010A01E04FF0000A97
:1054400023782E2B03D101344FF0300801E04FF0C8
:10545000200803992246002712F8013BA3F13000EF
:10546000C0B20928144603D92A2B05D10878043183
:105470000A2303FB0707EFE72E2B039114D11546F0
:1054800000222C4614F8013BA3F13000C0B20928D9
:10549000254605D92A2B01D0039106E0087804316E
:1054A0000A2303FB0202ECE700226C2B01D04C2BF9
:1054B00003D1217809B101340B46632B18D009D8E8
:1054C0004F2B44D002D8442B4DD130E0552B40D047
:1054D000582B0AE0732B15D004D8642B27D06F2BE0
:1054E00041D134E0752B34D0782B3CD1102231E0FF
:1054F000039B04AD1A1D1B68039205F8103D4FF085
:10550000200833E0039B191D1D683B4B0391002DC0
:1055100008BF1D4647F6FF73002A08BF1A462B46F0
:1055200019781846013321B3013AF9D521E0039BDC
:105530001A1D03921968002906DA2D238DF8003010
:1055400049420DF1010000E068460A2207E0082206
:1055500000E00A22039B6846191D03911968FFF7B2
:105560002FFF6D4607E004AD05F8103D0DF1010079
:1055700001E04FF02008C5EB0009C9EB070727EA57
:10558000E777BAF1000F22D17F4207B329782D299E
:105590000BD1B8F1300F08D1336830461B694FF09A
:1055A000FF329847013509F1FF39336830461B69EE
:1055B00041464FF0FF3298470137F6D107E0336894
:1055C00030461B6915F8011B4FF0FF329847B9F1BF
:1055D0000109F4D507E0336830461B6941464FF0B6
:1055E000FF329847013F002FF5D112E705B0BDE823
:1055F000F04703B0704700BF309100080000000082
:10560000024B034A5A60034A5A6070470020024026
:1056100023016745AB89EFCD0000000000000000CA
:10562000024B1A6942F080021A6170470020024062
:105630000A4BDA6812F0010F0BD1DA6812F0040F8E
:1056400009D1D86800F0100000280CBF0420032006
:105650007047012070470220704700BF00200240C1
:1056600010B50446FFF7E4FF02E0FFF7E1FF013C5D
:10567000012803D1002CF8D1043010BD002C08BF44
:10568000052010BD00000000000000000000000028
:1056900073B5002304464FF400500E460193FFF704
:1056A000DFFF04281AD10E4D4FF400502B6943F050
:1056B00001032B612680FFF7D3FF042808D10234B1
:1056C0000194019B360C1E804FF40050FFF7C8FF79
:1056D0002A6941F6FE7302EA03032B617CBD00BF19
:1056E0000020024000000000000000000000000058
:1056F00038B505464FF43020FFF7B2FF042813D128
:105700000A4C4FF43020236943F0020323616561A2
:10571000236943F040032361FFF7A2FF226941F6AA
:10572000FD7302EA0303236138BD00BF002002407D
:10573000022108B505480A46FFF74AF8034B986866
:10574000400800F0010080F0010008BD000C01409D
:1057500002290CD0032904D00748012918BF0020D2
:105760007047032A05D8054800EBC200704704487B
:1057700070470020704700BFF0930008B093000806
:10578000B0910008000000000000000000000000D0
:1057900010B5044601F074F8034902462046BDE8FE
:1057A0001040FFF72DBE00BFE09100080000000090
:1057B00010B5044601F05CF8034902462046BDE8F6
:1057C0001040FFF71DBE00BFE09100080000000080
:1057D00010B5044601F034F802492046BDE81040F7
:1057E000FFF70EBEE5910008000000000000000079
:1057F00010B5044601F014F810B12046034901E049
:1058000003492046BDE81040FFF7FABDEF910008BC
:10581000F6910008000000000000000000000000F9
:1058200010B5044600F0E4FF02492046BDE81040F0
:10583000FFF7E6BDFE910008000000000000000038
:10584000002910B504460CDD1068FAF751FCC0B20F
:1058500000F09EFF054902462046BDE81040FFF7D4
:10586000CFBD0349BDE81040FFF7CABDE091000875
:105870000B92000800000000000000000000000083
:1058800001292DE9F0410C46174612DD1068FAF7A0
:105890002FFC0125064657F8040FFAF729FC0135BD
:1058A000C1B2304600F06CFF0136A542F3D1BDE82D
:1058B000F0810249BDE8F041FFF7A2BD3092000837
:1058C000002910B504460BDD1068FAF711FC00F052
:1058D0004FFF064902462046BDE81040FFF790BD45
:1058E0000349BDE81040FFF78BBD00BFE091000801
:1058F00051920008000000000000000000000000BD
:1059000001292DE9F0410C46174612DD1068FAF71F
:10591000EFFB0125064657F8040FFAF7E9FB0135BE
:10592000C1B2304600F01CFF0136A542F3D1BDE8FC
:10593000F0810249BDE8F041FFF762BD51920008D5
:10594000022938B504460D4616D1FBF7D9F8FBF706
:10595000CFFA20460121094AFCF742FE204629469B
:10596000074AFCF73DFE20460321064AFCF738FEB5
:10597000FBF7A6FAFBF7CCF838BD00BF4091000852
:10598000C091000810930008000000000000000013
:1059900070B50F4C06224FF480714FF480750D4E98
:1059A0000B48FEF715FF32206561FBF719FD304605
:1059B000FDF78EF930460849FDF7B2F92046294631
:1059C0000622FEF705FF2561BDE87040FFF7D8BB52
:1059D00000080140FC100020D093000800000000E7
:1059E00038B50E4C2068254670B90D4BD3F8D03031
:1059F0001B681B78042B07D10A484FF44B614022E7
:105A0000FFF7C6FB206038BD90F820300E2B03D185
:105A1000FBF736FD00232B6038BD00BFD0110020FE
:105A2000FC1000203093000800000000000000007F
:105A300001460148FFF7E4BCFC1000200000000014
:105A400070B506468CB01A480D46FBF769FE194B37
:105A50001C78FBF775FE24B917482146FCF7D8F9E6
:105A600002E01548FCF764FA002301220093ADF828
:105A700004200293039304930593069308930993D8
:105A80000D4869460DF12E02013307960A95FCF781
:105A90007FFA34B108480949094A0223FCF730FA71
:105AA00002E00548FCF7DCF9BDF82E000CB070BD33
:105AB000D4110020E8110020200F002000940008DD
:105AC000EA110020000000000000000000000000BB
:105AD000334B0A891B6810B59A420C4610DC314BD7
