:020000040800F2
:10000000000400204101000801020008010200086C
:1000100001020008010200080102000801020008B4
:100020000102000801020008010200085102000854
:100030000102000801020008010200082102000874
:1000400001020008512200080102000841360008A0
:100050000102000801020008F11F00082120000829
:100060005120000881200008B1200008111B000861
:10007000611B0008B11B0008011C0008511C00088E
:10008000A11C0008F11C000801020008212B000837
:10009000312B00080102000801020008E1200008DD
:1000A0000102000801020008010200080102000824
:1000B0000129000801020008010200086127000868
:1000C00081270008A1270008C127000801020008B5
:1000D00001020008010200080102000801020008F4
:0C00E000912100080102000881220008A4
:1000F000704700BFAFF30080AFF30080AFF3008024
:10010000FEE700BFAFF30080AFF30080AFF30080E5
:1001100084B003900291019206E0039B019A1A6059
:10012000039B03F104030393039A029B9A42F4D3C3
:1001300004B07047AFF30080AFF30080AFF30080EE
:1001400072B6204C84F309884FF0020484F31488BB
:10015000BFF36F8F03F014FB1B481C494FF055325F
:10016000FFF7D6FF1A4817494FF05532FFF7D0FF77
:10017000184D194C05E02B68236004F1040405F1C7
:100180000405164B9C42F6D3154816494FF0000261
:10019000FFF7BEFFFFF7ACFF134C03E0236898475F
:1001A00004F10404114B9C42F8D303F071FB104C92
:1001B00003E02368984704F104040E4B9C42F8D3F3
:1001C000FFF79EFF00080020000000200004002030
:1001D00000040020303C0008000800200008002037
:1001E000000800201C0F0020EC000008EC000008B4
:1001F000EC000008EC000008AFF30080AFF30080D3
:10020000FEE700BFAFF30080AFF30080AFF30080E4
:1002100072B6FEE7AFF30080AFF30080AFF300806B
:1002200008B500F045FA00F043F800F011FA00F0CC
:1002300087F900F025FA00F043F800F059FA00F0D1
:1002400047F808BDAFF30080AFF30080AFF3008044
:1002500010B582B0EFF309840194019B03F12003F0
:100260000193019B83F3098800F02AF802B010BDC6
:1002700008B50D4B4FF000029A600B4B0B4ADA6049
:100280004FF007004FF0100100F0D2F84FF00A00D5
:100290004FF4007100F0CCF84FF00B004FF08001EC
:1002A00000F0C6F808BD00BF00ED00E00000FA0550
:1002B0004FF0200383F31188704700BFAFF3008035
:1002C0004FF0000383F31188704700BFAFF3008045
:1002D00010B582B0FFF7ECFF134B5B6803F40063CB
:1002E000002B1DD0EFF309840194019BA3F120039F
:1002F0000193019B83F30988019B4FF08072DA61BF
:100300000A4B1B689A68094B9B699B689A4203D900
:10031000019B074A9A6105E0019B064A9A6101E048
:10032000FFF7CEFF02B010BD00ED00E0300D002061
:10033000410300084C030008AFF30080AFF30080D6
:1003400000F056F900F08CFC00F06AF900DF00BF05
:1003500003460A462DE9F04FC2F80CD0D3F80CD072
:10036000BDE8F08FAFF30080AFF30080AFF3008003
:1003700008B500F055F9FFF7A3FF2846A04700F0A5
:100380009FFD08BDAFF30080AFF30080AFF30080A6
:1003900010B485B001900091019B03F003034FEA74
:1003A000C30303931E4B019A4FEA92021C49019822
:1003B0004FEA900000F1C00051F8200003994FF07F
:1003C000FF0404FA01F16FEA010108400399009C5F
:1003D00004FA01F140EA010102F1C00243F82210DF
:1003E0000F4B019A4FEA5212019901F01F014FF091
:1003F000010000FA01F102F1600243F82210084BFB
:10040000019A4FEA5212019901F01F014FF00100C9
:1004100000FA01F143F8221005B010BC704700BF8C
:1004200000E100E0AFF30080AFF30080AFF30080A5
:1004300010B485B001900091019B03F003034FEAD3
:10044000C3030393104B019A4FEA92020E4901989D
:100450004FEA900000F1060051F8200003994FF098
:10046000FF0404FA01F16FEA010108400399009CBE
:1004700004FA01F140EA010102F1060243F82210F8
:1004800005B010BC704700BF00ED00E0AFF3008086
:1004900082B00190024B9B69024A9A61FEE700BF5D
:1004A000300D0020E0380008AFF30080AFF300808B
:1004B00000B583B0FFF7DCFE00F09AFA00F0F8F91F
:1004C00000F06EFD00F0CCFD00F062F914484FF032
:1004D000400100F0F5FB0246124B9A61114B9B69FB
:1004E0004FF0010283F820200E4B9B690E4ADA611F
:1004F00000F066F84FF0000383F3118862B6094BF1
:100500009B690A4A9A610A4B4FF00002009209481F
:100510004FF0C0014FF0010200F07AFC03B000BDC3
:10052000C0080020300D002000040020E83800083A
:100530009104000800080020AFF30080AFF30080B2
:1005400000B583B000F0F4F81A4B9B695A6A02F1C7
:1005500001025A62184BDB6803F10102164BDA60A4
:10056000154B1B681A46144B9A4221D0124B1B683C
:100570009A6802F1FF329A6013E0019BDB680093F6
:10058000019B4FF00002DA60019B1B680A4A5A6027
:10059000019B1A68084B1A60019B1A69009B104660
:1005A0009847054B1B680193019B9B68002BE4D087
:1005B00003B000BD300D0020200D0020AFF30080FF
:1005C00008B5064B1B68002B03D1054B1B68002B9D
:1005D00002D0044800F024F908BD00BF0C09002037
:1005E0001009002000390008AFF30080AFF300804D
:1005F00008B5084B1B68002B03D1074B1B68002B69
:1006000002D0064800F00CF9034B4FF001021A60CB
:1006100008BD00BF0C09002010090020083900089F
:1006200008B5084B1B68002B03D1074B1B68002B38
:1006300002DC064800F0F4F8034B4FF000021A60A9
:1006400008BD00BF0C090020100900201039000867
:1006500008B5084B1B68002B03DD074B1B68002BFC
:1006600002D0064800F0DCF8034B4FF001021A609C
:1006700008BD00BF0C09002010090020183900082F
:1006800008B5084B1B68002B03DD074B1B68002BCC
:1006900002DC064800F0C4F8034B4FF000021A6079
:1006A00008BD00BF0C0900201009002020390008F7
:1006B00008B5FFF7FDFD0A4B1B68002B03DB094B58
:1006C0001B68002B02D0084800F0AAF8044B1B68F6
:1006D00003F10102024B1A60FFF7F2FD08BD00BFF3
:1006E0000C0900201009002028390008AFF3008011
:1006F00008B5FFF7DDFD0A4B1B68002B03DD094B36
:100700001B68002B02D0084800F08AF8044B1B68D5
:1007100003F1FF32024B1A60FFF7D2FD08BD00BFA4
:100720000C0900201009002030390008AFF30080C8
:1007300008B5064B1B68002B03DB054B1B68002B21
:1007400002DC044800F06CF808BD00BF0C09002072
:100750001009002038390008AFF30080AFF30080A3
:1007600008B5064B1B68002B03D1054B1B68002BFB
:1007700002DC044800F054F808BD00BF0C0900205A
:100780001009002040390008AFF30080AFF300806B
:10079000034B4FF040021A60014B024A5A60704707
:1007A000140900201C090020AFF30080AFF3008083
:1007B00082B00190124B5B68124AD2681A60104BEB
:1007C0005B68114A92695A600D4B5B68019A926AA4
:1007D0009A600B4B5B68019A92F820201A73084BC1
:1007E0005B6803F11002064B5A60054B5A68074BD1
:1007F0009A4202D3024B064A5A6002B0704700BFC9
:1008000014090020200D0020300D00201C0D0020B8
:100810001C090020AFF30080AFF30080AFF300802D
:1008200000B583B00190034B019A1A60FFF7F0FC0A
:1008300003B000BD1C0D0020AFF30080AFF30080BB
:1008400084B00190019B1B680393039B1A68019B72
:100850001A60019B1B68019A5A60039B184604B0FA
:10086000704700BFAFF30080AFF30080AFF30080AC
:1008700082B00190019B5B68019A12681A60019B2B
:100880001B68019A52685A60019B184602B0704773
:1008900084B00190019B1B680393039B1A68019B22
:1008A0001A60039B184604B0704700BFAFF3008086
:1008B000074A074B5A60064B5A68054B1A60044BAF
:1008C0004FF0FF329A60024B4FF00002DA6070473F
:1008D000200D0020AFF30080AFF30080AFF3008065
:1008E00000B587B00390029101920093FFF720FFBB
:1008F000039B002B05D0019B002B02D0029B002BF9
:1009000002D11C48FFF78CFF039B009A1A61039BDE
:10091000019ADA60184B1B68059307E0059B9B68FA
:10092000029AD31A0293059B1B680593059B9A684C
:10093000029B9A42F2D3039B059A1A60039B1B68A1
:100940005A68039B5A60039B5B68059A0399516040
:10095000059A52681A60039B029A9A60059A064BA0
:100960009A4205D0059B9A68029BD21A059B9A6011
:1009700007B000BD50390008200D0020AFF3008003
:1009800000B583B00190FFF7D3FE019B002B02D18D
:100990001348FFF745FF019BDB68002B02D111488C
:1009A000FFF73EFF019B1A680F4B9A4208D0019B4C
:1009B0001B68019A12689168019A92688A189A6075
:1009C000019B5B68019A12681A60019B1B68019A7F
:1009D00052685A60019B4FF00002DA6003B000BD1C
:1009E0006039000870390008200D0020AFF3008046
:1009F000094A094B5A60084B5A68074B1A60064B64
:100A00004FF000029A60044A034B5A61024B5A6944
:100A1000014B1A61704700BF300D0020AFF300801A
:100A200000B585B00190019B93F82030002B04D0D5
:100A3000019B93F820300E2B02D11348FFF7F0FEF4
:100A4000019B4FF0000283F82020104B0393039B7F
:100A50001B680393039B9A68019B9B689A42F6D29A
:100A6000019B039A1A60039B5A68019B5A60019B81
:100A70005B68039A01995160039A52681A60019B5E
:100A8000184605B000BD00BF90390008300D0020A9
:100A900000B585B003468DF80730FFF761FE144BB3
:100AA0009B690393039B9DF8072083F8202010483F
:100AB000FFF7C6FE02460E4B9A610D4B9B694FF045
:100AC000010283F820200398FFF772FE6B46A3F122
:100AD0002402039BDB699A4202D20648FFF7A0FE7C
:100AE000034B9B6918460399FFF732FC05B000BD24
:100AF000300D0020A4390008AFF30080AFF3008070
:100B000000B585B00190019B0393039B93F82030BF
:100B10000D2B28D801A252F823F000BF770B000854
:100B2000670B0008670B0008550B0008670B0008EF
:100B3000610B0008670B0008670B0008670B0008D3
:100B4000670B0008670B0008670B0008670B0008BD
:100B5000610B0008039B9B6A9A6802F101029A608C
:100B60000398FFF785FE039B4FF0FF329A620398CC
:100B7000FFF756FF00E000BF05B000BDAFF30080F7
:100B800000B589B0034600918DF80730FFF7E8FD06
:100B9000009BB3F1FF3F14D00F4B9B6903AA104693
:100BA00000990E4AFFF79CFE9DF807301846FFF7A4
:100BB0006FFF069B002B09D003AB1846FFF7E0FE42
:100BC00004E09DF807301846FFF762FF024B9B696F
:100BD0009B6A184609B000BD300D0020010B0008CB
:100BE00000B585B001900091FFF7BAFD019B009A16
:100BF0009A62019B9A68154B9B699B689A4203D83D
:100C00000198FFF70DFF1EE0104B9B691846FFF798
:100C100007FF03900D4B019A9A61019B4FF001026F
:100C200083F820200398FFF7C3FD6B46A3F124024D
:100C3000039BDB699A4202D20548FFF7F1FD019858
:100C40000399FFF785FB05B000BD00BF300D002004
:100C5000A4390008AFF30080AFF30080AFF3008049
:100C600000B583B0134B9B6901931248FFF7E8FD71
:100C70000246104B9A610F4B9B694FF0010283F8BB
:100C800020200198FFF7CCFE0198FFF791FD6B46FD
:100C9000A3F12402019BDB699A4202D20648FFF7C6
:100CA000BFFD044B9B6918460199FFF751FB03B048
:100CB00000BD00BF300D0020A4390008AFF3008054
:100CC00082B001900091019B009A9A60019B4FF0C5
:100CD000020283F82020019B4FF0000283F82120BC
:100CE000019B009A5A64019B4FF000021A64019B19
:100CF0004FF00002DA63019B4FF000025A62019B41
:100D00004FF0010283F82220019B4FF000029A610C
:100D1000134A019B1A61124B5A69019B5A61019B4C
:100D20005B690F4A019951610D4A52691A61019B31
:100D300003F12C031A46019BDA62019B03F1300395
:100D40001A46019B5A63019B5A6B019B1A63019BD4
:100D500003F14C02019BDA61019B184602B0704717
:100D6000300D0020AFF30080AFF30080AFF30080C0
:100D700084B00390029113468DF8073007E0039B7F
:100D80009DF807201A70039B03F101030393039A54
:100D9000029B9A42F3D304B0704700BFAFF30080C8
:100DA00000B587B00390029101920093039B0593D5
:100DB000FFF7BEFC039B002B08D0029BAF2B05D98D
:100DC000019B7F2B02D8009B002B02D10E48FFF71E
:100DD00027FD039A029BA3F12403D218059BDA6036
:100DE000059BDB68009A1A60059BDB68089A5A60CD
:100DF000059BDB68054A1A6205980199FFF760FFB9
:100E00000346184607B000BDC0390008710300084A
:100E100000B589B00590049103920293059A059B51
:100E200003F14C03104619464FF0FF02FFF7A0FFF5
:100E3000059B03F14C020599049BCB1810461946FB
:100E40004FF05502FFF794FFFFF732FAFFF7D0FBA0
:100E50000A9B009305980499039A029BFFF7A0FF51
:100E6000079007984FF00001FFF7BAFEFFF7D8FB95
:100E7000FFF726FA079B184609B000BDAFF30080C4
:100E800000B583B00190019B002B02D10848FFF709
:100E9000C7FCFFF70DFAFFF7ABFB4FF00600019917
:100EA000FFF76EFEFFF7BCFBFFF70AFA03B000BDC9
:100EB000003A0008AFF30080AFF30080AFF300808A
:100EC00000B583B00190FFF7F3F9FFF791FB0198AC
:100ED00000F006F803B000BDAFF30080AFF3008070
:100EE00000B585B00190194B9B690393039B019A50
:100EF0009A6209E0039B03F12C031846FFF7C8FC34
:100F000003461846FFF78CFD039BDA6A039B03F147
:100F10002C039A42EED1039B93F8213003F0030394
:100F2000002B09D1039B5B69039A12691A61039B29
:100F30001B69039A52695A614FF00E00FFF7A8FD32
:100F40000348FFF76DFC05B000BD00BF300D002069
:100F5000103A0008AFF30080AFF30080AFF30080D9
:100F600000B583B00190019B002B02D10848FFF728
:100F700057FC019B1A46019B5A60019B5A68019BD2
:100F80001A60019B4FF000029A6003B000BD00BFE1
:100F9000603A0008AFF30080AFF30080AFF3008049
:100FA000074B03F1070323F007031A46054B1A60AA
:100FB000054B23F007031A46044B1A60704700BF25
:100FC0001C0F00204C0D002000500020500D002070
:100FD00000B585B00190FFF76BF9FFF709FB0198A9
:100FE00000F00EF80390FFF71BFBFFF769F9039B76
:100FF000184605B000BD00BFAFF30080AFF300801E
:1010000000B585B00190FFF793FB019B03F1070347
:1010100023F0070301930D4B1B681A460C4B1B680A
:10102000D31A1A46019B9A4202D24FF0000309E0FC
:10103000074B1B680393064B1A68019BD218044B9D
:101040001A60039B184605B000BD00BF500D00207C
:101050004C0D0020AFF30080AFF30080AFF30080B1
:1010600008B5074B074A1A60054B4FF000029A601B
:10107000034B4FF00002DA600348FFF771FF08BD31
:10108000580D0020D10F0008680D0020AFF300803C
:1010900008B500F0BDFE00F0EBFC0A4801F050FC82
:1010A00000F016F800F044F800F05AF800F078F874
:1010B00000F0AEFA00F01CFD00F022FD02F068FB2B
:1010C00008BD00BFF03B0008AFF30080AFF3008025
:1010D00008B500F045FF08BDAFF30080AFF3008016
:1010E00000B583B00190019B4FF001021A70019B83
:1010F0004FF000025A60019B4FF000029A60019B82
:101100004FF00002DA60019B4FF000021A61019B70
:101110004FF000025A61019B03F118031846FFF7D4
:101120001FFF03B000BD00BFAFF30080AFF300802E
:1011300008B501F0BDF808BDAFF30080AFF3008043
:1011400082B00190019B4FF001021A70019B4FF099
:1011500000025A6002B07047AFF30080AFF3008026
:1011600008B501F03DFB08BDAFF30080AFF3008090
:1011700000B583B00190019B4FF001021A70019BF2
:101180004FF000025A60019B03F10C031846FFF771
:10119000E7FE03B000BD00BFAFF30080AFF30080F7
:1011A00008B501F0BDFB08BDAFF30080AFF30080D0
:1011B00082B00190019B4FF001021A70019B4FF029
:1011C00000025A6002B07047AFF30080AFF30080B6
:1011D00000B583B00190019B93F84220019B83F8F6
:1011E0004A20019801F0DCFE019B5B681B68002B24
:1011F00006D0019B5B681B6801984FF0010198477E
:10120000019B4FF003021A7003B000BDAFF30080E2
:1012100010B584B00190019B93F8403003F07F0239
:10122000019B93F841304FEA032342EA0303B3F5ED
:10123000407F63D0B3F5407F12DC022B00F00081C9
:10124000022B05DC002B28D0012B00F0EB80D8E12D
:10125000B3F5807F32D0B3F5817F00F05681D0E1C5
:10126000B3F5C06F78D0B3F5C06F08DC40F202323E
:10127000934200F08481B3F5A06F5FD0C1E1B3F574
:10128000106F00F0A08040F60242934200F0CA8046
:10129000B3F5006F00F08780B3E1019B03F14803D1
:1012A0001A46019B5A63019B4FF002029A63019B0D
:1012B0004FF00002DA634FF00103A4E1019B93F8C1
:1012C0004230012B17D1019BB3F8483023F00203C1
:1012D0009AB2019BA3F84820019B4FF000025A6389
:1012E000019B4FF000029A63019B4FF00002DA630A
:1012F0004FF0010387E14FF0000384E1019B93F875
:101300004230012B17D1019BB3F8483043F0020360
:101310009AB2019BA3F84820019B4FF000025A6348
:10132000019B4FF000029A63019B4FF00002DA63C9
:101330004FF0010367E14FF0000364E1019B4FF0C0
:1013400000025A63019B4FF000029A63019B9C4A82
:10135000DA634FF0010356E1019B5B685C68019B17
:1013600093F84310019B93F84220019B03F1400343
:1013700003F104031B880198A0470390039B002BF3
:1013800002D14FF000033EE1039B5A68019B5A6370
:10139000039B1A68019B9A63019B4FF00002DA637A
:1013A0004FF001032FE1019B03F14B02019B5A63B4
:1013B000019B4FF001029A63019B4FF00002DA6338
:1013C0004FF001031FE1019B93F84220019B83F83A
:1013D0004B20019B93F84B30002B04D1019B4FF025
:1013E00003021A7003E0019B4FF004021A70019B84
:1013F0005B681B68002B06D0019B5B681B6801982B
:101400004FF002019847019B4FF000025A63019B85
:101410004FF000029A63019B4FF00002DA634FF035
:101420000103F0E0019B674A5A63019B4FF00202FF
:101430009A63019B4FF00002DA634FF00103E2E090
:10144000019B93F84430DBB25BB2002B2EDA019B98
:1014500093F8443003F00F03DBB20198194601F012
:10146000A7FE0346012B02D0022B0ED01BE0019BEE
:10147000554A5A63019B4FF002029A63019B4FF059
:101480000002DA634FF00103BDE0019B4F4A5A634B
:10149000019B4FF002029A63019B4FF00002DA6356
:1014A0004FF00103AFE04FF00003ACE0019B93F875
:1014B000443003F00F03DBB20198194601F058FEE7
:1014C0000346012B02D0022B0ED01BE0019B3E4AAB
:1014D0005A63019B4FF002029A63019B4FF0000296
:1014E000DA634FF001038EE0019B384A5A63019B97
:1014F0004FF002029A63019B4FF00002DA634FF053
:10150000010380E04FF000037DE0019B93F842303F
:10151000002B02D04FF0000375E0019B93F844309C
:1015200003F00F03002B1BDD019B93F84430DBB26B
:101530005BB2002B0ADA019B93F8443003F00F03EF
:10154000DBB20198194602F053F809E0019B93F8C9
:10155000443003F00F03DBB20198194602F020F883
:10156000019B4FF000025A63019B4FF000029A6307
:10157000019B4FF00002DA634FF0010343E0019B4F
:1015800093F84230002B02D04FF000033BE0019B68
:1015900093F8443003F00F03002B23DD019B93F8F5
:1015A0004430DBB25BB2002B12DA019B93F844307B
:1015B00003F00F03DBB20198194601F0D1FF11E0EF
:1015C000D1110008203B0008403B0008303B0008D8
:1015D000019B93F8443003F00F03DBB201981946E6
:1015E00001F09EFF019B4FF000025A63019B4FF0F8
:1015F00000029A63019B4FF00002DA634FF001038F
:1016000001E04FF00003184604B010BDAFF30080B6
:1016100008B501F08DFC08BDAFF30080AFF300808A
:1016200082B00190019B4FF001021A70019B4FF0B4
:1016300000025A60019B4FF000029A60019B4FF03C
:1016400000029A81019B4FF00002DA8102B07047DC
:1016500000B585B00190019B4FF002021A70019B0A
:101660004FF00002A3F84820019B4FF0000283F8DE
:101670004A20019B4FF0000283F84B20019B4FF062
:1016800000029A81019B4FF00002DA814FF00003C3
:1016900003930BE0019B039A02F104024FF0000157
:1016A00043F82210039B03F101030393039B072BD1
:1016B000F0D9019B4FF0000283F83020019801F02F
:1016C0003FFC05B000BD00BFAFF30080AFF300806A
:1016D00000B585B001900B468DF80330019B4FF0AB
:1016E000000283F83020019B03F140039DF80320A2
:1016F000019811461A4601F07BFD019B5B689B68CF
:10170000002B07D0019B5B689B68019898470346B4
:10171000002B27D1019B93F8403003F06003002B8E
:1017200005D10198FFF774FD0346002B1AD10198EB
:101730004FF0000101F014FF01984FF0000101F09B
:10174000EFFE019B5B681B68002B06D0019B5B686A
:101750001B6801984FF005019847019B4FF0050267
:1017600083F83020019B03F1400303F106031B883B
:101770000393019B9A6B039B9A4202D9019B039AA4
:101780009A63019B93F84030DBB25BB2002B2BDAFB
:10179000019B9B6B002B13D0019B4FF0010283F840
:1017A0003020019B5A6B019B9B6B01984FF000010D
:1017B00001F036FE01984FF0000101F091FE3EE08D
:1017C000019B4FF0020283F8302001984FF0000196
:1017D0004FF000024FF0000301F0E2FD01984FF0DE
:1017E000000101F05DFE2AE0019B9B6B002B13D0F2
:1017F000019B4FF0030283F83020019B5A6B019B41
:101800009B6B01984FF0000101F0CAFD01984FF069
:10181000000101F045FE12E0019B4FF0040283F845
:10182000302001984FF000014FF000024FF000030C
:1018300001F0F6FD01984FF0000101F051FE05B0F6
:1018400000BD00BFAFF30080AFF30080AFF30080B6
:1018500000B585B001900B468DF80330019B93F8DD
:101860003030012B02D0042B3BD048E0019B03F128
:10187000400303F106031B880393019B9A6B039BB0
:101880009A421AD2019B9B6B019A1269128AB3FB8E
:10189000F2F102FB01F29B1A002B0ED101984FF0DE
:1018A00000014FF000024FF0000301F0B9FD019874
:1018B0004FF0000101F014FE3CE0019B4FF00202EA
:1018C00083F8302001984FF000014FF000024FF0F4
:1018D000000301F065FD01984FF0000101F0E0FD0B
:1018E00028E0019BDB6B002B03D0019BDB6B019895
:1018F0009847019B4FF0000283F830201AE00198CE
:101900004FF0000101F02CFE01984FF0000101F0B2
:1019100007FE019B5B681B68002B06D0019B5B6880
:101920001B6801984FF005019847019B4FF0050295
:1019300083F8302005B000BDAFF30080AFF3008026
:1019400000B583B001900B468DF80330019B93F8EE
:101950003030022B15D0032B28D1019B4FF004020D
:1019600083F8302001984FF000014FF000024FF053
:10197000000301F055FD01984FF0000101F0B0FDAA
:101980002FE0019B1B699B69DB68002B0DD1019B3C
:10199000DB6B002B03D0019BDB6B01989847019B0D
:1019A0004FF0000283F830201BE000BF01984FF099
:1019B000000101F0D5FD01984FF0000101F0B0FDEC
:1019C000019B5B681B68002B06D0019B5B681B6852
:1019D00001984FF005019847019B4FF0050283F8ED
:1019E000302003B000BD00BFAFF30080AFF3008034
:1019F00082B00190024B5A68019B9A6002B0704716
:101A0000001000E0AFF30080AFF30080AFF3008080
:101A100084B00190114B5B680393019B9B68039A10
:101A2000D21A0F4B1B68D21A019B9A60019B9A68CD
:101A3000019BDB689A4204D9019B9A68019BDA609A
:101A400009E0019B9A68019B1B699A4203D2019BA2
:101A50009A68019B1A6104B0704700BF001000E053
:101A6000780D0020AFF30080AFF30080AFF300806B
:101A700000B587B00A4B4FF000021A6001AB184660
:101A800000F016F8019B01AA10469847029B01AA94
:101A900010469847039A024B1A6007B000BD00BF7A
:101AA000780D0020AFF30080AFF30080AFF300802B
:101AB00082B00190019B094A1A60019B084A5A6052
:101AC000019B4FF000029A60019B4FF00002DA6028
:101AD000019B4FF0FF321A6102B07047F119000804
:101AE000111A0008AFF30080AFF30080AFF300805D
:101AF000704700BFAFF30080AFF30080AFF300800A
:101B000008B501F0EDFD08BDAFF30080AFF3008034
:101B100000B583B0FEF7CCFD0C4B1B6803F00F0340
:101B200001930A4B4FF00F025A60094B1B68002BC0
:101B300006D0074B1B68064A526810460199984721
:101B4000FEF7D6FDFEF7C4FB03B000BD0000024067
:101B5000800D0020AFF30080AFF30080AFF3008072
:101B600000B583B0FEF7A4FD0D4B1B684FEA1313BD
:101B700003F00F0301930A4B4FF0F0025A60094B38
:101B80009B68002B06D0074B9B68064AD26810461C
:101B900001999847FEF7ACFDFEF79AFB03B000BD34
:101BA00000000240800D0020AFF30080AFF3008002
:101BB00000B583B0FEF77CFD0D4B1B684FEA132385
:101BC00003F00F0301930A4B4FF470625A60094B04
:101BD0001B69002B06D0074B1B69064A5269104649
:101BE00001999847FEF784FDFEF772FB03B000BD34
:101BF00000000240800D0020AFF30080AFF30080B2
:101C000000B583B0FEF754FD0D4B1B684FEA13334C
:101C100003F00F0301930A4B4FF470425A60094BD3
:101C20009B69002B06D0074B9B69064AD269104678
:101C300001999847FEF75CFDFEF74AFB03B000BD33
:101C400000000240800D0020AFF30080AFF3008061
:101C500000B583B0FEF72CFD0D4B1B684FEA134314
:101C600003F00F0301930A4B4FF470225A60094BA3
:101C70001B6A002B06D0074B1B6A064A526A1046A5
:101C800001999847FEF734FDFEF722FB03B000BD33
:101C900000000240800D0020AFF30080AFF3008011
:101CA00000B583B0FEF704FD0D4B1B684FEA1353DC
:101CB00003F00F0301930A4B4FF470025A60094B73
:101CC0009B6A002B06D0074B9B6A064AD26A1046D5
:101CD00001999847FEF70CFDFEF7FAFA03B000BD34
:101CE00000000240800D0020AFF30080AFF30080C1
:101CF00000B583B0FEF7DCFC0D4B1B684FEA1363A5
:101D000003F00F0301930A4B4FF070625A60094BC6
:101D10001B6B002B06D0074B1B6B064A526B104601
:101D200001999847FEF7E4FCFEF7D2FA03B000BD34
:101D300000000240800D0020AFF30080AFF3008070
:101D400082B0144B4FF000021A604FF00003019371
:101D500016E01149019A13464FEA43039B184FEAD4
:101D60008303CB181B684FF000021A600B4B019ADB
:101D70004FF0000143F83210019B03F1010301937E
:101D8000019B062BE5DD064B4FF0FF325A6002B097
:101D9000704700BF7C0D0020503B0008800D0020E4
:101DA00000000240AFF30080AFF30080AFF300808B
:101DB000134B134A126842F480721A60114B1B6A6B
:101DC00003F44073B3F5407F07D00E4B4FF48032DD
:101DD0001A620C4B4FF000021A620A4B1B6A03F4A2
:101DE0000043002B0BD1074B064A126A42F44072A3
:101DF0001A62044B034A126A42F400421A627047A4
:101E00000070004000100240AFF30080AFF300808C
:101E100008B51E4B1B691D4B4FF0FF321A611B4B5F
:101E20004FF000021A61194BDB68184B4FF0FF327C
:101E3000DA60164B4FF00002DA60154B154A5A6013
:101E4000134B4FF000029A60114B4FF007021A60DB
:101E5000114B114AD26842F08072DA600F4B0F4A80
:101E6000126842F001021A60084B084AD26942F037
:101E70008052DA61054B054AD26942F00062DA61AC
:101E8000FFF796FFFFF75CFF08BD00BF00100240A0
:101E900010E000E0FFA50E00F0ED00E0001000E013
:101EA000294B294A126842F001021A6000BF264BF2
:101EB0001B6803F00203002BF9D0234B224A12685F
:101EC00002F0F9021A60204B4FF000025A6000BF86
:101ED0001D4B5B6803F00C03002BF9D11A4B1A4A17
:101EE000126842F480321A6000BF174B1B6803F47B
:101EF0000033002BF9D0144B134A526842F4881275
:101F00005A60114B104A126842F080721A6000BF8A
:101F10000D4B1B6803F00073002BF9D00A4B0B4AE2
:101F20005A600B4B4FF011021A60074B064A526879
:101F300042F002025A6000BF034B5B6803F00C03DF
:101F4000082BF9D1704700BF001002400064510017
:101F500000200240AFF30080AFF30080AFF30080B9
:101F600008B51E48FFF7BCF81C4B1D4A9A621B4B74
:101F70001C4ADA62194B42F28A521A631A4B1A4A05
:101F8000926942F400729A61154B4FF000025A6058
:101F9000134B4FF001029A60114B4FF009029A6007
:101FA00000BF0F4B9B6803F00803002BF9D10C4BCB
:101FB0004FF005029A6000BF094B9B6803F00403D1
:101FC000002BF9D1064B4FF000029A60064B064AEF
:101FD000926922F400729A6108BD00BFB80D00201A
:101FE00000240140503B000800100240AFF3008085
:101FF00008B5FEF75DFB084B4FF001025A61074B35
:102000005B685B6805484FF000019847FEF770FB7E
:10201000FEF75EF908BD00BF00040140EC0D002092
:1020200008B5FEF745FB084B4FF002025A61074B1B
:102030005B68DB6805484FF001019847FEF758FBE5
:10204000FEF746F908BD00BF00040140EC0D00207A
:1020500008B5FEF72DFB084B4FF004025A61074B01
:102060005B685B6905484FF002019847FEF740FB4B
:10207000FEF72EF908BD00BF00040140EC0D002062
:1020800008B5FEF715FB084B4FF008025A61074BE5
:102090005B68DB6905484FF003019847FEF728FBB2
:1020A000FEF716F908BD00BF00040140EC0D00204A
:1020B00008B5FEF7FDFA084B4FF010025A61074BC6
:1020C0005B685B6A05484FF004019847FEF710FB18
:1020D000FEF7FEF808BD00BF00040140EC0D002033
:1020E00000B583B0FEF7E4FA244B5B6903F4787320
:1020F0000193224B019A5A61019B03F02003002BAC
:1021000006D01F4B5B68DB6A1D484FF005019847FE
:10211000019B03F04003002B06D0194B5B685B6BFF
:1021200017484FF006019847019B03F08003002BEE
:1021300006D0134B5B68DB6B11484FF007019847E3
:10214000019B03F48073002B06D00D4B5B685B6C26
:102150000B484FF008019847019B03F40073002BD4
:1021600006D0074B5B68DB6C05484FF009019847C8
:10217000FEF7BEFAFEF7ACF803B000BD0004014064
:10218000EC0D0020AFF30080AFF30080AFF30080D0
:1021900000B583B0FEF78CFA2A4B5B6903F47C43ED
:1021A0000193284B019A5A61019B03F48063002B31
:1021B00006D0254B5B685B6D23484FF00A019847BA
:1021C000019B03F40063002B06D01F4B5B68DB6DA3
:1021D0001D484FF00B019847019B03F48053002BDF
:1021E00006D0194B5B685B6E17484FF00C0198479F
:1021F000019B03F40053002B06D0134B5B68DB6E8E
:1022000011484FF00D019847019B03F48043002BC8
:1022100006D00D4B5B685B6F0B484FF00E01984783
:10222000019B03F40043002B06D0074B5B68DB6F78
:1022300005484FF00F019847FEF75AFAFEF748F8A5
:1022400003B000BD00040140EC0D0020AFF300809E
:1022500008B5FEF72DFA084B4FF480325A61074B50
:102260005B68D3F8843005484FF010019847FEF7BB
:102270003FFAFEF72DF808BD00040140EC0D0020E8
:1022800008B5FEF715FA084B4FF480225A61074B48
:102290005B68D3F8943005484FF012019847FEF779
:1022A00027FAFEF715F808BD00040140EC0D0020E8
:1022B00008B50248FEF744FF08BD00BFEC0D002042
:1022C00000B587B00190019B1B6B0493049B1B8B93
:1022D0009BB20393049B9B8A9BB20593019B93F84B
:1022E0003430002B40F0AE80039B4FEA0342059B45
:1022F00042EA030323F07F434E4A934212D04D4AF1
:10230000934203D84C4A934207D089E04B4A934208
:1023100031D04B4A934241D082E0019B1A8C049BFE
:102320001A827DE0049B9B889BB223F400739AB2CF
:10233000049B9A80019B9B6A1B68019A926A1268AF
:10234000126842F001021A60049B9B889BB243F41E
:1023500080539AB2049B9A80019B9B6A1B685B68BE
:10236000012B5CD8049B1B889BB223F480639AB238
:10237000049B1A8054E0049B9B889BB223F4007357
:102380009AB2049B9A80019BDB6A1B68019AD26A0D
:102390001268126842F001021A6041E0019B9B6AD8
:1023A0001B685B68002B0FD0019B1B8C43F0010363
:1023B0009AB2019B1A84049B1B889BB243F4A063CE
:1023C0009AB2049B1A80B9E0049B9B889BB223F4C9
:1023D00000739AB2049B9A80049B1B889BB243F4BF
:1023E00000739AB2049B1A80FDF762FFFEF730F982
:1023F000019BDB69002B0DD0019BDB690293019BE4
:102400004FF00002DA61029B4FF000029A620298DC
:10241000FEF706FBFEF734F9FDF752FF00E000BFC0
:10242000059B03F00A03002B00F08880049B1B8BA4
:1024300084E000BF020003000100030082000700E7
:1024400084000700059B03F00A03002B0FD0019BBB
:102450004FF000021A64019B4FF000021A65049BC2
:102460009B8A9BB20593049B1B8B9BB20393059B9A
:1024700003F08003002B16D0019B9A6C019B1B6D0F
:10248000D21812781146049A118203F10102019BBD
:102490001A65019B1A6C019BDB6C9A4203D3019B6A
:1024A0004FF000021A65059B03F04003002B17D084
:1024B000019B9A6B019B1B6CD2180499098A89B203
:1024C000C9B2117003F10102019B1A64019B1A6CDD
:1024D000019BDB6B9A4203D3019B4FF000021A640D
:1024E000059B03F01003002B13D0049B9B8A9BB227
:1024F0000593049B1B889BB243F001039AB2049B93
:102500001A80019B5B6C002B03D0019B5B6C0198D4
:102510009847059B03F48063002B0FD0049B9B8A94
:102520009BB223F480639AB2049B9A82019B5B6DF9
:10253000002B03D0019B5B6D0198984707B000BD4D
:1025400000B587B00190019B1B6B0493FDF7B0FEB3
:10255000FEF77EF8019BDB6A1B68019AD26A12685B
:10256000126822F001021A60019BDB6A5B68019A23
:10257000D26A127A4FF00F0101FA02F21A60019B3F
:102580009B6A1B68019A926A1268126822F0010223
:102590001A60019B9B6A5B68019A926A127A4FF0FB
:1025A0000F0101FA02F21A60FEF76AF8FDF788FEE1
:1025B0004FF000030593049B9B8A9BB203F4807346
:1025C000002B0BD0049B9B8A9BB223F480739AB29E
:1025D000049B9A82059B43F001030593049B9B8A0D
:1025E0009BB203F40073002B0BD0049B9B8A9BB21D
:1025F00023F400739AB2049B9A82059B43F0020372
:102600000593019B93F83430002B23D1049B9B8AC4
:102610009BB203F48063002B2CD0049B9B8A9BB25B
:1026200023F480639AB2049B9A82049B9B889BB29A
:1026300023F400739AB2049B9A80049B1B889BB27C
:1026400043F400739AB2049B1A80059B43F0040381
:1026500005930FE0049B9B8A9BB223F480639AB29C
:10266000049B9A82019B5B6D002B03D0019B5B6DE9
:1026700001989847049B9B8A9BB203F40063002B4C
:102680000BD0049B9B8A9BB223F400639AB2049BF9
:102690009A82059B43F008030593049B9B8A9BB297
:1026A00003F48053002B0BD0049B9B8A9BB223F432
:1026B00080539AB2049B9A82059B43F010030593C2
:1026C000049B9B8A9BB203F48043002B0BD0049B9A
:1026D0009B8A9BB223F480439AB2049B9A82059B07
:1026E00043F020030593049B9B8A9BB29BB21BB2D1
:1026F000002B0DDA049B9B8A9BB24FEA43434FEABF
:1027000053439AB2049B9A82059B43F0400305937E
:10271000059B002B1CD0019B059A9A60FDF7C8FD14
:10272000FDF796FF019BDB69002B0DD0019BDB6958
:102730000393019B4FF00002DA61039B6FF00102EB
:102740009A620398FEF76CF9FDF79AFFFDF7B8FD62
:1027500007B000BDAFF30080AFF30080AFF300809F
:1027600008B5FDF7A5FF0448FFF7AAFDFDF7C0FF78
:10277000FDF7AEFD08BD00BFF40D0020AFF30080F3
:1027800008B5FDF795FF0448FFF7DAFEFDF7B0FF47
:10279000FDF79EFD08BD00BFF40D0020AFF30080E3
:1027A00008B5FDF785FF0448FFF78AFDFDF7A0FF98
:1027B000FDF78EFD08BD00BF4C0E0020AFF300807A
:1027C00008B5FDF775FF0448FFF7BAFEFDF790FF67
:1027D000FDF77EFD08BD00BF4C0E0020AFF300806A
:1027E00008B51048FEF7C4FC0E4B4FF00002DA614A
:1027F0000C4B0D4A1A630B4B0C4A9A62094B0C4A5C
:10280000DA620C48FEF7B4FC0A4B4FF00002DA61C2
:10281000084B094A1A63074B084A9A62054B084A53
:10282000DA6208BDF40D002000540040983B000817
:102830008C3B00084C0E002000580040803B0008F4
:10284000743B0008AFF30080AFF30080AFF300806B
:1028500000B585B00190019B1B691B8AADF80E3055
:10286000019B1B699B899AB2BDF80E3002EA0303F3
:10287000ADF80E30019B1B694FF6E0721A82BDF86D
:102880000E3003F00203002B04D0019B5B681B6930
:1028900001989847BDF80E3003F00403002B04D0D4
:1028A000019B5B689B6901989847BDF80E3003F067
:1028B0000803002B04D0019B5B681B6A01989847B2
:1028C000BDF80E3003F01003002B04D0019B5B68B1
:1028D0009B6A01989847BDF80E3003F00103DBB204
:1028E000002B04D0019B5B689B680198984705B05A
:1028F00000BD00BFAFF30080AFF30080AFF30080F6
:1029000008B5FDF7D5FE0448FFF7A2FFFDF7F0FE7E
:10291000FDF7DEFC08BD00BFA40E0020AFF3008071
:1029200008B50448FEF744FC024B4FF080421A61A0
:1029300008BD00BFA40E0020AFF30080AFF30080FD
:1029400082B00190214B214A926942F07D029A6146
:102950001F4B019A1268DA601D4B019A92685A6007
:102960001B4B019A52681A601A4B019AD268DA60BE
:10297000184B019A52695A60164B019A12691A60F3
:10298000154B019A9269DA60134B019A126A5A60E8
:10299000114B019AD2691A60104B019A526ADA609F
:1029A0000E4B019AD26A5A600C4B019A926A1A60D5
:1029B0000B4B019A126BDA60094B019A926B5A60C9
:1029C000074B019A526B1A6002B070470010024028
:1029D00000080140000C01400010014000140140BB
:1029E00000180140AFF30080AFF30080AFF3008028
:1029F0008AB0039002910192019B032B03D1039BA8
:102A0000029A1A6105E0019B042B02D1039B029AF2
:102A10005A612E4A019BD3181B7804934FF0000390
:102A20000693069B0793079B0893089B09934FF017
:102A30000003059335E0089B4FEA03130893099BB5
:102A40004FEA03130993069B4FEA03130693079B70
:102A50004FEA03130793029B03F08003002B04D17A
:102A6000089B43F00F03089304E0069A049B42EA94
:102A700003030693029B03F40043002B04D1099B3C
:102A800043F00F03099304E0079A049B42EA03030F
:102A90000793029B4FEA43030293059B03F1010353
:102AA0000593059B072BC6D9039B5A68099B1A40BF
:102AB000079B1A43039B5A60039B1A68089B1A40A2
:102AC000069B1A43039B1A600AB07047B03B00088C
:102AD00082B00190019B4FF04002DA6402B070476F
:102AE00000B585B001900091019BDB6C0393019BC5
:102AF000DA6C009BD218019BDA64019BDB6CB3F5A6
:102B0000007F02D90348FDF78BFE039B184605B0F2
:102B100000BD00BF103B0008AFF30080AFF30080A2
:102B200008B5FDF7C5FDFDF7E3FDFDF7D1FB08BDD9
:102B300000B589B0894B0593FDF7BAFD884B5B6CF6
:102B40000793079B03F48063002B12D00598FEF7D0
:102B50007FFD059B5B681B68002B06D0059B5B68AF
:102B60001B6805984FF0000198477D4B6FF4806219
:102B70005A64079B03F40063002B1BD0784B784A00
:102B8000126C42F008021A64059B5B681B68002BFC
:102B900006D0059B5B681B6805984FF003019847BA
:102BA0006F4B6F4A126C42F004021A646C4B6FF464
:102BB00000625A64079B03F48053002B24D0684BB7
:102BC0009B6C0493049B03F40043002B12D1644BD1
:102BD000634A126C22F008021A64059B5B681B684A
:102BE000002B0DD0059B5B681B6805984FF0040116
:102BF000984705E05A4B5A4A126C42F004021A6494
:102C0000574B6FF480525A64079B03F40073002BF8
:102C100000F07881059B5B68DB68002B04D0059B86
:102C20005B68DB68059898474D4B6FF400725A64F7
:102C300069E14B4B079A02F00F020392039A53F893
:102C400022300293059B039A02F1040253F82230CA
:102C50000193029B03F08003002B00F0A180404A07
:102C60003F4B039953F8213023F4F04323F0F00352
:102C7000039942F82130019B1B6803F01003002BDD
:102C80001ED0059B9B899AB2039B4FF0010101FA6C
:102C900003F39BB26FEA03039BB202EA03039BB206
:102CA0009AB2059B9A81059B039A02F1040253F89C
:102CB00022309B68039AD2B20598114698476FE07C
:102CC000274B1A6D039B4FEAC303D31803F100533C
:102CD00003F540534FEA43039B889BB20693019B45
:102CE0005B69019A52691168069A8A181A60019BF9
:102CF0005B69019A52699168069A8A189A60019BE9
:102D00005B69019A52695168069A8A1A5A60019B56
:102D10005B695B68002B25D0019B5B695A68019B4E
:102D20001B8A9A4203D9019B1B8A069303E0019BED
:102D30005B695B680693039BDAB2019B5B691B6866
:102D4000059811461A46069B00F0E2FA039BDBB297
:102D50000598194600F0C4FB22E000BFB80E002021
:102D6000005C0040059B9B899AB2039B4FF00101D8
:102D700001FA03F39BB26FEA03039BB202EA030377
:102D80009BB29AB2059B9A81059B039A02F10402B9
:102D900053F822309B68039AD2B20598114698479F
:102DA000029B03F40043002B00F0A8805C4A5C4BBC
:102DB000039953F8213023F4784323F070030399E7
:102DC00042F82130029B03F40063002B0CD0059BDA
:102DD000039A02F1040253F822305B68039AD2B2DC
:102DE00005981146984789E0019B1B6803F0100382
:102DF000002B1ED0059BDB899AB2039B4FF001018B
:102E000001FA03F39BB26FEA03039BB202EA0303E6
:102E10009BB29AB2059BDA81059B039A02F10402E8
:102E200053F82230DB68039AD2B2059811469847CE
:102E300064E0039BD9B2019B9B695A68019B9B6923
:102E40009B68059800F014FA0690039BDBB2059886
:102E5000194600F025FB019B9B69019A9269516814
:102E6000069A8A185A60019B9B69019A9269D168F7
:102E7000069A8A18DA60019B9B69019A92699168A7
:102E8000069A8A1A9A60019B9B69019A9269128834
:102E900002F1FF3292B21A80019B9B691B88002BC2
:102EA0000ED01F4A1E4B039953F8213023F4904350
:102EB00023F0700383F44051039B42F823101DE07C
:102EC000059BDB899AB2039B4FF0010101FA03F3E2
:102ED0009BB26FEA03039BB202EA03039BB29AB26E
:102EE000059BDA81059B039A02F1040253F8223014
:102EF000DB68039AD2B2059811469847084B5B6C81
:102F0000079300E000BF079B03F40043002B7FF40E
:102F100090AEFDF7EDFBFDF7DBF909B000BD00BF9A
:102F2000005C0040AFF30080AFF30080AFF300809F
:102F300008B50248FEF774FB08BD00BFB80E0020BC
:102F400000B585B00190144B4FF000021A65124B8A
:102F50004FF000025A64104B4FF08002DA644FF4D5
:102F60001C430393019B5B68DB68002B03D0039B2E
:102F700043F400730393084B039A1A640198FFF714
:102F8000A7FD019B054A1A6101984FF0000100F06E
:102F900017F805B000BD00BF005C0040D03B000842
:102FA00082B00190044B019A92F84A2062F07F02AD
:102FB000D2B2DA6402B07047005C0040AFF3008028
:102FC00010B586B001900B468DF803309DF80320B4
:102FD000019B02F1040253F822300493049B1B6806
:102FE00003F00303022B08D0032B0BD0012B0ED1CF
:102FF0004FF48063ADF814300DE04FF00003ADF8EE
:10300000143008E04FF4C063ADF8143003E04FF41F
:103010000073ADF81430049B9B68002B05D0BDF8FD
:10302000143043F02003ADF81430049BDB68002B10
:1030300022D0049B1B6803F01003002B16D0019BC9
:10304000DB899AB29DF803304FF0010101FA03F3D6
:103050009BB242EA03039BB29AB2019BDA81BDF8AC
:10306000143043F44053ADF8143005E0BDF814308B
:1030700043F40053ADF814303C4A9DF80310BDF8FA
:1030800014009DF8033040EA030323F4F04323F0D7
:10309000700342F82130354A9DF80310334B9DF8F8
:1030A000030053F82000BDF8144047F6700304EA0B
:1030B000030380EA030342F82130049B5B8A3E2B22
:1030C00018D9049B5B8A03F1FF3343F01F0303F11C
:1030D0000103002B01DA03F11F034FEA63134FEAE8
:1030E00083239BB26FEA43436FEA53439BB2ADF82D
:1030F000163011E0049B5B8A03F1FF3343F00103B8
:1031000003F101034FEAD372D3184FEA63039BB272
:103110004FEA8323ADF81630144B1A6D9DF8033037
:103120004FEAC303D31803F1005303F540534FEAAA
:1031300043030393039B4FF000029A80039BBDF867
:1031400016209A81049B1B8A01981946FFF7C8FC38
:103150000246039B1A60049B5B8A01981946FFF79D
:10316000BFFC0246039B9A6006B010BD005C0040A5
:1031700082B001900B468DF803300C4B9DF8032074
:1031800053F8223003F44053002B03D0B3F5805F93
:1031900003D005E04FF0000304E04FF0010301E02D
:1031A0004FF00203184602B0704700BF005C0040B9
:1031B00082B001900B468DF803300B4B9DF8032035
:1031C00053F8223003F03003002B02D0102B03D031
:1031D00005E04FF0000304E04FF0010301E04FF081
:1031E0000203184602B07047005C0040AFF3008055
:1031F00088B003900B4601928DF80B30184B1A6D76
:103200009DF80B304FEAC303D31803F1005303F5C5
:1032100040534FEA43030593059B9B6803F100531A
:1032200003F540534FEA430307934FF0000306931F
:1032300010E0019B079A126892B21A80079B03F173
:1032400004030793019B03F102030193069B03F11F
:1032500001030693069B032BEBD908B0704700BF10
:10326000005C0040AFF30080AFF30080AFF300805C
:1032700088B00390019200930B468DF80B30224BDF
:103280001A6D9DF80B304FEAC303D31803F10053B6
:1032900003F540534FEA43030693069B9B6803F1F3
:1032A000005303F540534FEA43030793069B9B8962
:1032B0009BB24FEA83534FEA93530593009A059BC1
:1032C0009A4201D9059B0093009B03F101034FEA49
:1032D0005303009310E0019B079A126892B21A8080
:1032E000079B03F104030793019B03F1020301937E
:1032F000009B03F1FF330093009B002BEBD1059B58
:10330000184608B0704700BF005C0040AFF3008073
:1033100086B00390019200930B468DF80B301C4B46
:103320001A6D9DF80B304FEAC303D31803F1005315
:1033300003F540534FEA43030493049B1B6803F1D6
:10334000005303F540534FEA43030593009B9AB2A1
:10335000049B9A80009B03F101034FEA53030093FF
:1033600010E0019B1B881A46059B1A60059B03F120
:1033700004030593019B03F102030193009B03F1F6
:10338000FF330093009B002BEBD106B0704700BFCA
:10339000005C0040AFF30080AFF30080AFF300802B
:1033A00086B00390019200930B468DF80B309DF888
:1033B0000B20039B02F1040253F822309B69059312
:1033C000059B019A5A60059B009A9A60059B4FF0F5
:1033D0000002DA60059B9B68002B04D1059B4FF02F
:1033E00001021A8019E09DF80B20039B02F10402F0
:1033F00053F822305B8A1A46009BD31803F1FF3240
:103400009DF80B10039B01F1040153F821305B8AF6
:10341000B2FBF3F39AB2059B1A8006B0704700BF67
:1034200000B587B00390019200930B468DF80B30E6
:103430009DF80B20039B02F1040253F822305B69D4
:103440000593059B019A1A60059B009A5A60059B9B
:103450004FF000029A609DF80B20039B02F10402DA
:1034600053F822301B8A1A46009B9A4208D29DF8D4
:103470000B20039B02F1040253F822301B8A0093B5
:103480009DF80B3003981946019A009BFFF740FF07
:1034900007B000BDAFF30080AFF30080AFF3008052
:1034A00082B001900B468DF80330094A9DF8031055
:1034B000074B9DF8030053F8203023F4904323F08A
:1034C000700383F4405342F8213002B0704700BFCC
:1034D000005C0040AFF30080AFF30080AFF30080EA
:1034E00082B001900B468DF80330094A9DF8031015
:1034F000074B9DF8030053F8203023F4F04323F0EA
:10350000400383F0300342F8213002B0704700BF1F
:10351000005C0040AFF30080AFF30080AFF30080A9
:1035200082B001900B468DF80330094A9DF80310D4
:10353000074B9DF8030053F8203023F4904323F009
:10354000700383F4805342F8213002B0704700BF0B
:10355000005C0040AFF30080AFF30080AFF3008069
:1035600082B001900B468DF80330094A9DF8031094
:10357000074B9DF8030053F8203023F4F04323F069
:10358000400383F0100342F8213002B0704700BFBF
:10359000005C0040AFF30080AFF30080AFF3008029
:1035A00082B001900B468DF803300E4B9DF803203E
:1035B00053F8223003F44053B3F5405F0FD0094A6B
:1035C0009DF80310074B9DF8030053F8203023F4B7
:1035D000F04323F0400383F4005342F8213002B05B
:1035E000704700BF005C0040AFF30080AFF3008085
:1035F00082B001900B468DF803300D4B9DF80320EF
:1036000053F8223003F03003302B0FD0084A9DF8D6
:103610000310074B9DF8030053F8203023F4F043C8
:1036200023F0400383F0200342F8213002B07047BA
:10363000005C0040AFF30080AFF30080AFF3008088
:1036400000B583B0FDF734F8214B9B889BB203F0A3
:103650000803002BF8D01E4B1B889AB21C4B9B888A
:103660009BB202EA0303ADF80630194B184A928860
:1036700092B222F0070292B29A80BDF8063003F0AF
:103680000103DBB2002B05D0124B1B6811484FF031
:1036900000019847BDF8063003F00203002B05D067
:1036A0000C4B1B680B484FF001019847BDF80630E2
:1036B00003F00403002B05D0064B1B6805484FF0B0
:1036C00002019847FDF714F8FCF702FE03B000BDB5
:1036D00000280040180F0020AFF30080AFF30080F7
:1036E00008B5244B9B889BB203F00803002BF8D04D
:1036F000204B1B899BB24FEA03421E4B9B899BB216
:10370000D2184FF223439A421ED01A4B9B889BB289
:1037100003F02003002BF8D0164B164A928892B281
:1037200042F0100292B29A80124B4FF000021A81BE
:10373000104B4FF223429A810E4B0E4A928892B25E
:1037400022F0100292B29A800A4B9B889BB203F03F
:103750002003002BF8D0074B4FF000021A80064BD5
:103760004FF000021A604FF003004FF0F001FCF739
:103770000FFE08BD00280040180F0020AFF30080A6
:1037800008B5FEF78DFB08BDAFF30080AFF30080F6
:10379000704700BFAFF30080AFF30080AFF300804D
:1037A00008B50B4B4FF400525A61094B4FF480425D
:1037B0005A6107484FF400514FF00602FFF718F91D
:1037C00003484FF480414FF00602FFF711F908BD9E
:1037D000000C0140AFF30080AFF30080AFF3008036
:1037E00082B00190019B03F00103DBB2002B04D0F7
:1037F0000C4B4FF400521A6103E00A4B4FF4005295
:103800005A61019B03F00203002B04D0054B4FF4D7
:1038100080421A6103E0034B4FF480425A6102B0C8
:10382000704700BF000C0140AFF30080AFF3008091
:1038300008B54FF0000000F003F808BDAFF30080BA
:1038400000B583B00190019B002B04D0084B4FF0D2
:1038500020021A6103E0064B4FF020025A6104482F
:103860004FF020014FF00602FFF7C2F803B000BD91
:10387000000C0140AFF30080AFF30080AFF3008095
:10388000704700BFAFF30080AFF30080AFF300805C
:1038900008B5FDF7FDFBFCF70BFEFFF781FFFFF717
:1038A000C7FFFFF7EDFF4FF00100FFF799FF4FF063
:1038B0000100FFF7C5FF4FF01900FDF7E1FA4FF0E7
:1038C0000200FFF78DFF4FF00000FFF7B9FF4FF048
:1038D0001900FDF7D5FAE6E7AFF30080AFF30080FB
:1038E00069646C65000000006D61696E0000000095
:1038F00053562331000000005356233200000000CD
:1039000053562333000000005356233400000000B8
:1039100053562335000000005356233600000000A4
:103920005356233700000000535623380000000090
:103930005356233900000000535623313000000055
:103940005356233131000000000000000000000049
:1039500022636856545365744922282900000000E8
:103960002263685654526573657449222829000001
:103970006368565452657365744928292C20233195
:103980000000000000000000000000000000000037
:10399000636853636852656164794928292C202340
:1039A00031000000737461636B206F766572666C22
:1039B0006F77000000000000000000000000000021
:1039C00022636854686443726561746549222829DA
:1039D0000000000022636854686453657450726983
:1039E0006F726974792228290000000063685468A6
:1039F00064526573756D6528292C20233100000001
:103A0000226368546864536C65657022282900003D
:103A10006368546864457869745328292C202331DD
:103A200000000000226368546864576169742228AA
:103A30002900000063685468645761697428292C60
:103A40002023310063685468645761697428292C05
:103A500020233200000000000000000000000000F1
:103A60002263684D7478496E697422282900000029
:103A70002263684D74784C6F636B532228290000D1
:103A800063684D74784C6F636B5328292C20233165
:103A90000000000063684D74784C6F636B532829F5
:103AA0002C202332000000002263684D7478547289
:103AB000794C6F636B5322282900000063684D74B2
:103AC00078556E6C6F636B28292C20233100000021
:103AD00063684D7478556E6C6F636B28292C2023B6
:103AE0003200000063684D7478556E6C6F636B53E1
:103AF00028292C202331000063684D7478556E6CA2
:103B00006F636B5328292C20233200000000000033
:103B1000706D5F616C6C6F6328292C20233100006D
:103B20000000000000000000000000000000000095
:103B30000000000000000000000000000000000085
:103B40000100000000000000000000000000000074
:103B5000080002400400024000000B001C0002406C
:103B60000400024004010C00300002400400024046
:103B700008020D0044000240040002400C030E0045
:103B8000580002400400024010040F006C00024084
:103B900004000240140510008000024004000240AE
:103BA00018061100000000000000000000000000E6
:103BB00004020408080003070808080808080808A1
:103BC0000B0F0000000000000000000000000000DB
:103BD00000000000D1160008511800084119000823
:103BE00040004000080F0020080F002000000000E7
:103BF000FFFFFFFF4444444444444444FFFFFFFFAD
:103C00004444444444444444FFFFFFFF4444444488
:103C100044444444FFFFFFFF444444444444444478
:0C3C2000FFFFFFFF88888888888888885C
:04000005080000F0FF
:00000001FF
