:020000040800F2
:1000000000040020D10800089109000891090008A7
:100010009109000891090008910900089109000858
:10002000910900089109000891090008E1090008F8
:10003000910900089109000891090008B109000818
:1000400091090008213F0008910900088152000829
:100050009109000891090008C13C0008F13C000822
:10006000213D0008513D0008813D0008E1370008AE
:100070003138000881380008D138000821390008DB
:1000800071390008C13900089109000801470008CA
:10009000114700089109000891090008B13D0008C6
:1000A0009109000821450008910900085145000800
:1000B00091090008910900089109000831440008DD
:1000C0005144000871440008914400089109000857
:1000D0009109000891090008910900089109000898
:0C00E000613E000891090008513F000833
:1000F00000210A2200F06EBA00220A2300F0B8B9EB
:10010000032A70B404460D4626D941EA000313F0D1
:10011000030F13D020782B78984208BF294606D0C9
:100120001EE014F8010F11F8013F984218D1012A7E
:1001300002F1FF32F5D1002070BC70470B46044637
:1001400051F8045B50F8046BAE4204D1043A044603
:10015000032A0B46F2D81D461046002ADAD1EBE7F7
:10016000C01AE9E7000000000000000000000000E5
:10017000032A2DE9F00109D82AB10023CC5CC4542C
:1001800001339342FAD1BDE8F00170470B46821863
:10019000014603E02478013301F8014B11F0030F0D
:1001A0001C46F7D113F003055DD06E42C5F1040C77
:1001B000ED009B594FEACC0C08E00434A7593B46AC
:1001C00007FA0CF748EA070741F8047B571A23FAA5
:1001D00005F8032FF1DC03E014F8013B01F8013BC3
:1001E0008A42F9D8CFE753F8404C41F8404C53F8D5
:1001F0003C4C41F83C4C53F8384C41F8384C53F8DF
:10020000344C41F8344C53F8304C41F8304C53F8EE
:100210002C4C41F82C4C53F8284C41F8284C53F8FE
:10022000244C41F8244C53F8204C41F8204C53F80E
:100230001C4C41F81C4C53F8184C41F8184C53F81E
:10024000144C41F8144C53F8104C41F8104C53F82E
:100250000C4C41F80C4C53F8084C41F8084C53F83E
:10026000044C41F8044C561A1D460C4640334031AC
:100270003F2EB8DC2B460FE053F8101C44F8101C3E
:1002800053F80C1C44F80C1C53F8081C44F8081CC8
:1002900053F8041C44F8041C161B21461D46103458
:1002A00010330F2EE8DC2B4602E0246841F8044BA3
:1002B000551A1C46032D03F10403F6DC90E700BF3A
:1002C000032AC9B270B408D82AB10346121803F839
:1002D000011B9342FBD170BC70478218044601E0B9
:1002E00004F8011B14F0030FFAD14FF0013303FBA4
:1002F00001F31FE044F8403C44F83C3C44F8383CEF
:1003000044F8343C44F8303C44F82C3C44F8283C55
:1003100044F8243C44F8203C44F81C3C44F8183C85
:1003200044F8143C44F8103C44F80C3C44F8083CB5
:1003300044F8043C161B254640343F2EDADC2C469C
:1003400007E044F8103C44F80C3C44F8083C44F8FE
:10035000043C161B254610340F2EF2DC01E045F854
:10036000043B541B032CFADC01E005F8011B954209
:10037000FBD3B0E700000000000000000000000018
:1003800040F60003C2F2000370B41D6810F8013B90
:10039000EC181A46647804F00304012C11F8014BA0
:1003A00008BF03F120022E192346767806F00306D3
:1003B000012E08BF04F12003D21A01D1002BE5D190
:1003C000104670BC704700BF000000000000000035
:1003D000F0B40478002C20D00F78064630468FB158
:1003E000A7421CD04B1C01E0944211D01D4613F8CB
:1003F000012B002AF8D17478701C44B106463046AF
:10040000002FEDD174780D46701C002CF6D12A789F
:10041000002A08BF0020F0BC70472046FBE73A46A0
:10042000F6E700BF00000000000000000000000030
:10043000F0B40646047874B10F780546064657B105
:10044000BC4218BF0A4602D108E09C4206D012F80E
:10045000013F002BF9D1301AF0BC70476C786E1C4C
:10046000002CF8D03546EBE700000000000000004B
:100470002DE9F04F40F60004C2F2000485B01F469B
:100480008C4626680B460390029213F8014B3219F2
:100490001D4692F801B01BF0080BF6D12D2C73D03D
:1004A0002B2C08BF15F8014BD7F1010338BF0023EF
:1004B000102F14BF1A4643F0010232B1302C73D012
:1004C0001BB1302C00F083800A27B946BBF1000F26
:1004D00049460CBF6FF0004A4FF0004ACDF804C007
:1004E000504600F0B3F950468846494600F080F87F
:1004F00033190022DDF804C05B78114613F0040FB5
:100500001ED0303CA74225DD814294BF0023012349
:1005100053EAD2722ED10A1A534243EB02034445E6
:10052000D4BF002303F00103002B23D109FB0141B9
:1005300015F8014B012233195B7813F0040FE0D159
:1005400013F0030306D0012B14BF57233723E41AFB
:10055000A742D9DCB2F1FF3F1BD00846BBF1000F28
:1005600010D1029B1BB152B90299C1F800C005B06D
:10057000BDE8F08F4FF0FF3215F8014BDBE705F1D6
:10058000FF3CF1E74842ECE715F8014B4FF0010B57
:100590008AE70399BBF1000F0CBF6FF000404FF0EA
:1005A000004022230B60DCE72A78A2F17800414268
:1005B00041EB0001582A14BF0A4641F00102002A0B
:1005C0003FF47EAF10276C78B94602357EE70827E6
:1005D000B9467BE730B440F60404C2F200040D468D
:1005E000134601462A46206830BC41E7000000005F
:1005F0004A1E08BF7047C0F02481884240F216812D
:10060000114200F01781B0FA80F3B1FA81F2A2EB47
:100610000303C3F11F0304A202EB03134FF0000214
:100620009F4600BFAFF30080B0EBC17F00BF42EB3D
:10063000020228BFA0EBC170B0EB817F00BF42EB8C
:10064000020228BFA0EB8170B0EB417F00BF42EBFC
:10065000020228BFA0EB4170B0EB017F00BF42EB6C
:10066000020228BFA0EB0170B0EBC16F00BF42EBEC
:10067000020228BFA0EBC160B0EB816F00BF42EB6C
:10068000020228BFA0EB8160B0EB416F00BF42EBDC
:10069000020228BFA0EB4160B0EB016F00BF42EB4C
:1006A000020228BFA0EB0160B0EBC15F00BF42EBCC
:1006B000020228BFA0EBC150B0EB815F00BF42EB4C
:1006C000020228BFA0EB8150B0EB415F00BF42EBBC
:1006D000020228BFA0EB4150B0EB015F00BF42EB2C
:1006E000020228BFA0EB0150B0EBC14F00BF42EBAC
:1006F000020228BFA0EBC140B0EB814F00BF42EB2C
:10070000020228BFA0EB8140B0EB414F00BF42EB9B
:10071000020228BFA0EB4140B0EB014F00BF42EB0B
:10072000020228BFA0EB0140B0EBC13F00BF42EB8B
:10073000020228BFA0EBC130B0EB813F00BF42EB0B
:10074000020228BFA0EB8130B0EB413F00BF42EB7B
:10075000020228BFA0EB4130B0EB013F00BF42EBEB
:10076000020228BFA0EB0130B0EBC12F00BF42EB6B
:10077000020228BFA0EBC120B0EB812F00BF42EBEB
:10078000020228BFA0EB8120B0EB412F00BF42EB5B
:10079000020228BFA0EB4120B0EB012F00BF42EBCB
:1007A000020228BFA0EB0120B0EBC11F00BF42EB4B
:1007B000020228BFA0EBC110B0EB811F00BF42EBCB
:1007C000020228BFA0EB8110B0EB411F00BF42EB3B
:1007D000020228BFA0EB4110B0EB011F00BF42EBAB
:1007E000020228BFA0EB0110B0EBC10F00BF42EB2B
:1007F000020228BFA0EBC100B0EB810F00BF42EBAB
:10080000020228BFA0EB8100B0EB410F00BF42EB1A
:10081000020228BFA0EB4100B0EB010F00BF42EB8A
:10082000020228BFA0EB0100104670470CBF012058
:1008300000207047B1FA81F2C2F11F0220FA02F0E3
:10084000704708B14FF0FF3000F012B80029F8D01F
:100850002DE90340FFF7CCFEBDE8064002FB00F3A4
:10086000A1EB0301704700BF000000000000000082
:10087000704700BF00000000000000000000000002
:10088000704700BFAFF30080AFF30080AFF300808C
:10089000FEE700BFAFF30080AFF30080AFF300804E
:1008A00084B003900291019206E0039B019A1A60C2
:1008B000039B03F104030393039A029B9A42F4D32C
:1008C00004B07047AFF30080AFF30080AFF3008057
:1008D00072B6204C84F309884FF0020484F3148824
:1008E000BFF36F8F04F06CFD1B481C494FF055326D
:1008F000FFF7D6FF1A4817494FF05532FFF7D0FFE0
:10090000184D194C05E02B68236004F1040405F12F
:100910000405164B9C42F6D3154816494FF00002C9
:10092000FFF7BEFFFFF7ACFF134C03E023689847C7
:1009300004F10404114B9C42F8D308F0E9FF104C79
:1009400003E02368984704F104040E4B9C42F8D35B
:10095000FFF79EFF00080020000000200004002098
:100960000004002058A700080008002018090020F3
:100970001809002070220020EC000008EC0000089C
:10098000EC000008EC000008AFF30080AFF300803B
:10099000FEE700BFAFF30080AFF30080AFF300804D
:1009A00072B6FEE7AFF30080AFF30080AFF30080D4
:1009B00008B500F065FA00F043F800F031FA00F0F5
:1009C0009FF900F045FA00F043F800F079FA00F0E2
:1009D00047F808BDAFF30080AFF30080AFF30080AD
:1009E00010B582B0EFF309840194019B03F1200359
:1009F0000193019B83F3098800F02AF802B010BD2F
:100A000008B50D4B4FF000029A600B4B0B4ADA60B1
:100A10004FF007004FF0100100F0EAF84FF00A0025
:100A20004FF4007100F0E4F84FF00B004FF080013C
:100A300000F0DEF808BD00BF00ED00E00000FA05A0
:100A40004FF0200383F31188704700BFAFF300809D
:100A50004FF0000383F31188704700BFAFF30080AD
:100A600010B582B0FFF7ECFF1E4B5B6803F4006328
:100A7000002B32D0EFF309840194019BA3F12003F2
:100A80000193019B83F30988019B4FF08072DA6127
:100A9000154B9B69002B0BD0134B1B689A68124BAC
:100AA000DB699B689A4294BF00230123DBB20AE012
:100AB0000D4B1B689A680C4BDB699B689A4234BFEC
:100AC00000230123DBB2002B03D0019B074A9A616C
:100AD00005E0019B064A9A6101E0FFF7B9FF02B009
:100AE00010BD00BF00ED00E0480E0020010B000823
:100AF0000C0B0008AFF30080AFF30080AFF3008071
:100B000000F05EF900F0ECFC00F072F900DF00BFCD
:100B100003460A462DE9F04FC2F80CD0D3F80CD0AA
:100B2000BDE8F08FAFF30080AFF30080AFF300803B
:100B300008B500F05DF9FFF78BFF2846A04700F0ED
:100B400007FE08BDAFF30080AFF30080AFF3008075
:100B500010B485B001900091019B03F003034FEAAC
:100B6000C30303931E4B019A4FEA92021C4901985A
:100B70004FEA900000F1C00051F8200003994FF0B7
:100B8000FF0404FA01F16FEA010108400399009C97
:100B900004FA01F140EA010102F1C00243F8221017
:100BA0000F4B019A4FEA5212019901F01F014FF0C9
:100BB000010000FA01F102F1600243F82210084B33
:100BC000019A4FEA5212019901F01F014FF0010002
:100BD00000FA01F143F8221005B010BC704700BFC5
:100BE00000E100E0AFF30080AFF30080AFF30080DE
:100BF00010B485B001900091019B03F003034FEA0C
:100C0000C3030393104B019A4FEA92020E490198D5
:100C10004FEA900000F1060051F8200003994FF0D0
:100C2000FF0404FA01F16FEA010108400399009CF6
:100C300004FA01F140EA010102F1060243F8221030
:100C400005B010BC704700BF00ED00E0AFF30080BE
:100C500082B00190024BDB69024A9A61FEE700BF55
:100C6000480E002040990008AFF30080AFF30080E9
:100C700000B583B0FFF7C4FE00F0E2FA00F040FADE
:100C800001F06EFA01F0CCFA00F06AF914484FF066
:100C9000400100F05DFC0246124BDA61114BDB694A
:100CA0004FF0010283F820200E4BDB690E4ADA6117
:100CB00000F06EF84FF0000383F3118862B6094B21
:100CC000DB690A4A9A610A4B4FF000020092094818
:100CD0004FF0C0014FF0010200F0E2FC03B000BD94
:100CE000D8090020480E0020000400204899000880
:100CF000510C000818090020AFF30080AFF300800A
:100D000000B583B000F0FCF81F4B9B69002B05DD9C
:100D10001D4B9B6903F1FF321B4B9A611A4BDB6938
:100D20005A6A02F101025A62184BDB6803F10102B0
:100D3000164BDA60154B1B681A46144B9A4221D0A9
:100D4000124B1B689A6802F1FF329A6013E0019B14
:100D5000DB680093019B4FF00002DA60019B1B6887
:100D60000A4A5A60019B1A68084B1A60019B1A696B
:100D7000009B10469847054B1B680193019B9B689D
:100D8000002BE4D003B000BD480E0020380E002038
:100D900008B5064B1B68002B03D1054B1B68002BC5
:100DA00002D0044800F024F908BD00BF240A002046
:100DB000280A002060990008AFF30080AFF300809C
:100DC00008B5084B1B68002B03D1074B1B68002B91
:100DD00002D0064800F00CF9034B4FF001021A60F4
:100DE00008BD00BF240A0020280A002068990008D6
:100DF00008B5084B1B68002B03D1074B1B68002B61
:100E000002DC064800F0F4F8034B4FF000021A60D1
:100E100008BD00BF240A0020280A0020709900089D
:100E200008B5084B1B68002B03DD074B1B68002B24
:100E300002D0064800F0DCF8034B4FF001021A60C4
:100E400008BD00BF240A0020280A00207899000865
:100E500008B5084B1B68002B03DD074B1B68002BF4
:100E600002DC064800F0C4F8034B4FF000021A60A1
:100E700008BD00BF240A0020280A0020809900082D
:100E800008B5FFF7DDFD0A4B1B68002B03DB094BA0
:100E90001B68002B02D0084800F0AAF8044B1B681E
:100EA00003F10102024B1A60FFF7D2FD08BD00BF3B
:100EB000240A0020280A002088990008AFF3008047
:100EC00008B5FFF7BDFD0A4B1B68002B03DD094B7E
:100ED0001B68002B02D0084800F08AF8044B1B68FE
:100EE00003F1FF32024B1A60FFF7B2FD08BD00BFED
:100EF000240A0020280A002090990008AFF30080FF
:100F000008B5064B1B68002B03DB054B1B68002B49
:100F100002DC044800F06CF808BD00BF240A002081
:100F2000280A002098990008AFF30080AFF30080F2
:100F300008B5064B1B68002B03D1054B1B68002B23
:100F400002DC044800F054F808BD00BF240A002069
:100F5000280A0020A0990008AFF30080AFF30080BA
:100F6000034B4FF040021A60014B024A5A6070472F
:100F70002C0A0020340A0020AFF30080AFF3008079
:100F800082B00190124B5B68124AD2681A60104B13
:100F90005B68114AD2695A600D4B5B68019A926A8C
:100FA0009A600B4B5B68019A92F820201A73084BE9
:100FB0005B6803F11002064B5A60054B5A68074BF9
:100FC0009A4202D3024B064A5A6002B0704700BFF1
:100FD0002C0A0020380E0020480E0020340E00207D
:100FE000340A0020AFF30080AFF30080AFF300803D
:100FF00000B583B00190034B019A1A60FFF7D0FC53
:1010000003B000BD340E0020AFF30080AFF30080CA
:1010100084B001900091009B0393039B1B68039392
:10102000009B039A9A4205D0039B9A68019B9B6898
:101030009A42F2D2019B039A1A60039B5A68019B61
:101040005A60019B5B68039A01995160039A526848
:101050001A6004B0704700BFAFF30080AFF30080A8
:1010600082B001900091009A019B1A60009B5A681F
:10107000019B5A60019B5B68009A01995160009A3C
:1010800052681A6002B07047AFF30080AFF300807F
:1010900084B00190019B1B680393039B1A68019B1A
:1010A0001A60019B1B68019A5A60039B184604B0A2
:1010B000704700BFAFF30080AFF30080AFF3008054
:1010C00082B00190019B5B68019A12681A60019BD3
:1010D0001B68019A52685A60019B184602B070471B
:1010E00084B00190019B1B680393039B1A68019BCA
:1010F0001A60039B184604B0704700BFAFF300802E
:10110000074A074B5A60064B5A68054B1A60044B56
:101110004FF0FF329A60024B4FF00002DA607047E6
:10112000380E0020AFF30080AFF30080AFF30080F3
:1011300000B587B00390029101920093FFF7E0FEA3
:10114000039B002B05D0019B002B02D0029B002BA0
:1011500002D11C48FFF74CFF039B009A1A61039BC6
:10116000019ADA60184B1B68059307E0059B9B68A2
:10117000029AD31A0293059B1B680593059B9A68F4
:10118000029B9A42F2D3039B059A1A60039B1B6849
:101190005A68039B5A60039B5B68059A03995160E8
:1011A000059A52681A60039B029A9A60059A064B48
:1011B0009A4205D0059B9A68029BD21A059B9A60B9
:1011C00007B000BDB0990008380E0020AFF30080D2
:1011D00000B583B00190FFF793FE019B002B02D175
:1011E0001348FFF705FF019BDB68002B02D1114874
:1011F000FFF7FEFE019B1A680F4B9A4208D0019B35
:101200001B68019A12689168019A92688A189A601C
:10121000019B5B68019A12681A60019B1B68019A26
:1012200052685A60019B4FF00002DA6003B000BDC3
:10123000C0990008D0990008380E0020AFF3008054
:101240000B4A0B4B5A600A4B5A68094B1A60084B01
:101250004FF000029A60064B4FF014029A61044A64
:10126000034B5A61024B5A69014B1A61704700BF28
:10127000480E0020AFF30080AFF30080AFF3008092
:1012800000B585B00190019B93F82030002B04D06D
:10129000019B93F820300E2B02D11348FFF7A8FED4
:1012A000019B4FF0000283F82020104B0393039B17
:1012B0001B680393039B9A68019B9B689A42F6D232
:1012C000019B039A1A60039B5A68019B5A60019B19
:1012D0005B68039A01995160039A52681A60019BF6
:1012E000184605B000BD00BFF0990008480E002068
:1012F00000B585B003468DF80730FFF719FE164B91
:10130000DB690393039B9DF8072083F82020124B91
:101310004FF014029A611048FFF7BAFE02460E4BD6
:10132000DA610D4BDB694FF0010283F8202003984E
:10133000FFF726FE6B46A3F12402039BDB699A426A
:1013400002D20648FFF754FE034BDB6918460399A7
:10135000FFF7DEFB05B000BD480E0020049A000830
:1013600000B585B00190019B0393039B93F8203057
:101370000D2B28D801A252F823F000BFD713000884
:10138000C7130008C7130008B5130008C7130008E7
:10139000C1130008C7130008C7130008C7130008CB
:1013A000C7130008C7130008C7130008C7130008B5
:1013B000C1130008039B9B6A9A6802F101029A60BC
:1013C0000398FFF77DFE039B4FF0FF329A6203986C
:1013D000FFF756FF00E000BF05B000BDAFF300808F
:1013E00000B589B0034600918DF80730FFF7A0FDE6
:1013F000009BB3F1FF3F14D00F4BDB6903AA1046EB
:1014000000990E4AFFF794FE9DF807301846FFF743
:101410006FFF069B002B09D003AB1846FFF7D8FEE1
:1014200004E09DF807301846FFF762FF024BDB69C6
:101430009B6A184609B000BD480E002061130008E1
:1014400000B585B001900091FFF772FD019B009AF5
:101450009A62019B9A68174BDB699B689A4203D892
:101460000198FFF70DFF22E0124BDB691846FFF7EA
:1014700007FF03900F4B4FF014029A610D4B019A36
:10148000DA61019B4FF0010283F820200398FFF7F7
:1014900077FD6B46A3F12402039BDB699A4202D2DB
:1014A0000548FFF7A5FD01980399FFF731FB05B04B
:1014B00000BD00BF480E0020049A0008AFF3008072
:1014C00008B5FFF735FD054B1B689A68034BDB69D0
:1014D0009B689A4201D900F003F808BD480E00202D
:1014E00000B583B0154B4FF014029A61134BDB69C2
:1014F00001931248FFF7CCFD0246104BDA610F4B07
:10150000DB694FF0010283F820200198FFF7B8FE55
:101510000198FFF735FD6B46A3F12402019BDB69BF
:101520009A4202D20648FFF763FD044BDB69184676
:101530000199FFF7EDFA03B000BD00BF480E00208F
:10154000049A0008AFF30080AFF30080AFF300808F
:1015500082B001900091019B009A9A60019B4FF02C
:10156000020283F82020019B4FF0000283F8212023
:10157000019B009A5A64019B4FF000021A64019B80
:101580004FF00002DA63019B4FF000025A62019BA8
:101590004FF0010283F82220019B4FF000029A6174
:1015A000134A019B1A61124B5A69019B5A61019BB4
:1015B0005B690F4A019951610D4A52691A61019B99
:1015C00003F12C031A46019BDA62019B03F13003FD
:1015D0001A46019B5A63019B5A6B019B1A63019B3C
:1015E00003F14C02019BDA61019B184602B070477F
:1015F000480E0020AFF30080AFF30080AFF300800F
:1016000084B00390029113468DF8073007E0039BE6
:101610009DF807201A70039B03F101030393039ABB
:10162000029B9A42F3D304B0704700BFAFF300802F
:1016300000B587B00390029101920093039B05933C
:10164000FFF75EFC039B002B08D0029BAF2B05D954
:10165000019B7F2B02D8009B002B02D10E48FFF785
:10166000C7FC039A029BA3F12403D218059BDA60FE
:10167000059BDB68009A1A60059BDB68089A5A6034
:10168000059BDB68054A1A6205980199FFF760FF20
:101690000346184607B000BD209A0008310B000829
:1016A00000B589B00590049103920293059A059BB9
:1016B00003F14C03104619464FF0FF02FFF7A0FF5D
:1016C000059B03F14C020599049BCB181046194663
:1016D0004FF05502FFF794FFFFF7B2F9FFF770FBE9
:1016E0000A9B009305980499039A029BFFF7A0FFB9
:1016F000079007984FF00001FFF7A2FEFFF778FB75
:10170000FFF7A6F9079B184609B000BDAFF30080AC
:1017100000B583B00190019B002B02D10848FFF770
:1017200067FCFFF78DF9FFF74BFB4FF006000199BF
:10173000FFF756FEFFF75CFBFFF78AF903B000BD29
:10174000609A0008AFF30080AFF30080AFF3008031
:1017500000B583B00190FFF773F9FFF731FB0198F3
:1017600000F006F803B000BDAFF30080AFF30080D7
:1017700000B585B00190194BDB690393039B019A77
:101780009A6209E0039B03F12C031846FFF7A8FCBB
:1017900003461846FFF774FD039BDA6A039B03F1C7
:1017A0002C039A42EED1039B93F8213003F00303FC
:1017B000002B09D1039B5B69039A12691A61039B91
:1017C0001B69039A52695A614FF00E00FFF790FDB2
:1017D0000348FFF70DFC05B000BD00BF480E002018
:1017E000709A0008AFF30080AFF30080AFF3008081
:1017F00000B585B00190FFF723F9FFF7E1FA019BEF
:1018000093F82230002B02D12448FFF7F1FB019B13
:1018100093F8223003F1FF33DAB2019B83F82220E0
:10182000019B93F822308DF80F30FFF7E1FAFFF7B4
:101830000FF99DF80F30002B2DD1019B93F820302C
:101840000E2B28D1019B93F8213003F00303012BC9
:1018500002D0022B0ED01EE0019B5B69019A126937
:101860001A61019B1B69019A52695A61019800F043
:101870006FFD10E0019B5B69019A12691A61019B7F
:101880001B69019A52695A61019B9B6C1846019928
:1018900000F006FE00BF05B000BD00BFD49A0008EE
:1018A00000B589B0059004910392029305980499BC
:1018B00000F0CEFC0790079B002B02D14FF00003F5
:1018C00031E0079A079B03F14C03104619464FF08D
:1018D000FF02FFF795FE079B03F14C020799049B5B
:1018E000CB18104619464FF05502FFF789FEFFF757
:1018F000A7F8FFF765FA0A9B009307980499039AE3
:10190000029BFFF795FE0690069B4FF0010283F8BD
:10191000212006984FF00001FFF792FDFFF768FACB
:10192000FFF796F8069B184609B000BDAFF300809C
:1019300000B583B001900091019B002B02D0009B69
:10194000002B02DA0748FFF753FB019B1A46019B65
:101950005A60019B5A68019B1A60019B009A9A6029
:1019600003B000BD109B0008AFF30080AFF3008010
:1019700000B585B00190FFF763F8FFF721FA0198F1
:1019800000F00EF80390FFF733FAFFF761F8039BBE
:10199000184605B000BD00BFAFF30080AFF3008074
:1019A00000B583B00190FFF7C3FA019B002B02D171
:1019B0001C48FFF71DFB019B9B68002B04DB019B70
:1019C0001A68019B9A420BD0019B9B68002B04DA9A
:1019D000019B1A68019B9A4202D11348FFF708FB4A
:1019E000019B9B6803F1FF32019B9A60019B9B68FE
:1019F000002B12DA0D4BDB69019A9A620B4BDA6904
:101A0000019B10461946FFF72BFB4FF00300FFF731
:101A10006FFC064BDB699B6A01E04FF00003184640
:101A200003B000BD449B0008549B0008480E0020F2
:101A300000B585B00190FFF763FA019B002B02D13E
:101A40001748FFF7D5FA019B9B68002B04DB019B2D
:101A50001A68019B9A420BD0019B9B68002B04DA09
:101A6000019B1A68019B9A4202D10E48FFF7C0FA07
:101A7000019B9B6803F10102019B9A60019B9B689B
:101A8000002B0BDC019B1846FFF702FB0390039B26
:101A90004FF000029A620398FFF7F2FB05B000BD19
:101AA000BC9B0008D09B0008AFF30080AFF3008020
:101AB00000B583B00190019B002B02D10848FFF7CD
:101AC00097FA019B1A46019B5A60019B5A68019B39
:101AD0001A60019B4FF000029A6003B000BD00BF86
:101AE000609C0008AFF30080AFF30080AFF300808C
:101AF00000B583B00190FEF7A3FFFFF761F90198ED
:101B000000F006F8FFF774F9FEF7A2FF03B000BD7E
:101B100000B585B001903C4BDB690293FFF708FAF2
:101B2000019B002B02D13948FFF762FA019B9B68A9
:101B3000002B5CD0019B9B68039335E0029B9A6865
:101B4000039B9A60039B93F82030042B04D0052B51
:101B500011D0002B1AD02DE00398FFF7B1FA0246FE
:101B6000039B9B6A10461946FFF752FA039B9B6A38
:101B70009B68039318E00398FFF7A2FA0246039BC1
:101B80009B6A10461946FFF743FA0CE0039B4FF09F
:101B9000010283F820200398FFF792FA03461846C3
:101BA000FFF76EFB00BF05E0039B9A68029B9B68F2
:101BB0009A42C3D3019B02981946FFF729FA029B68
:101BC000019A9A624FF00400FFF792FB019B9A681A
:101BD000029B9A4202D00E48FFF70AFA029B1A6C47
:101BE000019B9A420DD00B48FFF702FA09E0019BD6
:101BF000029A9A60029B1A6C019BDA60029B019A1E
:101C00001A6405B000BD00BF480E0020709C00089B
:101C1000809C0008949C0008AFF30080AFF3008024
:101C200000B587B0314BDB690393FEF709FFFFF77F
:101C3000C7F8039B1B6C002B02D12D48FFF7D8F986
:101C4000039B1B6C9A68039B9A4202D02948FFF7BA
:101C5000CFF9039B1B6C0293029BDA68039B1A6407
:101C6000029B1A68029B9A4233D0039B5B6C0493DD
:101C7000039B1B6C059311E0059B1A68059B9A4218
:101C800009D0059B1B689A68049B9A4203D9059B5F
:101C90001B689B680493059BDB680593059B002BE1
:101CA000EAD1039B049A9A60029B1846FFF7F0F969
:101CB0000190029B019A9A60019B1A6C029BDA6068
:101CC000019B029A1A6401984FF00001FFF7B8FBDC
:101CD00003E0029B4FF000029A60FFF789F8FEF7DD
:101CE000B7FE029B184607B000BD00BF480E00209B
:101CF000BC9C0008D09C0008AFF30080AFF30080CC
:101D000000B583B001900091FFF7FAF8019B002B1A
:101D100002D11648FFF76CF9019BDA6B009B1A435E
:101D2000019BDA63019B93F82030082B07D1019BBC
:101D3000DA6B019B9B6A02EA0303002B0DD1019B26
:101D400093F82030092B0FD1019BDA6B019B9B6A22
:101D50001A40019B9B6A9A4206D10198FFF790FABC
:101D600003464FF000029A6203B000BD4C9D00088C
:101D700000B585B001900091FFF7C2F8019B002BE0
:101D800002D10D48FFF734F9019B1B6803930DE066
:101D9000039B5A68039B9968009B41EA0303104622
:101DA0001946FFF7ADFF039B1B680393019B039A42
:101DB0009A42EDD105B000BD609D0008AFF30080F0
:101DC00000B583B001900091009B002B02D14FF031
:101DD000FF3310E0094BDB69019A9A62074BDA691D
:101DE000019B10461946FFF73BF94FF00D00009993
:101DF000FFF7F6FA0346184603B000BD480E002070
:101E000084B00390029101920093039B1A46039BB6
:101E10005A60039B5A68039B1A60039B4FF00002B1
:101E20009A60039B029A5A61039B5A69039B9A61C9
:101E3000039B9A69039BDA60029A019BD218039B69
:101E40001A61039B009ADA6104B07047AFF3008017
:101E500000B585B001900091FEF7F2FDFEF7B0FFEE
:101E6000019BDB69002B12D0019BDB69019898472D
:101E70000EE001980099FFF7A3FF0390039B002B4E
:101E800006DAFEF7B5FFFEF7E3FD039B23E000BF94
:101E9000019B9B68002BECD0019B9B6803F1FF32F8
:101EA000019B9A60019B9B691A788DF80B2003F1C6
:101EB0000102019B9A61019B9A69019B1B699A42ED
:101EC00003D3019BDA68019B9A61FEF791FFFEF74D
:101ED000BFFD9DF80B30184605B000BDAFF3008084
:101EE00000B587B00390029101920093039BDB69D8
:101EF00004934FF000030593019B002B02D12B4864
:101F0000FFF776F8FEF79CFDFEF75AFF049B002BC7
:101F100010D0049B039898470DE003980099FFF7B1
:101F20004FFF0346002B06D0FEF762FFFEF790FD41
:101F3000059B37E000BF039B9B68002BEDD0039B04
:101F40009B6803F1FF32039B9A60039B9B6919789E
:101F5000029A1170029A02F10102029203F1010247
:101F6000039B9A61039B9A69039B1B699A4203D363
:101F7000039BDA68039B9A61FEF73AFFFEF768FD60
:101F8000059B03F101030593019B03F1FF330193CB
:101F9000019B002B01D1059B04E0FEF751FDFEF7EC
:101FA0000FFFB3E7184607B000BD00BFA09D0008B3
:101FB00084B00390029101920093039B1A46039B05
:101FC0005A60039B5A68039B1A60039B019A9A60AC
:101FD000039B029A5A61039B5A69039B9A61039B74
:101FE0009A69039BDA60029A019BD218039B1A61DB
:101FF000039B009ADA6104B0704700BFAFF3008022
:1020000000B587B003900B4601928DF80B30FEF7B8
:1020100017FDFEF7D5FE0DE003980199FFF7D0FEFE
:102020000590059B002B05DAFEF7E2FEFEF710FD9A
:10203000059B2AE0039B9B68002BEDD0039B9B68CC
:1020400003F1FF32039B9A60039B5B699DF80B20B1
:102050001A7003F10102039B5A61039B5A69039BA7
:102060001B699A4203D3039BDA68039B5A61039B63
:10207000DB69002B03D0039BDB6903989847FEF7CD
:10208000B7FEFEF7E5FC4FF00003184607B000BDB1
:1020900000B587B00390029101920093039BDB6926
:1020A00004934FF000030593019B002B02D12B48B2
:1020B000FEF79EFFFEF7C4FCFEF782FE0CE00398DD
:1020C0000099FFF77DFE0346002B05D0FEF790FE3A
:1020D000FEF7BEFC059B3DE0039B9B68002BEED00A
:1020E000039B9B6803F1FF32039B9A60039B5B6930
:1020F000029A12781A7003F10102039B5A61029B43
:1021000003F101030293039B5A69039B1B699A42E3
:1021100003D3039BDA68039B5A61049B002B02D014
:10212000049B03989847FEF763FEFEF791FC059B1E
:1021300003F101030593019B03F1FF330193019B1D
:10214000002B01D1059B05E0FEF77AFCFEF738FE77
:1021500000BFC1E7184607B000BD00BFB49D00082E
:10216000074B03F1070323F007031A46054B1A60D8
:10217000054B23F007031A46044B1A60704700BF53
:1021800070220020680E0020005000206C0E0020FD
:1021900000B585B00190FEF753FCFEF711FE0198E3
:1021A00000F00EF80390FEF723FEFEF751FC039BB0
:1021B000184605B000BD00BFAFF30080AFF300804C
:1021C00000B585B00190FEF79BFE019B03F107036C
:1021D00023F0070301930D4B1B681A460C4B1B6839
:1021E000D31A1A46019B9A4202D24FF0000309E02B
:1021F000074B1B680393064B1A68019BD218044BCC
:102200001A60039B184605B000BD00BF6C0E00208D
:10221000680E0020AFF30080AFF30080AFF30080C2
:1022200008B5074B074A1A60054B4FF000029A6049
:10223000034B4FF00002DA600348FFF739FC08BD9A
:10224000700E002091210008800E0020AFF3008066
:1022500000B587B001900091019B002B01D1384B54
:102260000193009B03F1070323F007030093019BF5
:1022700003F108030593019B03F110031846FFF7D0
:1022800037FC36E0059B1B680493049B5A68009B4F
:102290009A422CD3049B5A68009B03F108039A428C
:1022A00004D2049B1A68059B1A6017E0009B03F197
:1022B0000803049AD3180393049B1A68039B1A60BB
:1022C000049B5A68009BD31AA3F10802039B5A602F
:1022D000059B039A1A60049B009A5A60049B019A1A
:1022E0001A60FFF79DFC049B03F1080325E0049BA3
:1022F0000593059B1B68002BC4D1FFF791FC019B44
:102300001B68002B17D0019B1B68009A02F1080282
:102310001046984703460493049B002B0BD0049B64
:10232000019A1A60049B009A5A60049B03F1080307
:102330000493049B01E04FF00003184607B000BD72
:10234000700E0020AFF30080AFF30080AFF3008089
:1023500000B587B00190019B002B02D13A48FEF7EF
:1023600047FE019BA3F108030493049B1B6803939E
:10237000039B03F108030593039B03F11003184625
:10238000FFF7B6FB049A059B9A420BD3059B5B684B
:1023900003F10803059AD218049B9A4202D92B48EC
:1023A000FEF726FE039B03F10802059B9A4203D029
:1023B000049A059B9A4242D9059B1B68002B04D0C6
:1023C000059B1A68049B9A4239D9059B1A68049B9D
:1023D0001A60059B049A1A60049B5B6803F108036A
:1023E000049AD218049B1B689A420ED1049B5A6827
:1023F000049B1B685B68D31803F10802049B5A60B6
:10240000049B1B681A68049B1A60059B5B6803F1B8
:102410000803059AD218049B9A420CD1059B5A686E
:10242000049B5B68D31803F10802059B5A60049B68
:102430001A68059B1A60FFF7F3FB07B000BD059B08
:102440001B6805939EE700BFE09D0008F09D000813
:1024500000B585B001900091009B0393FEF750FDFD
:10246000019B002B07D0009B002B04D0009B03F0A6
:102470000703002B02D00648FEF7BAFD019B1A683D
:10248000039B1A60019B039A1A6005B000BD00BF50
:10249000349E0008AFF30080AFF30080AFF30080FC
:1024A00000B583B001900091FEF7CAFAFEF788FCF0
:1024B00001980099FFF7CCFFFEF79AFCFEF7C8FAE7
:1024C00003B000BDAFF30080AFF30080AFF3008036
:1024D00008B501F005FB00F00BFE0A4802F090F889
:1024E00000F016F800F044F800F05AF800F078F820
:1024F00000F0AEFA00F0CCFF01F06AF902F068FFDC
:1025000008BD00BFE0A40008AFF30080AFF3008077
:1025100008B501F08DFB08BDAFF30080AFF300807C
:1025200000B583B00190019B4FF001021A70019B2E
:102530004FF000025A60019B4FF000029A60019B2D
:102540004FF00002DA60019B4FF000021A61019B1C
:102550004FF000025A61019B03F118031846FFF780
:10256000A7FA03B000BD00BFAFF30080AFF3008057
:1025700008B501F005FD08BDAFF30080AFF30080A2
:1025800082B00190019B4FF001021A70019B4FF045
:1025900000025A6002B07047AFF30080AFF30080D2
:1025A00008B501F085FF08BDAFF30080AFF30080F0
:1025B00000B583B00190019B4FF001021A70019B9E
:1025C0004FF000025A60019B03F10C031846FFF71D
:1025D0006FFA03B000BD00BFAFF30080AFF300801F
:1025E00008B501F0FDFF08BDAFF30080AFF3008038
:1025F00082B00190019B4FF001021A70019B4FF0D5
:1026000000025A6002B07047AFF30080AFF3008061
:1026100000B583B00190019B93F84220019B83F8A1
:102620004A20019802F0DCFA019B5B681B68002BD2
:1026300006D0019B5B681B6801984FF00101984729
:10264000019B4FF003021A7003B000BDAFF300808E
:1026500010B584B00190019B93F8403003F07F02E5
:10266000019B93F841304FEA032342EA0303B3F599
:10267000407F63D0B3F5407F12DC022B00F0008175
:10268000022B05DC002B28D0012B00F0EB80D8E1D9
:10269000B3F5807F32D0B3F5817F00F05681D0E171
:1026A000B3F5C06F78D0B3F5C06F08DC40F20232EA
:1026B000934200F08481B3F5A06F5FD0C1E1B3F520
:1026C000106F00F0A08040F60242934200F0CA80F2
:1026D000B3F5006F00F08780B3E1019B03F148037D
:1026E0001A46019B5A63019B4FF002029A63019BB9
:1026F0004FF00002DA634FF00103A4E1019B93F86D
:102700004230012B17D1019BB3F8483023F002036C
:102710009AB2019BA3F84820019B4FF000025A6334
:10272000019B4FF000029A63019B4FF00002DA63B5
:102730004FF0010387E14FF0000384E1019B93F820
:102740004230012B17D1019BB3F8483043F002030C
:102750009AB2019BA3F84820019B4FF000025A63F4
:10276000019B4FF000029A63019B4FF00002DA6375
:102770004FF0010367E14FF0000364E1019B4FF06C
:1027800000025A63019B4FF000029A63019B9C4A2E
:10279000DA634FF0010356E1019B5B685C68019BC3
:1027A00093F84310019B93F84220019B03F14003EF
:1027B00003F104031B880198A0470390039B002B9F
:1027C00002D14FF000033EE1039B5A68019B5A631C
:1027D000039B1A68019B9A63019B4FF00002DA6326
:1027E0004FF001032FE1019B03F14B02019B5A6360
:1027F000019B4FF001029A63019B4FF00002DA63E4
:102800004FF001031FE1019B93F84220019B83F8E5
:102810004B20019B93F84B30002B04D1019B4FF0D0
:1028200003021A7003E0019B4FF004021A70019B2F
:102830005B681B68002B06D0019B5B681B680198D6
:102840004FF002019847019B4FF000025A63019B31
:102850004FF000029A63019B4FF00002DA634FF0E1
:102860000103F0E0019B674A5A63019B4FF00202AB
:102870009A63019B4FF00002DA634FF00103E2E03C
:10288000019B93F84430DBB25BB2002B2EDA019B44
:1028900093F8443003F00F03DBB20198194602F0BD
:1028A000A7FA0346012B02D0022B0ED01BE0019B9E
:1028B000554A5A63019B4FF002029A63019B4FF005
:1028C0000002DA634FF00103BDE0019B4F4A5A63F7
:1028D000019B4FF002029A63019B4FF00002DA6302
:1028E0004FF00103AFE04FF00003ACE0019B93F821
:1028F000443003F00F03DBB20198194602F058FA96
:102900000346012B02D0022B0ED01BE0019B3E4A56
:102910005A63019B4FF002029A63019B4FF0000241
:10292000DA634FF001038EE0019B384A5A63019B42
:102930004FF002029A63019B4FF00002DA634FF0FE
:10294000010380E04FF000037DE0019B93F84230EB
:10295000002B02D04FF0000375E0019B93F8443048
:1029600003F00F03002B1BDD019B93F84430DBB217
:102970005BB2002B0ADA019B93F8443003F00F039B
:10298000DBB20198194602F053FC09E0019B93F871
:10299000443003F00F03DBB20198194602F020FC2B
:1029A000019B4FF000025A63019B4FF000029A63B3
:1029B000019B4FF00002DA634FF0010343E0019BFB
:1029C00093F84230002B02D04FF000033BE0019B14
:1029D00093F8443003F00F03002B23DD019B93F8A1
:1029E0004430DBB25BB2002B12DA019B93F8443027
:1029F00003F00F03DBB20198194602F0D1FB11E09E
:102A00001126000800A4000820A4000810A4000853
:102A1000019B93F8443003F00F03DBB20198194691
:102A200002F09EFB019B4FF000025A63019B4FF0A6
:102A300000029A63019B4FF00002DA634FF001033A
:102A400001E04FF00003184604B010BDAFF3008062
:102A500008B502F05DF808BDAFF30080AFF3008069
:102A600082B00190019B4FF001021A70019B4FF060
:102A700000025A60019B4FF000029A60019B4FF0E8
:102A800000029A81019B4FF00002DA8102B0704788
:102A900000B585B001900091019B002B02D0009BF6
:102AA000002B02D11A48FEF7A3FAFDF7C9FFFEF783
:102AB00087F9019B1B78012B06D0019B1B78022B09
:102AC00002D01448FEF794FA019B009A5A604FF026
:102AD000000303930BE0019B039A02F104024FF001
:102AE000000143F82210039B03F101030393039BAE
:102AF000072BF0D9019802F013F8019B4FF0020266
:102B00001A70FEF775F9FDF7A3FF05B000BD00BF11
:102B1000509E0008609E0008AFF30080AFF3008075
:102B200000B585B003900B4601928DF80B30FEF78F
:102B3000E7F9039B002B02D0019B002B02D11F4819
:102B4000FEF756FA039B1B78042B02D01C48FEF7B5
:102B50004FFA9DF80B20039B02F1040253F8223038
:102B6000002B02D01748FEF743FA019B1B6803F0C5
:102B70001003002B11D1019B5B6918464FF0000137
:102B80004FF00C02FDF79CFB019B9B6918464FF030
:102B900000014FF01002FDF793FB9DF80B20039B03
:102BA00002F10402019943F822109DF80B300398BA
:102BB000194602F025F805B000BD00BF8C9E000844
:102BC000A49E0008C09E0008AFF30080AFF3008011
:102BD00000B583B001900B468DF80330FEF790F9F5
:102BE000019B002B02D11648FEF702FA019BDB89FC
:102BF0001A469DF8033042FA03F303F00103DBB2F7
:102C0000002B02D04FF0010317E0019BDB899AB241
:102C10009DF803304FF0010101FA03F39BB242EA41
:102C200003039BB29AB2019BDA819DF803300198AD
:102C3000194602F055FA4FF00003184603B000BDE4
:102C4000149F0008AFF30080AFF30080AFF3008063
:102C500000B583B001900B468DF80330FEF750F9B4
:102C6000019B002B02D11648FEF7C2F9019B9B89FC
:102C70001A469DF8033042FA03F303F00103DBB276
:102C8000002B02D04FF0010317E0019B9B899AB201
:102C90009DF803304FF0010101FA03F39BB242EAC1
:102CA00003039BB29AB2019B9A819DF8033001986D
:102CB000194602F035FA4FF00003184603B000BD84
:102CC0002C9F0008AFF30080AFF30080AFF30080CB
:102CD00000B585B00190019B4FF002021A70019B74
:102CE0004FF00002A3F84820019B4FF0000283F848
:102CF0004A20019B4FF0000283F84B20019B4FF0CC
:102D000000029A81019B4FF00002DA814FF000032C
:102D100003930BE0019B039A02F104024FF00001C0
:102D200043F82210039B03F101030393039B072B3A
:102D3000F0D9019B4FF0000283F83020019801F098
:102D40001FFF05B000BD00BFAFF30080AFF30080F0
:102D500000B585B001900B468DF80330019B4FF014
:102D6000000283F83020019B03F140039DF803200B
:102D7000019811461A4602F05BF8019B5B689B685C
:102D8000002B07D0019B5B689B680198984703461E
:102D9000002B27D1019B93F8403003F06003002BF8
:102DA00005D10198FFF754FC0346002B1AD1019876
:102DB0004FF0000102F0F4F901984FF0000102F029
:102DC000CFF9019B5B681B68002B06D0019B5B68F9
:102DD0001B6801984FF005019847019B4FF00502D1
:102DE00083F83020019B03F1400303F106031B88A5
:102DF0000393019B9A6B039B9A4202D9019B039A0E
:102E00009A63019B93F84030DBB25BB2002B2BDA64
:102E1000019B9B6B002B13D0019B4FF0010283F8A9
:102E20003020019B5A6B019B9B6B01984FF0000176
:102E300002F016F901984FF0000102F071F93EE03E
:102E4000019B4FF0020283F8302001984FF00001FF
:102E50004FF000024FF0000302F0C2F801984FF06B
:102E6000000102F03DF92AE0019B9B6B002B13D07F
:102E7000019B4FF0030283F83020019B5A6B019BAA
:102E80009B6B01984FF0000102F0AAF801984FF0F7
:102E9000000102F025F912E0019B4FF0040283F8D3
:102EA000302001984FF000014FF000024FF0000376
:102EB00002F0D6F801984FF0000102F031F905B0A8
:102EC00000BD00BFAFF30080AFF30080AFF3008020
:102ED00000B585B001900B468DF80330019B93F847
:102EE0003030012B02D0042B3BD048E0019B03F192
:102EF000400303F106031B880393019B9A6B039B1A
:102F00009A421AD2019B9B6B019A1269128AB3FBF7
:102F1000F2F102FB01F29B1A002B0ED101984FF047
:102F200000014FF000024FF0000302F099F8019801
:102F30004FF0000102F0F4F83CE0019B4FF0020278
:102F400083F8302001984FF000014FF000024FF05D
:102F5000000302F045F801984FF0000102F0C0F8BC
:102F600028E0019BDB6B002B03D0019BDB6B0198FE
:102F70009847019B4FF0000283F830201AE0019837
:102F80004FF0000102F00CF901984FF0000102F03F
:102F9000E7F8019B5B681B68002B06D0019B5B6810
:102FA0001B6801984FF005019847019B4FF00502FF
:102FB00083F8302005B000BDAFF30080AFF3008090
:102FC00000B583B001900B468DF80330019B93F858
:102FD0003030022B15D0032B28D1019B4FF0040277
:102FE00083F8302001984FF000014FF000024FF0BD
:102FF000000302F035F801984FF0000102F090F85C
:103000002FE0019B1B699B69DB68002B0DD1019BA5
:10301000DB6B002B03D0019BDB6B01989847019B76
:103020004FF0000283F830201BE000BF01984FF002
:10303000000102F0B5F801984FF0000102F090F89D
:10304000019B5B681B68002B06D0019B5B681B68BB
:1030500001984FF005019847019B4FF0050283F856
:10306000302003B000BD00BFAFF30080AFF300809D
:1030700082B00190024B5A68019B9A6002B070477F
:10308000001000E0AFF30080AFF30080AFF30080EA
:1030900084B00190114B5B680393019B9B68039A7A
:1030A000D21A0F4B1B68D21A019B9A60019B9A6837
:1030B000019BDB689A4204D9019B9A68019BDA6004
:1030C00009E0019B9A68019B1B699A4203D2019B0C
:1030D0009A68019B1A6104B0704700BF001000E0BD
:1030E000900E0020AFF30080AFF30080AFF30080BC
:1030F00000B587B00A4B4FF000021A6001AB1846CA
:1031000000F016F8019B01AA10469847029B01AAFD
:1031100010469847039A024B1A6007B000BD00BFE3
:10312000900E0020AFF30080AFF30080AFF300807B
:1031300082B00190019B094A1A60019B084A5A60BB
:10314000019B4FF000029A60019B4FF00002DA6091
:10315000019B4FF0FF321A6102B0704771300008D6
:1031600091300008AFF30080AFF30080AFF3008030
:1031700000B585B0039002910192039B03F13003E7
:1031800018460299019A4FF0FF33FEF781FF03467C
:10319000184605B000BD00BFAFF30080AFF300805C
:1031A00000B585B0039002910192039B03F11003D7
:1031B00018460299019A4FF0FF33FEF791FE03463D
:1031C000184605B000BD00BFAFF30080AFF300802C
:1031D00082B00190019B9B6B002B14BF0023012345
:1031E000184602B0704700BFAFF30080AFF3008015
:1031F00082B00190019B9B69002B14BF0023012327
:10320000184602B0704700BFAFF30080AFF30080F4
:1032100000B585B003900B4601928DF80B30039BEF
:1032200003F130029DF80B3010461946019AFEF763
:10323000E7FE0346184605B000BD00BFAFF30080AF
:1032400000B583B001900091019B03F11003184673
:103250000099FEF7FDFD0346184603B000BD00BF10
:1032600000B585B00390029101920093039B03F196
:10327000300318460299019A009BFEF709FF0346A6
:10328000184605B000BD00BFAFF30080AFF300806B
:1032900000B585B00390029101920093039B03F166
:1032A000100318460299019A009BFEF719FE034687
:1032B000184605B000BD00BFAFF30080AFF300803B
:1032C00000B585B00190FDF7BBFBFDF779FD019BD3
:1032D0009B680393019B4FF000029A60FDF788FD05
:1032E000FDF7B6FB039B184605B000BDAFF30080A9
:1032F00000B585B00190019B5B690393039BD3F8F4
:10330000D0301B68DB8903F00803002B4ED1039BF0
:103310009B69002B4AD1FDF76BFDFDF799FB039BE1
:10332000D3F8D0301A68039BDB6910464FF00301D5
:103330001A464FF0400301F0BBFD0290FDF780FB01
:10334000FDF73EFD039BD3F8D0301B6818464FF0C5
:103350000301FFF73DFC039B9B6843F00402039BC2
:103360009A60039B03F1040318464FF00001FEF737
:10337000FFFC039BDA69039B9A62039B029A9A61A2
:103380000DE0039B03F110031846FDF781FE034691
:103390001846FDF775FF03464FF000029A62039B43
:1033A0001A69039B03F110039A42EAD105B000BDEC
:1033B00000B585B00190019B9B690393039B1B6C37
:1033C0001A46039BDB6BD31A1A46039B9B6BD31ADB
:1033D0000293039BD3F8D0301B689B8903F0020350
:1033E000002B4ED1FDF704FDFDF732FB039BD3F814
:1033F000D0301A68039BDB6B10464FF001011A4670
:10340000029B01F0A5FDFDF71BFBFDF7D9FC039B1B
:10341000D3F8D0301B6818464FF00101FFF718FCB5
:10342000039B9B6843F00802039B9A60039B03F194
:10343000040318464FF00001FEF79AFC039BDA6B79
:10344000039B5A64039B1B6C1A46039BDB6BD31ACA
:103450001A46039B9A630DE0039B03F13003184661
:10346000FDF716FE03461846FDF70AFF03464FF028
:1034700000029A62039B1A6B039B03F130039A428A
:10348000EAD105B000BD00BFAFF30080AFF300800C
:10349000704700BFAFF30080AFF30080AFF3008050
:1034A00000B583B00190019B184A1A60019B03F19B
:1034B00004031A46019B5A60019B4FF000029A6078
:1034C000019B4FF001021A73019B03F11002019B53
:1034D00003F15003104619464FF040020C4BFEF723
:1034E0008FFC019B03F13002019B03F19003104616
:1034F00019464FF04002074BFEF75AFD019A019B17
:103500005A62019A019B9A6403B000BD30A400087E
:10351000F1320008B1330008AFF30080AFF3008050
:1035200000B583B001900091019B002B02D1164899
:10353000FDF75EFDFDF784FAFDF742FC019B1B7B66
:10354000012B06D0019B1B7B022B02D00F48FDF7FD
:103550004FFD019B009AC3F8D020009B1B68019A85
:103560009A60019B4FF002021A73FDF741FCFDF7D0
:103570006FFA009B1A68009B03F10403104619467A
:10358000FFF786FA03B000BD809F0008909F0008F7
:1035900082B00190019B93F8403003F06003202B30
:1035A00037D1019B93F84130212B04D0222B1ED020
:1035B000202B0ED02AE0019B184A5A63019B4FF042
:1035C00007029A63019B4FF00002DA634FF0010398
:1035D00021E0019B114A5A63019B4FF007029A6355
:1035E000019B4FF00002DA634FF0010313E0019BEF
:1035F0004FF000025A63019B4FF000029A63019B57
:103600004FF00002DA634FF0010304E04FF00003D3
:1036100001E04FF00003184602B07047F8080020A0
:1036200000B585B001900B468DF80330019B9B6877
:103630000393FDF705FAFDF7F3FB039B1B6C1A469A
:10364000039BDB6BD31A1A46039B9B6BD31A029323
:10365000029B002B48D0FDF7FBFBFDF7F9F9039B1C
:10366000DB6B9DF80320019811461A46029B01F07E
:103670006FFCFDF7E5F9FDF7D3FB9DF803300198EA
:103680001946FFF7E5FA039B9B6843F00802039B8A
:103690009A60039B03F1040318464FF00001FEF704
:1036A00067FB039BDA6B039B5A64039B1B6C1A46F4
:1036B000039BDB6BD31A1A46039B9A630DE0039BB3
:1036C00003F130031846FDF7E3FC03461846FDF707
:1036D000D7FD03464FF000029A62039B1A6B039BCF
:1036E00003F130039A42EAD1FDF7B2FBFDF7B0F9DE
:1036F00005B000BDAFF30080AFF30080AFF30080F2
:1037000000B585B001900B468DF80330019B9B6896
:103710000393FDF795F9FDF783FB039B9B69002B52
:1037200044D1FDF795FBFDF793F9039BDB699DF809
:103730000320019811461A464FF0400301F0B8FBF0
:103740000290FDF77DF9FDF76BFB9DF803300198C2
:103750001946FFF73DFA039B9B6843F00402039B65
:103760009A60039B03F1040318464FF00001FEF733
:10377000FFFA039BDA69039B9A62039B029A9A61A0
:103780000DE0039B03F110031846FDF781FC03468F
:103790001846FDF775FD03464FF000029A62039B41
:1037A0001A69039B03F110039A42EAD1FDF750FB1B
:1037B000FDF74EF905B000BDAFF30080AFF3008018
:1037C00082B001900B468DF8033002B0704700BF05
:1037D00008B501F0A5FD08BDAFF30080AFF3008090
:1037E00000B583B0FDF74CFB0C4B1B6803F00F03D7
:1037F00001930A4B4FF00F025A60094B1B68002BD4
:1038000006D0074B1B68064A526810460199984734
:10381000FDF756FBFDF724F903B000BD00000240A0
:10382000980E0020AFF30080AFF30080AFF300806C
:1038300000B583B0FDF724FB0D4B1B684FEA131353
:1038400003F00F0301930A4B4FF0F0025A60094B4B
:103850009B68002B06D0074B9B68064AD26810462F
:1038600001999847FDF72CFBFDF7FAF803B000BD6E
:1038700000000240980E0020AFF30080AFF30080FC
:1038800000B583B0FDF7FCFA0D4B1B684FEA13231C
:1038900003F00F0301930A4B4FF470625A60094B17
:1038A0001B69002B06D0074B1B69064A526910465C
:1038B00001999847FDF704FBFDF7D2F803B000BD6E
:1038C00000000240980E0020AFF30080AFF30080AC
:1038D00000B583B0FDF7D4FA0D4B1B684FEA1333E4
:1038E00003F00F0301930A4B4FF470425A60094BE7
:1038F0009B69002B06D0074B9B69064AD26910468C
:1039000001999847FDF7DCFAFDF7AAF803B000BD6E
:1039100000000240980E0020AFF30080AFF300805B
:1039200000B583B0FDF7ACFA0D4B1B684FEA1343AB
:1039300003F00F0301930A4B4FF470225A60094BB6
:103940001B6A002B06D0074B1B6A064A526A1046B8
:1039500001999847FDF7B4FAFDF782F803B000BD6E
:1039600000000240980E0020AFF30080AFF300800B
:1039700000B583B0FDF784FA0D4B1B684FEA135373
:1039800003F00F0301930A4B4FF470025A60094B86
:103990009B6A002B06D0074B9B6A064AD26A1046E8
:1039A00001999847FDF78CFAFDF75AF803B000BD6E
:1039B00000000240980E0020AFF30080AFF30080BB
:1039C00000B583B0FDF75CFA0D4B1B684FEA13633B
:1039D00003F00F0301930A4B4FF070625A60094BDA
:1039E0001B6B002B06D0074B1B6B064A526B104615
:1039F00001999847FDF764FAFDF732F803B000BD6E
:103A000000000240980E0020AFF30080AFF300806A
:103A100082B0144B4FF000021A604FF00003019384
:103A200016E01149019A13464FEA43039B184FEAE7
:103A30008303CB181B684FF000021A600B4B019AEE
:103A40004FF0000143F83210019B03F10103019391
:103A5000019B062BE5DD064B4FF0FF325A6002B0AA
:103A6000704700BF940E002060A40008980E00204C
:103A700000000240AFF30080AFF30080AFF300809E
:103A8000134B134A126842F480721A60114B1B6A7E
:103A900003F44073B3F5407F07D00E4B4FF48032F0
:103AA0001A620C4B4FF000021A620A4B1B6A03F4B5
:103AB0000043002B0BD1074B064A126A42F44072B6
:103AC0001A62044B034A126A42F400421A627047B7
:103AD0000070004000100240AFF30080AFF30080A0
:103AE00008B51E4B1B691D4B4FF0FF321A611B4B73
:103AF0004FF000021A61194BDB68184B4FF0FF3290
:103B0000DA60164B4FF00002DA60154B4BF67F324D
:103B10005A60134B4FF000029A60114B4FF00702AE
:103B20001A60104B0F4AD26842F08072DA600E4B76
:103B30000D4A126842F001021A60084B074AD26926
:103B400042F08052DA61054B044AD26942F00062C9
:103B5000DA61FFF795FFFFF75BFF08BD0010024039
:103B600010E000E0F0ED00E0001000E0AFF30080B6
:103B7000294B294A126842F001021A6000BF264B05
:103B80001B6803F00203002BF9D0234B224A126872
:103B900002F0F9021A60204B4FF000025A6000BF99
:103BA0001D4B5B6803F00C03002BF9D11A4B1A4A2A
:103BB000126842F480321A6000BF174B1B6803F48E
:103BC0000033002BF9D0144B134A526842F4881288
:103BD0005A60114B104A126842F080721A6000BF9E
:103BE0000D4B1B6803F00073002BF9D00A4B0B4AF6
:103BF0005A600B4B4FF011021A60074B064A52688D
:103C000042F002025A6000BF034B5B6803F00C03F2
:103C1000082BF9D1704700BF00100240006451002A
:103C200000200240AFF30080AFF30080AFF30080CC
:103C300008B51E48FEF774FC1C4B1D4A9A621B4BCC
:103C40001C4ADA62194B42F28A521A631A4B1A4A18
:103C5000926942F400729A61154B4FF000025A606B
:103C6000134B4FF001029A60114B4FF009029A601A
:103C700000BF0F4B9B6803F00803002BF9D10C4BDE
:103C80004FF005029A6000BF094B9B6803F00403E4
:103C9000002BF9D1064B4FF000029A60064B064A02
:103CA000926922F400729A6108BD00BFD00E002014
:103CB0000024014060A4000800100240AFF300801F
:103CC00008B5FDF7DDF8084B4FF001025A61074BCC
:103CD0005B685B6805484FF000019847FDF7F0F816
:103CE000FCF7BEFE08BD00BF00040140040F002029
:103CF00008B5FDF7C5F8084B4FF002025A61074BB3
:103D00005B68DB6805484FF001019847FDF7D8F87C
:103D1000FCF7A6FE08BD00BF00040140040F002010
:103D200008B5FDF7ADF8084B4FF004025A61074B98
:103D30005B685B6905484FF002019847FDF7C0F8E2
:103D4000FCF78EFE08BD00BF00040140040F0020F8
:103D500008B5FDF795F8084B4FF008025A61074B7C
:103D60005B68DB6905484FF003019847FDF7A8F849
:103D7000FCF776FE08BD00BF00040140040F0020E0
:103D800008B5FDF77DF8084B4FF010025A61074B5C
:103D90005B685B6A05484FF004019847FDF790F8AF
:103DA000FCF75EFE08BD00BF00040140040F0020C8
:103DB00000B583B0FDF764F8244B5B6903F47873B6
:103DC0000193224B019A5A61019B03F02003002BBF
:103DD00006D01F4B5B68DB6A1D484FF00501984712
:103DE000019B03F04003002B06D0194B5B685B6B13
:103DF00017484FF006019847019B03F08003002B02
:103E000006D0134B5B68DB6B11484FF007019847F6
:103E1000019B03F48073002B06D00D4B5B685B6C39
:103E20000B484FF008019847019B03F40073002BE7
:103E300006D0074B5B68DB6C05484FF009019847DB
:103E4000FDF73EF8FCF70CFE03B000BD0004014096
:103E5000040F0020AFF30080AFF30080AFF30080C9
:103E600000B583B0FDF70CF82A4B5B6903F47C4383
:103E70000193284B019A5A61019B03F48063002B44
:103E800006D0254B5B685B6D23484FF00A019847CD
:103E9000019B03F40063002B06D01F4B5B68DB6DB6
:103EA0001D484FF00B019847019B03F48053002BF2
:103EB00006D0194B5B685B6E17484FF00C019847B2
:103EC000019B03F40053002B06D0134B5B68DB6EA1
:103ED00011484FF00D019847019B03F48043002BDC
:103EE00006D00D4B5B685B6F0B484FF00E01984797
:103EF000019B03F40043002B06D0074B5B68DB6F8C
:103F000005484FF00F019847FCF7DAFFFCF7A8FDD2
:103F100003B000BD00040140040F0020AFF3008097
:103F200008B5FCF7ADFF084B4FF480325A61074BE0
:103F30005B68D3F8843005484FF010019847FCF7D0
:103F4000BFFFFCF78DFD08BD00040140040F0020F9
:103F500008B5FCF795FF084B4FF480225A61074BD8
:103F60005B68D3F8943005484FF012019847FCF78E
:103F7000A7FFFCF775FD08BD00040140040F0020F9
:103F800008B50248FEF7FCFA08BD00BF040F002088
:103F900000B587B00190019B1B6B0493049B1B8BA6
:103FA0009BB20393049B9B8A9BB20593019B93F85E
:103FB0003430002B40F0AE80039B4FEA0342059B58
:103FC00042EA030323F07F434E4A934212D04D4A04
:103FD000934203D84C4A934207D089E04B4A93421C
:103FE00031D04B4A934241D082E0019B1A8C049B12
:103FF0001A827DE0049B9B889BB223F400739AB2E3
:10400000049B9A80019B9B6A1B68019A926A1268C2
:10401000126842F001021A60049B9B889BB243F431
:1040200080539AB2049B9A80019B9B6A1B685B68D1
:10403000012B5CD8049B1B889BB223F480639AB24B
:10404000049B1A8054E0049B9B889BB223F400736A
:104050009AB2049B9A80019BDB6A1B68019AD26A20
:104060001268126842F001021A6041E0019B9B6AEB
:104070001B685B68002B0FD0019B1B8C43F0010376
:104080009AB2019B1A84049B1B889BB243F4A063E1
:104090009AB2049B1A80B9E0049B9B889BB223F4DC
:1040A00000739AB2049B9A80049B1B889BB243F4D2
:1040B00000739AB2049B1A80FCF7C2FCFCF7B0FEB6
:1040C000019BDB69002B0DD0019BDB690293019BF7
:1040D0004FF00002DA61029B4FF000029A620298F0
:1040E000FDF7CEF8FCF7B4FEFCF7B2FC00E000BF31
:1040F000059B03F00A03002B00F08880049B1B8BB8
:1041000084E000BF020003000100030082000700FA
:1041100084000700059B03F00A03002B0FD0019BCE
:104120004FF000021A64019B4FF000021A65049BD5
:104130009B8A9BB20593049B1B8B9BB20393059BAD
:1041400003F08003002B16D0019B9A6C019B1B6D22
:10415000D21812781146049A118203F10102019BD0
:104160001A65019B1A6C019BDB6C9A4203D3019B7D
:104170004FF000021A65059B03F04003002B17D097
:10418000019B9A6B019B1B6CD2180499098A89B216
:10419000C9B2117003F10102019B1A64019B1A6CF0
:1041A000019BDB6B9A4203D3019B4FF000021A6420
:1041B000059B03F01003002B13D0049B9B8A9BB23A
:1041C0000593049B1B889BB243F001039AB2049BA6
:1041D0001A80019B5B6C002B03D0019B5B6C0198E8
:1041E0009847059B03F48063002B0FD0049B9B8AA8
:1041F0009BB223F480639AB2049B9A82019B5B6D0D
:10420000002B03D0019B5B6D0198984707B000BD60
:1042100000B587B00190019B1B6B0493FCF710FC69
:10422000FCF7FEFD019BDB6A1B68019AD26A1268EB
:10423000126822F001021A60019BDB6A5B68019A36
:10424000D26A127A4FF00F0101FA02F21A60019B52
:104250009B6A1B68019A926A1268126822F0010236
:104260001A60019B9B6A5B68019A926A127A4FF00E
:104270000F0101FA02F21A60FCF7EAFDFCF7E8FB15
:104280004FF000030593049B9B8A9BB203F4807359
:10429000002B0BD0049B9B8A9BB223F480739AB2B1
:1042A000049B9A82059B43F001030593049B9B8A20
:1042B0009BB203F40073002B0BD0049B9B8A9BB230
:1042C00023F400739AB2049B9A82059B43F0020385
:1042D0000593019B93F83430002B23D1049B9B8AD8
:1042E0009BB203F48063002B2CD0049B9B8A9BB26F
:1042F00023F480639AB2049B9A82049B9B889BB2AE
:1043000023F400739AB2049B9A80049B1B889BB28F
:1043100043F400739AB2049B1A80059B43F0040394
:1043200005930FE0049B9B8A9BB223F480639AB2AF
:10433000049B9A82019B5B6D002B03D0019B5B6DFC
:1043400001989847049B9B8A9BB203F40063002B5F
:104350000BD0049B9B8A9BB223F400639AB2049B0C
:104360009A82059B43F008030593049B9B8A9BB2AA
:1043700003F48053002B0BD0049B9B8A9BB223F445
:1043800080539AB2049B9A82059B43F010030593D5
:10439000049B9B8A9BB203F48043002B0BD0049BAD
:1043A0009B8A9BB223F480439AB2049B9A82059B1A
:1043B00043F020030593049B9B8A9BB29BB21BB2E4
:1043C000002B0DDA049B9B8A9BB24FEA43434FEAD2
:1043D00053439AB2049B9A82059B43F04003059392
:1043E000059B002B1CD0019B059A9A60FCF728FBCB
:1043F000FCF716FD019BDB69002B0DD0019BDB69EF
:104400000393019B4FF00002DA61039B6FF00102FE
:104410009A620398FCF734FFFCF71AFDFCF718FBCF
:1044200007B000BDAFF30080AFF30080AFF30080B2
:1044300008B5FCF725FD0448FFF7AAFDFCF740FD91
:10444000FCF70EFB08BD00BF0C0F0020AFF300808F
:1044500008B5FCF715FD0448FFF7DAFEFCF730FD60
:10446000FCF7FEFA08BD00BF0C0F0020AFF3008080
:1044700008B5FCF705FD0448FFF78AFDFCF720FDB1
:10448000FCF7EEFA08BD00BF640F0020AFF3008018
:1044900008B5FCF7F5FC0448FFF7BAFEFCF710FD81
:1044A000FCF7DEFA08BD00BF640F0020AFF3008008
:1044B00008B51048FEF77CF80E4B4FF00002DA61A9
:1044C0000C4B0D4A1A630B4B0C4A9A62094B0C4A6F
:1044D000DA620C48FEF76CF80A4B4FF00002DA6122
:1044E000084B094A1A63074B084A9A62054B084A67
:1044F000DA6208BD0C0F002000540040A8A4000898
:104500009CA40008640F00200058004090A40008FC
:1045100084A40008AFF30080AFF30080AFF3008005
:1045200008B5FCF7ADFC074B4FF6FE721A82064B3E
:104530005B689B6804489847FCF7C2FCFCF790FA5C
:1045400008BD00BF002C0140BC0F0020AFF300806D
:1045500000B583B0FCF794FC1F4B1B8A9AB21E4B2C
:104560009B899BB202EA0303ADF806301A4B4FF663
:10457000E1721A82BDF8063003F00203002B04D06A
:10458000164B5B681B6915489847BDF8063003F069
:104590000403002B04D0114B5B689B690F489847BC
:1045A000BDF8063003F00803002B04D00B4B5B680A
:1045B0001B6A0A489847BDF8063003F01003002B29
:1045C00004D0064B5B689B6A04489847FCF778FC6C
:1045D000FCF746FA03B000BD002C0140BC0F0020E0
:1045E00008B50348FEF704F8014B024A1A6108BDFA
:1045F000BC0F0020002C0140AFF30080AFF300801F
:1046000082B00190214B214A926942F07D029A6169
:104610001F4B019A1268DA601D4B019A92685A602A
:104620001B4B019A52681A601A4B019AD268DA60E1
:10463000184B019A52695A60164B019A12691A6016
:10464000154B019A9269DA60134B019A126A5A600B
:10465000114B019AD2691A60104B019A526ADA60C2
:104660000E4B019AD26A5A600C4B019A926A1A60F8
:104670000B4B019A126BDA60094B019A926B5A60EC
:10468000074B019A526B1A6002B07047001002404B
:1046900000080140000C01400010014000140140DE
:1046A00000180140AFF30080AFF30080AFF300804B
:1046B00082B00190019B4FF04002DA6402B0704773
:1046C00000B585B001900091019BDB6C0393019BC9
:1046D000DA6C009BD218019BDA64019BDB6CB3F5AA
:1046E000007F02D90348FCF783FC039B184605B002
:1046F00000BD00BFC09F0008AFF30080AFF3008093
:1047000008B5FCF7BDFBFCF7DBFBFCF7A9F908BD1E
:1047100000B589B0894B0593FCF7B2FB884B5B6C05
:104720000793079B03F48063002B12D00598FEF7D4
:10473000CFFA059B5B681B68002B06D0059B5B6866
:104740001B6805984FF0000198477D4B6FF480621D
:104750005A64079B03F40063002B1BD0784B784A04
:10476000126C42F008021A64059B5B681B68002B00
:1047700006D0059B5B681B6805984FF003019847BE
:104780006F4B6F4A126C42F004021A646C4B6FF468
:1047900000625A64079B03F48053002B24D0684BBB
:1047A0009B6C0493049B03F40043002B12D1644BD5
:1047B000634A126C22F008021A64059B5B681B684E
:1047C000002B0DD0059B5B681B6805984FF004011A
:1047D000984705E05A4B5A4A126C42F004021A6498
:1047E000574B6FF480525A64079B03F40073002BFD
:1047F00000F07881059B5B68DB68002B04D0059B8B
:104800005B68DB68059898474D4B6FF400725A64FB
:1048100069E14B4B079A02F00F020392039A53F897
:1048200022300293059B039A02F1040253F82230CE
:104830000193029B03F08003002B00F0A180404A0B
:104840003F4B039953F8213023F4F04323F0F00356
:10485000039942F82130019B1B6803F01003002BE1
:104860001ED0059B9B899AB2039B4FF0010101FA70
:1048700003F39BB26FEA03039BB202EA03039BB20A
:104880009AB2059B9A81059B039A02F1040253F8A0
:1048900022309B68039AD2B20598114698476FE080
:1048A000274B1A6D039B4FEAC303D31803F1005340
:1048B00003F540534FEA43039B889BB20693019B49
:1048C0005B69019A52691168069A8A181A60019BFD
:1048D0005B69019A52699168069A8A189A60019BED
:1048E0005B69019A52695168069A8A1A5A60019B5B
:1048F0005B695B68002B25D0019B5B695A68019B53
:104900001B8A9A4203D9019B1B8A069303E0019BF1
:104910005B695B680693039BDAB2019B5B691B686A
:10492000059811461A46069B00F012FB039BDBB26A
:104930000598194600F0F4FB22E000BFD00F0020DC
:10494000005C0040059B9B899AB2039B4FF00101DC
:1049500001FA03F39BB26FEA03039BB202EA03037B
:104960009BB29AB2059B9A81059B039A02F10402BD
:1049700053F822309B68039AD2B2059811469847A3
:10498000029B03F40043002B00F0A8805C4A5C4BC0
:10499000039953F8213023F4784323F070030399EB
:1049A00042F82130029B03F40063002B0CD0059BDE
:1049B000039A02F1040253F822305B68039AD2B2E0
:1049C00005981146984789E0019B1B6803F0100386
:1049D000002B1ED0059BDB899AB2039B4FF001018F
:1049E00001FA03F39BB26FEA03039BB202EA0303EB
:1049F0009BB29AB2059BDA81059B039A02F10402ED
:104A000053F82230DB68039AD2B2059811469847D2
:104A100064E0039BD9B2019B9B695A68019B9B6927
:104A20009B68059800F044FA0690039BDBB205985A
:104A3000194600F055FB019B9B69019A92695168E8
:104A4000069A8A185A60019B9B69019A9269D168FB
:104A5000069A8A18DA60019B9B69019A92699168AB
:104A6000069A8A1A9A60019B9B69019A9269128838
:104A700002F1FF3292B21A80019B9B691B88002BC6
:104A80000ED01F4A1E4B039953F8213023F4904354
:104A900023F0700383F44051039B42F823101DE080
:104AA000059BDB899AB2039B4FF0010101FA03F3E6
:104AB0009BB26FEA03039BB202EA03039BB29AB272
:104AC000059BDA81059B039A02F1040253F8223018
:104AD000DB68039AD2B2059811469847084B5B6C85
:104AE000079300E000BF079B03F40043002B7FF413
:104AF00090AEFCF7E5F9FBF7B3FF09B000BD00BFCE
:104B0000005C0040AFF30080AFF30080AFF30080A3
:104B100008B50248FDF7A4FF08BD00BFD00F002074
:104B200000B583B00190019B1B78012B20D1019A25
:104B3000104B9A4219D1104B0F4AD26942F400022D
:104B4000DA610E4B4FF001021A644FF013004FF080
:104B50006001FBF7FDFF4FF014004FF0E001FBF7A1
:104B6000F7FF064B4FF000021A640198FEF7B0F809
:104B700003B000BDD00F002000100240005C0040D8
:104B800000B585B00190144B4FF000021A65124B2E
:104B90004FF000025A64104B4FF08002DA644FF479
:104BA0001C430393019B5B68DB68002B03D0039BD2
:104BB00043F400730393084B039A1A640198FFF7B8
:104BC00077FD019B054A1A6101984FF0000100F042
:104BD00017F805B000BD00BF005C0040C0A400088D
:104BE00082B00190044B019A92F84A2062F07F0251
:104BF000D2B2DA6402B07047005C0040AFF30080CC
:104C000010B586B001900B468DF803309DF8032057
:104C1000019B02F1040253F822300493049B1B68A9
:104C200003F00303022B08D0032B0BD0012B0ED172
:104C30004FF48063ADF814300DE04FF00003ADF891
:104C4000143008E04FF4C063ADF8143003E04FF4C3
:104C50000073ADF81430049B9B68002B05D0BDF8A1
:104C6000143043F02003ADF81430049BDB68002BB4
:104C700022D0049B1B6803F01003002B16D0019B6D
:104C8000DB899AB29DF803304FF0010101FA03F37A
:104C90009BB242EA03039BB29AB2019BDA81BDF850
:104CA000143043F44053ADF8143005E0BDF814302F
:104CB00043F40053ADF814303C4A9DF80310BDF89E
:104CC00014009DF8033040EA030323F4F04323F07B
:104CD000700342F82130354A9DF80310334B9DF89C
:104CE000030053F82000BDF8144047F6700304EAAF
:104CF000030380EA030342F82130049B5B8A3E2BC6
:104D000018D9049B5B8A03F1FF3343F01F0303F1BF
:104D10000103002B01DA03F11F034FEA63134FEA8B
:104D200083239BB26FEA43436FEA53439BB2ADF8D0
:104D3000163011E0049B5B8A03F1FF3343F001035B
:104D400003F101034FEAD372D3184FEA63039BB216
:104D50004FEA8323ADF81630144B1A6D9DF80330DB
:104D60004FEAC303D31803F1005303F540534FEA4E
:104D700043030393039B4FF000029A80039BBDF80B
:104D800016209A81049B1B8A01981946FFF798FC0C
:104D90000246039B1A60049B5B8A01981946FFF741
:104DA0008FFC0246039B9A6006B010BD005C004079
:104DB00082B001900B468DF803300C4B9DF8032018
:104DC00053F8223003F44053002B03D0B3F5805F37
:104DD00003D005E04FF0000304E04FF0010301E0D1
:104DE0004FF00203184602B0704700BF005C00405D
:104DF00082B001900B468DF803300B4B9DF80320D9
:104E000053F8223003F03003002B02D0102B03D0D4
:104E100005E04FF0000304E04FF0010301E04FF024
:104E20000203184602B07047005C0040AFF30080F8
:104E300088B003900B4601928DF80B30184B1A6D19
:104E40009DF80B304FEAC303D31803F1005303F569
:104E500040534FEA43030593059B9B6803F10053BE
:104E600003F540534FEA430307934FF000030693C3
:104E700010E0019B079A126892B21A80079B03F117
:104E800004030793019B03F102030193069B03F1C3
:104E900001030693069B032BEBD908B0704700BFB4
:104EA000005C0040AFF30080AFF30080AFF3008000
:104EB00088B00390019200930B468DF80B30224B83
:104EC0001A6D9DF80B304FEAC303D31803F100535A
:104ED00003F540534FEA43030693069B9B6803F197
:104EE000005303F540534FEA43030793069B9B8906
:104EF0009BB24FEA83534FEA93530593009A059B65
:104F00009A4201D9059B0093009B03F101034FEAEC
:104F10005303009310E0019B079A126892B21A8023
:104F2000079B03F104030793019B03F10203019321
:104F3000009B03F1FF330093009B002BEBD1059BFB
:104F4000184608B0704700BF005C0040AFF3008017
:104F500086B00390019200930B468DF80B301C4BEA
:104F60001A6D9DF80B304FEAC303D31803F10053B9
:104F700003F540534FEA43030493049B1B6803F17A
:104F8000005303F540534FEA43030593009B9AB245
:104F9000049B9A80009B03F101034FEA53030093A3
:104FA00010E0019B1B881A46059B1A60059B03F1C4
:104FB00004030593019B03F102030193009B03F19A
:104FC000FF330093009B002BEBD106B0704700BF6E
:104FD000005C0040AFF30080AFF30080AFF30080CF
:104FE00086B00390019200930B468DF80B309DF82C
:104FF0000B20039B02F1040253F822309B690593B6
:10500000059B019A5A60059B009A9A60059B4FF098
:105010000002DA60059B9B68002B04D1059B4FF0D2
:1050200001021A8019E09DF80B20039B02F1040293
:1050300053F822305B8A1A46009BD31803F1FF32E3
:105040009DF80B10039B01F1040153F821305B8A9A
:10505000B2FBF3F39AB2059B1A8006B0704700BF0B
:1050600000B587B00390019200930B468DF80B308A
:105070009DF80B20039B02F1040253F822305B6978
:105080000593059B019A1A60059B009A5A60059B3F
:105090004FF000029A609DF80B20039B02F104027E
:1050A00053F822301B8A1A46009B9A4208D29DF878
:1050B0000B20039B02F1040253F822301B8A009359
:1050C0009DF80B3003981946019A009BFFF740FFAB
:1050D00007B000BDAFF30080AFF30080AFF30080F6
:1050E00082B001900B468DF80330094A9DF80310F9
:1050F000074B9DF8030053F8203023F4904323F02E
:10510000700383F4405342F8213002B0704700BF6F
:10511000005C0040AFF30080AFF30080AFF300808D
:1051200082B001900B468DF80330094A9DF80310B8
:10513000074B9DF8030053F8203023F4F04323F08D
:10514000400383F0300342F8213002B0704700BFC3
:10515000005C0040AFF30080AFF30080AFF300804D
:1051600082B001900B468DF80330094A9DF8031078
:10517000074B9DF8030053F8203023F4904323F0AD
:10518000700383F4805342F8213002B0704700BFAF
:10519000005C0040AFF30080AFF30080AFF300800D
:1051A00082B001900B468DF80330094A9DF8031038
:1051B000074B9DF8030053F8203023F4F04323F00D
:1051C000400383F0100342F8213002B0704700BF63
:1051D000005C0040AFF30080AFF30080AFF30080CD
:1051E00082B001900B468DF803300E4B9DF80320E2
:1051F00053F8223003F44053B3F5405F0FD0094A0F
:105200009DF80310074B9DF8030053F8203023F45A
:10521000F04323F0400383F4005342F8213002B0FE
:10522000704700BF005C0040AFF30080AFF3008028
:1052300082B001900B468DF803300D4B9DF8032092
:1052400053F8223003F03003302B0FD0084A9DF87A
:105250000310074B9DF8030053F8203023F4F0436C
:1052600023F0400383F0200342F8213002B070475E
:10527000005C0040AFF30080AFF30080AFF300802C
:1052800000B583B0FBF7FCFD214B9B889BB203F07C
:105290000803002BF8D01E4B1B889AB21C4B9B882E
:1052A0009BB202EA0303ADF80630194B184A928804
:1052B00092B222F0070292B29A80BDF8063003F053
:1052C0000103DBB2002B05D0124B1B6811484FF0D5
:1052D00000019847BDF8063003F00203002B05D00B
:1052E0000C4B1B680B484FF001019847BDF8063086
:1052F00003F00403002B05D0064B1B6805484FF054
:1053000002019847FBF7DCFDFBF7AAFB03B000BDE9
:105310000028004030100020AFF30080AFF3008081
:1053200008B5244B9B889BB203F00803002BF8D0F0
:10533000204B1B899BB24FEA03421E4B9B899BB2B9
:10534000D2184FF223439A421ED01A4B9B889BB22D
:1053500003F02003002BF8D0164B164A928892B225
:1053600042F0100292B29A80124B4FF000021A8162
:10537000104B4FF223429A810E4B0E4A928892B202
:1053800022F0100292B29A800A4B9B889BB203F0E3
:105390002003002BF8D0074B4FF000021A80064B79
:1053A0004FF000021A604FF003004FF0F001FBF7DE
:1053B000CFFB08BD0028004030100020AFF3008074
:1053C00008B5FEF7D5FB08BDAFF30080AFF3008052
:1053D000704700BFAFF30080AFF30080AFF30080F1
:1053E00000B587B0039002910192039B002B02D07D
:1053F000019B039A1A60019B1B680593059B002B78
:1054000002D14FF0000323E005980299FBF710F852
:105410000346059AD318059305980299FAF7D8FF21
:105420000246019B1A60019B1B68002B08D0019B60
:105430001B684FF000021A7003F10102019B1A6011
:10544000059B1B78002B01D0059B01E04FF000036A
:10545000184607B000BD00BFAFF30080AFF3008077
:1054600000B583B00190009101980349009A00F0C3
:10547000BFFA03B000BD00BFD09F0008AFF30080AB
:1054800000B583B0019000910AE0009B1B68019871
:1054900006491A4600F0ACFA009B03F1080300939A
:1054A000009B1B68002BF0D103B000BDDC9F0008FF
:1054B00000B587B0059004910392049B002B04DD96
:1054C00005981849FFF7CCFF2AE005981649174AB6
:1054D00000F08EFA05981649164A00F089FA0598E8
:1054E0001549164A00F084FA05981549154A00F046
:1054F0007FFA05981449154A00F07AFA059814497C
:10550000144A00F075FA05981349144A00F070FA2D
:10551000134B009305981349134A144B00F068FA93
:1055200007B000BDE09F0008E89F0008FC9F00084E
:1055300004A0000818A0000824A0000838A0000853
:1055400040A0000854A0000860A0000874A0000853
:105550008CA00008A0A00008C8A00008DCA00008DB
:1055600018A10008F0A0000808A1000814A1000874
:1055700000B585B0039002910192029B002B04DDDF
:1055800003980649FFF76CFF06E0054BDB680398BC
:1055900004491A4600F02CFA05B000BD24A1000809
:1055A000380E00202CA10008AFF30080AFF300807C
:1055B00000B585B0039002910192009315E0039B22
:1055C0001B6818460199FAF7DBFE0346002B08D149
:1055D000039B5B6802980099069A98474FF0000376
:1055E00009E0039B03F108030393039B1B68002B53
:1055F000E5D14FF00103184605B000BDAFF30080C0
:1056000000B5A1B003904FF000031D93039B1B68EE
:105610001C93039B5B681B93634BDB69634A9A6132
:105620001C98634900F0E4F904E000BF02E000BF09
:1056300000E000BF1C985F4900F0DAF909AB1C9844
:1056400019464FF0400200F0F3F80346002B04D057
:105650001C98594900F0CCF994E009AA19AB1046FE
:1056600056491A46FFF7BCFE1A901A9B1E934FF03C
:1056700000031F9316E01F9B032B07DD1C98504966
:1056800000F0B6F94FF000031E9316E01F9B4FEA9F
:10569000830320AAD3181A9A43F8702C1F9B03F196
:1056A00001031F9319AB4FF0000044491A46FFF75E
:1056B00097FE1A901A9B002BDDD11F9B4FEA8303A4
:1056C00020AAD3184FF0000243F8702C1E9B002B29
:1056D000ABD01E983B49FAF753FE0346002B07D187
:1056E0001F9B002B4DDD1C983649FFF7B9FE47E0A4
:1056F0001E983549FAF744FE0346002B1BD11F9B29
:10570000002B04DD1C983049FFF7AAFE38E01C98F6
:105710002E4900F06DF91C982D49FFF7B1FE1B9B37
:10572000002B03D01C981B99FFF7AAFE1C9829494F
:1057300000F05EF97EE704AB009325481C991E9AA1
:105740001F9BFFF735FF0346002B3FF470AF1B9BF9
:10575000002B0BD004AB00931B981C991E9A1F9B27
:10576000FFF726FF0346002B3FF463AF1C981A494E
:105770001E9A00F03DF91C98184900F039F959E7D4
:1057800058E700BFFBF75CF9FBF71AFB14484FF032
:105790000001FCF7EDFA1D98FBF7EAFF4FF000035C
:1057A000184621B000BD00BF480E002034A10008FB
:1057B0003CA1000854A100085CA1000868A10008F1
:1057C0006CA1000884A100088CA1000894A1000825
:1057D00000090020ACA10008B0A10008B4A1000895
:1057E00034100020AFF30080AFF30080AFF30080EF
:1057F000014A014B1A60704734100020AFF300805B
:1058000000B587B0059004910392059B00934FF07B
:1058100000000499039A034BFCF742F8034618462C
:1058200007B000BD01560008AFF30080AFF3008061
:1058300000B587B0039002910192029B059300E0AE
:1058400000BF039B1B685B6903984FF0FF319847CB
:105850000346ADF81230BDF91230002B02DA4FF0DA
:10586000010368E0BDF91230042B06D103983349D7
:1058700000F0BEF84FF001035DE0BDF91230082BD7
:1058800027D1059A029B9A4222D0039B1B681B6971
:10589000BDF81220D2B2039811464FF0FF3298475C
:1058A000039B1B681B6903984FF020014FF0FF32E8
:1058B0009847039B1B681B69BDF81220D2B203985E
:1058C00011464FF0FF329847059B03F1FF330593D4
:1058D00030E0BDF912300D2B0AD10398184900F0C1
:1058E00087F8059B4FF000021A704FF0000322E08A
:1058F000BDF912301F2B00DC1CE0019B03F1FF33CC
:10590000029AD218059B9A429AD9039B1B681B697D
:10591000BDF81220D2B2039811464FF0FF329847DB
:10592000BDF81230DAB2059B1A70059B03F1010332
:10593000059386E785E7184607B000BDBCA10008BF
:10594000ACA10008AFF30080AFF30080AFF300809C
:1059500086B0039002910192039B03F10B03049321
:10596000029B019AB3FBF2F2019901FB02F29B1A2E
:105970000593059B03F130030593059B392B03DD4C
:10598000059B03F107030593049B03F1FF33049385
:10599000059BDAB2049B1A70029A019BB2FBF3F3E7
:1059A0000293029B002BDBD1039B03F10B031A46EE
:1059B000049BD31A0593049B1A78039B1A70039BCC
:1059C00003F101030393049B03F101030493059B7B
:1059D00003F1FF330593059B002BECD1039B184685
:1059E00006B07047AFF30080AFF30080AFF30080E4
:1059F0000EB400B590B0019012AB0693119B1B78CA
:105A00008DF83730119B03F1010311939DF8373066
:105A1000002B00F036829DF83730252B0BD0019BF0
:105A20001B681B699DF83720019811464FF0FF3223
:105A3000984700BFE2E703AB0F9303AB0E934FF021
:105A400000030893119B1B782D2B06D1119B03F1AA
:105A5000010311934FF0010308934FF020038DF8D9
:105A60003630119B1B782E2B07D1119B03F10103BC
:105A700011934FF030038DF836304FF000030A9346
:105A8000119B1B788DF83730119B03F101031193A3
:105A90009DF837302F2B0AD99DF83730392B06D88F
:105AA0009DF83730A3F130038DF8373013E09DF8BF
:105AB00037302A2B07D1069B03F1040206921B689C
:105AC0008DF8373007E04FF000030B939DF8373027
:105AD0002E2B0DD03DE00A9A13464FEA83039B1804
