:020000040800F2
:10000000000400204101000801020008010200086C
:1000100001020008010200080102000801020008B4
:100020000102000801020008010200083102000874
:100030000102000801020008010200081102000884
:100040000102000801020008010200080102000884
:100050000102000801020008010200080102000874
:100060000102000801020008010200080102000864
:100070000102000801020008010200080102000854
:100080000102000801020008010200080102000844
:100090000102000801020008010200080102000834
:1000A0000102000801020008010200080102000824
:1000B00041120008611200088112000801020008C4
:1000C0000102000801020008010200080102000804
:1000D00001020008010200080102000801020008F4
:0C00E000010200080102000801020008F3
:1000F000704700BFAFF30080AFF30080AFF3008024
:10010000FEE700BFAFF30080AFF30080AFF30080E5
:1001100084B003900291019206E0039B019A1A6059
:10012000039B03F104030393039A029B9A42F4D3C3
:1001300004B07047AFF30080AFF30080AFF30080EE
:1001400072B6204C84F309884FF0020484F31488BB
:10015000BFF36F8F01F0A4FB1B481C494FF05532D1
:10016000FFF7D6FF1A4817494FF05532FFF7D0FF77
:10017000184D194C05E02B68236004F1040405F1C7
:100180000405164B9C42F6D3154816494FF0000261
:10019000FFF7BEFFFFF7ACFF134C03E0236898475F
:1001A00004F10404114B9C42F8D301F099FB104C6C
:1001B00003E02368984704F104040E4B9C42F8D3F3
:1001C000FFF79EFF00080020000000200004002030
:1001D00000040020401A0008000800203008002019
:1001E00030080020D0090020EC000008EC000008D6
:1001F000EC000008EC000008AFF30080AFF30080D3
:10020000FEE700BFAFF30080AFF30080AFF30080E4
:1002100008B54FF0200383F3118800F0C1F94FF0C7
:10022000000383F3118800F03BF808BDAFF30080B2
:1002300010B483B0EFF309840194019B03F1200310
:100240000193019B83F309884FF0000383F3118826
:1002500003B010BC704700BFAFF30080AFF3008065
:1002600008B50D4B4FF000029A600B4B0B4ADA6059
:100270004FF007004FF0100100F012F94FF00A00A4
:100280004FF4007100F00CF94FF00B004FF08001BB
:1002900000F006F908BD00BF00ED00E00000FA051F
:1002A00010B483B04FF0200383F311881F4B5B68B9
:1002B00003F40063002B32D0EFF309840194019B17
:1002C000A3F120030193019B83F30988019B4FF065
:1002D0008072DA61164B9B69002B0BD0144B1B68A4
:1002E0009A68134BDB699B689A4294BF00230123F1
:1002F000DBB20AE00E4B1B689A680D4BDB699B680A
:100300009A4234BF00230123DBB2002B03D0019BB0
:10031000084A9A6107E0019B074A9A6103E04FF09F
:10032000000383F3118803B010BC704700ED00E0B8
:10033000480900204103000844030008AFF300808F
:1003400000F03EFB00DF00BFAFF30080AFF30080A2
:1003500003460A462DE9F04FC2F80CD0D3F80CD072
:10036000BDE8F08FAFF30080AFF30080AFF3008003
:100370004FF0000383F311882846A04700F010FCDB
:10038000704700BFAFF30080AFF30080AFF3008091
:1003900010B485B001900091019B03F003034FEA74
:1003A000C30303931E4B019A4FEA92021C49019822
:1003B0004FEA900000F1C00051F8200003994FF07F
:1003C000FF0404FA01F16FEA010108400399009C5F
:1003D00004FA01F140EA010102F1C00243F82210DF
:1003E0000F4B019A4FEA5212019901F01F014FF091
:1003F000010000FA01F102F1600243F82210084BFB
:10040000019A4FEA5212019901F01F014FF00100C9
:1004100000FA01F143F8221005B010BC704700BF8C
:1004200000E100E0AFF30080AFF30080AFF30080A5
:1004300010B485B00190019B03F003034FEAC3039E
:100440000393154B019A4FEA5212019901F01F01D3
:100450004FF0010000FA01F102F1200243F82210EE
:100460000D4B019A4FEA92020B4901984FEA900016
:1004700000F1C00051F8200003994FF0FF0404FA86
:1004800001F16FEA010100EA010102F1C00243F843
:10049000221005B010BC704700E100E0AFF300800F
:1004A00010B485B001900091019B03F003034FEA63
:1004B000C3030393104B019A4FEA92020E4901982D
:1004C0004FEA900000F1060051F8200003994FF028
:1004D000FF0404FA01F16FEA010108400399009C4E
:1004E00004FA01F140EA010102F1060243F8221088
:1004F00005B010BC704700BF00ED00E0AFF3008016
:1005000082B00190024BDB69024A9A61FEE700BFAC
:1005100048090020D0190008AFF30080AFF3008035
:1005200000B583B0FFF79CFE00F032F900F080F8D0
:1005300000F08EFB00F0E4FB11484FF0400100F0AA
:1005400077FA02460F4BDA610E4BDB694FF001027E
:100550001A774FF0000383F3118862B6094BDB6909
:10056000094A9A61094B4FF00002009208484FF087
:10057000C0014FF0010200F0DBFA03B000BD00BF84
:10058000F008002048090020D819000801050008DB
:1005900030080020AFF30080AFF30080AFF300809D
:1005A00000B583B01F4B9B69002B05DD1D4B9B697C
:1005B00003F1FF321B4B9A611A4BDB691A6A02F195
:1005C00001021A62184BDB6803F10102164BDA6074
:1005D000154B1B681A46144B9A4221D0124B1B68CC
:1005E0009A6802F1FF329A6013E0019BDB68009386
:1005F000019B4FF00002DA60019B1B680A4A5A60B7
:10060000019B1A68084B1A60019B1A69009B1046EF
:100610009847054B1B680193019B9B68002BE4D016
:1006200003B000BD4809002038090020AFF3008066
:10063000074A074B5A60064B5A68054B1A60044B31
:100640004FF0FF329A60024B4FF00002DA607047C1
:1006500038090020AFF30080AFF30080AFF30080D3
:1006600086B00390029101920093039B002B04D06B
:10067000019B002B01D0029B002B039B009A1A6167
:10068000039B019ADA60184B1B68059307E0059BF2
:100690009B68029AD31A0293059B1B680593059BDE
:1006A0009A68029B9A42F2D3039B059A1A60039BB5
:1006B0001B685A68039B5A60039B5B68059A039901
:1006C0005160059A52681A60039B029A9A60059AD3
:1006D000054B9A4205D0059B9A68029BD21A059B4E
:1006E0009A6006B0704700BF38090020AFF3008061
:1006F00082B00190019B1A680D4B9A4208D0019B71
:100700001B68019A12689168019A92688A189A6027
:10071000019B5B68019A12681A60019B1B68019A31
:1007200052685A60019B4FF00002DA6002B07047D5
:1007300038090020AFF30080AFF30080AFF30080F2
:1007400084B00190019B1B680393039B1A68019B73
:100750001A60019B1B68019A5A60039B184604B0FB
:10076000704700BFAFF30080AFF30080AFF30080AD
:1007700082B00190019B5B68019A12681A60019B2C
:100780001B68019A52685A60019B184602B0704774
:100790000B4A0B4B5A600A4B5A68094B1A60084BBC
:1007A0004FF000029A60064B4FF014029A61044A1F
:1007B000034B5A61024B5A69014B1A61704700BFE3
:1007C00048090020AFF30080AFF30080AFF3008052
:1007D00084B00190019B1B7F002B03D0019B1B7FEA
:1007E0000E2B00BF019B4FF000021A770E4B0393B4
:1007F000039B1B680393039B9A68019B9B689A4227
:10080000F6D2019B039A1A60039B5A68019B5A60B7
:10081000019B5B68039A01995160039A52681A60C0
:10082000019B184604B0704748090020AFF30080D0
:1008300000B585B003468DF807300F4BDB69039395
:10084000039B9DF807201A770B4B4FF014029A6117
:100850000948FFF775FF0246074BDA61064BDB6973
:100860004FF001021A77044BDB6918460399FFF732
:100870006FFD05B000BD00BF48090020AFF3008048
:1008800000B585B00190019B0393039B1B7F0D2B4B
:1008900027D801A252F823F0F3080008E308000863
:1008A000E3080008D1080008E3080008DD08000894
:1008B000E3080008E3080008E3080008E30800086C
:1008C000E3080008E3080008E3080008DD08000862
:1008D000039B5B6A9A6802F101029A600398FFF732
:1008E00047FF039B4FF0FF325A620398FFF770FFF8
:1008F00000E000BF05B000BDAFF30080AFF30080A3
:1009000000B589B0034600918DF80730009BB3F124
:10091000FF3F14D00F4BDB6903AA104600990E4A23
:10092000FFF79EFE9DF807301846FFF781FF069BF4
:10093000002B09D003AB1846FFF7DAFE04E09DF860
:1009400007301846FFF774FF024BDB695B6A1846F5
:1009500009B000BD4809002081080008AFF30080FD
:1009600000B585B001900091019B009A5A62019BED
:100970009A68104BDB699B689A4203D80198FFF78D
:1009800027FF14E00B4BDB691846FFF721FF0390AC
:10099000084B4FF014029A61064B019ADA61019BF1
:1009A0004FF001021A7701980399FFF7D1FC05B0C7
:1009B00000BD00BF48090020AFF30080AFF3008006
:1009C00000B583B00E4B4FF014029A610C4BDB69FB
:1009D00001930B48FFF7B4FE0246094BDA61084B5E
:1009E000DB694FF001021A770198FFF7F1FE044B23
:1009F000DB6918460199FFF7ABFC03B000BD00BFEF
:100A000048090020AFF30080AFF30080AFF300800F
:100A100084B00190019B1B680393039B1A68019BA0
:100A20001A60039B184604B0704700BFAFF3008004
:100A300082B001900091019B009A9A60019B4FF057
:100A400002021A77019B4FF000025A77019B009A2D
:100A50001A64019B4FF00002DA63019B4FF0000221
:100A60009A63019B4FF000021A62019B4FF0010252
:100A70009A77019B4FF000029A61114A019B1A611B
:100A80000F4B5A69019B5A61019B5B690C4A0199A2
:100A900051610B4A52691A61019B03F128031A46FE
:100AA000019B9A62019B03F12C031A46019B1A6376
:100AB000019B1A6B019BDA62019B184602B07047DA
:100AC00048090020AFF30080AFF30080AFF300804F
:100AD00000B587B00390029101920093039B0593A8
:100AE000039B002B07D0029BAF2B04D9019B7F2BCC
:100AF00001D8009B002B039A029BA3F12403D21878
:100B0000059BDA60059BDB68009A1A60059BDB6831
:100B1000089A5A60059BDB68044A1A620598019995
:100B2000FFF786FF0346184607B000BD71030008B3
:100B300000B589B005900491039202934FF0200311
:100B400083F311880A9B009305980499039A029BEA
:100B5000FFF7BEFF079007984FF00001FFF700FF77
:100B60004FF0000383F31188079B184609B000BDBE
:100B700000B583B001904FF0200383F311884FF04C
:100B800006000199FFF7BCFE4FF0000383F31188C4
:100B900003B000BDAFF30080AFF30080AFF300807F
:100BA00000B583B001904FF0200383F311880198C2
:100BB00000F006F803B000BDAFF30080AFF3008093
:100BC00000B585B00190174BDB690393039B019A35
:100BD0005A6209E0039B03F128031846FFF718FF48
:100BE00003461846FFF7F4FD039B9A6A039B03F143
:100BF00028039A42EED1039B5B7F03F00303002B93
:100C000009D1039B5B69039A12691A61039B1B69F3
:100C1000039A52695A614FF00E00FFF709FE05B0C2
:100C200000BD00BF48090020AFF30080AFF3008093
:100C300082B00190019B1A46019B5A60019B5A6841
:100C4000019B1A60019B4FF000029A6002B070474E
:100C5000074B03F1070323F007031A46054B1A60FD
:100C6000054B23F007031A46044B1A60704700BF78
:100C7000D009002068090020002800206C0900200D
:100C800000B585B001904FF0200383F311880198DF
:100C900000F00EF803904FF0000383F31188039BDC
:100CA000184605B000BD00BFAFF30080AFF3008071
:100CB00084B00190019B03F1070323F00703019324
:100CC0000C4B1B681A460C4B1B68D31A1A46019B27
:100CD0009A4202D24FF0000309E0074B1B680393CE
:100CE000054B1A68019BD218034B1A60039B1846E8
:100CF00004B070476C09002068090020AFF3008041
:100D000008B5074B074A1A60054B4FF000029A607E
:100D1000034B4FF00002DA600348FFF789FF08BD7C
:100D200070090020810C000880090020AFF30080CA
:100D300008B500F08DF900F01BF9044800F0E8FC5C
:100D400000F006F800F0B4FD08BD00BF001A00086E
:100D500008B500F0A5FA08BDAFF30080AFF300803E
:100D600082B00190019B4FF001021A70019B4FF07D
:100D700000025A6002B07047AFF30080AFF300800A
:100D800000B583B001900091019B002B01D0009B26
:100D9000002B4FF0200383F31188019B1B78012B5C
:100DA00003D0019B1B78022B00BF019B009A5A6065
:100DB000009B9A88019B1A81019800F091FA019B8F
:100DC0004FF002021A704FF0000383F3118803B052
:100DD00000BD00BFAFF30080AFF30080AFF3008031
:100DE00000B583B001904FF0200383F31188019B7D
:100DF0001B78012B03D0019B1B78022B00BF0198AD
:100E000000F0B6FB019B4FF001021A704FF0000397
:100E100083F3118803B000BDAFF30080AFF300800F
:100E200082B001900B46ADF802304FF0200383F3FF
:100E30001188019BBDF802201A81019B1B69BDF836
:100E4000022002F1FF3292B2DA624FF0000383F324
:100E5000118802B0704700BFAFF30080AFF300808D
:100E600000B583B0019013460A468DF80320ADF813
:100E70000030019B002B02D09DF80330032B4FF074
:100E8000200383F311889DF80320BDF800300198FA
:100E900011461A4600F0BCFB4FF0000383F31188A3
:100EA00003B000BDAFF30080AFF30080AFF300806C
:100EB00000B583B001900B468DF80330019B002BE9
:100EC00002D09DF80330032B4FF0200383F31188E9
:100ED0009DF803300198194600F0EAFB4FF000033B
:100EE00083F3118803B000BDAFF30080AFF300803F
:100EF00082B00190024B5A68019B9A6002B0704721
:100F0000001000E0AFF30080AFF30080AFF300808B
:100F100084B00190114B5B680393019B9B68039A1B
:100F2000D21A0F4B1B68D21A019B9A60019B9A68D8
:100F3000019BDB689A4204D9019B9A68019BDA60A5
:100F400009E0019B9A68019B1B699A4203D2019BAD
:100F50009A68019B1A6104B0704700BF001000E05E
:100F600090090020AFF30080AFF30080AFF3008062
:100F700000B587B00A4B4FF000021A6001AB18466B
:100F800000F016F8019B01AA10469847029B01AA9F
:100F900010469847039A024B1A6007B000BD00BF85
:100FA00090090020AFF30080AFF30080AFF3008022
:100FB00082B00190019B094A1A60019B084A5A605D
:100FC000019B4FF000029A60019B4FF00002DA6033
:100FD000019B4FF0FF321A6102B07047F10E00081A
:100FE000110F0008AFF30080AFF30080AFF3008073
:100FF000134B134A126842F480721A60114B1B6A39
:1010000003F44073B3F5407F07D00E4B4FF48032AA
:101010001A620C4B4FF000021A620A4B1B6A03F46F
:101020000043002B0BD1074B064A126A42F4407270
:101030001A62044B034A126A42F400421A62704771
:101040000070004000100240AFF30080AFF300805A
:1010500008B51D4B1B691C4B4FF0FF321A611A4B30
:101060004FF000021A61184BDB68174B4FF0FF324C
:10107000DA60154B4FF00002DA60144B43F67F62E2
:101080005A60124B4FF000029A60104B4FF007026B
:101090001A600F4B0E4AD26842F08072DA600D4B34
:1010A0000C4A126842F001021A60074B064AD269E4
:1010B00042F08052DA61044B034AD26942F0006286
:1010C000DA61FFF795FF08BD0010024010E000E074
:1010D000F0ED00E0001000E0AFF30080AFF300801F
:1010E000294B294A126842F001021A6000BF264BC0
:1010F0001B6803F00203002BF9D0234B224A12682D
:1011000002F0F9021A60204B4FF000025A6000BF53
:101110001D4B5B6803F00C03002BF9D11A4B1A4AE4
:10112000126842F480321A6000BF174B1B6803F448
:101130000033002BF9D0144B134A526842F480322A
:101140005A60114B104A126842F080721A6000BF58
:101150000D4B1B6803F00073002BF9D00A4B4FF4C2
:10116000B2325A60094B4FF010021A60064B064A21
:10117000526842F002025A6000BF034B5B6803F002
:101180000C03082BF9D170470010024000200240E8
:1011900000B585B00190019B1B691B8AADF80E302C
:1011A000019B1B699B899AB2BDF80E3002EA0303CA
:1011B000ADF80E30019B1B694FF6E0721A82BDF844
:1011C0000E3003F00203002B04D0019B5B681B6907
:1011D00001989847BDF80E3003F00403002B04D0AB
:1011E000019B5B689B6901989847BDF80E3003F03E
:1011F0000803002B04D0019B5B681B6A0198984789
:10120000BDF80E3003F01003002B04D0019B5B6887
:101210009B6A01989847BDF80E3003F00103DBB2DA
:10122000002B04D0019B5B689B680198984705B030
:1012300000BD00BFAFF30080AFF30080AFF30080CC
:1012400008B50348FFF7A4FFFFF72AF808BD00BF61
:1012500094090020AFF30080AFF30080AFF300806B
:1012600008B50348FFF794FFFFF71AF808BD00BF61
:10127000A8090020AFF30080AFF30080AFF3008037
:1012800008B50348FFF784FFFFF70AF808BD00BF61
:10129000BC090020AFF30080AFF30080AFF3008003
:1012A00008B50A48FFF75CFD084B4FF080421A6111
:1012B0000748FFF755FD064B064A1A610648FFF737
:1012C0004FFD054B054A1A6108BD00BF9409002077
:1012D000A809002000040040BC09002000080040CC
:1012E00000B585B00190019B1B78012B6CD1019A50
:1012F000304B9A4218D1304B2F4AD26942F001024A
:10130000DA612D4B2C4A126942F001021A612A4B14
:101310004FF000021A614FF01C004FF07001FFF710
:1013200037F8019B254ADA60019A254B9A4218D179
:10133000214B214AD26942F00202DA611E4B1E4A59
:10134000126942F002021A611B4B4FF000021A614F
:101350004FF01D004FF07001FFF71AF8019B174A7C
:10136000DA60019A174B9A4218D1134B124AD2698C
:1013700042F00402DA61104B0F4A126942F0040293
:101380001A610D4B4FF000021A614FF01E004FF032
:101390007001FEF7FDFF019B084ADA60019B1B69A3
:1013A00046F668021A83019B1B6946F668029A8317
:1013B00032E000BF94090020001002400024F40035
:1013C000A8090020BC090020019B1B694FF0000206
:1013D0001A80019B1B694FF000029A81019B1B69D7
:1013E0004FF000021A82019B1B694FF000025A6302
:1013F000019B1B694FF000029A63019B1B694FF030
:101400000002DA63019B1B694FF000021A64019B22
:101410001B694FF000025A62019BDA68019B5B680E
:101420001B68B2FBF3F303F1FF330293029A4FF60A
:10143000FF739A420BD8029B03F10103019A526891
:10144000126802FB03F2019BDB689A4200BF019B1A
:101450001B69029A92B21A85019B1B69019A128933
:1014600002F1FF3292B2DA62019B1B69019A526863
:10147000928D9A804FF00003ADF80E30019B5B68AF
:10148000DB6803F00F03012B07D0022B0BD1BDF853
:101490000E3043F00203ADF80E30BDF80E3043F0CD
:1014A0000103ADF80E30019B5B685B6903F00F032D
:1014B000012B07D0022B0BD1BDF80E3043F02003D7
:1014C000ADF80E30BDF80E3043F01003ADF80E301D
:1014D000019B5B68DB6903F00F03012B07D0022B34
:1014E0000BD1BDF80E3043F40073ADF80E30BDF8EB
:1014F0000E3043F48073ADF80E30019B5B685B6A7D
:1015000003F00F03012B07D0022B0BD1BDF80E30D7
:1015100043F40053ADF80E30BDF80E3043F4805361
:10152000ADF80E30019B1B69BDF80E201A84019B9B
:101530001B694FF001029A82019B1B69019A526854
:101540009268002A0CBF0022012292B29A81019B6C
:101550001B694FF000021A82019B1B694FF0850244
:101560001A8005B000BD00BFAFF30080AFF300806C
:1015700000B583B00190019B1B78022B38D1019BF1
:101580001B694FF000021A80019B1B694FF000029B
:101590009A81019B1B694FF000021A82019A154B38
:1015A0009A4209D14FF01C00FEF742FF124B124A3B
:1015B000D26922F00102DA61019A104B9A4209D1F4
:1015C0004FF01D00FEF734FF0B4B0B4AD26922F09F
:1015D0000202DA61019A0A4B9A4209D14FF01E00C9
:1015E000FEF726FF044B044AD26922F00402DA61B6
:1015F00003B000BD9409002000100240A80900209B
:10160000BC090020AFF30080AFF30080AFF300808F
:1016100084B0019013460A468DF80320ADF80030DF
:10162000019B19699DF80330BDF8002003F10C03FC
:101630004FEA8303CB185A60019B5A689DF8033028
:1016400003F101034FEAC303D3189B68002B2CD08E
:10165000019B1B699B899BB203939DF803304FF05C
:10166000020202FA03F31A46039B02EA0303002B69
:101670001BD1019B1B699DF803204FF0020101FA69
:1016800002F291B2039A92B241EA020292B29A81B4
:10169000019B1B699DF803204FF0020101FA02F241
:1016A00092B26FEA020292B21A8204B0704700BF8F
:1016B00082B001900B468DF80330019B1A699DF8AA
:1016C000033003F10C034FEA8303D3184FF00002F9
:1016D0005A60019B1B69019A1269928992B291B278
:1016E0009DF803204FF0020000FA02F292B26FEA76
:1016F000020292B201EA020292B292B29A8102B05E
:10170000704700BFAFF30080AFF30080AFF30080FD
:1017100082B00190214B214A926942F07D029A6188
:101720001F4B019A1268DA601D4B019A92685A6049
:101730001B4B019A52681A601A4B019AD268DA6000
:10174000184B019A52695A60164B019A12691A6035
:10175000154B019A9269DA60134B019A126A5A602A
:10176000114B019AD2691A60104B019A526ADA60E1
:101770000E4B019AD26A5A600C4B019A926A1A6017
:101780000B4B019A126BDA60094B019A926B5A600B
:10179000074B019A526B1A6002B07047001002406A
:1017A00000080140000C01400010014000140140FD
:1017B00000180140AFF30080AFF30080AFF300806A
:1017C0008AB0039002910192019B032B03D1039BEA
:1017D000029A1A6105E0019B042B02D1039B029A35
:1017E0005A612E4A019BD3181B7804934FF00003D3
:1017F0000693069B0793079B0893089B09934FF05A
:101800000003059335E0089B4FEA03130893099BF7
:101810004FEA03130993069B4FEA03130693079BB2
:101820004FEA03130793029B03F08003002B04D1BC
:10183000089B43F00F03089304E0069A049B42EAD6
:1018400003030693029B03F40043002B04D1099B7E
:1018500043F00F03099304E0079A049B42EA030351
:101860000793029B4FEA43030293059B03F1010395
:101870000593059B072BC6D9039B5A68099B1A4001
:10188000079B1A43039B5A60039B1A68089B1A40E4
:10189000069B1A43039B1A600AB07047E0190008C0
:1018A00008B5FFF71DFC08BDAFF30080AFF3008063
:1018B000704700BFAFF30080AFF30080AFF300804C
:1018C00082B0019002B07047AFF30080AFF30080A8
:1018D00082B0019002B07047AFF30080AFF3008098
:1018E00008B5FFF725FAFEF71BFE33483349FFF72B
:1018F00047FA33484FF040014FF01002FFF760FF06
:101900004FF4FA60FFF734F92B4B1B8941F64C5228
:1019100002FB03F22B4BA3FB02134FEA53339BB2A0
:1019200025484FF000011A46FFF79AFA41F2883035
:10193000FFF71EF9204B1B8941F2883202FB03F2AC
:10194000204BA3FB02134FEA53339BB21A484FF0CC
:1019500000011A46FFF784FA41F28830FFF708F9D0
:10196000154B1B8940F6C41202FB03F2154BA3FB77
:1019700002134FEA53339BB20F484FF000011A464F
:10198000FFF76EFA41F28830FFF7F2F80A4841F2A9
:101990008831FFF745FA41F28830FFF7E9F8064849
:1019A0004FF00001FFF784FA0348FFF719FA4FF4EC
:1019B000FA70FFF7DDF8FAE7A80900200008002018
:1019C000000801405917B7D1AFF30080AFF3008092
:1019D00069646C65000000006D61696E00000000C4
:1019E0000402040808000307080808080808080893
:1019F0000B0F0000000000000000000000000000CD
:101A0000FFFFFFFF4444444444444444FFFFFFFFBE
:101A10004444444444444444FFFFFFFF444444449A
:101A200044444444FFFFFFFF44444444444444448A
:0C1A3000FFFFFFFF88888888888888886E
:101A40001027000010270000C11800080100000046
:101A5000D118000800000000000000000000000095
:101A60000000000000000000000000000000000076
:04000005080000F0FF
:00000001FF
