:020000040800F2
:1000000000280020251B0008590600085B06000890
:100010005D0600085F060008610600080000000099
:10002000000000000000000000000000630600085F
:100030006506000800000000670600086906000861
:100040006D1B00086D1B00086D1B00086D1B000870
:100050006D1B00086D1B00086D1B00086D1B000860
:100060006D1B00086D1B00086D1B00086D1B000850
:100070006D1B00086D1B00086D1B00086D1B000840
:100080006D1B00086D1B00086D1B00086D1B000830
:100090006B0600086D1B00086D1B00086D1B000837
:1000A0006D1B00086D1B00086D1B00086D1B000810
:1000B0006D1B00086D1B00086D1B00086D1B000800
:1000C0006D1B00086D1B00086D1B00086D1B0008F0
:1000D0006D1B00086D1B00086D1B00086D1B0008E0
:1000E0006D1B00086D1B00086D1B00080000000060
:1000F0000000000000000000000000000000000000
:0C01000000000000000000005FF808F1A3
:10010C0040F22423C2F200031A780AB901201870B5
:10011C00704700BF40F22420C2F2000008B503680B
:10012C002BB140F20003C0F2000303B1984708BDA5
:10013C0070B542F2124642F21245C0F60006C0F605
:10014C000005761BB61006D0002455F8043B01348C
:10015C009847A642F9D142F2184642F21445C0F62D
:10016C000006C0F60005761B01F006FDB61006D0A1
:10017C00002455F8043B01349847A642F9D170BDD0
:10018C00C37810B5E3B1144B4178DB688478DB435A
:10019C0003F4E0631B0AC3F1040291400F22DA401E
:1001AC0022400A430D4B01781201CB1883F800232F
:1001BC0003780122590903F01F0312FA03F307E035
:1001CC0003780122590903F01F0312FA03F32031BB
:1001DC00024A42F8213010BD00ED00E000E100E0E1
:1001EC0021F0604121F07F01014B01439960704780
:1001FC0000ED00E0024B034A5A60034A5A60704714
:10020C000020024023016745AB89EFCD0A4BDA6829
:10021C0012F0010F0BD1DA6812F0040F09D1D86873
:10022C0000F0100000280CBF0420032070470120B0
:10023C0070470220704700BF0020024010B50446F2
:10024C00FFF7E4FF02E0FFF7E1FF013C012803D1D7
:10025C00002CF8D1043010BD002C08BF052010BDB7
:10026C0073B5002304464FF400500E460193FFF77C
:10027C00E5FF04281AD10E4D4FF400502B6943F0C2
:10028C0001032B612680FFF7D9FF042808D1023423
:10029C000194019B360C1E804FF40050FFF7CEFFEB
:1002AC002A6941F6FE7302EA03032B617CBD00BF91
:1002BC000020024038B505464FF43020FFF7BEFF52
:1002CC00042813D10A4C4FF43020236943F0020365
:1002DC0023616561236943F040032361FFF7AEFF9F
:1002EC00226941F6FD7302EA0303236138BD00BFA6
:1002FC0000200240CB78F0B513F0100F03F00F0282
:10030C000E881CBF8B781A4316F0FF0F1DD00468A3
:10031C00002301279F4007EA0605BD4211D19F002B
:10032C004FF00F0C0CFA07FC12FA07F724EA0C0436
:10033C003C43CF78282F01D1456102E0482F08BFFC
:10034C0005610133082BE4D104600E88FF2E1FD900
:10035C004468002303F108050127AF4007EA0605AE
:10036C00BD4211D19F004FF00F0C0CFA07FC12FA92
:10037C0007F724EA0C043C43CF78282F01D14561C0
:10038C0002E0482F08BF05610133082BE2D144601D
:10039C00F0BD01617047416170470000014B18606E
:1003AC00704700BFD8004242044B11B19A69104308
:1003BC0002E09A6922EA000098617047001002403E
:1003CC00044B11B1DA69104302E0DA6922EA000049
:1003DC00D86170470010024008B500F045F80020C5
:1003EC0008BD000000F07C43B3F1006F04D1034A58
:1003FC00034B1A6000F03AB80120704779040008EA
:10040C004006002000F07C43B3F1006F04D1034A96
:10041C00034B1A6000F030B80120704785040008C7
:10042C004806002000F07C43B3F1006F04D1034A6E
:10043C00034B1A6000F044B800207047CD0400084C
:10044C0044060020400E00F0060001F00101054BAF
:10045C00411833F81130002053701B0A9370D07080
:10046C00704700BF6E1B00080020704708B5FFF7EF
:10047C0021FF002008BD000011F0030F70B50646E7
:10048C000D4601D00B4605E0002410E00B4AFF217D
:10049C00995401334FF6FC7205EA0202043293427E
:1004AC00F4D3F1E7054BE158FFF7DAFE0434AC4224
:1004BC0004EB0600F6D3002070BD00BF3C02002008
:1004CC00704710B500230CE0040F092C01D8303410
:1004DC0000E037340C70013300244C700001DBB2A7
:1004EC0002319342F0D110BD10B5FFF783FEBDE889
:1004FC001040FFF771BF012010B5FFF74FFF4FF40D
:10050C0000000121BDE81040FFF75ABF014B032248
:10051C001A60704734020020044B9A7A044B0AB1DB
:10052C00052200E001221A60704700BF6806002017
:10053C0034020020012813B5044616D104202146AC
:10054C00FFF732FF4FF48073ADF8043001A910238C
:10055C0012488DF807308DF80640FFF7CBFE104897
:10056C004FF48071FFF715FF16E04FF48073ADF870
:10057C00043010238DF8073008480F3B01A98DF883
:10058C000630FFF7B7FE06484FF48071FFF703FF04
:10059C0004200021FFF708FF1CBD00BF000C014028
:1005AC000008014007B514238DF80430143B8DF876
:1005BC0005308DF8063001A801338DF80730FFF7B0
:1005CC00DFFD0EBD054A064BD16801F4E06141EA3E
:1005DC000303D360BFF34F8FFEE700BF00ED00E0D5
:1005EC000400FA05094A0A4B10B51B6814685068D8
:1005FC00C0180AD008220749FFF763FF06492046B6
:10060C000422BDE81040FFF75CBF10BDECF7FF1FE4
:10061C00E8F7FF1F340100204401002008B54FF01B
:10062C0000604FF4EC31FFF7DBFD064A0A23137030
:10063C00054A13701371FFF757FFFFF75CFF01F0CA
:10064C009BF8FEE74C0600204D0600207047FEE7A5
:10065C00FEE7FEE7FEE7704770477047704700F013
:10066C007FB800003A4B82B01A6842F001021A605F
:10067C005968384A01EA02025A601A6822F08472F8
:10068C0022F480321A601A6822F480221A605A68A6
:10069C0022F4FE025A604FF41F029A60002201926B
:1006AC0000921A6842F480321A60294B1A6802F4DC
:1006BC0000320092019A01320192009A1AB9019A01
:1006CC00B2F5A06FF1D11B6813F4003318BF0123EE
:1006DC000093009B012B34D11F4B1A6842F010027F
:1006EC001A601A6822F003021A601A6842F00102BA
:1006FC001A60174B5A685A605A685A605A6842F422
:10070C0080625A605A6822F47C125A605A6842F429
:10071C0088125A601A6842F080721A600C4B1A6880
:10072C0012F0007FFAD05A6822F003025A605A681D
:10073C0042F002025A60064B5B6803F00C03082B74
:10074C00F9D1064B4FF000629A6002B0704700BFBF
:10075C00001002400000FFF80020024000ED00E015
:10076C00324B70B51B68324C324D238023882A885B
:10077C0002EA030313F4004F01D001F019F82388A7
:10078C002A8802EA030313F4806F06D0274B4FF636
:10079C00FF321A60284B5B68984722882B8803EA43
:1007AC00020212F4005F03D0204A4DF6FF71116073
:1007BC002288134013F4805F06D01C4B4EF6FF7258
:1007CC001A60002000F04AFB23882A8802EA0303FF
:1007DC0013F4006F0CD0194B1B7813B100F01EFBF7
:1007EC0002E0022000F03AFB104B4FF2FF721A604D
:1007FC0022882B8803EA020212F4007F07D00B4AEE
:10080C004FF6FF5111600E4A117801311170228898
:10081C00134013F4807F08D0044B4FF6FF6207207F
:10082C001A60BDE8704000F019BB70BD445C00401C
:10083C00540600208C06002090010020220200208B
:10084C0025020020034B9B7A13B1034B05221A603F
:10085C00704700BF6806002034020020014B0422C0
:10086C001A607047340200207047000008B5194B1D
:10087C001A681946127802F07F02212A25D1022823
:10088C0006D1154B1B78022B14D0092B12D008BDA6
:10089C00012809D1104A1378022B01D0052B14D151
:1008AC00032313700D4B08E0052805D003280ED147
:1008BC000B4B02E00B4B00E00B4B0A6800219361E1
:1008CC00518200209847002008BD022008BD02205C
:1008DC0008BD00BF880600204C060020E90900086E
:1008EC00590A0008090B0008410A0008304B1B6824
:1008FC001B7803F07F03212B56D1012812D12D4AEE
:10090C0013781146052B01D0022B4DD12A4B012215
:10091C001A602A4B002005320A7058709870D870F3
:10092C001A717047022809D1224B244A18700023EF
:10093C00107153709370D37018467047042814D1FB
:10094C001C4A13780A2B1D4B04D102210438117058
:10095C00187004E00A2111700E221A7000205870D1
:10096C009870D87019715871704706281CD1114AAB
:10097C001378991EC9B20129114606D9092B15D82D
:10098C005BB24FF0C8629A4010D50C4B002002228B
:10099C00187058709870D8701A715871084B0A708A
:1009AC001860084B18607047022070470020704791
:1009BC00880600204C060020300200204D06002046
:1009CC002C02002028020020032904D802288CBF06
:1009DC0002200020704702207047000010B50E4B1B
:1009EC000E4C9978DA78090289180D4A1160DA7977
:1009FC009979120252180B495B8A0A600321217003
:100A0C00094C217120B90949D31A09680B8210BD10
:100A1C000748181810BD00BF680600204C060020BF
:100A2C002C020020280200204D0600208806002001
:100A3C003C02002020B9034B01221B681A8270472C
:100A4C0001487047880600204C06002010B522494A
:100A5C0004460B78032B02D0062B33D119E01F4B25
:100A6C001F4A1B6893B104230B7013711D4B19683B
:100A7C001D4B29B91D480078412801D1186802E0A6
:100A8C001868174A0121FFF7DDFC1BE005200870F0
:100A9C0014E0174B1B68012B06D1114A0720537029
:100AAC0008701071013B0BE063B9124A1268127D99
:100ABC0012F0040F06D00220094A0870107153700E
:100ACC009370D3702CB90C4B06221B6820461A82EB
:100ADC0010BD034810BD00BF4C06002028020020AA
:100AEC004D0600202C020020F00100203C020020CA
:100AFC00300200208801002088060020F8B52A4B1F
:100B0C0004469878DA78D979284E9B7900028018B7
:100B1C000902274A274FD6F800C0C918106039605F
:100B2C00BCF81250244A254BB0B9032901D9022133
:100B3C0000E0092111701278214D1A7100225A70AF
:100B4C009A70DA7021236B7020332A70AB703CBB27
:100B5C000323ACF8103024E0012819D04FF0090E13
:100B6C0082F800E000225A709A70DA7083F804E080
:100B7C00144A154B1268C3189B029818FFF752FCC5
:100B8C003A681CB93368551B1D820AE0441908E009
:100B9C0000240F21117019715C709C70DC7000E0E6
:100BAC002C462046F8BD00BF6806002088060020B1
:100BBC002C020020280200204C0600204D060020AC
:100BCC003C020020F0010020FEFF3F00054B1B689B
:100BDC00DB78082B04D8044901EBC30100F068BB97
:100BEC000020704788060020C0010020014900F059
:100BFC005FBB00BF88010020014900F059BB00BF5A
:100C0C001802002070B5234B00249C72224A234BFF
:100C1C00D2791B68224D5A72224B2C60196848F607
:100C2C008F1201EA020242F400721A60196848F647
:100C3C00BF7201EA020282F0200242F4004242F04A
:100C4C0080021A602A68184B92B2D3185B001022EB
:100C5C00164E1A60204696F82C1000F027FF2B68D1
:100C6C0050229BB203F1005303F540535B001A6012
:100C7C0096F82C10204600F00BFF204600F0B3FE37
:100C8C00204600F09EFE204600F022FD084B01227B
:100C9C001A6070BD68060020C20000208806002083
:100CAC00505C0040005C00400430002090010020AB
:100CBC003402002010B5FFF795FC064B00249C7203
:100CCC0000F094F800F018FFFFF76CFC024B1C606E
:100CDC0010BD00BF68060020340200200C4B00221F
:100CEC001A600C4B0C481B68197D0C4B11F004015D
:100CFC0006D00621017019715A709A70DA7070471B
:100D0C00082202701A7159709970D970FFF75ABC89
:100D1C0030020020880100204C0600204D060020E7
:100D2C0070B52A4B5B78032B4ED1294D2B78042BB5
:100D3C0044D1284E284C3368002B29D1274B1A78E4
:100D4C00002A30D0212A0FD12268052A2BD199787C
:100D5C00DA78090212048A1859781B7952181B0682
:100D6C00D2181F4B1A601EE0412A1CD12268052A9A
:100D7C0019D19878DA780002120480185A781B7905
:100D8C0080181B06C018164B1860FFF72BFB0AE0E7
:100D9C00012B08D9134821681818114B80021B68C5
:100DAC00C018FFF72FFB104A002303212360336088
:100DBC002970117153709370D37070BD072B03D1D0
:100DCC00BDE87040FFF78ABF70BD00BF6806002009
:100DDC004C0600202C020020280200203C0200209F
:100DEC00F0010020FEFF3F004D06002008B5012059
:100DFC00FFF7A0FB064B01221A60064A00200649A9
:100E0C00186010604FF4E0520A801A6008BD00BFF1
:100E1C00405C0040445C00408C060020064B1A6885
:100E2C0092B242F008021A601A6892B242F00402BE
:100E3C001A60FFF76BBB00BF405C004010B5064C5E
:100E4C004FF6FB73226802EA03032360FFF764FB8F
:100E5C004FF43F43236010BD405C004010B51F4C65
:100E6C00072818BF20702378052B33D8DFE803F050
:100E7C0003070C101722FFF7E1FF062302E0FFF730
:100E8C00DDFF0423237010BD022363700133F9E7E7
:100E9C006378013B63706378F3B9042217E0104B5D
:100EAC001A6892B242F010021A6005232370DB1804
:100EBC00637010BD6378013B6370637863B9084A53
:100ECC004FF6EF73116801EA030313600622034B1C
:100EDC001A7010BD0623237010BD00BF56060020EB
:100EEC00405C004010B5064C18B9236801221A82E8
:100EFC0010BD044B1B681B68984720680A3010BD56
:100F0C00880600208406002010B5064C18B923680A
:100F1C0001221A8210BD044B1B689B6898472068FD
:100F2C000C3010BD880600208406002008B5264B26
:100F3C0018B91B6802221A8208BD244800220280BC
:100F4C001A68117811F07F0113D1527A017812F0DE
:100F5C00200F14BF41F0020121F00201017012F0C8
:100F6C00400F027814BF42F0010222F0010202701D
:100F7C0022E0012927D0022924D1527902F00F0353
:100F8C0012F0800F4FEA830308D003F1804303F57E
:100F9C00B8431B6803F03003102B08E003F18043C7
:100FAC0003F5B8431B6803F44053B3F5805F03D1DA
:100FBC00037843F001030370054B1B681B699847CA
:100FCC00024808BD002008BD8806002058060020F5
:100FDC0084060020234A2DE9F84314689046238A9E
:100FEC00267A214FA3B9042E12D120490A78012A5E
:100FFC000AD11F4A10681F4A80B28218520013602F
:10100C0030223A800B7027E010233B80072623E028
:10101C00A58AAB428CBF022604269D4228BF1D46E2
:10102C002846A36998478146002000F015FD2A4602
:10103C000146484600F082FC2946002000F028FDBD
:10104C00238A30225B1B2382638A3A80ED180A4B79
:10105C004FF4405265821A80D8F800301E72BDE8F9
:10106C00F88300BF8806002090060020380200207C
:10107C00505C0040023000208E06002010B50B4B57
:10108C000B491B684978DA7891420AD3997841B9AF
:10109C009C8844B99A72074B1B685B68984720463A
:1010AC0010BD022010BD022010BD00BF880600201C
:1010BC00200200208406002038B50F4C0F4B22680C
:1010CC001B6850799B69D178984723689A7A7AB1D2
:1010DC0070B91A7962B99D7865B9094B1B68DB68E0
:1010EC009847236828465A79DA72DA781A7338BD29
:1010FC00022038BD022038BD880600206006002082
:10110C008406002010B5364B1B68187810F07F0051
:10111C0004D15A7A22F020025A7210BD02285AD1F8
:10112C005A88002A5AD11A79002A57D15A792D4C4B
:10113C0022F08000810001F1804101F5B84109687D
:10114C00247812F0800F14BF01F0300101F44051EB
:10115C00A04240D200293ED09B7A002B3DD012F009
:10116C00800F4FEA800411D004F1804404F5B84498
:10117C00236803F03003102B27D1C4B2204600F0B3
:10118C0056FC2046302100F000FC1EE004F18044A7
:10119C0004F5B844236803F44053B3F5805F14D1CD
:1011AC0028B9114B93F82C1000F080FC01E000F0F2
:1011BC002AFC22684BF68F7302EA030383F4405334
:1011CC0043F4004343F080032360084B1B685B69C6
:1011DC009847002010BD022010BD022010BD00BF9A
:1011EC0088060020200200209001002084060020A8
:1011FC0010B5234B234C196824784A7922F08003CC
:10120C00980000F1804000F5B840006812F0800FA3
:10121C0014BF00F0300000F44050A3422BD24C8895
:10122C004CBB40B3897A41B312F0800F4FEA830371
:10123C000BD003F1804303F5B843196848F6BF722D
:10124C0001EA020282F010020AE003F1804303F586
:10125C00B84319684BF68F7201EA020282F480528D
:10126C0042F4004242F080021A60074B1B689B69F3
:10127C009847002010BD022010BD022010BD00BFF9
:10128C0088060020200200208406002008B5064BAA
:10129C001B685A7A42F020025A72044B1B68DB69B5
:1012AC009847002008BD00BF880600208406002057
:1012BC00054B1A68538A18B98988CB1A1382704760
:1012CC000868C018704700BF8806002008B50C4B92
:1012DC00002093F82C1000F0E9FB0A4B1B68187ADD
:1012EC00082806D1084B4FF480521A80074B102265
:1012FC001A80A0F10903584240EB030008BD00BF5F
:10130C0090010020880600208E0600209006002008
:10131C002DE9F0412C4D2C68237A022B4DD0042B57
:10132C004BD0032B01D0052B41D1A369228AABB141
:10133C00A2B1A68A964228BF164630469847238A01
:10134C0007469B1B2382638A0020F318638200F0FC
:10135C0091FB32460146384600F007FB238A53B115
:10136C001A4B4FF4405200201A80014600F090FBBB
:10137C00174B30221A80238AA28A9A4202D82B68F1
:10138C00032202E01BB12B6805221A720CE02A68BA
:10139C00062111720F4A11680F4A89B28A1852003D
:1013AC0013600B4B30221A802B681B7A06E0072B3C
:1013BC0003D10A4B1B68DB68984708232A68137211
:1013CC00BDE8F041FFF782BF880600208E060020A2
:1013DC0090060020505C0040023000206006002087
:1013EC00884BF7B51A68884C884B92B2D31826688C
:1013FC005B001F68337A092B1AD0BFB207F1005774
:10140C0007F540577F003D4615F8013B33707B785C
:10141C000A377370B5F8030000F068FB7080B5F8FC
:10142C000700266800F062FBB08023687F88DF80AD
:10143C00226801231372D3885578002B5CD1137862
:10144C0013F07F032AD1092D02D1FFF717FE37E0E5
:10145C00052D0DD192F90330002B49DB9378002B2D
:10146C0046D19388002B43D1937A002B31D03FE0A7
:10147C00032D07D1D378012B23D193880BBBFFF716
:10148C0005FF1DE0012D1CD1D378012B19D19388B8
:10149C00BBB9537A13F0200F13D00AE0012B04D1FF
:1014AC000B2D0ED1FFF708FE0AE0022B09D1012DFE
:1014BC0002D1FFF727FE03E0032D02D1FFF798FEC0
:1014CC0038B1534B28461B685B69984703280DD0ED
:1014DC0070B94C4B30211A684E4B92B2D3185B004A
:1014EC0000221A604C4B1980062302E0092300E00D
:1014FC00082322681372DEE0062D16D1137813F040
:10150C007F0F40F093809278414B012A02D11B68E7
:10151C00DB696DE0022A02D11B681B6A68E0032AB2
:10152C0040F084801B685B6A62E0002D3AD15188E0
:10153C0000297BD1536823F47F43B3F5003F75D169
:10154C00137813F07F0303D19388002B4CD06DE0FC
:10155C00012B0CD12E4B50791B689B6998470028A6
:10156C0064D1294B1B689B7A002B3DD15EE0022B8A
:10157C005CD15379294803F00F018A0002F18042B3
:10158C0002F5B8421268007813F0800F14BF02F015
:10159C00300202F44052814248D213F0700F45D110
:1015AC0012BB43E0082D04D1137813F07F0F1DD02C
:1015BC003CE00A2D3AD1137803F07F03012B35D18F
:1015CC00937A002B32D0518800292FD1536823F401
:1015DC007F43B3F5803F29D10D4B50791B689B6934
:1015EC00984718BB0E4B04E00E4B02E00E4B00E08C
:1015FC00E3B12268002151829361002098470020BA
:10160C001FE000BF505C0040880600200430002022
:10161C0060060020023000209006002020020020EE
:10162C00150F0008390F0008F10E0008244B226832
:10163C001B6850781B699847032802D1214B1B6803
:10164C0005E023684FF6FF711A8A8A4201D10922FC
:10165C0003E0022800D012B908221A722BE093F989
:10166C000010002921DAD888019001998A42144986
:10167C0002D9019A1A8210E082420ED20B6893F8BA
:10168C002C309A4201D2002205E092FBF3F003FBCE
:10169C00102212B901320C4B1A700A68236892F8A6
:1016AC002C209A82FFF796FC05E003221A72074B56
:1016BC004FF440521A8003B0BDE8F040FFF706BE6D
:1016CC006006002088060020380200208E060020CC
:1016DC0070B50F4B1D78002312E0DCB2A20002F1B2
:1016EC00804202F5B842166844F4004440F60F718B
:1016FC0044F0800406EA010144EA0101116001335F
:10170C00AB42EAD3034B40F08000186070BD00BFC1
:10171C00200200204C5C004010B5134C23681A7A50
:10172C00022A01D0042A04D1FFF754FC23681B7A47
:10173C0014E0062A11D15A78052A0AD11A7812F027
:10174C007F0F06D1D878FFF7C3FF084B1B681B6AC5
:10175C009847074B1B689B689847082322681372AD
:10176C00BDE81040FFF7B2BD8806002084060020BB
:10177C00600600207047000008B5074A074B08496F
:10178C00136002221A72074B074A1360074A1B6840
:10179C001160984708BD00BF88060020680600202D
:1017AC00F401002090010020600600208406002037
:1017BC0073B50023ADF80630A4E01388564C03F043
:1017CC000F032370002B6DD1544C554E2368554D8F
:1017DC003380338803F030032B80338803F4405379
:1017EC00338021684BF6BF7301EA030383F4005383
:1017FC0083F0200343F4004343F0800323601388F9
:10180C0013F0100F08D1226848F60F7302EA030395
:10181C002360FFF781FF1DE02368ADF80630BDF8AB
:10182C00063013F4006F08D0226840F68F7302EA7A
:10183C0003032360FFF7D4FD0CE0BDF806301BB2A8
:10184C00002B5FDA226840F68F7302EA03032360F1
:10185C00FFF75EFD22684BF6BF7302EA0303328882
:10186C0002F4805292B20AB183F48053328802F4AB
:10187C00005292B20AB183F400532A8802F010028B
:10188C0092B20AB183F010032A8802F0200292B2BD
:10189C000AB183F02003244A43EA02021F4B92B29E
:1018AC001A6038E09B0003F1804303F5B8431A68D3
:1018BC00ADF80620BDF8062012B2002A0BDA196822
:1018CC0040F68F7201EA02021A602278174B013A35
:1018DC0053F822309847BDF8063013F0800F11D022
:1018EC00237848F60F729B0003F1804303F5B8434D
:1018FC00196801EA02021A6022780D4B013A53F87A
:10190C00223098470B4B0C4A1B68138013881BB270
:10191C00002BFFF652AF7CBD64060020005C00403B
:10192C008E060020900600208080FFFF6C010020B6
:10193C0050010020445C00405406002001F100518D
:10194C00013201F5405110B54900520808E010F879
:10195C00014C10F8023C013A43EA042321F8043C00
:10196C0002300431002AF2D110BD01F100510132D4
:10197C0001F540514900520804E051F8043B013A8A
:10198C0020F8023B002AF8D17047800000F180401B
:10199C0000F5B840026848F6BF7302EA030301F091
:1019AC00100292B20AB183F0100301F0200189B247
:1019BC0009B183F0200343F4004343F08003036038
:1019CC007047800000F1804000F5B84002684BF68B
:1019DC008F7302EA030383F4405343F4004343F050
:1019EC00800303607047800000F1804000F5B84030
:1019FC00026840F60F6302EA030343F4004343F02A
:101A0C00800303607047800000F1804000F5B8400F
:101A1C00036813F4804F09D0026840F60F7302EA92
:101A2C00030343F4404343F080030360704780009A
:101A3C0000F1804000F5B840036813F0400F09D066
:101A4C00026840F60F7302EA030343F4004343F0C9
:101A5C00C003036070470000054B1B689BB203EB8F
:101A6C00C00303F1005303F540535B001888704723
:101A7C00505C0040044B054A1B689BB203EBC0034F
:101A8C009A18520010887047505C004004300020B7
:101A9C00044B054A1B689BB203EBC0039A18520017
:101AAC0011607047505C0040023000200D4B1A68EA
:101ABC000D4B92B2D31803EBC0035B003E2909D93E
:101ACC004A0911F01F0F01D1013A92B2920242F46D
:101ADC00004205E04A0811F0010F18BF01329202D2
:101AEC001A607047505C004006300020C3B2000AF8
:101AFC0040EA032070470000044B0020044A1860A1
:101B0C004FF43F431380034A13607047445C00401A
:101B1C008C060020405C0040002103E00B4B5B581E
:101B2C00435004310A480B4B42189A42F6D30A4AE6
:101B3C0002E0002342F8043B084B9A42F9D3FEF72B
:101B4C0091FDFEF7F5FAFEF769FD70471C240008BD
:101B5C000000002024020020240200209406002013
:101B6C00FEE7B80B1400E803190032003200E8035A
:101B7C001900E8032D000000F8B500BFF8BC08BC44
:101B8C009E467047F8B500BFF8BC08BC9E4670472F
:04241400210100089A
:042418000D010008AA
:10241C006003400049006E007400650072006E009D
:10242C0061006C00200046006C00610073006800C5
:10243C00200020002F0030007800300038003000E1
:10244C00300030003000300030002F0031003200FE
:10245C002A003000300031004B0061002C003100AC
:10246C00310036002A003000300031004B0067008C
:10247C0062034000530050004900200046006C00ED
:10248C0061007300680020003A0020004D0032000B
:10249C0035005000360034002F003000780030003A
:1024AC0030003000300030003000300030002F00A1
:1024BC003100320038002A00360034004B0067002F
:1024CC000000000000000000000000000000000000
:1024DC00000009022400010100C0320904000000C0
:1024EC00FE0102040904000100FE01020509210B92
:1024FC00FF0000041A012603530054004D0069002C
:10250C00630072006F0065006C006500630074006E
:10251C0072006F006E00690063007300120100010D
:10252C0000000040830411DF0002010203011403C8
:10253C00530054004D00330032002000440046008C
:10254C0055001A03530054004D0033003200310083
:10255C00300000000000000000000000040309042B
:10256C0081170008811700088117000881170008DF
:10257C0081170008811700088117000881170008CF
:10258C0081170008811700088117000881170008BF
:10259C008117000881170008C200002024000000E9
:1025AC00C10C0008110C0008750800082D0D00085E
:1025BC0079080008F9080008D5090008050C00087E
:1025CC00F90B0008D90B00080000000040000000C7
:1025DC004C01002004000000E60000202600000052
:1025EC001E01002014000000320100201A0000001F
:1025FC00000000206000000060000020620000006D
:10260C0000280008811700085108000881170008ED
:10261C00811700088117000881170008811700082E
:10262C0081170008690800080C0100201200000046
:04263C000101010097
:0400000508001B25AF
:00000001FF
