:020000040800F2
:100000000028002039350008890C0008950C0008EC
:100010009D0C0008A50C0008AD0C000800000000B5
:10002000000000000000000000000000B50C000807
:10003000C10C000800000000CD0C0008D90C00081D
:1000400081350008813500088135000881350008B8
:1000500081350008813500088135000881350008A8
:100060008135000881350008813500088135000898
:100070008135000881350008813500088135000888
:100080008135000881350008813500088135000878
:10009000E50C00088135000881350008813500082D
:1000A0008135000881350008813500088135000858
:1000B0008135000881350008813500088135000848
:1000C0008135000881350008813500088135000838
:1000D0008135000881350008813500088135000828
:1000E00081350008813500088135000800000000D6
:1000F0000000000000000000000000000000000000
:0C01000000000000000000005FF808F1A3
:10010C0040F23023C2F200031A780AB901201870A9
:10011C00704700BF40F23020C2F2000008B50368FF
:10012C002BB140F20003C0F2000303B1984708BDA5
:10013C0070B543F6266643F62665C0F60006C0F693
:10014C000005761BB61006D0002455F8043B01348C
:10015C009847A642F9D143F62C6643F62865C0F6BB
:10016C000006C0F60005761B03F010FAB61006D098
:10017C00002455F8043B01349847A642F9D170BDD0
:10018C00034683F30888704780B487B000AF78606B
:10019C004FF000037B614FF000033B614FF00F0306
:1001AC00FB607B68DB78002B3FD02B4BDB686FEA66
:1001BC00030303F4E0634FEA13237B617B69C3F110
:1001CC0004033B617B69FA6822FA03F3FB607B68EA
:1001DC005B781A463B6902FA03F37B617B689B7878
:1001EC001A46FB6802EA03037A6942EA03037B615D
:1001FC007B694FEA03137B6118497B681B787A692A
:10020C00D2B2CB1883F80023144B7A6812784FEAD9
:10021C005212D2B27968097801F01F014FF0010037
:10022C0000FA01F143F8221011E00C4B7A681278B5
:10023C004FEA5212D2B27968097801F01F014FF0DF
:10024C00010000FA01F102F1200243F8221007F13B
:10025C001C07BD4680BC704700ED00E000E100E0EB
:10026C0080B400AF044B054A5A60034B044A5A60F1
:10027C00BD4680BC704700BF00200240230167458B
:10028C00AB89EFCD80B584B000AF78604FF004033C
:10029C00FB734FF4302000F0ADF80346FB73FB7B8F
:1002AC00042B1CD1114B114A126942F002021A6143
:1002BC000E4B7A685A610D4B0C4A126942F040029F
:1002CC001A614FF4302000F095F80346FB73074A8F
:1002DC00064B196941F6FD7301EA03031361FB7BBD
:1002EC00184607F11007BD4680BD00BF0020024034
:1002FC0080B584B000AF786039604FF00403FB73B5
:10030C004FF00003BB604FF4005000F073F803464D
:10031C00FB73FB7B042B33D11C4B1C4A126942F040
:10032C0001021A617B683A6892B21A804FF400504D
:10033C0000F060F80346FB73FB7B042B18D17B6841
:10034C0003F10203BB60BB683A684FEA124292B2F7
:10035C001A804FF4005000F04DF80346FB730B4A23
:10036C000A4B196941F6FE7301EA0303136107E0B6
:10037C00064A064B196941F6FE7301EA0303136141
:10038C00FB7B184607F11007BD4680BD00200240DC
:10039C0080B483B000AF4FF00403FB71144BDB68E7
:1003AC0003F00103DBB2002B03D04FF00103FB7110
:1003BC0016E00F4BDB6803F00403002B03D04FF067
:1003CC000203FB710CE00A4BDB6803F01003002BFB
:1003DC0003D04FF00303FB7102E04FF00403FB71F9
:1003EC00FB79184607F10C07BD4680BC704700BF6F
:1003FC000020024080B584B000AF78604FF0040359
:10040C00FB73FFF7C5FF0346FB7307E0FFF7C0FF65
:10041C000346FB737B6803F1FF337B60FB7B012B93
:10042C0002D17B68002BF1D17B68002B02D14FF0FD
:10043C000503FB73FB7B184607F11007BD4680BD17
:10044C0080B489B000AF786039604FF00003FB6175
:10045C004FF000033B614FF00003BB614FF0000312
:10046C00FB604FF000037B614FF00003BB603B6807
:10047C00DB7803F00F03FB613B68DB7803F01003C0
:10048C00002B05D03B689B78FA6942EA0303FB61B9
:10049C003B681B8803F0FF03002B51D07B681B6863
:1004AC007B614FF00003BB6144E0BB694FF001027C
:1004BC0002FA03F3FB603B681B881A46FB6802EAEE
:1004CC0003033B613A69FB689A422FD1BB694FEA3F
:1004DC008303FB60FB684FF00F0202FA03F3BB606F
:1004EC00BB686FEA03037A6902EA03037B61FB686A
:1004FC00FA6902FA03F37A6942EA03037B613B6807
:10050C00DB78282B07D1BB694FF0010202FA03F20A
:10051C007B685A610AE03B68DB78482B06D1BB69E3
:10052C004FF0010202FA03F27B681A61BB6903F116
:10053C000103BB61BB69072BB7D97B687A691A6069
:10054C003B681B88FF2B56D97B685B687B614FF03F
:10055C000003BB6149E0BB6903F108034FF00102E2
:10056C0002FA03F3FB603B681B881A46FB6802EA3D
:10057C0003033B613A69FB689A4232D1BB694FEA8B
:10058C008303FB60FB684FF00F0202FA03F3BB60BE
:10059C00BB686FEA03037A6902EA03037B61FB68B9
:1005AC00FA6902FA03F37A6942EA03037B613B6856
:1005BC00DB78282B08D1BB6903F108034FF001024B
:1005CC0002FA03F27B685A613B68DB78482B08D14E
:1005DC00BB6903F108034FF0010202FA03F27B68D6
:1005EC001A61BB6903F10103BB61BB69072BB2D96B
:1005FC007B687A695A6007F12407BD4680BC704756
:10060C0080B485B000AF78600B467B804FF0000360
:10061C00FB737B689A687B8802EA0303002B03D088
:10062C004FF00103FB7302E04FF00003FB73FB7B05
:10063C00184607F11407BD4680BC704780B483B0E0
:10064C0000AF78600B467B807A887B681A6107F173
:10065C000C07BD4680BC704780B483B000AF786097
:10066C000B467B807A887B685A6107F10C07BD4684
:10067C0080BC704780B483B000AF7860034B7A685D
:10068C001A6007F10C07BD4680BC7047D800424287
:10069C0080B483B000AF78600B46FB70FB78002B06
:1006AC0007D00B4B0A4A91697A6841EA02029A61B7
:1006BC0008E0074B064A91697A686FEA020201EA80
:1006CC0002029A6107F10C07BD4680BC704700BF5F
:1006DC000010024080B483B000AF78600B46FB7012
:1006EC00FB78002B07D00B4B0A4AD1697A6841EA98
:1006FC000202DA6108E0074B064AD1697A686FEAB0
:10070C00020201EA0202DA6107F10C07BD4680BC65
:10071C00704700BF0010024080B500AF00F0A2F897
:10072C004FF00003184680BD80B582B000AF7860F2
:10073C007B6803F07C43B3F1006F08D1074B084A88
:10074C001A60064B1B6878689847034601E04FF027
:10075C000103184607F10807BD4680BD4C06002072
:10076C008108000880B582B000AF786039607B6882
:10077C0003F07C43B3F1006F09D1084B084A1A60AF
:10078C00064B1B68786839689847034601E04FF0C0
:10079C000103184607F10807BD4680BD540600202A
:1007AC009D08000880B582B000AF786039607B6826
:1007BC0003F07C43B3F1006F09D1084B084A1A606F
:1007CC00064B1B68786839689847034601E04FF080
:1007DC000003184607F10807BD4680BD50060020EF
:1007EC002909000880B487B000AFF8600B467A6026
:1007FC00FB72FB684FEA9363DBB203F00303FB75F8
:10080C00FB7A03F00103BB757B6803F10103F87DF0
:10081C00B97D134A4FEA4000411832F81120D2B288
:10082C001A707B6803F10203F87DB97D0C4A4FEA1C
:10083C004000411832F811204FEA122292B2D2B283
:10084C001A707B6803F103034FF000021A704FF02B
:10085C000003184607F11C07BD4680BC704700BF5B
:10086C008435000880B400AF4FF000031846BD4635
:10087C0080BC704780B582B000AF78607868FFF7B5
:10088C0001FD4FF00003184607F10807BD4680BD77
:10089C0080B584B000AF786039604FF00003FB6026
:1008AC003B6803F00303002B16D03B68FB6009E0A8
:1008BC00194AFB68D3184FF0FF021A70FB6803F15A
:1008CC000103FB603A684FF6FC7302EA030303F181
:1008DC000402FB689A42EBD84FF00003FB600FE078
:1008EC000D4AFB68D3181B6878681946FFF700FDA2
:1008FC007B6803F104037B60FB6803F10403FB607A
:10090C00FA683B689A42EBD34FF00003184607F1A4
:10091C001007BD4680BD00BF4802002080B483B0E4
:10092C0000AF786039607B68184607F10C07BD464C
:10093C0080BC704780B400AFBFF34F8FBD4680BC06
:10094C00704700BF80B500AF054A054BDB6803F468
:10095C00E061044B41EA0303D360FFF7EBFFFEE7D2
:10096C0000ED00E00400FA0580B500AFFFF778FC5D
:10097C00FFF7D2FE80BD00BF80B500AF4FF0010085
:10098C00FFF778FE4FF400004FF00101FFF7A2FED5
:10099C0080BD00BF80B400AF034B4FF003021A6060
:1009AC00BD4680BC704700BF4002002080B483B0BD
:1009BC0000AF0A4B7B607B689B7A002B04D0084B02
:1009CC004FF005021A6003E0054B4FF001021A606C
:1009DC0007F10C07BD4680BC704700BF80060020A5
:1009EC004002002080B584B000AF0346FB71FB7958
:1009FC00012B1AD14FF004004FF00101FFF748FE14
:100A0C004FF48073BB814FF01003FB734FF0010365
:100A1C00BB7307F10C0314481946FFF711FD13487B
:100A2C004FF48071FFF70AFE19E04FF480733B819D
:100A3C004FF01003FB724FF00103BB7207F1080378
:100A4C0009481946FFF7FCFC08484FF48071FFF782
:100A5C0003FE4FF004004FF00001FFF719FE07F101
:100A6C001007BD4680BD00BF000C014000080140CE
:100A7C0080B582B000AF4FF008004FF00101FFF7D6
:100A8C0007FE4FF40043BB804FF00403FB714FF0A3
:100A9C000103BB7107F1040303481946FFF7D0FCAF
:100AAC0007F10807BD4680BD000C014080B500AFC2
:100ABC0004484FF40041FFF7A3FD4FF00103184623
:100ACC0080BD00BF000C014080B582B000AF4FF07C
:100ADC0014033B714FF000037B714FF00003BB71AB
:100AEC004FF00103FB7107F104031846FFF74CFBB1
:100AFC0007F10807BD4680BD80B500AFFFF722FFA8
:100B0C0080BD00BF80B584B000AF104B1B68FB608C
:100B1C000F4B1B68BB600F4B1B687B60FA687B68D4
:100B2C00D318FB60FB68002B0BD0F8680A494FF018
:100B3C00080200F015F8B86808494FF0040200F0FC
:100B4C000FF807F11007BD4680BD00BFE8F7FF1F87
:100B5C00ECF7FF1FF0F7FF1F7A0000208A0000203F
:100B6C0080B487B000AFF860B9601346FB714FF0EA
:100B7C000003FB754FF00003FB7531E0FB684FEA97
:100B8C001373092B0DD8FB7D4FEA4303BA68D318B6
:100B9C00FA684FEA1272D2B202F13002D2B21A7073
:100BAC000CE0FB7D4FEA4303BA68D318FA684FEAAE
:100BBC001272D2B202F13702D2B21A70FB684FEA4B
:100BCC000313FB60FB7D4FEA430303F10103BA6897
:100BDC00D3184FF000021A70FB7D03F10103FB7573
:100BEC00FA7DFB799A42C9D307F11C07BD4680BC3C
:100BFC00704700BF80B500AFFFF73AFFFFF756FF15
:100C0C000346002B18D0164B1A68164B02EA030346
:100C1C00B3F1005F10D1144B1A68144B1A60134BCC
:100C2C001B681A46124B1A600D4B1B681846FFF7CF
:100C3C00A7FA0F4B1B6898470E4B4FF00A021A701D
:100C4C000D4B4FF00A021A700A4B1A780A4B1A71A4
:100C5C00FFF78AFEFFF790FE02F05EF8FEE700BF9A
:100C6C00002800080000FE2F042800085C06002065
:100C7C0060060020580600206406002080B400AFF7
:100C8C00BD4680BC704700BF80B400AFFEE700BF1C
:100C9C0080B400AFFEE700BF80B400AFFEE700BF3A
:100CAC0080B400AFFEE700BF80B400AFBD4680BC8F
:100CBC00704700BF80B400AFBD4680BC704700BF1A
:100CCC0080B400AFBD4680BC704700BF80B400AF9D
:100CDC00BD4680BC704700BF80B500AF00F0C0F8C7
:100CEC0080BD00BF80B500AF154B154A126842F0AD
:100CFC0001021A60124A124B5968124B01EA0303A3
:100D0C0053600F4A0E4B1B6823F0847323F480331B
:100D1C0013600B4B0A4A126822F480221A60084BAB
:100D2C00074A526822F4FE025A60054B4FF41F0228
:100D3C009A6000F00BF8044B4FF000629A6080BD93
:100D4C00001002400000FFF800ED00E080B500AF9D
:100D5C0000F002F880BD00BF80B483B000AF4FF04C
:100D6C0000037B604FF000033B603B4B3A4A126838
:100D7C0042F480321A60384B1B6803F400333B603A
:100D8C007B6803F101037B603B68002B03D17B681C
:100D9C00B3F5A06FEFD1304B1B6803F40033002B7D
:100DAC0003D04FF001033B6002E04FF000033B60C7
:100DBC003B68012B4BD1294B284A126842F0100298
:100DCC001A60264B254A126822F003021A60234B44
:100DDC00224A126842F001021A601F4B1E4A5268E6
:100DEC005A601D4B1C4A52685A601B4B1A4A526877
:100DFC0042F480625A60184B174A526822F47C12F3
:100E0C005A60154B144A526842F488125A60124BBD
:100E1C00114A126842F080721A6000BF0E4B1B68B8
:100E2C0003F00073002BF9D00B4B0B4A526822F0E5
:100E3C0003025A60084B084A526842F002025A6098
:100E4C0000BF054B5B6803F00C03082BF9D107F1CD
:100E5C000C07BD4680BC70470010024000200240C9
:100E6C0080B500AF454B1B689AB2454B1A80444B7A
:100E7C001B889BB203F40042424B1B8802EA03031B
:100E8C00002B01D001F06AFF3D4B1B889BB203F491
:100E9C0080623C4B1B8802EA0303002B06D0374BC5
:100EAC004FF6FF321A60384B5B689847344B1B88FF
:100EBC009BB203F40052334B1B8802EA0303002B52
:100ECC0003D02E4B4DF6FF721A602D4B1B889BB234
:100EDC0003F480522B4B1B8802EA0303002B07D030
:100EEC00264B4EF6FF721A604FF0000000F040FEE9
:100EFC00234B1B889BB203F40062224B1B8802EA33
:100F0C000303002B0FD0214B1B78DBB2002B02D03C
:100F1C0000F0F4FD03E04FF0020000F029FE174B47
:100F2C004FF2FF721A60164B1B889BB203F40072CF
:100F3C00144B1B8802EA0303002B0BD00F4B4FF60C
:100F4C00FF521A60124B1B78DBB203F10103DAB2C9
:100F5C000F4B1A700A4B1B889BB203F48072094B1F
:100F6C001B8802EA0303002B07D0044B4FF6FF62E9
:100F7C001A604FF0070000F0FBFD80BD445C0040A0
:100F8C006A060020A4060020980100202C020020F4
:100F9C003102002080B582B000AF0B4B7B60FFF7B5
:100FAC00B1FD7B684FF000029A7200F079FD02F0FF
:100FBC00A3FAFFF789FD054B4FF000021A6007F109
:100FCC000807BD4680BD00BF8006002040020020FF
:100FDC0098B500AF314B4FF000029A72304B1B6842
:100FEC00304AD2795A72304B4FF000021A602F4AB5
:100FFC002E4B1B689BB223F4EC4323F070039BB283
:10100C0043F400739BB29BB21360284B1B689BB2DA
:10101C0023F4E04323F040039CB284F020039CB201
:10102C00224A234B44EA03039BB213601E4B1B68FA
:10103C009BB21A461F4BD3184FEA43034FF01002D2
:10104C001A601D4B93F82C304FF00000194602F03B
:10105C00EDF9154B1B689BB203F1005303F540539C
:10106C004FEA43034FF050021A60134B93F82C30A5
:10107C004FF00000194602F0BBF94FF0000002F0EF
:10108C00EBF84FF0000002F0BBF84FF0000001F05D
:10109C00FBFD0A4B4FF001021A6098BD8006002040
:1010AC00A006002014000020505C0040005C0040B2
:1010BC008080FFFF043000209801002040020020B7
:1010CC0080B483B000AF074B7B607B689B7A002BAE
:1010DC0003D0054B4FF005021A6007F10C07BD4613
:1010EC0080BC7047800600204002002080B400AF16
:1010FC00034B4FF004021A60BD4680BC704700BF22
:10110C004002002080B400AFBD4680BC704700BFD9
:10111C0080B582B000AF5C4B7B607B685B78032B47
:10112C0040F0AA80594B1B78042B40F09E80584B02
:10113C001B68002B64D1574B1B78002B03D1564BEB
:10114C001B68012B74D0534B1B78212B27D1524B8E
:10115C001B68052B23D14F4B5B781A464F4B1A60FB
:10116C004C4B9B784FEA03231A464C4B1B68D21806
:10117C004A4B1A60474BDB784FEA03431A46474BFE
:10118C001B68D218454B1A60424B1B794FEA03631C
:10119C001A46424B1B68D218404B1A6048E03D4B34
:1011AC001B78412B41D13C4B1B68052B3FD1394B54
:1011BC005B781A46394B1A60364B9B784FEA0323FF
:1011CC001A46364B1B68D218344B1A60314BDB78FD
:1011DC004FEA03431A46314B1B68D2182F4B1A6047
:1011EC002C4B1B794FEA03631A462C4B1B68D21805
:1011FC002A4B1A60294B1B681846FFF795FA17E023
:10120C00234B1B68012B13D9214B1A68244BD31881
:10121C004FEA8322214B1B68D3183B601E4B1B6883
:10122C0038681946FFF79EFA02E000BF00E000BFE5
:10123C00194B4FF000021A60154B4FF000021A6068
:10124C00124B4FF003021A70104B1A78154B1A718F
:10125C00144B4FF000025A70124B4FF000029A7070
:10126C00104B4FF00002DA7009E0084B1B78072B8B
:10127C0004D100F0D1FB02E000BF00E000BF07F199
:10128C000807BD4680BD00BF800600205806002020
:10129C003402002048020020380200209001002077
:1012AC00FEFF3F006406002080B584B000AF03460B
:1012BC00FB714FF00003FB60294B1B681B7803F09C
:1012CC007F03212B32D1FB79022B0AD1254B1B78C2
:1012DC00022B03D0234B1B78092B02D1224BFB6032
:1012EC0020E0FB79012B0ED11E4B1B78022B03D077
:1012FC001C4B1B78052B06D11A4B4FF003021A70AE
:10130C001A4BFB600EE0FB79052B02D1184BFB60EE
:10131C0008E0FB79032B02D1164BFB6002E04FF087
:10132C00020318E0FB68002B03D005E04FF002032A
:10133C0011E04FF002030EE0094B1B68FA689A614A
:10134C00074B1B684FF000025A82FB684FF00000FD
:10135C0098474FF00003184607F11007BD4680BDB3
:10136C00A00600205806002015160008D517000806
:10137C009D180008D518000880B483B000AF034650
:10138C00FB71694B1B681B7803F07F03212B40F02A
:10139C00C280FB79012B23D1644B1B78052B04D025
:1013AC00624B1B78022B40F0B680614B4FF0010270
:1013BC001A605E4B4FF006021A705E4B4FF0000243
:1013CC005A705C4B4FF000029A705A4B4FF000026F
:1013DC00DA70564B1A78574B1A714FF000039CE099
:1013EC00FB79022B16D1514B4FF002021A70514B64
:1013FC004FF000025A704F4B4FF000029A704D4B59
:10140C004FF00002DA70494B1A784A4B1A714FF0C0
:10141C00000382E0FB79042B3FD1444B1B780A2B51
:10142C001CD1424B4FF002021A70424B4FF000029B
:10143C001A70404B4FF000025A703E4B4FF00002B6
:10144C009A703C4B4FF00002DA70384B1A78394BDB
:10145C001A71384B4FF000025A711BE0334B4FF0AE
:10146C000A021A70334B4FF00E021A70314B4FF0C8
:10147C0000025A702F4B4FF000029A702D4B4FF018
:10148C000002DA70294B1A782A4B1A71294B4FF04B
:10149C0000025A714FF000033FE0FB79062B3AD162
:1014AC00224B1B78022B0FD0204B1B78032B0BD01D
:1014BC001E4B1B78052B07D01C4B1B78062B03D01F
:1014CC001A4B1B78092B23D1184B4FF002021A70C0
:1014DC00184B4FF000021A70164B4FF000025A7066
:1014EC00144B4FF000029A70124B4FF00002DA705E
:1014FC000E4B1A780F4B1A710E4B4FF000025A71AB
:10150C000D4B4FF000021A600C4B4FF000021A60AA
:10151C004FF0000301E04FF00203184607F10C07EF
:10152C00BD4680BC704700BFA006002058060020B6
:10153C003C02002064060020340200203802002007
:10154C0080B582B000AF0346FB80FB881846044987
:10155C0000F09EFE0346184607F10807BD4680BD05
:10156C00EC01002080B582B000AF0346FB80FB8805
:10157C001846044900F08CFE0346184607F108078C
:10158C00BD4680BDF401002080B584B000AF034699
:10159C00FB800D4B1B68DB78FB73FB7B082B02D9A4
:1015AC004FF000030AE0FB7B4FEAC302074BD31852
:1015BC00FA881046194600F06BFE0346184607F1F0
:1015CC001007BD4680BD00BFA0060020FC01002016
:1015DC0080B483B000AF02460B46FA71BB71BB7985
:1015EC00032B02D94FF0020307E0FB79022B02D93F
:1015FC004FF0020301E04FF00003184607F10C070F
:10160C00BD4680BC704700BF80B588B000AF0346B4
:10161C00FB80644BFB614FF00003BB614FF0000398
:10162C007B61FB69DB78FB74FB699B78BB74BA7CD0
:10163C005D4B1A605C4B1B684FEA03225A4B1A60D5
:10164C00FA7C594B1B68D218574B1A60FB69DB7933
:10165C00FB74FB699B79BB74FA7C544B1A60534B3B
:10166C001B684FEA0322514B1A60BA7C4F4B1B6824
:10167C00D2184E4B1A604E4B1B685B8A3B824A4B0E
:10168C001B68002B35D1494B1B68032B04D9494BE4
:10169C004FF002021A7003E0464B4FF009021A7029
:1016AC00444B1A78444B1A71434B4FF000025A705A
:1016BC00414B4FF000029A703F4B4FF00002DA7032
:1016CC003E4B4FF000021A703C4B4FF021025A7007
:1016DC003A4B4FF041029A70FB88002B07D1344BE8
:1016EC001B684FF003021A824FF0000354E0334B97
:1016FC0052E02D4B1B68012B38D92E4B4FF00902B1
:10170C001A702C4B1A782C4B1A712B4B4FF0000281
:10171C005A70294B4FF000029A70274B4FF0000281
:10172C00DA70214B1A68264BD3184FEA8322254BCB
:10173C001B68D3187B611D4B1B6878691946FFF732
:10174C0031F8B861194B1B689AB23B8AD31AFB81EA
:10175C00FB88002B06D1164B1B68FA891A824FF0B6
:10176C00000319E03B8ABA69D31815E0114B4FF00E
:10177C000F021A700F4B1A780F4B1A710E4B4FF059
:10178C0000025A700C4B4FF000029A700A4B4FF04B
:10179C000002DA704FF00003184607F12007BD462F
:1017AC0080BD00BF800600203402002038020020DB
:1017BC00A0060020580600206406002048020020E5
:1017CC00FEFF3F009001002080B487B000AF0346BD
:1017DC00FB80284B7B617B69DB78FB747B699B7896
:1017EC00BB74BA7C244B1A60234B1B684FEA032250
:1017FC00214B1A60FA7C204B1B68D2181E4B1A60C6
:10180C007B69DB79FB747B699B79BB74FA7C1B4B22
:10181C001A601A4B1B684FEA0322184B1A60BA7CE9
:10182C00164B1B68D218154B1A607B695B8A3B827E
:10183C00134B4FF003021A70114B1A78114B1A719B
:10184C000E4B1B689AB23B8AD31AFB81FB88002B88
:10185C0006D10D4B1B68FA891A824FF0000302E087
:10186C003A8A0A4BD318184607F11C07BD4680BCB0
:10187C00704700BF80060020340200203802002090
:10188C005806002064060020A00600204802002014
:10189C0080B483B000AF0346FB80FB88002B07D1DC
:1018AC00074B1B684FF001021A824FF0000300E057
:1018BC00044B184607F10C07BD4680BC704700BFAF
:1018CC00A00600205806002080B582B000AF034669
:1018DC00FB80484B1B78032B02D0062B3BD078E0C7
:1018EC00454B1B68002B21D0424B4FF004021A7061
:1018FC00404B1A78414B1A71414B1B68002B0CD191
:10190C00404B1B78412B08D13F4B1B6818464FF0BE
:10191C0000013A4AFEF766FF5BE03B4B1B6818463A
:10192C004FF00101354AFEF75DFF52E0314B4FF0AD
:10193C0005021A702F4B1A78304B1A712F4B4FF03F
:10194C0000025A702D4B4FF000029A702B4B4FF047
:10195C000002DA703DE02D4B1B68012B14D1254B96
:10196C004FF007021A70234B1A78244B1A71234B31
:10197C004FF001025A70214B4FF000029A701F4B2E
:10198C004FF00002DA7024E0204B1B68002B1DD1B5
:10199C001F4B1B6803F114031B7803F00403002B8B
:1019AC0016D0144B4FF002021A70124B1A78134BCC
:1019BC001A71124B4FF000025A70104B4FF000028C
:1019CC009A700E4B4FF00002DA7002E000BF00E09C
:1019DC0000BFFB88002B07D10E4B1B684FF0060293
:1019EC001A824FF0000300E0044B184607F1080779
:1019FC00BD4680BD58060020380200206406002039
:101A0C003402002048020020900100203C020020FB
:101A1C00F4010020A006002080B500AF1C4B4FF055
:101A2C0000021A601B4B1B6803F114031B7803F0B4
:101A3C000403002B14D0184B4FF006021A70164BEF
:101A4C001A78164B1A71154B4FF000025A70134B43
:101A5C004FF000029A70114B4FF00002DA7016E052
:101A6C000D4B4FF008021A700B4B1A780B4B1A7176
:101A7C000A4B4FF000025A70084B4FF000029A705C
:101A8C00064B4FF00002DA70FFF736F800BF80BD4E
:101A9C003C020020F40100205806002064060020BF
:101AAC0080B582B000AF4FF00100FEF79BFF4FF006
:101ABC000103FB800E4BFA881A600E4B4FF00002AC
:101ACC001A800B4B0B4A12881A600B4B4FF000021A
:101ADC001A60084B4FF4E0521A80054B054A1288E5
:101AEC001A604FF00003184607F10807BD4680BD89
:101AFC00405C0040A4060020445C004080B582B0ED
:101B0C0000AF0D4B1B68FB80FB8843F00803FB8088
:101B1C00094BFA881A60084B1B68FB80FB8843F062
:101B2C000403FB80044BFA881A60FEF733FF07F1BD
:101B3C000807BD4680BD00BF405C004080B582B048
:101B4C0000AF0A4B1B68FB80FB8823F00403FB806F
:101B5C00064BFA881A60FEF729FF044B4FF43F42FC
:101B6C001A6007F10807BD4680BD00BF405C00400D
:101B7C0080B584B000AF0346FB71FB79072B02D014
:101B8C003E4BFA791A703D4B1B78DBB2052B67D8AC
:101B9C0001A252F823F000BFBD1B0008CB1B0008AC
:101BAC00D91B0008EB1B00080F1C0008351C000893
:101BBC00FFF7C4FF314B4FF006021A7059E0FFF7E4
:101BCC00BDFF2E4B4FF004021A7052E02B4B4FF01E
:101BDC0002025A70294B4FF003021A7049E0274B4E
:101BEC005B78DBB203F1FF33DAB2244B5A70234B30
:101BFC005B78DBB2002B39D1204B4FF004021A700A
:101C0C0037E01F4B1B68FB81FB8943F01003FB8102
:101C1C001B4BFA891A60194B4FF005021A70174BBF
:101C2C004FF00A025A7024E0144B5B78DBB203F1DC
:101C3C00FF33DAB2114B5A70104B5B78DBB2002BCE
:101C4C0016D10F4B1B68FB81FB8923F01003FB8122
:101C5C000B4BFA891A60094B4FF006021A7008E018
:101C6C00064B4FF006021A7000BF02E000BF00E006
:101C7C0000BF07F11007BD4680BD00BF6C060020F9
:101C8C00405C004080B582B000AF0346FB80FB880F
:101C9C00002B07D10A4B1B684FF001021A824FF040
:101CAC00000307E0074B1B681B689847044B1B6835
:101CBC0003F10A03184607F10807BD4680BD00BFB3
:101CCC00A00600209C06002080B500AF104B1B68BE
:101CDC00DA78104B5B789A4216D80D4B1B689B78C0
:101CEC00002B11D10A4B1B689B88002B0CD1084B85
:101CFC001B68074A1268D2789A72074B1B685B689C
:101D0C0098474FF0000301E04FF00203184680BDE6
:101D1C00A0060020940100209C06002080B582B013
:101D2C0000AF0346FB80FB88002B07D10A4B1B68D6
:101D3C004FF001021A824FF0000307E0074B1B68BB
:101D4C009B689847044B1B6803F10C03184607F17A
:101D5C000807BD4680BD00BFA00600209C060020E1
:101D6C0080B582B000AF204B1B689B691F4A12687C
:101D7C0051791E4A1268D278084611469847034694
:101D8C00FB711A4B1B689B7A002B25D0FB79002B1F
:101D9C0009D1164B1B681B79002B04D1134B1B6804
:101DAC009B78002B02D04FF0020317E0FB79002B3D
:101DBC0012D10F4B1B68DB6898470C4B1B680B4A06
:101DCC0012685279DA72094B1B68084A1268D27889
:101DDC001A734FF0000301E04FF00203184607F1AD
:101DEC000807BD4680BD00BF78060020A006002075
:101DFC009C06002080B584B000AF0346FB80FB88B6
:101E0C00002B07D1494B1B684FF002021A824FF08E
:101E1C00000386E0464B4FF000021A80434B1B68D0
:101E2C001B7803F07F03002B2CD1404B1B685B7A93
:101E3C00FB73FB7B03F02003002B07D03C4B1B7880
:101E4C0043F00203DAB23A4B1A7006E0384B1B78B7
:101E5C0023F00203DAB2364B1A70FB7B03F040031B
:101E6C00002B07D0324B1B7843F00103DAB2304B16
:101E7C001A7051E02E4B1B7823F00103DAB22C4B75
:101E8C001A7049E0294B1B681B7803F07F03012B68
:101E9C0001D1274B45E0254B1B681B7803F07F03D2
:101EAC00022B36D1214B1B685B79BB73BB7B03F0D8
:101EBC000F037B73BB7B5BB2002B14DA7B7B4FEA8B
:101ECC00830303F1804303F5B8431B689BB203F013
:101EDC003003102B20D1164B1B7843F00103DAB2E0
:101EEC00134B1A7018E07B7B4FEA830303F180439A
:101EFC0003F5B8431B689BB203F44053B3F5805F02
:101F0C000AD10B4B1B7843F00103DAB2084B1A7061
:101F1C0002E04FF0000304E0064B1B681B69984776
:101F2C00034B184607F11007BD4680BDA0060020E4
:101F3C00700600209C06002090B587B000AF784B4F
:101F4C001B681B7803F07F033B613B69002B0BD1B3
:101F5C00734B1B68724A1268527A22F02002D2B27A
:101F6C005A724FF00003D5E03B69022B40F0D08051
:101F7C006B4B1B685B88002B04D1694B1B681B796E
:101F8C00002B02D04FF00203C4E0664BFB60644BA5
:101F9C001B685B79BB60BB6823F080037B607B684C
:101FAC003B605F4B1B685B79DBB25BB2002B0CDADE
:101FBC003B684FEA830303F1804303F5B8431B6886
:101FCC009BB203F030037B610BE03B684FEA830369
:101FDC0003F1804303F5B8431B689BB203F44053F1
:101FEC007B61FB681B781A467B689A4207D97B6930
:101FFC00002B04D04A4B1B689B7A002B02D14FF06C
:10200C00020387E0BB6803F08003002B19D03B6808
:10201C004FEA830303F1804303F5B8431B689BB27B
:10202C0003F03003102B6CD13B68DBB2184601F087
:10203C0071F93B68DBB218464FF0300101F0A6F89D
:10204C005FE03B684FEA830303F1804303F5B84339
:10205C001B689BB203F44053B3F5805F51D13B68CE
:10206C00002B29D13B68DAB22F4B93F82C30104659
:10207C00194601F0DBF93B684FEA830303F1804317
:10208C0003F5B8431B689BB223F4804323F0700321
:10209C009CB284F480539CB284F400539CB23B6891
:1020AC004FEA830303F1804303F5B8431F4A44EA24
:1020BC00020292B21A6024E03B68DBB2184601F0CF
:1020CC00F7F83B684FEA830303F1804303F5B84309
:1020DC001B689BB223F4804323F070039CB284F4FE
:1020EC0080539CB284F400539CB23B684FEA830348
:1020FC0003F1804303F5B8430C4A44EA020292B25E
:10210C001A600B4B1B685B6998474FF0000301E0AA
:10211C004FF00203184607F11C07BD4690BD00BFE7
:10212C00A006002094010020980100208080FFFF71
:10213C009C06002090B585B000AF454B1B685B79C1
:10214C00BB60BB6823F080037B607B683B60404BCB
:10215C001B685B79DBB25BB2002B0CDA3B684FEA95
:10216C00830303F1804303F5B8431B689BB203F070
:10217C003003FB600BE03B684FEA830303F18043C1
:10218C0003F5B8431B689BB203F44053FB60314B1F
:10219C001B781A463B689A420CD92D4B1B685B88FE
:1021AC00002B07D1FB68002B04D0294B1B689B7AB2
:1021BC00002B02D14FF0020345E0BB6803F0800313
:1021CC00002B1DD03B684FEA830303F1804303F5DA
:1021DC00B8431B689BB223F4E04323F040039CB24A
:1021EC0084F010039CB23B684FEA830303F18043F5
:1021FC0003F5B843184A44EA020292B21A601CE092
:10220C003B684FEA830303F1804303F5B8431B6833
:10221C009BB223F4804323F070039CB284F480536C
:10222C009CB23B684FEA830303F1804303F5B84348
:10223C00094A44EA020292B21A60084B1B689B6975
:10224C0098474FF00003184607F11407BD4690BDA0
:10225C00A0060020940100208080FFFF9C06002037
:10226C0080B500AF084B1B68074A1268527A42F0DF
:10227C002002D2B25A72054B1B68DB6998474FF0AB
:10228C000003184680BD00BFA00600209C0600205D
:10229C0080B485B000AF03463960FB800E4B1B68E1
:1022AC005B8AFB60FB88002B0BD10B4B1B683A68DD
:1022BC009188FA6892B28A1A92B21A824FF000038D
:1022CC0003E03B681A68FB68D318184607F114073B
:1022DC00BD4680BC704700BFA006002080B584B00E
:1022EC0000AF404B1B6803F11003BB60BB681B883D
:1022FC007B60BB689B68002B2FD07B68002B2CD09D
:10230C00BB689B88FB60FA687B689A4201D97B6842
:10231C00FB60BB689B68FA6892B2104698473860BD
:10232C00BB681A88FB689BB2D31A9AB2BB681A8036
:10233C00BB685A88FB689BB2D3189AB2BB685A80A8
:10234C004FF0000001F036F803461A46FB689BB2CA
:10235C00386811461A4600F0E3FEBB681B88002B58
:10236C000DD0214B4FF440521A804FF000004FF02B
:10237C00000101F03DF81D4B4FF030021A80BB6894
:10238C001A88BB689B889A4205D3164B1B684FF082
:10239C0003021A7221E0BB681B88002B05D0114B7D
:1023AC001B684FF005021A7217E0BB681B88002BE4
:1023BC0013D10C4B1B684FF006021A720C4B1B68A6
:1023CC009BB21A460B4BD3184FEA43034FF0000253
:1023DC001A60064B4FF030021A8007F11007BD4609
:1023EC0080BD00BFA0060020A6060020A806002085
:1023FC00505C00400230002080B586B000AF424BEC
:10240C001B6803F11003FB60FB681B88BB603E4B31
:10241C001B681B7A7B61BB68002B25D17B69042B65
:10242C0022D13A4B1B78012B16D1394B1B689BB22E
:10243C001A46384BD3184FEA43034FF000021A6088
:10244C00354B4FF030021A804FF004037B612F4B59
:10245C004FF000021A704DE04FF007037B612E4BDA
:10246C004FF010021A8045E0FB689B883B61BA680C
:10247C003B699A4202D84FF0040301E04FF002038B
:10248C007B613A69BB689A4201D9BB683B61FB68C6
:10249C009B683A6992B21046984778604FF00000FA
:1024AC0000F06AFF03461A463B699BB278681146F6
:1024BC001A4600F0EFFD3B699BB24FF00000194645
:1024CC0000F096FFFB681A883B699BB2D31A9AB24C
:1024DC00FB681A80FB685A883B699BB2D3189AB286
:1024EC00FB685A800C4B4FF030021A800B4B4FF4A8
:1024FC0040521A80044B1B687A69D2B21A7207F1E7
:10250C001807BD4680BD00BFA00600204402002075
:10251C00505C004002300020A8060020A6060020D7
:10252C0080B584B000AF4FF00203FB73634B1B68A4
:10253C005B787B60614B1B681B7803F07F03002B7F
:10254C005BD17B68092B04D1FFF7BEFB0346FB7301
:10255C007EE07B68052B1DD1584B1B68DB78DBB20A
:10256C005BB2002B0EDB554B1B689B78002B09D103
:10257C00524B1B689B88002B04D1504B1B689B7AD9
:10258C00002B03D04FF00803BB608DE04FF000032D
:10259C00FB735DE07B68032B12D1484B1B68DB7827
:1025AC00012B09D1454B1B689B88002B04D1FFF7ED
:1025BC0057FE0346FB734BE04FF00203FB7347E0FF
:1025CC007B68012B43D13D4B1B68DB78012B10D171
:1025DC003A4B1B689B88002B0BD1384B1B685B7AE2
:1025EC0003F02003002B04D0FFF7A6FC0346FB737B
:1025FC002EE04FF00203FB732AE0304B1B681B7874
:10260C0003F07F03012B07D17B680B2B20D1FFF745
:10261C00A7FB0346FB731BE0284B1B681B7803F0DE
:10262C007F03022B0FD17B68012B04D1FFF784FCB5
:10263C000346FB730CE07B68032B09D1FFF77AFD93
:10264C000346FB7304E04FF00203FB7300E000BF92
:10265C00FB7B002B0FD01A4B1B685B697A68D2B2DC
:10266C00104698470346FB73FB7B032B03D14FF0BB
:10267C000903BB6018E0FB7B002B03D04FF0080371
:10268C00BB6011E04FF00603BB600E4B1B689BB2A6
:10269C001A460D4BD3184FEA43034FF000021A6051
:1026AC000A4B4FF030021A80044B1B68BA68D2B246
:1026BC001A7207F11007BD4680BD00BFA0060020AE
:1026CC0078060020505C004002300020A806002054
:1026DC0080B58AB000AF874B1B685B78BB614FF04D
:1026EC0000037B624FF000037B61BB69062B24D196
:1026FC00804B1B681B7803F07F03002B40F0E480B9
:10270C007C4B1B689B78FB74FB7C012B04D17A4BB4
:10271C001B68DB697B62D7E0FB7C022B04D1764B18
:10272C001B681B6A7B62CFE0FB7C032B40F0CC80E8
:10273C00714B1B685B6A7B62C6E0BB69002B7DD169
:10274C006C4B1B685B88002B78D16A4B1B68DB8851
:10275C00022B73D1674B1B681B79002B6ED1654B19
:10276C001B681B7803F07F03002B07D1614B1B68A0
:10277C009B88002B02D1614B7B62A5E05D4B1B68F3
:10278C001B7803F07F03012B16D15B4B1B689B69F5
:10279C00584A1268527910464FF000019847034688
:1027AC00002B40F08680534B1B689B7A002B00F06B
:1027BC008280524B7B6287E04E4B1B681B7803F088
:1027CC007F03022B79D14B4B1B685B7903F00F0312
:1027DC00FB60484B1B685B7903F07003BB60454B97
:1027EC001B685B79DBB25BB2002B0CDAFB684FEA3F
:1027FC00830303F1804303F5B8431B689BB203F0DA
:10280C003003FB610BE0FB684FEA830303F1804369
:10281C0003F5B8431B689BB203F44053FB61384B80
:10282C001B781A46FB689A4249D9BB68002B48D1E1
:10283C00FB69002B47D0314B7B6245E0BB69082B11
:10284C0009D12C4B1B681B7803F07F03002B3BD169
:10285C002C4B7B6238E0BB690A2B35D1254B1B68AE
:10286C001B7803F07F03012B2ED1224B1B689B7A24
:10287C00002B29D01F4B1B685B88002B24D11D4BD0
:10288C001B681B79002B1FD11A4B1B68DB88012B93
:10289C001AD1194B1B689B69164A1268527910465B
:1028AC004FF0000198470346002B0DD1164B7B626D
:1028BC000AE000BF08E000BF06E000BF04E000BF74
:1028CC0002E000BF00E000BF7B6A002B1ED0094B6A
:1028DC001B687A6992B25A82064B1B687A6A9A61B3
:1028EC007B6A4FF0000098474FF0000387F82330C5
:1028FC0021E000BFA006002078060020011E000881
:10290C0094010020911C0008291D0008444B1B68F1
:10291C001B69444A1268527810469847034687F858
:10292C00233097F82330032B05D13E4B1B684FF017
:10293C0009021A726FE03B4B1B681A8A4FF6FF7341
:10294C009A4205D1374B1B684FF009021A7262E0AC
:10295C0097F82330022B04D0324B1B681B8A002BB8
:10296C0005D1304B1B684FF008021A7253E02D4B07
:10297C001B681B78DBB25BB2002B42DA294B1B685D
:10298C00DB887B60274B1B681B8A1A467B689A4244
:10299C0005D9244B1B687A6892B21A8227E0214B26
:1029AC001B681A8A1F4B1B68DB889A421FD21D4B6F
:1029BC001B681A8A1A4B1B6893F82C309A4204D263
:1029CC00194B4FF000021A7011E0164B1B681B8A52
:1029DC00134A126892F82C2093FBF2F102FB01F2DD
:1029EC009B1A002B03D1104B4FF001021A700D4BA8
:1029FC001B680B4A126892F82C209A82FFF7FCFC99
:102A0C0009E0084B1B684FF003021A72074B4FF496
:102A1C0040521A8000BF07F12807BD4680BD00BF99
:102A2C0078060020A006002044020020A606002004
:102A3C0090B583B000AF4FF00103FB80354B1B68A2
:102A4C009BB21A46344BD3184FEA43031B689BB214
:102A5C0003F1005303F540534FEA43033B602F4B04
:102A6C001B681B7A092B3ED02C4B1A683B681978D3
:102A7C00117003F101033B60284B1A683B6819780D
:102A8C00517003F101033B603A68FB884FEA430342
:102A9C00D3183B60214B1C683B681A8803F1020376
:102AAC003B60104600F00CFD034663803A68FB88DF
:102ABC004FEA4303D3183B60184B1C683B681A88D9
:102ACC0003F102033B60104600F0FAFC0346A380BE
:102ADC003A68FB884FEA4303D3183B600F4B1B68E3
:102AEC003A681288DA800D4B1B684FF001021A729B
:102AFC000A4B1B68DB88002B02D1FFF711FD01E0AC
:102B0C00FFF7E6FD00F096F80346184607F10C07B0
:102B1C00BD4690BD505C004004300020A006002053
:102B2C0080B582B000AF214B1B681B7A7B607B6841
:102B3C00022B02D07B68042B06D1FFF75DFC1B4BEC
:102B4C001B681B7A7B6023E07B68062B1DD1174B1F
:102B5C001B685B78052B10D1144B1B681B7803F09A
:102B6C007F03002B09D1114B1B68DB78184600F052
:102B7C008BF80F4B1B681B6A98470E4B1B689B68A6
:102B8C0098474FF008037B6002E04FF008037B602E
:102B9C00064B1B687A68D2B21A7200F04BF80346E7
:102BAC00184607F10807BD4680BD00BFA0060020EF
:102BBC009C0600207806002080B582B000AF1B4B2D
:102BCC001B681B7A7B607B68022B02D07B68042B12
:102BDC0003D14FF008037B601AE07B68032B02D013
:102BEC007B68052B06D1FFF779FB104B1B681B7A12
:102BFC007B600DE07B68072B07D10D4B1B68DB68F6
:102C0C0098474FF008037B6002E04FF008037B60AD
:102C1C00064B1B687A68D2B21A7200F00BF80346A6
:102C2C00184607F10807BD4680BD00BFA00600206E
:102C3C007806002080B500AF0F4B93F82C304FF086
:102C4C000000194600F0F2FB0C4B1B681B7A082B9A
:102C5C0007D10B4B4FF480521A800A4B4FF01002E5
:102C6C001A80064B1B681B7A092B14BF0023012307
:102C7C00DBB2184680BD00BF98010020A0060020E2
:102C8C00A6060020A806002080B485B000AF03463D
:102C9C00FB711C4B1B78BB604FF00003FB6022E008
:102CAC00FB68DBB24FEA830303F1804303F5B843BF
:102CBC00FA68D2B24FEA820202F1804202F5B842BF
:102CCC00126892B2114640F60F7201EA020242F407
:102CDC00004242F08002F968C9B20A431A60FB68EC
:102CEC0003F10103FB60FA68BB689A42D8D3064B28
:102CFC00FA7962F07F02D2B21A6007F11407BD466E
:102D0C0080BC7047940100204C5C004080B400AF44
:102D1C00BD4680BC704700BF80B500AF094B0A4A66
:102D2C001A60084B1B684FF002021A72074B084AD4
:102D3C001A60084B084A1A60044B1B681B689847BA
:102D4C0080BD00BFA0060020800600207806002071
:102D5C00980100209C060020C801002090B583B08B
:102D6C0000AF4FF00003FB8079E18B4B1B889BB2CB
:102D7C00DBB203F00F03DAB2884B1A70874B1B7867
:102D8C00002B40F01581864B1B689AB2854B1A803C
:102D9C00844B1B889BB203F030039AB2824B1A808F
:102DAC00804B1B889BB203F440539AB27D4B1A8024
:102DBC007B4B1B689BB24BF6BF7403EA040484F490
:102DCC00005484F02004764AA1B2784B41EA030304
:102DDC009BB21360704B1B889BB203F01003002B4B
:102DEC0042D16F4A6E4B1B689BB2194648F60F7363
:102DFC0001EA03031360FFF793FE694B1B689BB258
:102E0C004BF6BF7403EA0404664B1B889BB203F4B5
:102E1C0080539BB2002B01D084F48054614B1B88EF
:102E2C009BB203F400539BB2002B01D084F40054EA
:102E3C005D4B1B889BB203F010039BB2002B01D09F
:102E4C0084F01004584B1B889BB203F020039BB2F8
:102E5C00002B01D084F02004514AA1B2534B41EA1B
:102E6C0003039BB2136007E14D4B1B689BB2FB80C5
:102E7C00FB889BB203F40063002B42D0484A484BBA
:102E8C001B689BB2194640F68F7301EA030313606B
:102E9C00FFF7CEFD424B1B689BB24BF6BF7403EAA7
:102EAC000404404B1B889BB203F480539BB2002B51
:102EBC0001D084F480543B4B1B889BB203F4005329
:102ECC009BB2002B01D084F40054374B1B889BB26F
:102EDC0003F010039BB2002B01D084F01004324B92
:102EEC001B889BB203F020039BB2002B01D084F013
:102EFC0020042B4AA1B22D4B41EA03039BB2136071
:102F0C00BAE0FB889BB29BB21BB2002B80F2A7806D
:102F1C00234A234B1B689BB2194640F68F7301EA78
:102F2C0003031360FFF748FE1D4B1B689BB24BF667
:102F3C00BF7403EA04041B4B1B889BB203F480533D
:102F4C009BB2002B01D084F48054164B1B889BB28F
:102F5C0003F400539BB2002B01D084F40054124BA9
:102F6C001B889BB203F010039BB2002B01D084F0A2
:102F7C0010040D4B1B889BB203F020039BB2002B5B
:102F8C0001D084F02004064AA1B2084B41EA0303A5
:102F9C009BB2136070E000BF6A0600207C06002024
:102FAC00005C0040A6060020A80600208080FFFFE1
:102FBC00334B1B784FEA830303F1804303F5B8438B
:102FCC001B689BB2FB80FB889BB29BB21BB2002B95
:102FDC001FDA2B4B1B784FEA830303F1804303F575
:102FEC00B843274A12784FEA820202F1804202F576
:102FFC00B842126892B2114640F68F7201EA020290
:10300C001A601F4B1B7803F1FF321E4B53F8223012
:10301C009847FB889BB203F08003002B1FD0184B02
:10302C001B784FEA830303F1804303F5B843144A3A
:10303C0012784FEA820202F1804202F5B84212681D
:10304C0092B2114648F60F7201EA02021A600C4B5A
:10305C001B7803F1FF320C4B53F8223098470B4B83
:10306C001B689AB20A4B1A80094B1B889BB29BB205
:10307C001BB2002BFFF679AE07F10C07BD4690BDD5
:10308C007C0600207401002058010020445C0040A4
:10309C006A06002080B489B000AF786013460A46F7
:1030AC007A803B803B8803F101034FEA63037B6129
:1030BC007B8803F1005303F540534FEA4303BB6194
:1030CC007B69FB6123E07B681B783B617B6803F1C8
:1030DC0001037B607B681B784FEA03231A463B692C
:1030EC0042EA0303FB60FB689AB2BB691A80BB69B6
:1030FC0003F10203BB61BB6903F10203BB617B6893
:10310C0003F101037B60FB6903F1FF33FB61FB6996
:10311C00002BD8D107F12407BD4680BC704700BFF7
:10312C0080B487B000AF786013460A467A803B8043
:10313C003B8803F101034FEA6303FB607B8803F1D7
:10314C00005303F540534FEA43033B61FB687B613B
:10315C0014E07B683A69126892B21A807B6803F1BA
:10316C0001037B603B6903F104033B617B6803F162
:10317C0001037B607B6903F1FF337B617B69002B6F
:10318C00E7D107F11C07BD4680BC704790B482B0F4
:10319C0000AF02460B46FA71BB80FB794FEA830302
:1031AC0003F1804303F5B8431B689BB223F4E0435F
:1031BC0023F040039CB2BB8803F010039BB2002B9E
:1031CC0002D084F010039CB2BB8803F020039BB2A6
:1031DC00002B02D084F020039CB2FB794FEA8303CE
:1031EC0003F1804303F5B843044A44EA020292B265
:1031FC001A6007F10807BD4690BC70478080FFFF3E
:10320C0090B482B000AF0346FB71FB794FEA8303A5
:10321C0003F1804303F5B8431B689BB223F480434E
:10322C0023F070039CB284F480539CB284F400535A
:10323C009CB2FB794FEA830303F1804303F5B84357
:10324C00044A44EA020292B21A6007F10807BD462A
:10325C0090BC70478080FFFF80B483B000AF034602
:10326C00FB71FB794FEA830303F1804202F5B8420C
:10327C00FB794FEA830303F1804303F5B8431B68E2
:10328C009BB223F4F8734FEA03534FEA13539BB2E8
:10329C0043F07F4343F47F0343F4004343F0800344
:1032AC009BB29BB2136007F10C07BD4680BC704704
:1032BC0080B483B000AF0346FB71FB794FEA830304
:1032CC0003F1804303F5B8431B689BB203F48043BE
:1032DC00002B19D0FB794FEA830303F1804303F5EC
:1032EC00B843FA794FEA820202F1804202F5B84201
:1032FC00126892B2114640F60F7201EA020242F4D1
:10330C00404242F080021A6007F10C07BD4680BCB7
:10331C00704700BF80B483B000AF0346FB71FB79EC
:10332C004FEA830303F1804303F5B8431B689BB258
:10333C0003F04003002B19D0FB794FEA830303F110
:10334C00804303F5B843FA794FEA820202F18042D6
:10335C0002F5B842126892B2114640F60F7201EAB9
:10336C00020242F4004242F0C0021A6007F10C075C
:10337C00BD4680BC704700BF80B483B000AF03462D
:10338C00FB710B4B1B689BB21A46FB794FEAC303CC
:10339C00D31803F1005303F540534FEA43031B6862
:1033AC009BB2184607F10C07BD4680BC704700BFA6
:1033BC00505C004080B483B000AF0346FB710A4BF5
:1033CC001B689BB21A46FB794FEAC303D218074B12
:1033DC00D3184FEA43031B689BB2184607F10C073E
:1033EC00BD4680BC704700BF505C004004300020DC
:1033FC0080B483B000AF02460B46FA71BB80094B18
:10340C001B689BB21A46FB794FEAC303D218064BD2
:10341C00D3184FEA4303BA881A6007F10C07BD466C
:10342C0080BC7047505C00400230002080B485B0F6
:10343C0000AF02460B46FA71BB801F4B1B689BB258
:10344C001A46FB794FEAC303D2181C4BD3184FEA28
:10345C004303BB60BB883E2B15D9BB884FEA531383
:10346C00FB81BB8803F01F03002B03D1FB8903F105
:10347C00FF33FB81FB894FEA832343F400431A4655
:10348C00BB681A6013E0BB884FEA5303FB81BB880F
:10349C0003F00103DBB2002B03D0FB8903F1010322
:1034AC00FB81FB894FEA83231A46BB681A6007F13C
:1034BC001407BD4680BC7047505C004006300020AD
:1034CC0080B485B000AF0346FB80FB88FB73FB88A0
:1034DC004FEA13239BB29AB2FB7B4FEA03239BB2B6
:1034EC0042EA03039BB2BB81BB89184607F1140760
:1034FC00BD4680BC704700BF80B400AF084B4FF096
:10350C0000021A60074B4FF43F421A80064B054AE3
:10351C0012881A604FF000031846BD4680BC7047F5
:10352C00445C0040A4060020405C0040002103E005
:10353C000B4B5B58435004310A480B4B42189A42D0
:10354C00F6D30A4A02E0002342F8043B084B9A42A5
:10355C00F9D3FDF7C7FBFCF7EBFDFDF74BFB704711
:10356C00303E000800000020300200203002002015
:10357C00AC060020FEE70000B80B1400E8031900AD
:10358C0032003200E8031900E8032D00F8B500BF43
:10359C00F8BC08BC9E467047F8B500BFF8BC08BC28
:0435AC009E46704780
:043E2800210100086C
:043E2C000D0100087C
:103E30001201000100000040830411DF00020102B2
:103E40000301000009022400010100C0320904003E
:103E50000000FE0102040904000100FE0102050940
:103E6000210BFF0000041A01040309042603530078
:103E700054004D006900630072006F0065006C0023
:103E800065006300740072006F006E0069006300DB
:103E9000730000001403530054004D00330032003F
:103EA00020004400460055001A03530054004D0002
:103EB000330032003100300000000000000000003C
:103EC000000000006003400049006E0074006500BF
:103ED00072006E0061006C00200046006C00610002
:103EE00073006800200020002F00300078003000B0
:103EF00038003000300030003000300030002F003B
:103F0000310032002A003000300031004B006100E7
:103F10002C003100310036002A0030003000310022
:103F20004B0067006203400053005000490020002E
:103F300046006C0061007300680020003A00200019
:103F40004D00320035005000360034002F003000A4
:103F50007800300030003000300030003000300099
:103F600030002F003100320038002A0036003400C3
:103F70004B0067000000000000000000000000008F
:103F80000000000000000000192D0008192D000895
:103F9000192D0008192D0008192D0008192D0008E9
:103FA000192D0008192D0008192D0008192D0008D9
:103FB000192D0008192D0008192D0008192D0008C9
:103FC0000028000801010000A10F0008DD0F000813
:103FD000111100081D110008B51200088513000812
:103FE000DD1500084D15000871150008951500082D
:103FF0000000000040000000192D0008CD1000084E
:10400000192D0008192D0008192D0008192D000878
:10401000192D0008192D0008F910000800000020D3
:1040200012000000140000202400000038000020CE
:10403000040000003C000020260000006400002076
:1040400014000000780000201A00000094000020F6
:1040500060000000F4000020620000000100000089
:040000050800353981
:00000001FF
