:020000040800F2
:100000000004002001030008C1030008C103000828
:10001000C1030008C1030008C1030008C1030008B0
:10002000C1030008C1030008C1030008110400084F
:10003000C1030008C1030008C1030008E103000870
:10004000C1030008011E0008C10300089125000833
:10005000C1030008C1030008A11B0008D11B000850
:10006000011C0008311C0008611C0008C1160008B2
:100070001117000861170008B117000801180008DF
:1000800051180008A1180008C1030008C1030008A6
:10009000C1030008C1030008C1030008911C000847
:1000A000C103000801240008C1030008312400082E
:1000B000C1030008C1030008C103000811230008A0
:1000C000312300085123000871230008C1030008F0
:1000D000C1030008C1030008C1030008C1030008F0
:0C00E000411D0008C1030008311E00088B
:1000F000032A70B404460D4626D941EA000313F0E2
:10010000030F13D020782B78984208BF294606D0D9
:100110001EE014F8010F11F8013F984218D1012A8E
:1001200002F1FF32F5D1002070BC70470B46044647
:1001300051F8045B50F8046BAE4204D1043A044613
:10014000032A0B46F2D81D461046002ADAD1EBE707
:10015000C01AE9E7000000000000000000000000F5
:10016000032A2DE9F00109D82AB10023CC5CC4543C
:1001700001339342FAD1BDE8F00170470B46821873
:10018000014603E02478013301F8014B11F0030F1D
:100190001C46F7D113F003055DD06E42C5F1040C87
:1001A000ED009B594FEACC0C08E00434A7593B46BC
:1001B00007FA0CF748EA070741F8047B571A23FAB5
:1001C00005F8032FF1DC03E014F8013B01F8013BD3
:1001D0008A42F9D8CFE753F8404C41F8404C53F8E5
:1001E0003C4C41F83C4C53F8384C41F8384C53F8EF
:1001F000344C41F8344C53F8304C41F8304C53F8FF
:100200002C4C41F82C4C53F8284C41F8284C53F80E
:10021000244C41F8244C53F8204C41F8204C53F81E
:100220001C4C41F81C4C53F8184C41F8184C53F82E
:10023000144C41F8144C53F8104C41F8104C53F83E
:100240000C4C41F80C4C53F8084C41F8084C53F84E
:10025000044C41F8044C561A1D460C4640334031BC
:100260003F2EB8DC2B460FE053F8101C44F8101C4E
:1002700053F80C1C44F80C1C53F8081C44F8081CD8
:1002800053F8041C44F8041C161B21461D46103468
:1002900010330F2EE8DC2B4602E0246841F8044BB3
:1002A000551A1C46032D03F10403F6DC90E700BF4A
:1002B000704700BFAFF30080AFF30080AFF3008062
:1002C000FEE700BFAFF30080AFF30080AFF3008024
:1002D00084B003900291019206E0039B019A1A6098
:1002E000039B03F104030393039A029B9A42F4D302
:1002F00004B07047AFF30080AFF30080AFF300802D
:1003000072B6204C84F309884FF0020484F31488F9
:10031000BFF36F8F02F0DCF91B481C494FF05532D8
:10032000FFF7D6FF1A4817494FF05532FFF7D0FFB5
:10033000184D194C05E02B68236004F1040405F105
:100340000405164B9C42F6D3154816494FF000029F
:10035000FFF7BEFFFFF7ACFF134C03E0236898479D
:1003600004F10404114B9C42F8D305F0B1FA104C8F
:1003700003E02368984704F104040E4B9C42F8D331
:10038000FFF79EFF0008002000000020000400206E
:1003900000040020385D000800080020000800204C
:1003A0000008002008200020EC000008EC000008F5
:1003B000EC000008EC000008AFF30080AFF3008011
:1003C000FEE700BFAFF30080AFF30080AFF3008023
:1003D00072B6FEE7AFF30080AFF30080AFF30080AA
:1003E00008B500F065FA00F043F800F031FA00F0CB
:1003F0009FF900F045FA00F043F800F079FA00F0B8
:1004000047F808BDAFF30080AFF30080AFF3008082
:1004100010B582B0EFF309840194019B03F120032E
:100420000193019B83F3098800F02AF802B010BD04
:1004300008B50D4B4FF000029A600B4B0B4ADA6087
:100440004FF007004FF0100100F0EAF84FF00A00FB
:100450004FF4007100F0E4F84FF00B004FF0800112
:1004600000F0DEF808BD00BF00ED00E00000FA0576
:100470004FF0200383F31188704700BFAFF3008073
:100480004FF0000383F31188704700BFAFF3008083
:1004900010B582B0FFF7ECFF1E4B5B6803F40063FE
:1004A000002B32D0EFF309840194019BA3F12003C8
:1004B0000193019B83F30988019B4FF08072DA61FD
:1004C000154B9B69002B0BD0134B1B689A68124B82
:1004D000DB699B689A4294BF00230123DBB20AE0E8
:1004E0000D4B1B689A680C4BDB699B689A4234BFC2
:1004F00000230123DBB2002B03D0019B074A9A6142
:1005000005E0019B064A9A6101E0FFF7B9FF02B0DE
:1005100010BD00BF00ED00E0300D002031050008E7
:100520003C050008AFF30080AFF30080AFF300801C
:1005300000F05EF900F0C4FC00F072F900DF00BFCB
:1005400003460A462DE9F04FC2F80CD0D3F80CD080
:10055000BDE8F08FAFF30080AFF30080AFF3008011
:1005600008B500F05DF9FFF78BFF2846A04700F0C3
:10057000DFFD08BDAFF30080AFF30080AFF3008074
:1005800010B485B001900091019B03F003034FEA82
:10059000C30303931E4B019A4FEA92021C49019830
:1005A0004FEA900000F1C00051F8200003994FF08D
:1005B000FF0404FA01F16FEA010108400399009C6D
:1005C00004FA01F140EA010102F1C00243F82210ED
:1005D0000F4B019A4FEA5212019901F01F014FF09F
:1005E000010000FA01F102F1600243F82210084B09
:1005F000019A4FEA5212019901F01F014FF00100D8
:1006000000FA01F143F8221005B010BC704700BF9A
:1006100000E100E0AFF30080AFF30080AFF30080B3
:1006200010B485B001900091019B03F003034FEAE1
:10063000C3030393104B019A4FEA92020E490198AB
:100640004FEA900000F1060051F8200003994FF0A6
:10065000FF0404FA01F16FEA010108400399009CCC
:1006600004FA01F140EA010102F1060243F8221006
:1006700005B010BC704700BF00ED00E0AFF3008094
:1006800082B00190024BDB69024A9A61FEE700BF2B
:10069000300D002000590008AFF30080AFF3008058
:1006A00000B583B0FFF7C4FE00F0BAFA00F018FA04
:1006B00000F06EFE00F0CCFE00F06AF914484FF036
:1006C000400100F035FC0246124BDA61114BDB6948
:1006D0004FF0010283F820200E4BDB690E4ADA61ED
:1006E00000F06EF84FF0000383F3118862B6094BF7
:1006F000DB690A4A9A610A4B4FF0000200920948EE
:100700004FF0C0014FF0010200F0BAFC03B000BD91
:10071000C0080020300D0020000400200859000807
:100720008106000800080020AFF30080AFF30080CE
:1007300000B583B000F0FCF81F4B9B69002B05DD72
:100740001D4B9B6903F1FF321B4B9A611A4BDB690E
:100750005A6A02F101025A62184BDB6803F1010286
:10076000164BDA60154B1B681A46144B9A4221D07F
:10077000124B1B689A6802F1FF329A6013E0019BEA
:10078000DB680093019B4FF00002DA60019B1B685D
:100790000A4A5A60019B1A68084B1A60019B1A6941
:1007A000009B10469847054B1B680193019B9B6873
:1007B000002BE4D003B000BD300D0020200D002040
:1007C00008B5064B1B68002B03D1054B1B68002B9B
:1007D00002D0044800F024F908BD00BF0C09002035
:1007E0001009002020590008AFF30080AFF300800B
:1007F00008B5084B1B68002B03D1074B1B68002B67
:1008000002D0064800F00CF9034B4FF001021A60C9
:1008100008BD00BF0C09002010090020285900085D
:1008200008B5084B1B68002B03D1074B1B68002B36
:1008300002DC064800F0F4F8034B4FF000021A60A7
:1008400008BD00BF0C090020100900203059000825
:1008500008B5084B1B68002B03DD074B1B68002BFA
:1008600002D0064800F0DCF8034B4FF001021A609A
:1008700008BD00BF0C0900201009002038590008ED
:1008800008B5084B1B68002B03DD074B1B68002BCA
:1008900002DC064800F0C4F8034B4FF000021A6077
:1008A00008BD00BF0C0900201009002040590008B5
:1008B00008B5FFF7DDFD0A4B1B68002B03DB094B76
:1008C0001B68002B02D0084800F0AAF8044B1B68F4
:1008D00003F10102024B1A60FFF7D2FD08BD00BF11
:1008E0000C0900201009002048590008AFF30080CF
:1008F00008B5FFF7BDFD0A4B1B68002B03DD094B54
:100900001B68002B02D0084800F08AF8044B1B68D3
:1009100003F1FF32024B1A60FFF7B2FD08BD00BFC2
:100920000C0900201009002050590008AFF3008086
:1009300008B5064B1B68002B03DB054B1B68002B1F
:1009400002DC044800F06CF808BD00BF0C09002070
:100950001009002058590008AFF30080AFF3008061
:1009600008B5064B1B68002B03D1054B1B68002BF9
:1009700002DC044800F054F808BD00BF0C09002058
:100980001009002060590008AFF30080AFF3008029
:10099000034B4FF040021A60014B024A5A60704705
:1009A000140900201C090020AFF30080AFF3008081
:1009B00082B00190124B5B68124AD2681A60104BE9
:1009C0005B68114AD2695A600D4B5B68019A926A62
:1009D0009A600B4B5B68019A92F820201A73084BBF
:1009E0005B6803F11002064B5A60054B5A68074BCF
:1009F0009A4202D3024B064A5A6002B0704700BFC7
:100A000014090020200D0020300D00201C0D0020B6
:100A10001C090020AFF30080AFF30080AFF300802B
:100A200000B583B00190034B019A1A60FFF7D0FC28
:100A300003B000BD1C0D0020AFF30080AFF30080B9
:100A400082B001900091009A019B1A60009B5A6845
:100A5000019B5A60019B5B68009A01995160009A62
:100A600052681A6002B07047AFF30080AFF30080A5
:100A700084B00190019B1B680393039B1A68019B40
:100A80001A60019B1B68019A5A60039B184604B0C8
:100A9000704700BFAFF30080AFF30080AFF300807A
:100AA00082B00190019B5B68019A12681A60019BF9
:100AB0001B68019A52685A60019B184602B0704741
:100AC00084B00190019B1B680393039B1A68019BF0
:100AD0001A60039B184604B0704700BFAFF3008054
:100AE000074A074B5A60064B5A68054B1A60044B7D
:100AF0004FF0FF329A60024B4FF00002DA6070470D
:100B0000200D0020AFF30080AFF30080AFF3008032
:100B100000B587B00390029101920093FFF708FFA0
:100B2000039B002B05D0019B002B02D0029B002BC6
:100B300002D11C48FFF774FF039B009A1A61039BC4
:100B4000019ADA60184B1B68059307E0059B9B68C8
:100B5000029AD31A0293059B1B680593059B9A681A
:100B6000029B9A42F2D3039B059A1A60039B1B686F
:100B70005A68039B5A60039B5B68059A039951600E
:100B8000059A52681A60039B029A9A60059A064B6E
:100B90009A4205D0059B9A68029BD21A059B9A60DF
:100BA00007B000BD70590008200D0020AFF3008091
:100BB00000B583B00190FFF7BBFE019B002B02D173
:100BC0001348FFF72DFF019BDB68002B02D1114872
:100BD000FFF726FF019B1A680F4B9A4208D0019B32
:100BE0001B68019A12689168019A92688A189A6043
:100BF000019B5B68019A12681A60019B1B68019A4D
:100C000052685A60019B4FF00002DA6003B000BDE9
:100C10008059000890590008200D0020AFF3008093
:100C20000B4A0B4B5A600A4B5A68094B1A60084B27
:100C30004FF000029A60064B4FF014029A61044A8A
:100C4000034B5A61024B5A69014B1A61704700BF4E
:100C5000300D0020AFF30080AFF30080AFF30080D1
:100C600000B585B00190019B93F82030002B04D093
:100C7000019B93F820300E2B02D11348FFF7D0FED2
:100C8000019B4FF0000283F82020104B0393039B3D
:100C90001B680393039B9A68019B9B689A42F6D258
:100CA000019B039A1A60039B5A68019B5A60019B3F
:100CB0005B68039A01995160039A52681A60019B1C
:100CC000184605B000BD00BFB0590008300D002027
:100CD00000B585B003468DF80730FFF741FE164B8F
:100CE000DB690393039B9DF8072083F82020124BB8
:100CF0004FF014029A611048FFF7BAFE02460E4BFD
:100D0000DA610D4BDB694FF0010283F82020039874
:100D1000FFF74EFE6B46A3F12402039BDB699A4268
:100D200002D20648FFF77CFE034BDB6918460399A5
:100D3000FFF706FC05B000BD300D0020C4590008C7
:100D400000B585B00190019B0393039B93F820307D
:100D50000D2B28D801A252F823F000BFB70D0008D0
:100D6000A70D0008A70D0008950D0008A70D0008A5
:100D7000A10D0008A70D0008A70D0008A70D000889
:100D8000A70D0008A70D0008A70D0008A70D000873
:100D9000A10D0008039B9B6A9A6802F101029A6008
:100DA0000398FFF77DFE039B4FF0FF329A62039892
:100DB000FFF756FF00E000BF05B000BDAFF30080B5
:100DC00000B589B0034600918DF80730FFF7C8FDE4
:100DD000009BB3F1FF3F14D00F4BDB6903AA104611
:100DE00000990E4AFFF794FE9DF807301846FFF76A
:100DF0006FFF069B002B09D003AB1846FFF7D8FE08
:100E000004E09DF807301846FFF762FF024BDB69EC
:100E10009B6A184609B000BD300D0020410D000846
:100E200000B585B001900091FFF79AFD019B009AF3
:100E30009A62019B9A68174BDB699B689A4203D8B8
:100E40000198FFF70DFF22E0124BDB691846FFF710
:100E500007FF03900F4B4FF014029A610D4B019A5C
:100E6000DA61019B4FF0010283F820200398FFF71D
:100E70009FFD6B46A3F12402039BDB699A4202D2D9
:100E80000548FFF7CDFD01980399FFF759FB05B021
:100E900000BD00BF300D0020C4590008AFF3008032
:100EA00008B5FFF75DFD054B1B689A68034BDB69CE
:100EB0009B689A4201D900F003F808BD300D00206C
:100EC00000B583B0154B4FF014029A61134BDB69E8
:100ED00001931248FFF7CCFD0246104BDA610F4B2D
:100EE000DB694FF0010283F820200198FFF7B8FE7C
:100EF0000198FFF75DFD6B46A3F12402019BDB69BE
:100F00009A4202D20648FFF78BFD044BDB69184674
:100F10000199FFF715FB03B000BD00BF300D0020A5
:100F2000C4590008AFF30080AFF30080AFF3008036
:100F300082B001900091019B009A9A60019B4FF052
:100F4000020283F82020019B4FF0000283F8212049
:100F5000019B009A5A64019B4FF000021A64019BA6
:100F60004FF00002DA63019B4FF000025A62019BCE
:100F70004FF0010283F82220019B4FF000029A619A
:100F8000134A019B1A61124B5A69019B5A61019BDA
:100F90005B690F4A019951610D4A52691A61019BBF
:100FA00003F12C031A46019BDA62019B03F1300323
:100FB0001A46019B5A63019B5A6B019B1A63019B62
:100FC00003F14C02019BDA61019B184602B07047A5
:100FD000300D0020AFF30080AFF30080AFF300804E
:100FE00084B00390029113468DF8073007E0039B0D
:100FF0009DF807201A70039B03F101030393039AE2
:10100000029B9A42F3D304B0704700BFAFF3008055
:1010100000B587B00390029101920093039B059362
:10102000FFF786FC039B002B08D0029BAF2B05D952
:10103000019B7F2B02D8009B002B02D10E48FFF7AB
:10104000EFFC039A029BA3F12403D218059BDA60FC
:10105000059BDB68009A1A60059BDB68089A5A605A
:10106000059BDB68054A1A6205980199FFF760FF46
:101070000346184607B000BDE059000861050008A6
:1010800000B589B00590049103920293059A059BDF
:1010900003F14C03104619464FF0FF02FFF7A0FF83
:1010A000059B03F14C020599049BCB181046194689
:1010B0004FF05502FFF794FFFFF7DAF9FFF798FBBF
:1010C0000A9B009305980499039A029BFFF7A0FFDF
:1010D000079007984FF00001FFF7A2FEFFF7A0FB73
:1010E000FFF7CEF9079B184609B000BDAFF30080AB
:1010F00000B583B00190019B002B02D10848FFF797
:101100008FFCFFF7B5F9FFF773FB4FF0060001996D
:10111000FFF756FEFFF784FBFFF7B2F903B000BDFF
:10112000205A0008AFF30080AFF30080AFF30080D7
:1011300000B583B00190FFF79BF9FFF759FB0198C9
:1011400000F006F803B000BDAFF30080AFF30080FD
:1011500000B585B00190194BDB690393039B019A9D
:101160009A6209E0039B03F12C031846FFF7A8FCE1
:1011700003461846FFF774FD039BDA6A039B03F1ED
:101180002C039A42EED1039B93F8213003F0030322
:10119000002B09D1039B5B69039A12691A61039BB7
:1011A0001B69039A52695A614FF00E00FFF790FDD8
:1011B0000348FFF735FC05B000BD00BF300D00202F
:1011C000305A0008AFF30080AFF30080AFF3008027
:1011D00000B583B001900091019B002B02D0009BD1
:1011E000002B02DA0748FFF71BFC019B1A46019B04
:1011F0005A60019B5A68019B1A60019B009A9A6091
:1012000003B000BD805A0008AFF30080AFF3008048
:1012100000B585B00190FFF72BF9FFF7E9FA0198C7
:1012200000F00EF80390FFF7FBFAFFF729F9039B94
:10123000184605B000BD00BFAFF30080AFF30080DB
:1012400000B583B00190FFF78BFB019B002B02D10F
:101250001C48FFF7E5FB019B9B68002B04DB019B0F
:101260001A68019B9A420BD0019B9B68002B04DA01
:10127000019B1A68019B9A4202D11348FFF7D0FBE9
:10128000019B9B6803F1FF32019B9A60019B9B6865
:10129000002B12DA0D4BDB69019A9A620B4BDA696B
:1012A000019B10461946FFF7CBFB4FF00300FFF7F9
:1012B0000FFD064BDB699B6A01E04FF00003184607
:1012C00003B000BDB45A0008C45A0008300D002015
:1012D00000B585B00190FFF72BFB019B002B02D1DD
:1012E0001748FFF79DFB019B9B68002B04DB019BCC
:1012F0001A68019B9A420BD0019B9B68002B04DA71
:10130000019B1A68019B9A4202D10E48FFF788FBA5
:10131000019B9B6803F10102019B9A60019B9B6802
:10132000002B0BDC019B1846FFF7A2FB0390039BED
:101330004FF000029A620398FFF792FC05B000BDDF
:101340002C5B0008405B0008AFF30080AFF3008027
:1013500000B583B00190019B002B02D10848FFF734
:101360005FFB019B1A46019B5A60019B5A68019BD7
:101370001A60019B4FF000029A6003B000BD00BFED
:10138000D05B0008AFF30080AFF30080AFF30080C4
:10139000074B03F1070323F007031A46054B1A60B6
:1013A000054B23F007031A46044B1A60704700BF31
:1013B00008200020500D002000500020540D002077
:1013C00000B585B00190FFF753F8FFF711FA0198C7
:1013D00000F00EF80390FFF723FAFFF751F8039B94
:1013E000184605B000BD00BFAFF30080AFF300802A
:1013F00000B585B00190FFF79BFA019B03F107034D
:1014000023F0070301930D4B1B681A460C4B1B6816
:10141000D31A1A46019B9A4202D24FF0000309E008
:10142000074B1B680393064B1A68019BD218044BA9
:101430001A60039B184605B000BD00BF540D002084
:10144000500D0020AFF30080AFF30080AFF30080B9
:1014500008B5074B074A1A60054B4FF000029A6027
:10146000034B4FF00002DA600348FFF771FF08BD3D
:10147000580D0020C1130008680D0020AFF3008054
:1014800008B500F09DFA00F0D3F8084801F028F8FC
:1014900000F00EF800F03CF800F052F800F070F8A0
:1014A00000F006F901F01CF908BD00BFF05C00086F
:1014B00008B500F02DFB08BDAFF30080AFF300804E
:1014C00000B583B00190019B4FF001021A70019B9F
:1014D0004FF000025A60019B4FF000029A60019B9E
:1014E0004FF00002DA60019B4FF000021A61019B8D
:1014F0004FF000025A61019B03F118031846FFF7F1
:1015000027FF03B000BD00BFAFF30080AFF3008042
:1015100008B500F0A5FC08BDAFF30080AFF3008074
:1015200082B00190019B4FF001021A70019B4FF0B5
:1015300000025A6002B07047AFF30080AFF3008042
:1015400008B500F025FF08BDAFF30080AFF30080C1
:1015500000B583B00190019B4FF001021A70019B0E
:101560004FF000025A60019B03F10C031846FFF78D
:10157000EFFE03B000BD00BFAFF30080AFF300800B
:1015800008B500F09DFF08BDAFF30080AFF3008009
:1015900082B00190019B4FF001021A70019B4FF045
:1015A00000025A6002B07047AFF30080AFF30080D2
:1015B00082B00190024B5A68019B9A6002B070475A
:1015C000001000E0AFF30080AFF30080AFF30080C5
:1015D00084B00190114B5B680393019B9B68039A55
:1015E000D21A0F4B1B68D21A019B9A60019B9A6812
:1015F000019BDB689A4204D9019B9A68019BDA60DF
:1016000009E0019B9A68019B1B699A4203D2019BE6
:101610009A68019B1A6104B0704700BF001000E097
:10162000780D0020AFF30080AFF30080AFF30080AF
:1016300000B587B00A4B4FF000021A6001AB1846A4
:1016400000F016F8019B01AA10469847029B01AAD8
:1016500010469847039A024B1A6007B000BD00BFBE
:10166000780D0020AFF30080AFF30080AFF300806F
:1016700082B00190019B094A1A60019B084A5A6096
:10168000019B4FF000029A60019B4FF00002DA606C
:10169000019B4FF0FF321A6102B07047B11500088C
:1016A000D1150008AFF30080AFF30080AFF30080E6
:1016B00008B500F0BDFF08BDAFF30080AFF30080B8
:1016C00000B583B0FFF7F4F80C4B1B6803F00F0371
:1016D00001930A4B4FF00F025A60094B1B68002B15
:1016E00006D0074B1B68064A526810460199984776
:1016F000FFF7FEF8FEF7CCFE03B000BD000002408D
:10170000800D0020AFF30080AFF30080AFF30080C6
:1017100000B583B0FFF7CCF80D4B1B684FEA1313ED
:1017200003F00F0301930A4B4FF0F0025A60094B8C
:101730009B68002B06D0074B9B68064AD268104670
:1017400001999847FFF7D4F8FEF7A2FE03B000BD59
:1017500000000240800D0020AFF30080AFF3008056
:1017600000B583B0FFF7A4F80D4B1B684FEA1323B5
:1017700003F00F0301930A4B4FF470625A60094B58
:101780001B69002B06D0074B1B69064A526910469D
:1017900001999847FFF7ACF8FEF77AFE03B000BD59
:1017A00000000240800D0020AFF30080AFF3008006
:1017B00000B583B0FFF77CF80D4B1B684FEA13337D
:1017C00003F00F0301930A4B4FF470425A60094B28
:1017D0009B69002B06D0074B9B69064AD2691046CD
:1017E00001999847FFF784F8FEF752FE03B000BD59
:1017F00000000240800D0020AFF30080AFF30080B6
:1018000000B583B0FFF754F80D4B1B684FEA134344
:1018100003F00F0301930A4B4FF470225A60094BF7
:101820001B6A002B06D0074B1B6A064A526A1046F9
:1018300001999847FFF75CF8FEF72AFE03B000BD58
:1018400000000240800D0020AFF30080AFF3008065
:1018500000B583B0FFF72CF80D4B1B684FEA13530C
:1018600003F00F0301930A4B4FF470025A60094BC7
:101870009B6A002B06D0074B9B6A064AD26A104629
:1018800001999847FFF734F8FEF702FE03B000BD58
:1018900000000240800D0020AFF30080AFF3008015
:1018A00000B583B0FFF704F80D4B1B684FEA1363D4
:1018B00003F00F0301930A4B4FF070625A60094B1B
:1018C0001B6B002B06D0074B1B6B064A526B104656
:1018D00001999847FFF70CF8FEF7DAFD03B000BD59
:1018E00000000240800D0020AFF30080AFF30080C5
:1018F00082B0144B4FF000021A604FF000030193C6
:1019000016E01149019A13464FEA43039B184FEA28
:101910008303CB181B684FF000021A600B4B019A2F
:101920004FF0000143F83210019B03F101030193D2
:10193000019B062BE5DD064B4FF0FF325A6002B0EB
:10194000704700BF7C0D0020905C0008800D0020D7
:1019500000000240AFF30080AFF30080AFF30080DF
:10196000134B134A126842F480721A60114B1B6ABF
:1019700003F44073B3F5407F07D00E4B4FF4803231
:101980001A620C4B4FF000021A620A4B1B6A03F4F6
:101990000043002B0BD1074B064A126A42F44072F7
:1019A0001A62044B034A126A42F400421A627047F8
:1019B0000070004000100240AFF30080AFF30080E1
:1019C00008B51E4B1B691D4B4FF0FF321A611B4BB4
:1019D0004FF000021A61194BDB68184B4FF0FF32D1
:1019E000DA60164B4FF00002DA60154B43F67F6267
:1019F0005A60134B4FF000029A60114B4FF00702F0
:101A00001A60104B0F4AD26842F08072DA600E4BB7
:101A10000D4A126842F001021A60084B074AD26967
:101A200042F08052DA61054B044AD26942F000620A
:101A3000DA61FFF795FFFFF75BFF08BD001002407A
:101A400010E000E0F0ED00E0001000E0AFF30080F7
:101A5000294B294A126842F001021A6000BF264B46
:101A60001B6803F00203002BF9D0234B224A1268B3
:101A700002F0F9021A60204B4FF000025A6000BFDA
:101A80001D4B5B6803F00C03002BF9D11A4B1A4A6B
:101A9000126842F480321A6000BF174B1B6803F4CF
:101AA0000033002BF9D0144B134A526842F48032B1
:101AB0005A60114B104A126842F080721A6000BFDF
:101AC0000D4B1B6803F00073002BF9D00A4B0B4A37
:101AD0005A600B4B4FF010021A60074B064A5268CF
:101AE00042F002025A6000BF034B5B6803F00C0334
:101AF000082BF9D1704700BF00100240006441007C
:101B000000200240AFF30080AFF30080AFF300800D
:101B100008B51E48FFF7D4FC1C4B1D4A9A621B4BAC
:101B20001C4ADA62194B42F28A521A631A4B1A4A59
:101B3000926942F400729A61154B4FF000025A60AC
:101B4000134B4FF001029A60114B4FF009029A605B
:101B500000BF0F4B9B6803F00803002BF9D10C4B1F
:101B60004FF005029A6000BF094B9B6803F0040325
:101B7000002BF9D1064B4FF000029A60064B064A43
:101B8000926922F400729A6108BD00BFB80D00206E
:101B900000240140905C000800100240AFF3008078
:101BA00008B5FEF785FE084B4FF001025A61074B5E
:101BB0005B685B6805484FF000019847FEF798FEA8
:101BC000FEF766FC08BD00BF00040140EC0D0020DC
:101BD00008B5FEF76DFE084B4FF002025A61074B45
:101BE0005B68DB6805484FF001019847FEF780FE0F
:101BF000FEF74EFC08BD00BF00040140EC0D0020C4
:101C000008B5FEF755FE084B4FF004025A61074B2A
:101C10005B685B6905484FF002019847FEF768FE74
:101C2000FEF736FC08BD00BF00040140EC0D0020AB
:101C300008B5FEF73DFE084B4FF008025A61074B0E
:101C40005B68DB6905484FF003019847FEF750FEDB
:101C5000FEF71EFC08BD00BF00040140EC0D002093
:101C600008B5FEF725FE084B4FF010025A61074BEE
:101C70005B685B6A05484FF004019847FEF738FE41
:101C8000FEF706FC08BD00BF00040140EC0D00207B
:101C900000B583B0FEF70CFE244B5B6903F4787348
:101CA0000193224B019A5A61019B03F02003002B00
:101CB00006D01F4B5B68DB6A1D484FF00501984753
:101CC000019B03F04003002B06D0194B5B685B6B54
:101CD00017484FF006019847019B03F08003002B43
:101CE00006D0134B5B68DB6B11484FF00701984738
:101CF000019B03F48073002B06D00D4B5B685B6C7B
:101D00000B484FF008019847019B03F40073002B28
:101D100006D0074B5B68DB6C05484FF0090198471C
:101D2000FEF7E6FDFEF7B4FB03B000BD0004014082
:101D3000EC0D0020AFF30080AFF30080AFF3008024
:101D400000B583B0FEF7B4FD2A4B5B6903F47C4316
:101D50000193284B019A5A61019B03F48063002B85
:101D600006D0254B5B685B6D23484FF00A0198470E
:101D7000019B03F40063002B06D01F4B5B68DB6DF7
:101D80001D484FF00B019847019B03F48053002B33
:101D900006D0194B5B685B6E17484FF00C019847F3
:101DA000019B03F40053002B06D0134B5B68DB6EE2
:101DB00011484FF00D019847019B03F48043002B1D
:101DC00006D00D4B5B685B6F0B484FF00E019847D8
:101DD000019B03F40043002B06D0074B5B68DB6FCD
:101DE00005484FF00F019847FEF782FDFEF750FBC4
:101DF00003B000BD00040140EC0D0020AFF30080F3
:101E000008B5FEF755FD084B4FF480325A61074B79
:101E10005B68D3F8843005484FF010019847FEF70F
:101E200067FDFEF735FB08BD00040140EC0D002006
:101E300008B5FEF73DFD084B4FF480225A61074B71
:101E40005B68D3F8943005484FF012019847FEF7CD
:101E50004FFDFEF71DFB08BD00040140EC0D002006
:101E600008B50248FFF75CFB08BD00BFEC0D002081
:101E700000B587B00190019B1B6B0493049B1B8BE7
:101E80009BB20393049B9B8A9BB20593019B93F89F
:101E90003430002B40F0AE80039B4FEA0342059B99
:101EA00042EA030323F07F434E4A934212D04D4A45
:101EB000934203D84C4A934207D089E04B4A93425D
:101EC00031D04B4A934241D082E0019B1A8C049B53
:101ED0001A827DE0049B9B889BB223F400739AB224
:101EE000049B9A80019B9B6A1B68019A926A126804
:101EF000126842F001021A60049B9B889BB243F473
:101F000080539AB2049B9A80019B9B6A1B685B6812
:101F1000012B5CD8049B1B889BB223F480639AB28C
:101F2000049B1A8054E0049B9B889BB223F40073AB
:101F30009AB2049B9A80019BDB6A1B68019AD26A61
:101F40001268126842F001021A6041E0019B9B6A2C
:101F50001B685B68002B0FD0019B1B8C43F00103B7
:101F60009AB2019B1A84049B1B889BB243F4A06322
:101F70009AB2049B1A80B9E0049B9B889BB223F41D
:101F800000739AB2049B9A80049B1B889BB243F413
:101F900000739AB2049B1A80FEF76AFAFEF758FCA7
:101FA000019BDB69002B0DD0019BDB690293019B38
:101FB0004FF00002DA61029B4FF000029A62029831
:101FC000FEF74EFEFEF75CFCFEF75AFA00E000BF9B
:101FD000059B03F00A03002B00F08880049B1B8BF9
:101FE00084E000BF0200030001000300820007003C
:101FF00084000700059B03F00A03002B0FD0019B10
:102000004FF000021A64019B4FF000021A65049B16
:102010009B8A9BB20593049B1B8B9BB20393059BEE
:1020200003F08003002B16D0019B9A6C019B1B6D63
:10203000D21812781146049A118203F10102019B11
:102040001A65019B1A6C019BDB6C9A4203D3019BBE
:102050004FF000021A65059B03F04003002B17D0D8
:10206000019B9A6B019B1B6CD2180499098A89B257
:10207000C9B2117003F10102019B1A64019B1A6C31
:10208000019BDB6B9A4203D3019B4FF000021A6461
:10209000059B03F01003002B13D0049B9B8A9BB27B
:1020A0000593049B1B889BB243F001039AB2049BE7
:1020B0001A80019B5B6C002B03D0019B5B6C019829
:1020C0009847059B03F48063002B0FD0049B9B8AE9
:1020D0009BB223F480639AB2049B9A82019B5B6D4E
:1020E000002B03D0019B5B6D0198984707B000BDA2
:1020F00000B587B00190019B1B6B0493FEF7B8F904
:10210000FEF7A6FB019BDB6A1B68019AD26A126884
:10211000126822F001021A60019BDB6A5B68019A77
:10212000D26A127A4FF00F0101FA02F21A60019B93
:102130009B6A1B68019A926A1268126822F0010277
:102140001A60019B9B6A5B68019A926A127A4FF04F
:102150000F0101FA02F21A60FEF792FBFEF790F906
:102160004FF000030593049B9B8A9BB203F480739A
:10217000002B0BD0049B9B8A9BB223F480739AB2F2
:10218000049B9A82059B43F001030593049B9B8A61
:102190009BB203F40073002B0BD0049B9B8A9BB271
:1021A00023F400739AB2049B9A82059B43F00203C6
:1021B0000593019B93F83430002B23D1049B9B8A19
:1021C0009BB203F48063002B2CD0049B9B8A9BB2B0
:1021D00023F480639AB2049B9A82049B9B889BB2EF
:1021E00023F400739AB2049B9A80049B1B889BB2D1
:1021F00043F400739AB2049B1A80059B43F00403D6
:1022000005930FE0049B9B8A9BB223F480639AB2F0
:10221000049B9A82019B5B6D002B03D0019B5B6D3D
:1022200001989847049B9B8A9BB203F40063002BA0
:102230000BD0049B9B8A9BB223F400639AB2049B4D
:102240009A82059B43F008030593049B9B8A9BB2EB
:1022500003F48053002B0BD0049B9B8A9BB223F486
:1022600080539AB2049B9A82059B43F01003059316
:10227000049B9B8A9BB203F48043002B0BD0049BEE
:102280009B8A9BB223F480439AB2049B9A82059B5B
:1022900043F020030593049B9B8A9BB29BB21BB225
:1022A000002B0DDA049B9B8A9BB24FEA43434FEA13
:1022B00053439AB2049B9A82059B43F040030593D3
:1022C000059B002B1CD0019B059A9A60FEF7D0F865
:1022D000FEF7BEFA019BDB69002B0DD0019BDB6989
:1022E0000393019B4FF00002DA61039B6FF0010240
:1022F0009A620398FEF7B4FCFEF7C2FAFEF7C0F844
:1023000007B000BDAFF30080AFF30080AFF30080F3
:1023100008B5FEF7CDFA0448FFF7AAFDFEF7E8FA84
:10232000FEF7B6F808BD00BFF40D0020AFF3008043
:1023300008B5FEF7BDFA0448FFF7DAFEFEF7D8FA53
:10234000FEF7A6F808BD00BFF40D0020AFF3008033
:1023500008B5FEF7ADFA0448FFF78AFDFEF7C8FAA4
:10236000FEF796F808BD00BF4C0E0020AFF30080CA
:1023700008B5FEF79DFA0448FFF7BAFEFEF7B8FA73
:10238000FEF786F808BD00BF4C0E0020AFF30080BA
:1023900008B51048FFF7DCF80E4B4FF00002DA6189
:1023A0000C4B0D4A1A630B4B0C4A9A62094B0C4AB0
:1023B000DA620C48FFF7CCF80A4B4FF00002DA6102
:1023C000084B094A1A63074B084A9A62054B084AA8
:1023D000DA6208BDF40D002000540040D85C00080B
:1023E000CC5C00084C0E002000580040C05C000887
:1023F000B45C0008AFF30080AFF30080AFF300805F
:1024000008B5FEF755FA074B4FF6FE721A82064BD7
:102410005B689B6804489847FEF76AFAFEF738F84D
:1024200008BD00BF002C0140A40E0020AFF30080C7
:1024300000B583B0FEF73CFA1F4B1B8A9AB21E4BC5
:102440009B899BB202EA0303ADF806301A4B4FF6A4
:10245000E1721A82BDF8063003F00203002B04D0AB
:10246000164B5B681B6915489847BDF8063003F0AA
:102470000403002B04D0114B5B689B690F489847FD
:10248000BDF8063003F00803002B04D00B4B5B684B
:102490001B6A0A489847BDF8063003F01003002B6A
:1024A00004D0064B5B689B6A04489847FEF720FA05
:1024B000FDF7EEFF03B000BD002C0140A40E00208C
:1024C00008B50348FFF764F8014B024A1A6108BDDA
:1024D000A40E0020002C0140AFF30080AFF3008079
:1024E00082B00190214B214A926942F07D029A61AB
:1024F0001F4B019A1268DA601D4B019A92685A606C
:102500001B4B019A52681A601A4B019AD268DA6022
:10251000184B019A52695A60164B019A12691A6057
:10252000154B019A9269DA60134B019A126A5A604C
:10253000114B019AD2691A60104B019A526ADA6003
:102540000E4B019AD26A5A600C4B019A926A1A6039
:102550000B4B019A126BDA60094B019A926B5A602D
:10256000074B019A526B1A6002B07047001002408C
:1025700000080140000C014000100140001401401F
:1025800000180140AFF30080AFF30080AFF300808C
:1025900000B583B0FEF78CF9214B9B889BB203F00A
:1025A0000803002BF8D01E4B1B889AB21C4B9B884B
:1025B0009BB202EA0303ADF80630194B184A928821
:1025C00092B222F0070292B29A80BDF8063003F070
:1025D0000103DBB2002B05D0124B1B6811484FF0F2
:1025E00000019847BDF8063003F00203002B05D028
:1025F0000C4B1B680B484FF001019847BDF80630A3
:1026000003F00403002B05D0064B1B6805484FF070
:1026100002019847FEF76CF9FDF73AFF03B000BDE1
:1026200000280040B80E0020AFF30080AFF3008018
:1026300008B5244B9B889BB203F00803002BF8D00D
:10264000204B1B899BB24FEA03421E4B9B899BB2D6
:10265000D2184FF223439A421ED01A4B9B889BB24A
:1026600003F02003002BF8D0164B164A928892B242
:1026700042F0100292B29A80124B4FF000021A817F
:10268000104B4FF223429A810E4B0E4A928892B21F
:1026900022F0100292B29A800A4B9B889BB203F000
:1026A0002003002BF8D0074B4FF000021A80064B96
:1026B0004FF000021A604FF003004FF0F001FDF7F9
:1026C0005FFF08BD00280040B80E0020AFF3008077
:1026D00008B5FFF7BDF908BDAFF30080AFF3008088
:1026E000704700BFAFF30080AFF30080AFF300800E
:1026F00082B001900091054A009B23F0604323F0D3
:102700007F0301990B43936002B0704700ED00E036
:1027100082B00190019B184602B07047AFF3008071
:1027200082B00190019B184602B07047AFF3008061
:1027300000B589B00390029101920093039B1B683E
:102740000593029B002B07DA029B6FEA0302294BD9
:1027500053F82230079311E0059A059B5B6A1946EE
:10276000059BB3F90A309BB21BB2029800FB03F33E
:10277000CB18D3180493049B1B680793039BDB6E51
:10278000002B1AD0039B5A68039B9B69A3F1040397
:10279000D3180693039B1B6B03F40063002B03D039
:1027A000069BA3F104030693069BA3F10403039A7B
:1027B000D26E1A60069B079A1A60039B4FF00002C4
:1027C00083F854204FF0000283F855204FF00002A8
:1027D00083F856204FF0000283F85720079B039898
:1027E000009998470246019B1A60039B5B6D18464F
:1027F00009B000BD305D0008AFF30080AFF300808A
:1028000000B591B00190019B1B680C93019B1B6B61
:1028100043F48042019B1A630C9B5A690C9B1B6911
:10282000D31A0B930C9B9A690C9B5B69D31A0A937E
:1028300002AA03AB019811461A4600F019FD4FF0A9
:10284000000302934FF6FF7309934FF000030E93BA
:10285000029B002B17D0019BDA6E029B03F5967347
:102860001B689A4203D14FF001030E931AE0019BBB
:10287000DA6E029B03F598731B689A4212D14FF0EF
:1028800002030E930EE0019BDB6E4B2B03D14FF046
:1028900001030E9306E0019BDB6E4C2B02D14FF03F
:1028A00002030E93019B4FF0000283F86C204FF05F
:1028B000000283F86D204FF0000283F86E204FF085
:1028C000000283F86F204FF000030F93A6E3019BF3
:1028D0005B681A460F9BD3181B680893089A099BDC
:1028E0001A40039B9A4208DB019B1B6B23F4804236
:1028F000019B1A634FF00603AFE3029B002B22D02B
:10290000029A0899099B01EA03034FEA8303D3184B
:102910001B68002B08D1019B1B6B23F48042019B99
:102920001A634FF0060398E3019B5B681A460F9BFE
:10293000D31802990898099A00EA02024FEA820223
:102940008A1812681A600F9B03F104030F93089A08
:10295000099B02EA0303AE2B00F24E8301A252F858
:1029600023F000BF0B3000080F2E00080F2E0008C8
:10297000472E0008472E0008472E0008472E000863
:102980000B300008052E0008052E0008052E000853
:10299000052E0008052E00080F2E0008472E0008FF
:1029A000472E00080B300008052E0008052E0008F1
:1029B000052E0008052E00080B3000080B3000081B
:1029C0000B3000080B3000080B3000080B300008FB
:1029D000052E0008052E0008052E00080B30000803
:1029E0000B3000080B300008852E0008852E0008EB
:1029F000852E0008852E00080B3000080B300008DB
:102A00000B300008052E0008052E00080B300008CA
:102A10000B3000080B3000080B3000080B300008AA
:102A20000B3000080B3000080B3000080B3000089A
:102A30000B3000080B3000080B3000080B3000088A
:102A40000B3000080B3000080B3000080B3000087A
:102A50000B3000080B3000080B3000080B3000086A
:102A60000B300008052E0008052E0008052E000872
:102A7000052E0008052E00084D2F0008852E0008A1
:102A80000B3000080B3000080B300008712F0008D5
:102A9000F92F0008F92F0008FF2E0008072F000863
:102AA000C72E0008172F00080B300008052E00085D
:102AB0000B300008052E0008052E00080F2E000818
:102AC000472E0008052E0008052E0008472E000896
:102AD000052E0008852E0008852E0008852E00088A
:102AE000852E0008852E0008852E00080B30000872
:102AF0000B300008052E0008052E00080B300008DA
:102B00000B300008052E0008052E0008052E0008D1
:102B1000052E00080F2E0008472E00080F2E000873
:102B2000472E00085F2F0008212C0008212C0008E8
:102B3000212C0008212C0008212C0008212C000841
:102B4000212C0008432C0008AB2C00081F2D000886
:102B5000572D0008952D0008952D0008BF2D000861
:102B6000BF2D0008BF2D0008BF2D00080B30000846
:102B70000B3000080B3000080B3000080B30000849
:102B8000952D0008BF2D0008BF2D00080B30000850
:102B90000B3000080B3000080B3000080B30000829
:102BA0000B3000080B3000080B3000080B30000819
:102BB0000B3000080B300008EF2D0008EF2D000847
:102BC000EF2D0008EF2D0008EF2D0008EF2D000875
:102BD000EF2D00080B3000080B3000080B30000808
:102BE0000B3000080B3000080B3000080B300008D9
:102BF0000B3000080B3000080B300008952D000842
:102C0000BF2D0008952D0008BF2D00080B300008CF
:102C10000B3000080B3000080B3000080B300008A8
:102C2000019B5B681A460F9BD3181B680793079B91
:102C300003F101034FEA83031A460F9BD3180F9346
:102C4000ECE1019B5B681A460F9BD3181B68079346
:102C5000079B002B03DB079A0B9B9A4208DB019B27
:102C60001B6B23F48042019B1A634FF00403F4E1D1
:102C7000019B5A680F9B03F10403D3181B68079349
:102C8000079B002B03DB079A0B9B9A4208DB019BF7
:102C90001B6B23F48042019B1A634FF00403DCE1B9
:102CA0000F9B03F108030F93B8E1019B5B681A4681
:102CB0000F9BD3181B6807930A9BC3F10002079B65
:102CC0009A4203DC079A0A9B9A4208DD019B1B6B20
:102CD00023F48042019B1A634FF00403BDE1019B82
:102CE0005A680F9B03F10403D3181B6807930A9BD0
:102CF000C3F10002079B9A4203DC079A0A9B9A429F
:102D000008DD019B1B6B23F48042019B1A634FF08B
:102D10000403A2E10F9B03F108030F937EE1019BE3
:102D20005B681A460F9BD3181B680793079B002B01
:102D300003DB079A0B9B9A4208DB019B1B6B23F476
:102D40008042019B1A634FF0040386E10F9B03F15D
:102D500008030F9362E1019B5B681A460F9BD3182F
:102D60001B6807930A9BC3F10002079B9A4203DC8E
:102D7000079A0A9B9A4208DD019B1B6B23F4804251
:102D8000019B1A634FF0040367E10F9B03F10803F3
:102D90000F9343E1089B4FEA23430793079B002BC4
:102DA00004DB079A0B9B9A42C0F23181019B1B6B9B
:102DB00023F48042019B1A634FF004034DE1089B0A
:102DC0004FEA234307930A9BC3F10002079B9A42F1
:102DD00004DC079A0A9B9A4240F31B81019B1B6B00
:102DE00023F48042019B1A634FF0040335E1089BF2
:102DF0004FEA23430793079B4FEA83020F9BD318A5
:102E00000F930BE10F9B03F104030F9306E1019B6A
:102E10005B681A460F9BD3181B680793079B002B10
:102E200003DB079A0B9B9A4208DB019B1B6B23F485
:102E30008042019B1A634FF004030EE10F9B03F1E4
:102E400004030F93EAE0019B5B681A460F9BD318BB
:102E50001B6807930A9BC3F10002079B9A4203DC9D
:102E6000079A0A9B9A4208DD019B1B6B23F4804260
:102E7000019B1A634FF00403EFE00F9B03F104037F
:102E80000F93CBE0019B5B681A460F9BD3181A681F
:102E90000F9BD318A3F104030793079B002B04DBBC
:102EA000019B5A6F079B9A4208DA019B1B6B23F424
:102EB0008042019B1A634FF00403CEE00F9B03F1A5
:102EC00004030F93AAE0019B5B681A460F9BD3187B
:102ED0001A680F9BD318A3F104030793079B002BD9
:102EE00004DB019B5A6F079B9A4208DA019B1B6B1C
:102EF00023F48042019B1A634FF00403ADE00F9B63
:102F000003F104030F93019B5B69002B40F0838066
:102F10004FF01C03A1E0019B5B681A460F9BD3187E
:102F20001B6806930F9B03F104030F93069B4FEA64
:102F3000C3031A460F9BD31803F104030F93019B9D
:102F40005B69002B69D14FF01C0386E00F9B03F1F6
:102F500004030F930E9B43F001030E935EE00F9B5F
:102F600003F108030F930E9B43F002030E9355E009
:102F7000019B5B681A460F9BD3181B6805930F9B38
:102F800003F104030F934FF000030D9326E00D9B14
:102F90004FEAC3031A460F9BD3180493019B5B6847
:102FA0001A46049BD3181A68049BD318A3F1040390
:102FB0000793079B002B04DB019B5A6F079B9A42E8
:102FC00008DA019B1B6B23F48042019B1A634FF0CC
:102FD000040342E00D9B03F101030D930D9A059B41
:102FE0009A42D4DD059B4FEAC3031A460F9BD318C0
:102FF00003F104030F9311E0019B1B6B23F4804248
:10300000019B1A634FF0060327E000BF06E000BFF4
:1030100004E000BF02E000BF00E000BF019B5A6F68
:103020000F9B9A423FF753AC019B1B6B23F48042EA
:10303000019B1A63019B1B6B43F40042019B1A63C3
:103040000E9B03F00203002B05D0019B1B6B43F486
:103050000062019B1A634FF00003184611B000BDD7
:1030600000B589B001900091019B1B6B03F40043F4
:10307000002B02D04FF01603EAE0009B0493049B60
:103080009B889AB24FF2E0139A4202D04FF011039C
:10309000DEE0049B9B790B2B03D8049BDB790A2B86
:1030A00002D84FF01203D3E0049BB3F90A309BB26D
:1030B0001BB2082B02D04FF01103C9E0049B03F1AF
:1030C00034031846FFF72CFB009A049B5B6BD31864
:1030D00003930398FFF71CFB039B1B881F2B02D94C
:1030E0004FF01103B4E0049B9B69002B02DC4FF00E
:1030F0001103ADE0009A019B1A60049B5A69049B7E
:103100001B69D21A019B5A62049B9A69049B1B6932
:10311000D31AA3F104031A46019BDA62019B5A6A8F
:10312000019B1A62019BDA6A019B9A62019BDB6830
:10313000002B02D1019B484ADA60019B5B68002B9F
:1031400006D1019B1A68049BDB68D218019B5A6068
:10315000019B5B6F002B06D1049B1A69049BDB6803
:10316000D21A019B5A67019B9B68002B1CD0019BC4
:103170009B680693019B1B6B03F02003002B19D166
:10318000019B5B69002B15D1019B1A68049B1B698D
:10319000D218049B5969049B1B69CB1A06981146E7
:1031A0001A46FCF7DDFF05E0019B1A68049B1B69CA
:1031B000D3180693069A049B9969049B1B69CB1A42
:1031C000A3F10403D3184FF000021A60049BB3F973
:1031D00008309BB29BB203F00103002B04D101988D
:1031E000FFF70EFB07902CE0019B5B69002B02D1DF
:1031F0004FF01C0301E04FF0000307934FF0000372
:10320000059310E0019B5B69019805999847079029
:10321000079B002B03D10198FFF7F2FA0790059B5B
:1032200003F101030593079B002B0AD1049B5A6B02
:10323000049B9B6BD31A4FEAD3031A46059B9A4211
:10324000E0DC079B002B01D0079B01E04FF000035F
:10325000184609B000BD00BF31270008AFF3008059
:1032600082B001904FF00003184602B0704700BFD3
:1032700084B0039002910192029B4FF000021A6009
:10328000019B4FF0AF021A604FF00003184604B0E4
:10329000704700BFAFF30080AFF30080AFF3008052
:1032A00010B596B0039002910192039B1B6B03F43F
:1032B0000043002B03D14FF0160302F009BA039B21
:1032C000DB68002B03D14FF0090302F001BA039B26
:1032D0001B680893039B1B6B03F48053002B37D1AF
:1032E000089B9A6A089B5B6AD21A089BB3F90A305A
:1032F0009BB21BB292FBF3F30793089A089B5B6A9D
:10330000D31815934FF0000312930BE0089BB3F909
:103310000A309BB21BB2159AD3181593129B03F176
:1033200001031293129A079B9A4203DA159B1B68BA
:10333000002BEBD1129A079B9A4203DA4FF013034A
:1033400002F0C6B9039B1B6B43F48052039B1A63C4
:10335000039B9B68002B02D0039B9B6804E0039BAC
:103360001A68089B1B69D3180693039B9B6A1493E6
:10337000039B1B6A1393039B4FF0000283F85420B6
:103380004FF0000283F855204FF0000283F85620DA
:103390004FF0000283F85720019BB3F1FF3F32D179
:1033A000089BDB69002B03DA4FF0140302F090B99D
:1033B000089BDA69039B9A61089B9A6B089B5B6B7D
:1033C0009A4200F09280089BDA69039B1A67039B7C
:1033D0005B69039A126F0398114698471290129BEB
:1033E000002B02D0129B02F073B9039B4FF0000236
:1033F0001A764FF000025A764FF000029A764FF09C
:103400000002DA7671E0019B13F1020F19D1039BE0
:103410005B6E1493039B9B6E1393089B9A6B089BA4
:103420005B6B9A4261D0039B5B69039A126F0398AE
:10343000114698471290129B002B56D0129B02F017
:1034400047B9019B002B03DA4FF0140302F040B997
:10345000089B5A6A089B1B6AD21A089BB3F90A3068
:103460009BB21BB292FBF3F2019B9A4203DC4FF03A
:10347000140302F02DB9089A089B1B6A1946089B91
:10348000B3F90A309BB21BB2019800FB03F3CB18CF
:10349000D3181593159B1B681A46039B9A61089BCA
:1034A0009A6B089B5B6B9A421FD0159B1B681A4650
:1034B000039B1A67039B5B69039A126F039811467B
:1034C00098471290129B002B02D0129B02F000B979
:1034D000039B4FF000021A764FF000025A764FF02D
:1034E00000029A764FF00002DA76039B9A6A039BF9
:1034F000DB6A9A4203DD4FF0070302F0E9B8039B51
:103500001A6A039B5B6A9A4203DA4FF0080302F0DF
:10351000DFB8019B13F1020F35D0039B9B6D4FEA7F
:103520008302149BD3181493039B9B6AA3F1040397
:103530001A46039B9A62069A039B9B6AD318039AC6
:10354000926D4FEA82021A60039B4FF0000283F8EB
:1035500058204FF0000283F859204FF0000283F802
:103560005A204FF0000283F85B20039B9B6AA3F173
:1035700004031A46039B9A62069A039B9B6AD3181C
:103580004FF000021A60039B1B6A03F14002039B89
:103590009B6A9A4203DD4FF0030302F099B8039B44
:1035A000DB6D0493039B1B6E1193039BDB690F93ED
:1035B000039B5B681A46039B9B69D3180D93039B7F
:1035C0001B6A0E93039B9B6A10930D9B1B680593CC
:1035D0000D9B03F104030D93059BDBB2AE2B02F2AE
:1035E0006C8001A252F823F0A5380008A938000821
:1035F000C5380008E1380008013900082139000801
:103600004B39000875390008B3390008293A000819
:103610003B3A00084D3A0008673A0008813A000832
:103620009D3A0008BD3A0008E73A0008233B00082D
:103630009B3B0008C13B0008333C00088F3C00085E
:103640009F3C0008B53C0008CB3C0008E53C000866
:10365000FB3C0008113D0008313D0008753D0008A5
:10366000B93D0008E73D0008393E00089F3E0008CC
:10367000CD3E0008DF3E0008013F0008233F000860
:10368000313F0008413F00084F3F00086B3F0008F2
:10369000873F0008953F0008F53F000801400008FB
:1036A0000D4000081B400008294000083740000872
:1036B00047400008534000085F4000087140000880
:1036C0008340000895400008A7400008B940000862
:1036D000CB400008D7400008E3400008FB4000084A
:1036E00007410008134100082B4100082B42000845
:1036F0002F430008D14300083F4400087B440008E2
:10370000FB4400086F4500088B450008A7450008EA
:10371000BB560008BB560008BB56000817460008F9
:103720007D4600080F470008BB560008994700086F
:10373000E14700083948000849480008694800087E
:103740008D480008B7480008E54800080D49000802
:10375000354900086749000893490008B74900083F
:10376000DB490008FF490008234A0008474A0008CF
:103770006B4A0008CB4A0008D74A0008F14A000803
:103780000D4B0008174B0008214B00083F4B000869
:10379000614B0008814B0008A14B0008C74B000893
:1037A000F54B00081B4C0008494C0008FB4C000876
:1037B000474D0008994D0008EF4D00083F4E0008A6
:1037C0008F4E0008E74E0008394F00086B4F000885
:1037D000A54F0008CD4F0008F94F00080D50000814
:1037E000215000083950000851500008735000085B
:1037F00095500008A1500008AB500008B5500008D3
:10380000C7500008D9500008ED50000805510008C5
:1038100027510008335100088151000899510008D0
:10382000B7510008D3510008F55100081B52000899
:103830003B5200085B5200088552000841530008C3
:10384000A9520008F352000885530008CD53000820
:103850001554000867540008B3540008EB540008DE
:1038600023550008375500084B5500085D550008E2
:103870007155000887550008A1550008B955000882
:10388000D1550008EF5500081556000833560008BA
:103890005956000865560008715600087D56000804
:1038A0008956000801F012BF0D9B1B680C930D9BFD
:1038B00003F104030D93069A0C9BD3181B68049321
:1038C00001F004BF0D9B1B680C930D9B03F10403D7
:1038D0000D93069A0C9BD3181B68119301F0F6BE4A
:1038E0000D9B1B680C930D9B03F104030D93069A2B
:1038F0000F990C9BCB18D3181B68049301F0E6BEFC
:103900000D9B1B680C930D9B03F104030D93069A0A
:103910000F990C9BCB18D3181B68119301F0D6BEDE
:103920000D9B1B680C930D9B03F104030D93069AEA
:103930000F990C9BCB18D3181B680C93069A0C9B01
:10394000D3181B68049301F0C1BE0D9B1B680C9338
:103950000D9B03F104030D93069A0F990C9BCB1852
:10396000D3181B680C93069A0C9BD3181B681193F1
:1039700001F0ACBE049A0E9B9A4203DB049A109BA2
:103980009A4205DB049B1A46039BDB6A9A4209D3E1
:10399000039B149A9A62039B139A1A624FF00503D1
:1039A00001F096BE069A049BD3181B68049301F09D
:1039B0008DBE0D9B1B680C930D9B03F104030D93AF
:1039C000049A0E9B9A4203DB049A109B9A4205DBF1
:1039D000049B1A46039BDB6A9A4209D3039B149A01
:1039E0009A62039B139A1A624FF0050301F070BEAE
:1039F0000C9B022B0AD0042B0ED0012B00D011E01F
:103A0000049B069AD3181B7804930BE0069A049B38
:103A1000D3181B88049305E0069A049BD3181B68EF
:103A2000049300BF01F052BE0D9B1B6804930D9BD5
:103A300003F104030D9301F049BE0D9B1B68119324
:103A40000D9B03F104030D9301F040BE0D9B1B6819
:103A500004930D9B03F104030D93049A0F9BD31859
:103A6000049301F033BE0D9B1B6811930D9B03F172
:103A700004030D93119A0F9BD318119301F026BEE6
:103A80000D9B1B680C930D9B03F104030D93069A89
:103A90000C9BD318049A1A6001F018BE0D9B1B688A
:103AA0000C930D9B03F104030D93069A0F990C9B45
:103AB000CB18D318049A1A6001F008BE0D9B1B683E
:103AC0000C930D9B03F104030D93069A0F990C9B25
:103AD000CB18D3181B680C93069A0C9BD318049A26
:103AE0001A6001F0F3BD119A0E9B9A4203DB119A02
:103AF000109B9A4204DB119A039BDB6A9A4209D31A
:103B0000039B149A9A62039B139A1A624FF005035F
:103B100001F0DEBD069A119BD318049A1A6001F0D9
:103B2000D5BD0D9B1B680C930D9B03F104030D93F6
:103B3000119A0E9B9A4203DB119A109B9A4204DB66
:103B4000119A039BDB6A9A4209D3039B149A9A62E7
:103B5000039B139A1A624FF0050301F0B9BD0C9B49
:103B6000022B0BD0042B10D0012B00D013E0119BA3
:103B7000069AD318049AD2B21A700CE0069A119BD6
:103B8000D318049A92B21A8005E0069A119BD318B2
:103B9000049A1A6000BF01F099BD0D9B1B680C933D
:103BA0000D9B03F104030D930C9B032B06D80C9B78
:103BB000C3F10402049B82EA0303049301F086BD6F
:103BC0000D9B1B680C930D9B03F104030D930C9B41
:103BD000062B2CD801A252F823F000BFF93B0008B5
:103BE000013C0008093C00080F3C0008173C000895
:103BF0001D3C0008233C0008089BDB68049316E08A
:103C0000089B1B69049312E00E9B04930FE0039B37
:103C1000DB6A04930BE0109B049308E00F9B049372
:103C200005E00D9A039B5B68D31A049300BF01F073
:103C30004DBD0D9B1B680C930D9B03F104030D936D
:103C40000C9B062B21D801A252F823F0693C0008F6
:103C5000693C00086B3C0008693C0008713C0008A6
:103C6000773C00087D3C00080FE0049B0E930CE0BD
:103C7000049B109309E0049B0F9306E0039B5B6891
:103C80001A46049BD3180D9300BF01F01FBD049B7F
:103C90000C93119B04930C9B119301F017BD109B87
:103CA000A3F104031093069A109BD318049A1A6088
:103CB00001F00CBD109BA3F104031093069A109B16
:103CC000D318119A1A6001F001BD109BA3F10403EF
:103CD0001093069A109BD3180699049A8A181A60B2
:103CE00001F0F4BC069A109BD3181B680493109B38
:103CF00003F10403109301F0E9BC069A109BD3185A
:103D00001B681193109B03F10403109301F0DEBCB8
:103D10000D9B1B680C930D9B03F104030D93069AF6
:103D200010990C9BCB18D3181B68049301F0CEBCE0
:103D30000D9B1B680C930D9B03F104030D93109BCB
:103D40001193109A0C9BD31810930E9B03F1400211
:103D5000109B9A4203DD4FF0030301F0B9BC039BB3
:103D6000DA6A109B9A4203DA4FF0070301F0B0BC05
:103D700001F0ACBC0D9B1B680C930D9B03F104037D
:103D80000D930E9B11930E9A0C9BD3180E930E9BC2
:103D900003F14002109B9A4203DD4FF0030301F050
:103DA00097BC039B5A6A0E9B9A4203DD4FF00803AF
:103DB00001F08EBC01F08ABC109BA3F104031093A8
:103DC000069A109BD3180F9A1A60109B0F930E9BA4
:103DD00003F14002109B9A4203DD4FF0030301F010
:103DE00077BC01F073BC069A109BD3181B680F9325
:103DF000109B03F104031093069A109BD3181B68C1
:103E00000C93109B03F104031093039B5A6F0C9BBC
:103E10009A4209DC039B149A9A62039B139A1A62D2
:103E20004FF0050301F054BC039B5B681A460C9BE2
:103E3000D3180D9301F04ABC069A109BD3181B6847
:103E40000F93109B03F104031093069A109BD31851
:103E50001B680C93109B03F104031093039B5A6F90
:103E60000C9B9A4209DC039B149A9A62039B139A57
:103E70001A624FF0050301F02BBC039B5B681A46E6
:103E80000C9BD3180D93069A109BD3181B681A46E7
:103E9000109BD31803F10403109301F017BC109B7F
:103EA000A3F104031093069A109BD3180D99039A5B
:103EB00052688A1A02F104021A600D9B1A680D9B5F
:103EC000D318A3F104030D9301F000BC0D9B1A68F5
:103ED0000D9BD318A3F104030D9301F0F7BB049BD2
:103EE000002B07D10D9B1A680D9BD318A3F1040377
:103EF0000D9303E00D9B03F104030D9301F0E6BB6A
:103F0000049B002B07D00D9B1A680D9BD318A3F1BF
:103F100004030D9303E00D9B03F104030D9301F0E3
:103F2000D5BB049A119B02FA03F3049301F0CEBBB4
:103F3000049B1A46119B22FA03F3049301F0C6BBBB
:103F4000049A119B42FA03F3049301F0BFBB0D9B4B
:103F50001B680C930D9B03F104030D93049A0C9BB7
:103F600002FA03F3049301F0B1BB0D9B1B680C93A1
:103F70000D9B03F104030D93119A0C9B02FA03F3BA
:103F8000119301F0A3BB049B119A02FB03F304936A
:103F900001F09CBB049B002B09D1039B149A9A62ED
:103FA000039B139A1A624FF00B0301F091BB049B21
:103FB0000C93119A0C9B92FBF3F30493119B0C9AB4
:103FC00093FBF2F20C9901FB02F29B1A1193119BE5
:103FD000002B0DD0119A0C9B82EA0303002B07DA09
:103FE000049B03F1FF330493119A0C9BD318119394
:103FF00001F06CBB049A119BD318049301F066BBCB
:10400000049B119AD31A049301F060BB049A119B8C
:1040100002EA0303049301F059BB049A119B42EA9C
:104020000303049301F052BB049A119B82EA030339
:10403000049301F04BBB049B002B14BF002301230E
:10404000049301F043BB049BC3F10003049301F00C
:104050003DBB049B6FEA0303049301F037BB049A52
:10406000119B9A4214BF00230123049301F02EBB3D
:10407000049A119B9A420CBF00230123049301F080
:1040800025BB049A119B9A42ACBF002301230493E1
:1040900001F01CBB049A119B9A42CCBF0023012360
:1040A000049301F013BB049A119B9A42D4BF0023DE
:1040B0000123049301F00ABB049A119B9A42B4BFF6
:1040C00000230123049301F001BB049B03F10103CE
:1040D000049301F0FBBA119B03F10103119301F06A
:1040E000F5BA069A049BD3180699049A8A1812689E
:1040F00002F101021A6001F0E9BA049B03F1FF33F7
:10410000049301F0E3BA119B03F1FF33119301F023
:10411000DDBA069A049BD3180699049A8A18126885
:1041200002F1FF321A6001F0D1BA0D9B1B680C93AB
:104130000D9B03F104030D93049A0E9B9A4203DB3B
:10414000049A109B9A4205DB049B1A46039BDB6A88
:104150009A4209D3039B149A9A62039B139A1A6298
:104160004FF0050301F0B4BA049A0C9BD2180E9BD1
:104170009A4205DD049A0C9BD218109B9A4207DBE9
:10418000049A0C9BD3181A46039BDB6A9A4209D9FE
:10419000039B149A9A62039B139A1A624FF00503C9
:1041A00001F096BA119A0E9B9A4203DB119A109B6A
:1041B0009A4204DB119A039BDB6A9A4209D3039B60
:1041C000149A9A62039B139A1A624FF0050301F046
:1041D0007FBA119A0C9BD2180E9B9A4205DD119A58
:1041E0000C9BD218109B9A4207DB119A0C9BD31898
:1041F0001A46039BDB6A9A4209D9039B149A9A6276
:10420000039B139A1A624FF0050301F061BA119BE8
:10421000069AD118049B069AD2180C9B08461146A0
:104220001A46FBF79DFF01F051BA0D9B1B680C93DA
:104230000D9B03F104030D93049A0E9B9A4203DB3A
:10424000049A109B9A4205DB049B1A46039BDB6A87
:104250009A4209D3039B149A9A62039B139A1A6297
:104260004FF0050301F034BA049A0C9BD2180E9B50
:104270009A4205DD049A0C9BD218109B9A4207DBE8
:10428000049A0C9BD3181A46039BDB6A9A4209D9FD
:10429000039B149A9A62039B139A1A624FF00503C8
:1042A00001F016BA119A0E9B9A4203DB119A109BE9
:1042B0009A4204DB119A039BDB6A9A4209D3039B5F
:1042C000149A9A62039B139A1A624FF0050301F045
:1042D000FFB9119A0C9BD2180E9B9A4205DD119AD8
:1042E0000C9BD218109B9A4207DB119A0C9BD31897
:1042F0001A46039BDB6A9A4209D9039B149A9A6275
:10430000039B139A1A624FF0050301F0E1B9119B68
:10431000069AD118049B069AD2180C9B084611469F
:104320001A46FBF7E5FE0346049301F0CFB90D9B57
:104330001B680C930D9B03F104030D93119A0E9BC4
:104340009A4203DB119A109B9A4204DB119A039B59
:10435000DB6A9A4209D3039B149A9A62039B139ACD
:104360001A624FF0050301F0B3B9119A0C9BD218F1
:104370000E9B9A4205DD119A0C9BD218109B9A4213
:1043800007DB119A0C9BD3181A46039BDB6A9A42EF
:1043900009D9039B149A9A62039B139A1A624FF0ED
:1043A000050301F095B9119B12930CE0069A129B3C
:1043B000D318049A1A60129B03F1040312930C9B06
:1043C000A3F104030C930C9B032BEFD801F07EB9EF
:1043D0000D9B1B680C930D9B03F104030D93029B33
:1043E000002B02D0049A029B1A60039B0F9ADA6199
:1043F000049A039BDA65039B119A1A660D9A039B34
:104400005B68D21A039B9A610C9B0C2B0ED1039B09
:10441000109A9A62039B0E9A1A62039B149A5A6628
:10442000039B139A9A660C9B01F052B9039B149A52
:104430009A62039B139A1A620C9B01F049B90D9B77
:104440001B680C930D9B03F104030D93049B1A4608
:104450000C9B9A420FD90D9A039B5B68D21A039B5F
:104460009A61039B149A9A62039B139A1A624FF003
:10447000040301F02DB901F029B90D9B1B680C93C1
:104480000D9B03F104030D930D9A039B5B68D21AF5
:10449000039B9A61039B0E9A1A62039B0F9ADA613F
:1044A000039B109A9A62039BDC68069A109BD318B0
:1044B00004AA03980C99A0471290129B002B1AD0C3
:1044C000129B0C2B0ED1049A039BDA65039B119A65
:1044D0001A66039B149A5A66039B139A9A66129B58
:1044E00001F0F6B8039B149A9A62039B139A1A621E
:1044F000129B01F0EDB801F0E9B80D9B1A680D9B15
:10450000D3180A930A9B03F104031A460A9B03F18A
:1045100004031B68D318A3F104030D930A9B1B68C3
:1045200012930A9B03F108030A9307E0129B03F11D
:10453000FF3312930A9B03F108030A93129B002B8B
:1045400004DD0A9B1A68049B9A42EFD1129B002B50
:104550000BDD0A9B03F104031A460A9B03F10403D3
:104560001B68D318A3F104030D9301F0AFB8069AAA
:10457000109BD3181B680C93069A109BD318049AAF
:104580001A600C9B049301F0A1B8069A109BD318F3
:104590001B680C93069A109BD318119A1A600C9BF7
:1045A000119301F093B8039B1B69002B31D0039B3F
:1045B0000F9ADA61039B109A9A62039B0E9A1A6211
:1045C0000D9A039B5B68D21A039B9A61039B1B693C
:1045D000039898471290129B002B1AD0129B0C2B19
:1045E0000ED1049A039BDA65039B119A1A66039B0A
:1045F000149A5A66039B139A9A66129B01F068B844
:10460000039B149A9A62039B139A1A62129B01F0FD
:104610005FB801F05BB80D9A039B5B68D31A03F196
:1046200004030C93109BA3F104031093069A109BB0
:10463000D3180C9A4FEA0241039A126F41EA020220
:104640001A600D9B1A68039B1A67039B5B69039AA8
:10465000126F0398114698471290129B002B08D0B6
:10466000039B149A9A62039B139A1A62129B01F09D
:104670002FB8039B5B680D9301F028B8069A109B36
:10468000D3181B680F93109B03F104031093069A31
:10469000109BD3181B680C93109B03F10403109319
:1046A0000C9B4FEA03434FEA1343039A13670C9B97
:1046B0004FEA13430C93069A109BD3181B681A46B3
:1046C000109BD31803F104031093039B5B69039AB7
:1046D000126F0398114698471290129B002B04D139
:1046E000039B5A6F0C9B9A4209DC039B149A9A62B3
:1046F000039B139A1A624FF0050300F0E9BF039B76
:104700005B681A460C9BD3180D9300F0DFBF0D9B1E
:104710001A680D9BD3180993099B03F104031A68C7
:10472000039B1A67099B1B681293099B03F10803FB
:10473000099307E0129B03F1FF331293099B03F1E6
:1047400008030993129B002B04DD099B1A68049B44
:104750009A42EFD1129B002B05DD099B03F1040364
:104760001A68039B1A67039B5B69039A126F03988D
:10477000114698471290129B002B08D0039B149A65
:104780009A62039B139A1A62129B00F0A1BF039BCB
:104790005B680D9300F09ABF049B4FEA8302119B64
:1047A000D3180C930C9A0E9B9A4203DB0C9A109B25
:1047B0009A4204DB0C9A039BDB6A9A4209D3039B5F
:1047C000149A9A62039B139A1A624FF0050300F041
:1047D0007FBF069A0C9BD3181B68049300F076BF2A
:1047E0000D9B1B680C930D9B03F104030D93049A1E
:1047F0000C9B02FA03F2119BD3180C930C9A0E9B9C
:104800009A4203DB0C9A109B9A4204DB0C9A039B9E
:10481000DB6A9A4209D3039B149A9A62039B139A08
:104820001A624FF0050300F053BF069A0C9BD31891
:104830001B68049300F04ABF049B4FEA8302119B5C
:10484000D318049300F042BF0D9B1B680C930D9B83
:1048500003F104030D93049A0C9B02FA03F2119BDB
:10486000D318049300F032BF0D9B1B680C930D9B73
:1048700003F104030D93109BA3F104031093069A14
:10488000109BD3180C9A1A6000F020BF0D9B1B6878
:104890000C930D9B03F104030D93109BA3F10403F0
:1048A0001093069A109BD31806990C9A8A181268CE
:1048B0001A6000F00BBF0D9B1B680C930D9B03F15E
:1048C00004030D93109BA3F104031093069A109B0D
:1048D000D31806990F980C9A82188A1812681A60D1
:1048E00000F0F4BE0D9B1B680C930D9B03F10403B9
:1048F0000D93109BA3F104031093069A109BD318F9
:104900000F990C9A8A181A6000F0E0BE0D9B1B6884
:104910000C930D9B03F104030D93109BA3F104036F
:104920001093069A109BD31806990C9A8A181A604D
:1049300000F0CCBE0D9B1B680C930D9B03F1040390
:104940000D93109BA3F104031093069A109BD318A8
:1049500006990F980C9A82188A181168069A8A1874
:104960001A6000F0B3BE0D9B1B680C930D9B03F106
:1049700004030D93109BA3F104031093069A109B5C
:10498000D31806990F9A89180C9A8A181A6000F0A1
:104990009DBE049A119B9A4207D10D9B1A680D9BEC
:1049A000D318A3F104030D9303E00D9B03F104035B
:1049B0000D9300F08BBE049A119B9A4207D00D9B79
:1049C0001A680D9BD318A3F104030D9303E00D9B0C
:1049D00003F104030D9300F079BE049A119B9A42EF
:1049E00007DA0D9B1A680D9BD318A3F104030D93EE
:1049F00003E00D9B03F104030D9300F067BE049ADE
:104A0000119B9A4207DC0D9B1A680D9BD318A3F1EA
:104A100004030D9303E00D9B03F104030D9300F0D9
:104A200055BE049A119B9A4207DD0D9B1A680D9B97
:104A3000D318A3F104030D9303E00D9B03F10403CA
:104A40000D9300F043BE049A119B9A4207DB0D9B25
:104A50001A680D9BD318A3F104030D9303E00D9B7B
:104A600003F104030D9300F031BE119B002B09D11B
:104A7000039B149A9A62039B139A1A624FF00B03DA
:104A800000F026BE119B0C93049A0C9B92FBF3F34F
:104A90000493049B0C9A93FBF2F20C9901FB02F233
:104AA0009B1A1193119B002B0DD0119A0C9B82EA3B
:104AB0000303002B07DA049B03F1FF330493119ADD
:104AC0000C9BD318119300F001BE049A119BD31ACA
:104AD000049300F0FBBD0D9B1B680C930D9B03F131
:104AE00004030D93049A0C9BD318049300F0EEBDBD
:104AF0000D9B1B680C930D9B03F104030D93049B0A
:104B00000C9A02FB03F3049300F0E0BD4FF00003A6
:104B1000049300F0DBBD4FF00003119300F0D6BD0D
:104B20000D9B1B680C930D9B03F104030D93069AD8
:104B30000C9BD3184FF000021A6000F0C7BD0D9B0C
:104B40001B680C930D9B03F104030D93069A0F99B8
:104B50000C9BCB18D3184FF000021A6000F0B6BDC2
:104B60000D9B1B680C930D9B03F104030D93049A9A
:104B70000C9B9A4214BF00230123049300F0A6BDAE
:104B80000D9B1B680C930D9B03F104030D93119A6D
:104B90000C9B9A4214BF00230123049300F096BD9E
:104BA0000D9B1B680C930D9B03F104030D93069A58
:104BB0000C9BD31806990C9A8A18126802F101020C
:104BC0001A6000F083BD0D9B1B680C930D9B03F1D5
:104BD00004030D93069A0F990C9BCB18D3180699D2
:104BE0000F980C9A82188A18126802F101021A6052
:104BF00000F06CBD0D9B1B680C930D9B03F104032F
:104C00000D93069A0C9BD31806990C9A8A18126871
:104C100002F1FF321A6000F059BD0D9B1B680C9326
:104C20000D9B03F104030D93069A0F990C9BCB186F
:104C3000D31806990F980C9A82188A18126802F1F4
:104C4000FF321A6000F042BD0D9B1B680C930D9B58
:104C500003F104030D930D9B1B680B930D9B03F154
:104C600004030D93109BA3F104031093069A109B69
:104C7000D3180B9A1A600D9A039B5B68D21A039B98
:104C80009A61039B0E9A1A62039B0F9ADA61039B47
:104C9000109A9A62039BDC68069A109BD31804AAA8
:104CA00003980C99A04712900B9B03F10403109AF0
:104CB000D3181093129B002B1DD0129B0C2B11D1DB
:104CC000049A039BDA65039B119A1A66039B109A58
:104CD0009A62039B149A5A66039B139A9A66129BD4
:104CE00000F0F6BC039B149A9A62039B139A1A6213
:104CF000129B00F0EDBC00F0E9BC0D9B1B680B9310
:104D00000D9B03F104030D930FE00D9B1B680C93A7
:104D10000D9B03F104030D93109BA3F10403109367
:104D2000069A109BD3180C9A1A600B9B002B0CBF91
:104D300000230123DBB20B9A02F1FF320B92002B0E
:104D4000E3D100F0C3BC0D9B1B680B930D9B03F1DB
:104D500004030D9312E00D9B1B680C930D9B03F154
:104D600004030D93109BA3F104031093069A109B68
:104D7000D31806990C9A8A1812681A600B9B002B9C
:104D80000CBF00230123DBB20B9A02F1FF320B921E
:104D9000002BE0D100F09ABC0D9B1B680B930D9B80
:104DA00003F104030D9314E00D9B1B680C930D9B02
:104DB00003F104030D93109BA3F104031093069ACF
:104DC000109BD31806990F980C9A82188A181268AB
:104DD0001A600B9B002B0CBF00230123DBB20B9A44
:104DE00002F1FF320B92002BDED100F06FBC0D9B65
:104DF0001B680B930D9B03F104030D9311E00D9BB6
:104E00001B680C930D9B03F104030D93109BA3F1FE
:104E100004031093069A109BD3180F990C9A8A18C2
:104E20001A600B9B002B0CBF00230123DBB20B9AF3
:104E300002F1FF320B92002BE1D100F047BC0D9B39
:104E40001B680B930D9B03F104030D9311E00D9B65
:104E50001B680C930D9B03F104030D93109BA3F1AE
:104E600004031093069A109BD31806990C9A8A187B
:104E70001A600B9B002B0CBF00230123DBB20B9AA3
:104E800002F1FF320B92002BE1D100F01FBC0D9B11
:104E90001B680B930D9B03F104030D9316E00D9B10
:104EA0001B680C930D9B03F104030D93109BA3F15E
:104EB00004031093069A109BD31806990F980C9A26
:104EC00082188A181168069A8A181A600B9B002BA0
:104ED0000CBF00230123DBB20B9A02F1FF320B92CD
:104EE000002BDCD1F2E30D9B1B680B930D9B03F1B0
:104EF00004030D9313E00D9B1B680C930D9B03F1B2
:104F000004030D93109BA3F104031093069A109BC6
:104F1000D31806990F9A89180C9A8A181A600B9B55
:104F2000002B0CBF00230123DBB20B9A02F1FF32EE
:104F30000B92002BDFD1C9E30D9B1B680C930D9BDB
:104F400003F104030D93069A0C9BD3181B6804937A
:104F50000D9B1B680C930D9B03F104030D93069AA4
:104F60000C9BD3181B681193B0E30D9B1B680C932B
:104F70000D9B03F104030D93069A0F990C9BCB181C
:104F8000D3181B6804930D9B1B680C930D9B03F1B6
:104F900004030D93069A0F990C9BCB18D3181B682A
:104FA000119393E30D9B1B680C930D9B03F104037A
:104FB0000D930D9B1B680B930D9B03F104030D9345
:104FC000069A0C9BD3180B9A1A607FE30D9B1B6803
:104FD0000C930D9B03F104030D930D9B1B680B9326
:104FE0000D9B03F104030D93069A0F990C9BCB18AC
:104FF000D3180B9A1A6069E3059B4FEA23430C937D
:10500000069A0C9BD3181B6804935FE3059B4FEA39
:1050100023430C93069A0C9BD3181B68119355E3FA
:10502000059B4FEA23430C93069A0F990C9BCB18D0
:10503000D3181B68049349E3059B4FEA23430C9361
:10504000069A0F990C9BCB18D3181B6811933DE35C
:10505000059B4FEA23430C93069A0F990C9BCB18A0
:10506000D3181B680C93069A0C9BD3181B680493E7
:105070002CE3059B4FEA23430C93069A0F990C9B54
:10508000CB18D3181B680C93069A0C9BD3181B687B
:1050900011931BE3059B4FEA23430C93FEF790BC4F
:1050A000059B4FEA2343049310E3059B4FEA2343F8
:1050B00011930BE3059B4FEA23430493049A0F9B40
:1050C000D318049302E3059B4FEA23431193119AEB
:1050D0000F9BD3181193F9E2059B4FEA23430C93DE
:1050E000069A0C9BD318049A1A60EFE2059B4FEACC
:1050F00023430C93069A0F990C9BCB18D318049A50
:105100001A60E3E2059B4FEA23430C93069A0F993A
:105110000C9BCB18D3181B680C93069A0C9BD318C6
:10512000049A1A60D2E2059B4FEA23430C93FEF7E0
:10513000FFBC059B4FEA23430C93049A0C9B02FA95
:1051400003F2119BD3180C930C9A0E9B9A4203DB2B
:105150000C9A109B9A4204DB0C9A039BDB6A9A42DE
:1051600008D3039B149A9A62039B139A1A624FF016
:105170000503ADE2069A0C9BD3181B680493A5E2C5
:10518000059B4FEA23430C93049A0C9B02FA03F20B
:10519000119BD318049399E2059B4FEA23430C9388
:1051A0000C9B032B06D80C9BC3F10402049B82EAE0
:1051B000030304938AE2059B4FEA23430C93109B5D
:1051C000A3F104031093069A109BD3180C9A1A604B
:1051D0007CE2059B4FEA23430C93109BA3F104034D
:1051E0001093069A109BD31806990C9A8A18126885
:1051F0001A606BE2059B4FEA23430C93109BA3F1CB
:1052000004031093069A109BD31806990F980C9AD2
:1052100082188A1812681A6058E2059B4FEA2343E5
:105220000C93109BA3F104031093069A109BD318C0
:105230000F990C9A8A181A6048E2059B4FEA23439B
:105240000C93109BA3F104031093069A109BD318A0
:1052500006990C9A8A181A6038E2059B4FEA234394
:105260000C93109BA3F104031093069A109BD31880
:1052700006990F980C9A82188A181168069A8A184B
:105280001A6023E2059B4FEA23430C93109BA3F182
:1052900004031093069A109BD31806990F9A891845
:1052A0000C9A8A181A6011E2059B4FEA23430B936C
:1052B00012E00D9B1B680C930D9B03F104030D93EF
:1052C000109BA3F104031093069A109BD318069920
:1052D0000C9A8A1812681A600B9B002B0CBF0023D3
:1052E0000123DBB20B9A02F1FF320B92002BE0D1CB
:1052F000ECE1059B4FEA23430B9314E00D9B1B68E5
:105300000C930D9B03F104030D93109BA3F1040375
:105310001093069A109BD31806990F980C9A82182E
:105320008A1812681A600B9B002B0CBF0023012304
:10533000DBB20B9A02F1FF320B92002BDED1C5E1FA
:10534000059B4FEA23430B930FE00D9B1B680C93C7
:105350000D9B03F104030D93109BA3F10403109321
:10536000069A109BD3180C9A1A600B9B002B0CBF4B
:1053700000230123DBB20B9A02F1FF320B92002BC8
:10538000E3D1A3E1059B4FEA23430B9311E00D9B6F
:105390001B680C930D9B03F104030D93109BA3F169
:1053A00004031093069A109BD3180F990C9A8A182D
:1053B0001A600B9B002B0CBF00230123DBB20B9A5E
:1053C00002F1FF320B92002BE1D17FE1059B4FEA06
:1053D00023430B9311E00D9B1B680C930D9B03F172
:1053E00004030D93109BA3F104031093069A109BE2
:1053F000D31806990C9A8A181A600B9B002B0CBFC5
:1054000000230123DBB20B9A02F1FF320B92002B37
:10541000E1D15BE1059B4FEA23430B9316E00D9B23
:105420001B680C930D9B03F104030D93109BA3F1D8
:1054300004031093069A109BD31806990F980C9AA0
:1054400082188A181168069A8A181A600B9B002B1A
:105450000CBF00230123DBB20B9A02F1FF320B9247
:10546000002BDCD132E1059B4FEA23430B9313E081
:105470000D9B1B680C930D9B03F104030D93109B74
:10548000A3F104031093069A109BD31806990F9A60
:1054900089180C9A8A181A600B9B002B0CBF0023EA
:1054A0000123DBB20B9A02F1FF320B92002BDFD10A
:1054B0000CE1059B4FEA23430C93109B1193109A28
:1054C0000C9BD31810930E9B03F14002109B9A4241
:1054D00002DD4FF00303FBE0039BDA6A109B9A4264
:1054E00002DA4FF00703F3E0F0E0059B4FEA2343B5
:1054F0000C930E9B11930E9A0C9BD3180E930E9B3C
:1055000003F14002109B9A4202DD4FF00303DFE0FB
:10551000039B5A6A0E9B9A4202DD4FF00803D7E0C4
:10552000D4E0059B4FEA23430C93049A0C9B02FAA8
:1055300003F30493CAE0059B4FEA23430C93119AAB
:105540000C9B02FA03F31193C0E0059B4FEA23433F
:105550000C93049A0C9BD3180493B7E0059B4FEA75
:1055600023430C93049B0C9A02FB03F30493ADE0DA
:10557000059B4FEA23430C93069A0C9BD3184FF0DC
:1055800000021A60A2E0059B4FEA23430C93069A9F
:105590000F990C9BCB18D3184FF000021A6095E0BE
:1055A000059B4FEA23430C93049A0C9B9A4214BF29
:1055B00000230123049389E0059B4FEA23430C93C6
:1055C000119A0C9B9A4214BF0023012304937DE09F
:1055D000059B4FEA23430C93069A0C9BD31806991C
:1055E0000C9A8A18126802F101021A606EE0059B9B
:1055F0004FEA23430C93069A0F990C9BCB18D318B0
:1056000006990F980C9A82188A18126802F1010202
:105610001A605BE0059B4FEA23430C93069A0C9BB0
:10562000D31806990C9A8A18126802F1FF321A6090
:105630004CE0059B4FEA23430C93069A0F990C9B71
:10564000CB18D31806990F980C9A82188A181268EA
:1056500002F1FF321A6039E0059B4FEA23430C93B5
:10566000FEF76ABD059B4FEA23430C93FEF7E4BDAA
:10567000059B4FEA23430C93FEF760BE059B4FEA60
:1056800023430C93FEF7ABBE059B4FEA23430C93D9
:10569000049B1A460C9B9A420ED90D9A039B5B6899
:1056A000D21A039B9A61039B149A9A62039B139AE2
:1056B0001A624FF004030BE008E0039B149A9A620D
:1056C000039B139A1A624FF0060301E0FDF77DBFBA
:1056D000184616B010BD00BFAFF30080AFF30080D6
:1056E00000B587B00190FAF7C3FEFBF781F8019B84
:1056F0004FF0000283F87820FBF792F8FAF7C0FE2B
:10570000019B04934FF00003059309E0049A059B65
:10571000D3184FF000021A70059B03F101030593A3
:10572000059B772BF2D9019B03F184031A46019B59
:105730009A601F4B0393019B18460399FDF790FC59
:105740000246019BDA67019BDB6F002B2DD1FAF734
:105750008FFEFBF74DF8019B4FF0010283F8782094
:10576000FBF75EF8FAF78CFE019B184611494FF0E3
:10577000FF32FDF795FD0246019BC3F880200D4BDB
:105780001A68019BDA67019B1846FDF769FDFAF775
:105790006FFEFBF72DF8019B4FF0000283F8782095
:1057A000FBF73EF8FAF76CFE00E000BF07B000BD63
:1057B00000A0000804200020AFF30080AFF30080B9
:1057C00084B001900091009B03F104031B680393D4
:1057D000044A039BD31803F508631B79184604B0E9
:1057E000704700BFBC0E0020AFF30080AFF3008015
:1057F00084B001900091009B03F104031B68DBB2AD
:105800000393009B03F108031B68DAB20549039B6D
:10581000CB1803F508631A714FF00003184604B063
:10582000704700BFBC0E0020AFF30080AFF30080D4
:1058300000B583B008484FF00001FBF7C9FC4FF0FA
:105840000003009305484FF40B614FF04002044BF6
:10585000FBF716FC03B000BDF81F0020481700201E
:10586000A1580008AFF30080AFF30080AFF30080D1
:1058700008B5FAF7FDFDFAF7BBFF074B9B68002B55
:1058800002DC0548FBF724FDFBF70AFBFAF7C8FF2B
:10589000FAF7F6FD08BD00BFF81F0020AFF3008047
:1058A00000B583B00190054BDB69054A9A61054854
:1058B000FBF7AEFC0448FFF713FFF8E7300D0020BC
:1058C000805C0008F81F0020BC0E0020AFF30080B1
:1058D00008B54FF000604FF42051FCF709FFFBF7CB
:1058E000CFFDFAF7DDFEFFF7A3FFFFF7C1FF4FF093
:1058F000FA00FBF7FDFBFAE7AFF30080AFF300809F
:1059000069646C65000000006D61696E0000000054
:10591000535623310000000053562332000000008C
:105920005356233300000000535623340000000078
:105930005356233500000000535623360000000064
:105940005356233700000000535623380000000050
:105950005356233900000000535623313000000015
:105960005356233131000000000000000000000009
:1059700022636856545365744922282900000000A8
:1059800022636856545265736574492228290000C1
:105990006368565452657365744928292C20233155
:1059A00000000000000000000000000000000000F7
:1059B000636853636852656164794928292C202300
:1059C00031000000737461636B206F766572666CE2
:1059D0006F770000000000000000000000000000E1
:1059E000226368546864437265617465492228299A
:1059F0000000000022636854686453657450726943
:105A00006F72697479222829000000006368546865
:105A100064526573756D6528292C202331000000C0
:105A2000226368546864536C6565702228290000FD
:105A30006368546864457869745328292C2023319D
:105A4000000000002263685468645761697422286A
:105A50002900000063685468645761697428292C20
:105A60002023310063685468645761697428292CC5
:105A700020233200000000000000000000000000B1
:105A800022636853656D496E6974222829000000FD
:105A900022636853656D5265736574492228290035
:105AA000636853656D52657365744928292C2023FA
:105AB0003100000022636853656D57616974532299
:105AC00028290000636853656D576169745328295C
:105AD0002C2023310000000022636853656D57615C
