:020000040800F2
:100000000004002061090008110A0008110A000814
:10001000110A0008110A0008110A0008110A000854
:10002000110A0008110A0008110A0008410A000814
:10003000110A0008110A0008110A0008310B000813
:10004000110A0008110A0008110A0008F12D000821
:10005000110A0008110A0008110A0008110A000814
:10006000110A0008110A0008110A0008110A000804
:10007000110A0008110A0008110A0008110A0008F4
:10008000110A0008110A0008110A0008F1270008E7
:10009000512B0008110A0008110A0008110A000873
:1000A000110A0008110A0008110A0008110A0008C4
:1000B000110A0008110A0008110A0008110A0008B4
:1000C000110A0008110A0008110A0008110A0008A4
:1000D000110A0008110A0008110A0008110A000894
:0C00E000110A0008110A0008110A0008AB
:1000F00000210A2200F0C6BA00220A2300F010BA3A
:10010000032A70B404460D4626D941EA000313F0D1
:10011000030F13D020782B78984208BF294606D0C9
:100120001EE014F8010F11F8013F984218D1012A7E
:1001300002F1FF32F5D1002070BC70470B46044637
:1001400051F8045B50F8046BAE4204D1043A044603
:10015000032A0B46F2D81D461046002ADAD1EBE7F7
:10016000C01AE9E7000000000000000000000000E5
:10017000032A2DE9F00109D82AB10023CC5CC4542C
:1001800001339342FAD1BDE8F00170470B46821863
:10019000014603E02478013301F8014B11F0030F0D
:1001A0001C46F7D113F003055DD06E42C5F1040C77
:1001B000ED009B594FEACC0C08E00434A7593B46AC
:1001C00007FA0CF748EA070741F8047B571A23FAA5
:1001D00005F8032FF1DC03E014F8013B01F8013BC3
:1001E0008A42F9D8CFE753F8404C41F8404C53F8D5
:1001F0003C4C41F83C4C53F8384C41F8384C53F8DF
:10020000344C41F8344C53F8304C41F8304C53F8EE
:100210002C4C41F82C4C53F8284C41F8284C53F8FE
:10022000244C41F8244C53F8204C41F8204C53F80E
:100230001C4C41F81C4C53F8184C41F8184C53F81E
:10024000144C41F8144C53F8104C41F8104C53F82E
:100250000C4C41F80C4C53F8084C41F8084C53F83E
:10026000044C41F8044C561A1D460C4640334031AC
:100270003F2EB8DC2B460FE053F8101C44F8101C3E
:1002800053F80C1C44F80C1C53F8081C44F8081CC8
:1002900053F8041C44F8041C161B21461D46103458
:1002A00010330F2EE8DC2B4602E0246841F8044BA3
:1002B000551A1C46032D03F10403F6DC90E700BF3A
:1002C000032AC9B270B408D82AB10346121803F839
:1002D000011B9342FBD170BC70478218044601E0B9
:1002E00004F8011B14F0030FFAD14FF0013303FBA4
:1002F00001F31FE044F8403C44F83C3C44F8383CEF
:1003000044F8343C44F8303C44F82C3C44F8283C55
:1003100044F8243C44F8203C44F81C3C44F8183C85
:1003200044F8143C44F8103C44F80C3C44F8083CB5
:1003300044F8043C161B254640343F2EDADC2C469C
:1003400007E044F8103C44F80C3C44F8083C44F8FE
:10035000043C161B254610340F2EF2DC01E045F854
:10036000043B541B032CFADC01E005F8011B954209
:10037000FBD3B0E700000000000000000000000018
:1003800040F60003C2F2000370B41D6810F8013B90
:10039000EC181A46647804F00304012C11F8014BA0
:1003A00008BF03F120022E192346767806F00306D3
:1003B000012E08BF04F12003D21A01D1002BE5D190
:1003C000104670BC704700BF000000000000000035
:1003D000C9B2F0B4002950D010F0030F10D0037848
:1003E000002B79D0994246D0431C05E013F8012B2D
:1003F000002A3FD091423ED013F0030F1846F5D1AA
:10040000036841EA01270646A3F1013247EA07479C
:1004100022EA030212F0803F1DD187EA0303A3F111
:10042000013222EA030313F0803F14D1043002E0CA
:1004300012F0803F0FD1064650F8043BA3F101357E
:1004400087EA030225EA0303A2F1013413F0803F97
:1004500024EA0202ECD033783046002B3CD099429B
:1004600009D0731C01E0914205D0184613F8012B06
:10047000002AF8D11046F0BC704710F0030F0CD0E2
:100480000378002BF7D0431C03E013F8012B002A5C
:10049000F1D013F0030F1846F7D102680346A2F11A
:1004A000013121EA020212F0803F0AD104300346F2
:1004B00050F8042BA2F1013121EA020212F0803F30
:1004C000F5D01A781846002AD5D00133184613F80B
:1004D000012B002AFAD1CEE71846CCE70000000035
:1004E000F0B40646047874B10F780546064657B155
:1004F000BC4218BF0A4602D108E09C4206D012F85E
:10050000013F002BF9D1301AF0BC70476C786E1C9B
:10051000002CF8D03546EBE700000000000000009A
:100520002DE9F04F40F60004C2F2000485B01F46EA
:100530008C4626680B460390029213F8014B321941
:100540001D4692F801B01BF0080BF6D12D2C73D08C
:100550002B2C08BF15F8014BD7F1010338BF00233E
:10056000102F14BF1A4643F0010232B1302C73D061
:100570001BB1302C00F083800A27B946BBF1000F75
:1005800049460CBF6FF0004A4FF0004ACDF804C056
:10059000504600F0B3F950468846494600F080F8CE
:1005A00033190022DDF804C05B78114613F0040F04
:1005B0001ED0303CA74225DD814294BF0023012399
:1005C00053EAD2722ED10A1A534243EB0203444536
:1005D000D4BF002303F00103002B23D109FB014109
:1005E00015F8014B012233195B7813F0040FE0D1A9
:1005F00013F0030306D0012B14BF57233723E41A4B
:10060000A742D9DCB2F1FF3F1BD00846BBF1000F77
:1006100010D1029B1BB152B90299C1F800C005B0BC
:10062000BDE8F08F4FF0FF3215F8014BDBE705F125
:10063000FF3CF1E74842ECE715F8014B4FF0010BA6
:100640008AE70399BBF1000F0CBF6FF000404FF039
:10065000004022230B60DCE72A78A2F178004142B7
:1006600041EB0001582A14BF0A4641F00102002A5A
:100670003FF47EAF10276C78B94602357EE7082735
:10068000B9467BE730B440F60404C2F200040D46DC
:10069000134601462A46206830BC41E700000000AE
:1006A0004A1E08BF7047C0F02481884240F216817C
:1006B000114200F01781B0FA80F3B1FA81F2A2EB97
:1006C0000303C3F11F0304A202EB03134FF0000264
:1006D0009F4600BFAFF30080B0EBC17F00BF42EB8D
:1006E000020228BFA0EBC170B0EB817F00BF42EBDC
:1006F000020228BFA0EB8170B0EB417F00BF42EB4C
:10070000020228BFA0EB4170B0EB017F00BF42EBBB
:10071000020228BFA0EB0170B0EBC16F00BF42EB3B
:10072000020228BFA0EBC160B0EB816F00BF42EBBB
:10073000020228BFA0EB8160B0EB416F00BF42EB2B
:10074000020228BFA0EB4160B0EB016F00BF42EB9B
:10075000020228BFA0EB0160B0EBC15F00BF42EB1B
:10076000020228BFA0EBC150B0EB815F00BF42EB9B
:10077000020228BFA0EB8150B0EB415F00BF42EB0B
:10078000020228BFA0EB4150B0EB015F00BF42EB7B
:10079000020228BFA0EB0150B0EBC14F00BF42EBFB
:1007A000020228BFA0EBC140B0EB814F00BF42EB7B
:1007B000020228BFA0EB8140B0EB414F00BF42EBEB
:1007C000020228BFA0EB4140B0EB014F00BF42EB5B
:1007D000020228BFA0EB0140B0EBC13F00BF42EBDB
:1007E000020228BFA0EBC130B0EB813F00BF42EB5B
:1007F000020228BFA0EB8130B0EB413F00BF42EBCB
:10080000020228BFA0EB4130B0EB013F00BF42EB3A
:10081000020228BFA0EB0130B0EBC12F00BF42EBBA
:10082000020228BFA0EBC120B0EB812F00BF42EB3A
:10083000020228BFA0EB8120B0EB412F00BF42EBAA
:10084000020228BFA0EB4120B0EB012F00BF42EB1A
:10085000020228BFA0EB0120B0EBC11F00BF42EB9A
:10086000020228BFA0EBC110B0EB811F00BF42EB1A
:10087000020228BFA0EB8110B0EB411F00BF42EB8A
:10088000020228BFA0EB4110B0EB011F00BF42EBFA
:10089000020228BFA0EB0110B0EBC10F00BF42EB7A
:1008A000020228BFA0EBC100B0EB810F00BF42EBFA
:1008B000020228BFA0EB8100B0EB410F00BF42EB6A
:1008C000020228BFA0EB4100B0EB010F00BF42EBDA
:1008D000020228BFA0EB0100104670470CBF0120A8
:1008E00000207047B1FA81F2C2F11F0220FA02F033
:1008F000704708B14FF0FF3000F012B80029F8D06F
:100900002DE90340FFF7CCFEBDE8064002FB00F3F3
:10091000A1EB0301704700BF0000000000000000D1
:10092000704700BF00000000000000000000000051
:1009300001E040F8042B8842FBD370470000000020
:1009400070470000000000000000000000000000F0
:10095000FEE70000000000000000000000000000B2
:1009600072B61D4B83F30988022383F31488BFF307
:100970006F8F02F0A5FA194819494FF05532FFF769
:10098000D7FF4FF0553217481349FFF7D1FF164AEA
:10099000164B03E052F8041B43F8041B14498B4226
:1009A000F8D3144814490022FFF7C2FF134CFFF795
:1009B000C7FF02E054F8043B9847114B9C42F9D31F
:1009C00002F02EFE0F4C02E054F8043B98470E4B09
:1009D0009C42F9D3FFF7BCBF0008002000000020B4
:1009E0000004002000040020286100080008002006
:1009F000180900201809002038210020EC00000808
:100A0000EC000008EC000008EC000008000000000A
:100A1000FEE70000000000000000000000000000F1
:100A200072B6FEE7000000000000000000000000B9
:100A300000F056FA00F0DCFB00F03AFA00DF0000AC
:100A400000B5EFF30983203383F3098800F030F811
:100A50005DF804FB00000000000000000000000042
:100A60000A4B002210B59A60094A0720DA6010216B
:100A700000F0B6F80A204FF4007100F0B1F80B2036
:100A80008021BDE8104000F0ABB800BF00ED00E0F1
:100A90000000FA0500000000000000000000000057
:100AA000202383F31188704700000000000000003D
:100AB000002383F31188704700000000000000004D
:100AC00000B5FFF7EDFF164B5B6813F4006F22D003
:100AD000EFF30982203A82F309884FF08073D361E3
:100AE000104B996941B11968DB6989689B68994223
:100AF00094BF0023012307E01968DB6989689B68BC
:100B0000994234BF002301230BB1074B00E0074B90
:100B100093615DF804FBFFF7CBFF5DF804FB00BFBA
:100B200000ED00E04C0E0020310A00083C0A0008ED
:100B300010B500F06DF9FFF7B3FF00F0A1F900F078
:100B4000AFF800F085F9FFF7B3FF00F041F9BDE819
:100B50001040FFF7B5BF00000000000000000000DB
:100B60002DE9F04FC1F80CD0D0F80CD0BDE8F08FD3
:100B700008B500F09DF9FFF79BFF2846A04700F05D
:100B800037FC08BD0000000000000000000000006D
:100B900070B500F00304E400FF25A54011FA04F449
:100BA0000B4B8208C03253F82260012126EA05056A
:100BB000254343F82250420900F01F0011FA00F0CB
:100BC00002F1600143F8210043F8220070BD00BF2C
:100BD00000E100E000000000000000000000000054
:100BE000820800F0030030B5C000FF24844011FAF1
:100BF00000F0054B063253F8225025EA0404044362
:100C000043F8224030BD00BF00ED00E000000000CE
:100C1000024B034ADB699A61FEE700BF4C0E0020DD
:100C20004055000800000000000000000000000027
:100C300037B5FFF715FF00F00BFA00F0A9F900F047
:100C4000EFFE00F02DFF00F05BF840210D4800F0B2
:100C50000FFB0D4D0D4B0124E86180F82040C3616E
:100C600000F056F9002383F3118862B60849EA6957
:100C7000084891610093C0212246074B00F050FBC9
:100C80003EBD00BF180900204C0E002000040020CB
:100C90004555000868090020110C000800000000FC
:100CA00010B500F07DF8114B9A69002A01DD013A78
:100CB0009A61DB690E4C5A6A01325A62E368013369
:100CC000E3602368A3420FD09A68013A9A6006E075
:100CD000D368D16011684860016010699847226844
:100CE000034891680029F3D010BD00BF4C0E0020CE
:100CF0003C0E00200000000000000000000000008A
:100D0000034A4021134643F8081B5360704700BF55
:100D10002C0A00200000000000000000000000007D
:100D20000B4B0C495A68C96811600B49C96951607D
:100D3000816A916090F820101173103203F581617F
:100D40008A425A6024BF03F108025A60704700BF0C
:100D50002C0A00203C0E00204C0E00200000000059
:100D6000014B1860FFF75CBE380E00200000000049
:100D7000054B1B681BB9054B1B68002B02DC0448A4
:100D8000FFF7EEBF704700BF280A0020340E002096
:100D900050550008000000000000000000000000A6
:100DA000054B1B68002B03DB044B1B68002B02DC8C
:100DB0000348FFF7D5BF7047280A0020340E0020F3
:100DC0005655000800000000000000000000000070
:100DD00010B5FFF765FE084C2368002B02DD074BBA
:100DE0001B6813B10648FFF7BBFF2368013B236074
:100DF000FFF75EFE10BD00BF280A0020340E002061
:100E00005C55000800000000000000000000000029
:100E100010B5FFF745FE084C2368002B02DB074B9B
:100E20001B6813B10648FFF79BFF2368013323605B
:100E3000FFF73EFE10BD00BF280A0020340E002040
:100E400061550008000000000000000000000000E4
:100E5000074B10B51B68074C002B02DD2368002BE5
:100E600002DC0548FFF77CFF0023236010BD00BFB4
:100E7000280A0020340E00206655000800000000FB
:100E8000064B10B51B68064C002B01DD236813B11F
:100E90000448FFF765FF0123236010BD280A0020E6
:100EA000340E00206B550008000000000000000018
:100EB000064B10B51B68064C13B92368002B02DCE7
:100EC0000448FFF74DFF0023236010BD280A0020CF
:100ED000340E0020705500080000000000000000E3
:100EE000064B10B51B68064C0BB9236813B10548B7
:100EF000FFF736FF0123236010BD00BF280A002042
:100F0000340E0020755500080000000000000000AD
:100F1000044B1B6813B9044B1B6813B10348FFF75C
:100F20001FBF7047280A0020340E00207A550008A1
:100F300010B50B461B688B4203D09C6882689442B4
:100F4000F8D25A68036042601060586010BD00001B
:100F50004B68016043604860186070470000000003
:100F60000346006802681A60536070470000000082
:100F700042680168116003685A6070470000000011
:100F800003681A68026018467047000000000000FD
:100F9000044B4FF0FF329A6001325B601B60DA60F5
:100FA000704700BF3C0E0020000000000000000061
:100FB000F8B504460D4616461F46FFF7F1FE0CB184
:100FC00006B115B90C48FFF7CBFE0C4A2761E66065
:100FD0001368104601E01B686D1A9968A942FAD39C
:100FE0005A6883422360626014605C60A56002D02E
:100FF0009A68551B9D60F8BD905500083C0E002076
:1010000010B50446FFF7CCFE14B90B48FFF7A8FE55
:10101000E36813B90948FFF7A3FE2368084A93421F
:1010200003D09968A2688A189A606268136023687E
:101030005A600023E36010BD9D550008AC550008C0
:101040003C0E002000000000000000000000000036
:10105000044B00229A6014325B601B609A615B61F2
:101060001B6170474C0E00200000000000000000D3
:1010700010B590F8203004460BB10E2B02D1094870
:10108000FFF76EFE002384F82030A268064B1B6831
:1010900099689142FBD25A682360626014605C6078
:1010A000204610BDC05500084C0E00200000000076
:1010B00010B590F820300446032B07D001D8A3B117
:1010C0000BE0052B06D00D2B07D103E0836A9A684D
:1010D00001329A602046FFF74BFF4FF0FF33204666
:1010E000A362BDE81040FFF7C3BF10BD00000000C1
:1010F00070B5104C0646FFF73BFEE569142385F8F2
:1011000020602046A361FFF72BFF012380F82030E9
:10111000E0612846FFF704FEEA69ADF124039A4234
:1011200002D90548FFF71CFEE0692946BDE870407A
:10113000FFF716BD4C0E0020D2550008000000003D
:1011400070B50E4686B00546FFF712FEB6F1FF3FBA
:101150000B4C0ED0E36901A831460A4AFFF728FF7D
:101160002846FFF7C5FF049B33B101A8FFF748FFEE
:1011700002E02846FFF7BCFFE369986A06B070BD3D
:101180004C0E0020B110000800000000000000001C
:1011900070B504460D46FFF7EBFDA562114DA26840
:1011A000E86983689A4204D82046BDE87040FFF79A
:1011B0005FBFFFF75DFF1423AB61133B064684F866
:1011C0002030EC61FFF7ACFDF269ADF124039A42E7
:1011D00002D90548FFF7C4FD20463146BDE87040FE
:1011E000FFF7BEBC4C0E0020D255000800000000E6
:1011F00070B50F4C14232046E569A361FFF7B0FEDC
:10120000012380F82030E0612846FFF731FF2846AF
:10121000FFF786FDEA69ADF124039A4202D9054839
:10122000FFF79EFDE0692946BDE87040FFF798BCD6
:101230004C0E0020D2550008000000000000000005
:1012400010B5FFF795FD064B1A68DB6992689B683D
:101250009A4203D9BDE81040FFF7CABF10BD00BFD6
:101260004C0E002000000000000000000000000004
:10127000022280F82020023A816080F82120416417
:1012800002640121C26342628261094A80F822102D
:10129000516902614161506100F12C02C26200F1AA
:1012A00030024263026300F14C020861C261704780
:1012B0004C0E0020000000000000000000000000B4
:1012C00001E000F8012B8842FBD3704700000000CA
:1012D0002DE9F04104460D4616461F46DDF81880FC
:1012E000FFF75EFD24B1AF2D02D97F2E00D817B9CC
:1012F0000848FFF735FD243D074A6319204631466B
:10130000E3606751C3F804801A62BDE8F041FFF75B
:10131000AFBF00BFF0550008710B000800000000CF
:101320002DE9F34100F14C0804460D4617464146AD
:10133000FF221E46FFF7C4FF404661195522FFF702
:10134000BFFFFFF7ADFBFFF7CBFD089B3A460093CD
:10135000294633462046FFF7BBFF00210446FFF72E
:1013600017FFFFF7A5FDFFF7A3FB2046BDE8FC81B3
:1013700010B5044610B90848FFF7F2FCFFF790FBE0
:10138000FFF7AEFD21460620FFF7DAFEFFF790FDDE
:10139000FFF78EFB10BD00BF2856000800000000BC
:1013A0000F4B10B5DC69A06203E0FFF7E9FDFFF722
:1013B0005FFEE36A04F12C008342F6D194F82130F9
:1013C00013F0030F04D1636922691A612269536122
:1013D0000E20FFF78DFE0348BDE81040FFF7C0BCAC
:1013E0004C0E0020375600080000000000000000EE
:1013F00010B50446FFF754FBFFF772FD2046BDE829
:101400001040FFF7CDBF000000000000000000000A
:1014100070B50446FFF744FBFFF762FD94F82230F5
:1014200013B91948FFF79CFC94F82250013DEDB226
:1014300084F82250FFF73CFDFFF73AFB002D21D145
:1014400094F820300E2B1DD194F8213003F00303C3
:10145000012B02D0022B15D109E0636922692046D5
:101460001A6122695361BDE8704000F069BB63698D
:101470002269A06C1A61226921465361BDE870405F
:1014800000F0C6BB70BD00BF92560008000000000F
:101490002DE9F3410D4617461E4600F011FB0446A8
:1014A00008B300F14C084146FF22FFF709FF404610
:1014B00061195522FFF704FFFFF7F2FAFFF710FD5D
:1014C000089B3A460093294633462046FFF700FF23
:1014D000012380F8213000210446FFF759FEFFF771
:1014E000E7FCFFF7E5FA2046BDE8FC8100000000BC
:1014F00038B50D46044608B1002902DA0348FFF763
:101500002FFC64602460A56038BD00BFD056000881
:1015100038B50546FFF72CFC15B91148FFF720FC3C
:10152000AB68002B2B6802DBAB4202D104E0AB427C
:1015300002D10C48FFF714FCAB68013B002BAB60F9
:101540000BDA094C2946E0698562FFF701FD0320AB
:10155000FFF7CEFDE369986A38BD002038BD00BFB3
:10156000005700080F5700084C0E00200000000034
:1015700010B50446FFF794FAFFF7B2FC2046FFF7D8
:10158000C7FF0446FFF794FCFFF792FA204610BD10
:1015900010B50446FFF704FC14B90F48FFF7E0FB51
:1015A000A368002B236802DBA34202D104E0A3421C
:1015B00002D10A48FFF7D4FBA3680133002BA360D4
:1015C00008DC2046FFF7CCFC00228262BDE8104018
:1015D000FFF74EBD10BD00BF7057000881570008CF
:1015E00010B5044610B90448FFF7BAFB0023646045
:1015F0002460A36010BD00BF005800080000000078
:10160000264B70B50546DE69FFF7B2FB15B92448D5
:10161000FFF7A6FBAC6814BB3BE0A36094F8203056
:10162000042B03D0052B0AD083B11CE02046FFF722
:101630009FFCA16AFFF77CFCA36A9C680FE0204630
:10164000FFF796FCA16AFFF773FC0CE0012384F816
:1016500020302046FFF78CFCFFF70AFD03E0B3685B
:10166000A2689A42D9D330462946FFF761FC04208C
:10167000B562FFF73DFDAB68B34202D00948FFF702
:101680006FFB336CAB4208D00748BDE87040FFF7F2
:1016900067BB336CAE60EB60356470BD4C0E0020F0
:1016A0000E5800081D5800082E58000800000000C1
:1016B00010B50446FFF7F4F9FFF712FC2046FFF7D8
:1016C0009FFFFFF7F5FBFFF7F3F910BD00000000E7
:1016D0001C4B70B5DD69FFF7E3F9FFF701FC2B6CDC
:1016E00013B91948FFF73CFB2B6C9B68AB4202D047
:1016F0001648FFF735FB2C6C2368E668A3422E647E
:1017000017D06B6C07E03268B24203D09268934204
:1017100038BF1346F668002EF5D1AB602046FFF7C0
:101720001FFC026CA060E26031460464FFF730FDEC
:1017300001E00023A360FFF7BBFBFFF7B9F92046E8
:1017400070BD00BF4C0E00205158000863580008BF
:1017500038B504460D46FFF723FB14B90C48FFF7D4
:10176000FFFAE36B1D4394F82030E563082B03D1A7
:10177000A36A1D4206D138BD092B08D1A36A1D40BA
:101780009D4204D12046FFF773FC0023836238BDDD
:10179000CA5800080000000000000000000000001F
:1017A00070B505460E46FFF7FBFA15B90748FFF777
:1017B000D7FA2C6806E0A168606846EA0101FFF7E5
:1017C000C7FF2468AC42F6D170BD00BFEB580008DB
:1017D00010B503460C4659B1074A1946D0698362D1
:1017E000FFF7B6FB0D202146BDE81040FFF7A8BC6F
:1017F0004FF0FF3010BD00BF4C0E00200000000075
:1018000010B58A18002440600060846041618161E5
:10181000C1600261C36110BD000000000000000053
:1018200070B504460D46FFF73BF9FFF759FBE36936
:101830006BB1204698470AE020462946FFF7C8FFCB
:10184000061E04DAFFF734FBFFF732F911E0A36854
:10185000002BF1D0013BA360A369226913F8016B4F
:101860009342A36124BFE368A361FFF721FBFFF765
:101870001FF9304670BD00000000000000000000AD
:101880002DE9F84304460E461F46C569914612B934
:101890001B48FFF765FAFFF703F9FFF721FB4FF04D
:1018A000000865B12046A84709E020463946FFF701
:1018B0008FFF20B1FFF7FCFAFFF7FAF81CE0A368EE
:1018C000002BF2D0013BA360A36913F8012B06F8AB
:1018D00008202269A361934224BFE368A361FFF754
:1018E000E7FAFFF7E5F808F10108C84504D0FFF76B
:1018F000D7F8FFF7F5FAD4E74046BDE8F88300BF14
:101900003059000800000000000000000000000046
:1019100041618161C160891840600060826001613D
:10192000C3617047000000000000000000000000DC
:10193000F8B504460D461646FFF7B2F8FFF7D0FAA1
:101940000AE020463146FFF743FF071E04DAFFF79F
:10195000AFFAFFF7ADF816E0A368002BF1D0013B1A
:10196000A360636903F8015B22696361934224BF4A
:10197000E3686361E3690BB120469847FFF798FA83
:10198000FFF796F800273846F8BD00000000000079
:101990002DE9F84304460D461F46C669904612B924
:1019A0001B48FFF7DDF9FFF77BF8FFF799FA4FF0D7
:1019B000000909E020463946FFF70AFF20B1FFF78A
:1019C00077FAFFF775F820E0A368002BF2D0013B0F
:1019D000A3602A78636903F8012B2269636193424B
:1019E00024BFE36863610EB12046B047FFF760FA99
:1019F000FFF75EF8B8F1010809F1010905D00135DA
:101A0000FFF74EF8FFF76CFADEE74846BDE8F883CB
:101A10004459000800000000000000000000000021
:101A2000054A064B22F007021A60054A054B22F0D0
:101A300007021A60704700BF3F210020700E00208F
:101A4000005000206C0E002000000000000000008C
:101A500010B50446FFF7A4F9064B07491868096852
:101A6000E21D22F00702091A914226BF82181A606D
:101A7000002010BD700E00206C0E00200000000041
:101A800010B50446FFF70CF8FFF72AFA2046FFF7D7
:101A9000DFFF0446FFF70CFAFFF70AF8204610BDF7
:101AA0000448054B036000238360C3601030FFF7D8
:101AB00097BD00BF780E0020811A000800000000CA
:101AC000F8B51D4C0731002818BF044604F110007A
:101AD00021F0070604F10807FFF7EAFD18E06B683C
:101AE000B34214D306F108029342286801D2386049
:101AF00008E0A918A8506FF00702921BD3184B609A
:101B000039606E6045F8084BFFF7E2FD11E02F46A3
:101B10003D68002DE3D1FFF7DBFD25684DB106F1EF
:101B20000800A84720B10460466000F1080500E005
:101B300005462846F8BD00BF780E002000000000D2
:101B40002DE9F041064610B92248FFF709F956F889
:101B5000080CA6F1080500F108071030FFF7A8FDF2
:101B60003C46A54207D363680833E3189D4202D27E
:101B70001948FFF7F5F8BC4201D0A54223D92368E4
:101B80000BB19D421FD26A6846F8083C256002F1FD
:101B9000080356F8080CE918814206D14968EB5849
:101BA000521808326A6046F8083C636803F108027C
:101BB000A218AA4209D16A689B180833636056F8D4
:101BC000083C236001E02468CBE7BDE8F041FFF763
:101BD0007FBD00BF6F5900087E590008000000005B
:101BE00038B504460D46FFF7DBF81CB115B115F00A
:101BF000070F02D00348FFF7B3F823682B60256076
:101C000038BD00BFB059000800000000000000000F
:101C100038B505460C46FEF743FFFFF761F9284645
:101C20002146FFF7DDFFFFF743F9FEF741FF38BD1F
:101C300010B500F0F5FC00F0EBFA064800F088FD66
:101C400000F026F800F0D4FB00F0E2FCBDE8104004
:101C500001F03EB9D05B0008000000000000000069
:101C600010B590F84230044680F84A3000F000FE8B
:101C700063681B6813B12046012198470323237032
:101C800010BD000000000000000000000000000087
:101C900000F0BEBD000000000000000000000000D9
:101CA00001230370013B436083608381C3817047DC
:101CB00038B50D46044600B111B91148FFF750F888
:101CC000FEF7EEFEFFF70CF92378013BDBB2012BA8
:101CD00002D90C48FFF744F8002323616361A36134
:101CE000E36123626362A362E3622046656000F001
:101CF00097FD02232370FFF7DBF8FEF7D9FE38BD0E
:101D0000D0590008DD590008000000000000000064
:101D10002DE9F04104460E461546FFF741F804B19F
:101D200015B91348FFF71CF82378042B02D011488B
:101D3000FFF716F8331D54F8233013B10E48FFF7A0
:101D40000FF82F6817F0100709D139460C2268697F
:101D5000FEF7B6FAA86939461022FEF7B1FA331D2C
:101D60002046314644F82350BDE8F04100F090BDD4
:101D7000065A00081B5A0008345A000800000000E8
:101D800070B504460E46FFF70BF814B90948FEF784
:101D9000E7FFE389012053FA06F515F0010508D1A4
:101DA000B04040EA0303E3812046314600F0B0FE34
:101DB000284670BD815A00080000000000000000A5
:101DC00070B504460E46FEF7EBFF14B90948FEF75E
:101DD000C7FFA389012053FA06F515F0010508D1C4
:101DE000B04040EA0303A3812046314600F0A0FE44
:101DF000284670BD965A0008000000000000000050
:101E0000022203460270023AA0F8482083F84A20D2
:101E100080F84B208281C281026142618261C2618D
:101E2000026242628262C26283F8302000F098BD92
:101E3000002370B500F14002044680F8303000F015
:101E4000CFFD63689B6823B120469847002840F087
:101E5000E28094F8403013F0600540F0CB8094F8B5
:101E6000416003F07F0343EA0626B6F5407F3BD08E
:101E70000FDC022E77D004DC2EB3012E40F0BA80A6
:101E80006BE0B6F5807F25D0B6F5817F40F0B2805B
:101E900085E0B6F5C06F39D009DC40F202339E42CE
:101EA00000F09080B6F5A06F40F0A4802AE0B6F56F
:101EB000106F41D040F602439E424ED0B6F5006FFF
:101EC00040F0988032E004F1480363630223A36387
:101ED000E663A0E094F84230012B40F08B80B4F828
:101EE000483023F0020308E094F84230012B40F020
:101EF0008180B4F8483043F00203A4F848306563A9
:101F0000A5634AE06563A563644B71E0636820469E
:101F10005E6894F8431094F84220B4F84430B04717
:101F2000002867D043686363036803E004F14B0350
:101F300063630123A36330E094F8423084F84B30AC
:101F40000BB9033300E00423237063681B68002B84
:101F50004BD020460221984747E0514B6363022350
:101F6000A363023B44E094F8441011F0800F01F0A9
:101F70000F0103D0204600F023FD02E0204600F0D0
:101F80000FFD012802D0022834D103E0454BA6639F
:101F9000636302E0444BA0636363E5633BE094F852
:101FA00042303BBB94F8443013F00F011DD013F0C6
:101FB000800F03D0204600F003FF16E0204600F01B
:101FC000E7FE12E094F84230A3B994F8443013F0DD
:101FD0000F010AD013F0800FC9B203D0204600F0E1
:101FE000C7FE02E0204600F0B3FE00236363A36354
:101FF000E36310E02046002100F0BAFE20460021F5
:1020000000F0A6FE63681B6813B1204605219847BF
:10201000052384F83030B4F84630A26B9A4288BF6A
:10202000A36394F94030A56B002B18DA5DB101234E
:1020300084F8303020460021626B2B4600F050FDC2
:102040002046002126E0022384F83030204629462D
:102050002A462B4600F02CFD204629460BE075B1A0
:10206000032384F8303020460021626B2B4600F0B9
:102070001FFD20460021BDE8704000F049BD04234B
:1020800084F83030204629462A462B4600F028FDA9
:1020900020462946BDE8704000F04ABD611C00089A
:1020A000C0590008F05A0008E05A0008000000007B
:1020B00090F8303070B5012B044602D0042B2BD1A0
:1020C00025E0836BB0F84620934211D20269128A50
:1020D000B3FBF2F502FB153555B929462A462B46C6
:1020E00000F0FEFC20462946BDE8704000F020BD0F
:1020F0000021022384F8303020460A460B4600F0C7
:10210000D7FC20460021BDE8704000F001BDC36B44
:1021100003B1984700230DE0002100F029FE20467E
:10212000002100F015FE63681B6813B120460521ED
:102130009847052384F8303070BD0000000000008F
:1021400090F8303010B5022B04460FD0032B16D177
:102150000021013380F830300A460B4600F0C0FC05
:1021600020460021BDE8104000F0E2BC03699B69F5
:10217000DB6823B9C36B03B1984700230EE0204608
:10218000002100F0F5FD2046002100F0E1FD63682C
:102190001B6813B1204605219847052384F8303089
:1021A00010BD000000000000000000000000000062
:1021B000014B5B6883607047001000E00000000086
:1021C000084B5A688368D31A074A12689B1AC26878
:1021D0008360934201D9C36070470269934238BF5C
:1021E00003617047001000E0980E0020000000001E
:1021F000044B0360044B436000238360C360013BD6
:1022000003617047B1210008C121000800000000EF
:1022100010B5084C86B0002301A82360FFF7E8FF43
:1022200001A8019B9847029B01A89847039B236044
:1022300006B010BD980E0020000000000000000055
:10224000806BD0F1010038BF002070470000000013
:102250008069D0F1010038BF002070470000000005
:1022600038B50446FEF71CFCFEF73AFE0023A568CD
:10227000A360FEF71DFEFEF71BFC284638BD0000DC
:102280002DE9F0418469D4F8D030D4F840801B683F
:10229000E76B9D89A66B15F0020530D1FEF708FEAD
:1022A000FEF706FCD4F8D020C7EB08031068012124
:1022B000E26B9B1B00F0DCFBFEF7F2FBFEF710FE6F
:1022C000D4F8D03001211868FFF77AFDA368201DEB
:1022D00043F00803A3602946FFF762FAE36B226C20
:1022E0006364D31AA36305E0FEF73AFEFEF7C0FE6F
:1022F00000238362236B04F130008342F4D1BDE8F4
:10230000F08100000000000000000000000000005C
:1023100070B54469D4F8D0301B68DB8913F0080F1E
:102320002FD1A5696DBBFEF7C3FDFEF7C1FBD4F845
:10233000D03003211868E269402300F071FB0646A3
:10234000FEF7AEFBFEF7CCFDD4F8D03003211868C1
:10235000FFF716FDA368201D43F00403A360294680
:10236000FFF71EFAE369A661A36205E0FEF7F8FD38
:10237000FEF77EFE00238362236904F1100083428E
:10238000F4D170BD0000000000000000000000005B
:102390001030FFF775BA00000000000000000000D8
:1023A00010304FF0FF33FFF76BBA00000000000061
:1023B0003030FFF7EDBA0000000000000000000020
:1023C00030304FF0FF33FFF7E3BA000000000000A9
:1023D0001030FFF725BA00000000000000000000E8
:1023E0003030FFF7A5BA0000000000000000000038
:1023F0007047000000000000000000000000000026
:102400000E4A034610B543F8042B436000230446EC
:1024100083600133037304F1500110304022084BF4
:10242000FFF7EEF904F1300004F190014022054B72
:10243000FFF76EFA6462A46410BD00BF405B000841
:1024400011230008812200080000000000000000A5
:1024500070B50E46044610B91048FEF781FCFEF731
:102460001FFBFEF73DFD237B013BDBB2012B02D9B5
:102470000B48FEF775FC354655F8043BC4F8D060B0
:102480009C6002232373FEF713FDFEF711FB3068F7
:102490002946BDE87040FFF70BBC00BF005B000899
:1024A0000D5B0008000000000000000000000000BC
:1024B00090F8403003F06003202B1AD190F84120AF
:1024C000212A06D0222AA3F120030DD0202A12D1DE
:1024D00005E00A4B436307238363073B06E0074A93
:1024E00042630722826301E043638363C363012085
:1024F0007047002070471846704700BFF80800205A
:10250000F8B5846805460E46FEF7CAFAFEF7B8FC31
:10251000E36B276CFF1AA36BFF1A2AD0FEF798FC17
:10252000FEF7C6FA28463146E26B3B4600F0A0FAB9
:10253000FEF7B6FAFEF7A4FC31462846FFF740FC4A
:10254000A368201D43F00803A3600021FFF728F9CA
:10255000E36B226C6364D31AA36305E0FEF700FD0E
:10256000FEF786FD00238362236B04F13000834273
:10257000F4D1FEF76DFCFEF79BFAF8BD00000000F9
:102580002DE9F041846805460F46FEF789FAFEF70B
:1025900077FCA66956BBFEF75BFCFEF789FA402381
:1025A00028463946E26900F03BFA8046FEF778FAA1
:1025B000FEF766FC39462846FFF7E2FBA368201DBC
:1025C00043F00403A3603146FFF7EAF8E369C4F877
:1025D0001880A36205E0FEF7C3FCFEF749FD002367
:1025E0008362236904F110008342F4D1FEF730FCCA
:1025F000FEF75EFABDE8F081000000000000000078
:102600007047000000000000000000000000000013
:1026100000F01EBC000000000000000000000000F0
:102620001F4B4FF0FF311A69002219611A61D868F7
:10263000D9601C494BF67F30DA60486007208A6019
:1026400008601949C86840F08070C8601749086878
:1026500040F001000860D96941F08051D961D96921
:1026600041F00061D9611249086840F48070086047
:10267000196A01F44071B1F5407F03D04FF4803105
:1026800019621A621B6A064A13F4004F07D1136AD3
:1026900043F440731362136A43F4004313627047B8
:1026A0000010024010E000E0F0ED00E0001000E05B
:1026B000007000400000000000000000000000006A
:1026C0001D4B1A6842F001021A601B4B1A6812F087
:1026D000020FFAD01A6802F0F9021A6000225A605A
:1026E000154B5A6812F00C0FFAD11A6842F4803276
:1026F0001A60114B1A6812F4003FFAD05A6842F47B
:1027000088125A601A6842F080721A600A4B1A687E
:1027100012F0007FFAD0094A11215A60084A11606C
:102720005A6842F002025A60034B5B6803F00C03E4
:10273000082BF9D1704700BF00100240006451001F
:102740000020024000000000000000000000000027
:10275000144B9A6942F07D029A610268124BDA606A
:1027600082685A6042681A60C268104BDA60426937
:102770005A6002691A6082690D4BDA60026A5A6017
:10278000C2691A60426A0B4BDA60C26A5A60826A96
:102790001A60026B084BDA60826B5A60426B1A60F7
:1027A000704700BF0010024000080140000C0140CB
:1027B000001001400014014000180140000000001A
:1027C000402303607047000000000000000000008C
:1027D00010B504680919B1F5007F016002D90248FB
:1027E000FEF7BEFA204610BD805B00080000000026
:1027F00010B5FEF70DFBFEF7EBFABDE81040FEF753
:102800005FB90000000000000000000000000000B0
:102810000148FFF745BA00BF9C0E002000000000F1
:10282000037870B5012B044618D10D4A904210D19F
:102830000C4A0D4DD169132041F40001D1612B6484
:102840006021FEF7A5F91420E021FEF7A1F900238D
:102850002B642046BDE87040FFF7D2BA70BD00BFC0
:102860009C0E002000100240005C004000000000B0
:1028700090F84A20024B42F08002DA64704700BFB1
:10288000005C0040000000000000000000000000AC
:102890000B1D70B550F82340226802F00303013B82
:1028A000022B96BF2C4D4FF4007335F81330A568FA
:1028B0000DB143F02003E56865B112F0100F07D0A9
:1028C00001228A40C58943F440532A43C28101E072
:1028D00043F4005343EA0105204A25F4F04525F06E
:1028E000700542F8215047F6700552F8216003EA5E
:1028F0000505638A75403E2B42F8215003F1FF33F2
:1029000008D943F01F0301335B116FEAC3636FEA19
:10291000534307E043F00103013303EBD3735B023E
:1029200003F47C430D4A00F14C06156D002205F1BD
:10293000005505F5405505EBC1056D00AA80218ABB
:10294000AB813046FFF744FF618A28603046FFF7CD
:102950003FFFA86070BD00BF705B0008005C0040D6
:102960000D4B70B5802200251D655D64DA644268F8
:102970000446D2684C30AA4214BF4FF41E424FF4B2
:102980001C421A64FFF71CFF044B204629462361B2
:10299000BDE87040FFF77CBF005C0040B05B000802
:1029A000054B53F8210010F4405004D0B0F5805F7F
:1029B0000CBF012002207047005C004000000000B6
:1029C000054B53F8213003F03003102B9ABF034A14
:1029D000D05C0220704700BF005C0040905B0008A4
:1029E0000B4B1B6D03F1005303F5405303EBC10385
:1029F0005B009B6803F1005303F54053590000232B
:102A0000585A0433102B22F8020BF9D1704700BF3B
:102A1000005C00400000000000000000000000001A
:102A2000104810B5006D00F1005000F5405000EB6B
:102A3000C10040008468808904F100548005800D45
:102A4000834228BF034604F54054013364005B0809
:102A500004E054F8041B013B22F8021B002BF8D1C0
:102A600010BD00BF005C004000000000000000003E
:102A70000D4810B5006D00F1005000F5405000EB1E
:102A8000C10040000468838004F1005404F5405400
:102A9000013364005B0804E032F8021B013B44F898
:102AA000041B002BF8D110BD005C004000000000AA
:102AB000043150F8210081694A6000228B60CA60AD
:102AC00013B901230B807047428A501EC318B3FB11
:102AD000F2F20A80704700000000000000000000D1
:102AE00070B50C1D50F8245000266C69636022609C
:102AF000A6602C8AA34228BF2346BDE87040FFF79A
:102B0000B7BF00000000000000000000000000004F
:102B1000054A52F8213023F4904323F0700383F4E4
:102B2000405342F821307047005C00400000000034
:102B3000054A52F8213023F4F04323F0400383F098
:102B4000300342F821307047005C00400000000074
:102B50002DE9F047FEF75CF97B4B5C6C14F4806F59
:102B60000DD07A4D2846FFF74BF96B681B6813B1FF
:102B7000284600219847744B6FF480625A6414F41D
:102B8000006F0DD0704D71482B6C43F008032B641F
:102B900043681B680BB1032198476FF400636B64B3
:102BA00014F4805F12D0684B9A6C12F4004F09D174
:102BB0001A6C664822F008021A6443681B680BB15D
:102BC00004219847604B6FF480525A6414F4007FDC
:102BD00000F0AF805D484368DB6803B198475A4B0B
:102BE0006FF400725A64A4E0574B04F00F0453F8DA
:102BF0002480564E221D18F0800F56F822503AD0ED
:102C000053F8242022F4F04222F0F00243F824206A
:102C10002A6812F0100F24D11B6D696903F100536B
:102C200003F5405303EBC4035B009B8888689BB2A9
:102C3000C0180A6888604868D218C31A0A604B60D6
:102C40007BB1B5F810E05FFA84F930464946734528
:102C500028BF7346FFF70CFF30464946FFF768FF71
:102C600009E00123A340B289304622EA0303B3817D
:102C70002146AB68984718F4004F58D0324F18F4EB
:102C8000006F57F8243023F4784323F0700347F89B
:102C9000243004D0231D56F823305B680DE02B68E8
:102CA00013F0100F0CD00123A340F28922EA030392
:102CB000F381231D56F82330DB682448214635E094
:102CC000AB69224E5FFA84F85A6841469B683046E9
:102CD000FFF7A6FE414681463046FFF719FFAB6974
:102CE0005A684A445A60DA684A44DA609A68C9EB1A
:102CF00002029A601A88013A92B21A8052B157F8C9
:102D0000243023F4904323F0700383F4405347F8B6
:102D100024300CE00123A340F289043422EA0303A7
:102D2000F38156F824303046DB6841469847064B1D
:102D30005C6C14F4004F7FF457AFFEF749F8BDE820
:102D4000F047FDF7BDBE00BF005C00409C0E0020B8
:102D5000054A52F8213023F4904323F0700383F4A2
:102D6000805342F821307047005C004000000000B2
:102D7000054A52F8213023F4F04323F0400383F056
:102D8000100342F821307047005C00400000000052
:102D9000094B53F8212002F44052B2F5405F09D0AC
:102DA00053F8212022F4F04222F0400282F4005233
:102DB00043F82120704700BF005C00400000000085
:102DC000084B53F8212002F03002302A09D053F882
:102DD000212022F4F04222F0400282F0200243F847
:102DE00021207047005C004000000000000000004F
:102DF00010B5FEF70DF8144B9A8812F0080FFAD0B0
:102E000019889C889A880C4022F007021204120C40
:102E100014F0010F9A8003D00C48002103689847F2
:102E200014F0020F03D0094801210368984714F0F9
:102E3000040F03D00548022103689847FDF7C8FF37
:102E4000BDE81040FDF73CBE00280040FC0E00200D
:102E5000174B9A8812F0080FFAD01A899B8912042E
:102E60009BB2D2184FF223439A4214D0104B9A8847
:102E700012F0200FFAD09A8892B242F010029A8093
:102E800000221A814FF223429A819A8822F010027E
:102E90001204120C9A80064A938813F0200FFAD07D
:102EA00000231380034A0320F0211360FDF770BE56
:102EB00000280040FC0E0020000000000000000080
:102EC000FFF7FEBB00000000000000000000000053
:102ED000704700000000000000000000000000003B
:102EE0000A46014900F004BA105C00080000000026
:102EF000002902DD0349FFF7F3BF034B0349DA68FA
:102F000000F0F6B91C5C00083C0E0020245C0008B0
:102F1000002913B5044605DD184902B0BDE810408C
:102F2000FFF7DEBF1649174A00F0E2F920461649BE
:102F3000164A00F0DDF920461549164A00F0D8F986
:102F400020461549154A00F0D3F920461449154A80
:102F500000F0CEF920461449144A00F0C9F9204681
:102F60001349144A00F0C4F9134B20460093134947
:102F7000134A144B00F0BCF902B010BD2A5C0008E3
:102F80002F5C0008425C0008485C00085B5C00089D
:102F9000655C0008785C0008805C0008935C0008B1
:102FA0009D5C0008B05C0008C55C0008D85C0008A7
:102FB000005D0008135D00084C5D0008255D0008F9
:102FC0003C5D0008485D00080000000000000000B3
:102FD00038B505460C4604E02846044900F088F957
:102FE00008342268002AF7D138BD00BF555D0008BB
:102FF0002DE9F04104460D46174698460DE0394646
:10300000FDF7BEF9064638B9284664684146069A77
:10301000A0473046BDE8F081083420680028EED192
:103020000130BDE8F0810000000000000000000059
:1030300038B50D4600B108602C6894B120460A49A5
:10304000FDF74EFA241820462021FDF7C1F928602B
:1030500018B1002300F8013B28602378002B08BF3B
:103060000024204638BD00BF2054000800000000A6
:10307000014B1B60704700BF000F002000000000E4
:1030800007B5034B00900020FEF702FA0EBD00BF0B
:1030900051310008000000000000000000000000A6
:1030A0002DE9F84304460F4691460D462368204615
:1030B0005B694FF0FF31984706B2002E80463FDB38
:1030C000042E06D12046204900F012F90120BDE867
:1030D000F883082E18D1BD42E8D0236831461B6919
:1030E0004FF0FF3220469847236820211B694FF09C
:1030F000FF3220469847236820461B6931464FF02F
:10310000FF329847013DD1E70D2E07D120460F49E8
:1031100000F0EEF800202870BDE8F8831F2EC5DD12
:1031200009F1FF33FB189D42C0D2236820461B697A
:103130005FFA88F14FF0FF32984705F8018BB5E749
:103140000120BDE8F88300BF595D00086B5F0008EF
:103150002DE9F041474B0468DB69474A4749D0F8FD
:10316000048098B09A61204600F0C2F82046444995
:1031700000F0BEF8204602A94022FFF791FF054665
:1031800020B120463F4900F0B3F864E002A817A937
:10319000FFF74EFF11AF06460AE0042D05D1204689
:1031A000394900F0A5F8002608E047F8040F01357A
:1031B000002017A9FFF73CFF0028EED118AA02EB68
:1031C0008503002243F8182C002ECFD030462F491B
:1031D000FDF7D6F820B9002D3DD020462B4907E059
:1031E00030462B49FDF7CCF8B8B925B1284920461F
:1031F000FFF776FEBAE72046264900F079F8204628
:103200002549FFF7E5FEB8F1000F03D020464146FF
:10321000FFF7DEFE20462149A6E712AF1E482146F1
:1032200032462B460097FFF7E3FE00289ED0B8F108
:10323000000F08D04046214632462B460097FFF744
:10324000D7FE002892D020461549324600F050F8AB
:103250002046144988E7FDF723FCFDF741FE0021D5
:103260001148FEF79DFA0020FEF79AF8002018B0EA
:10327000BDE8F0814C0E00205C5D0008625D000836
:10328000775D00087C5D0008855D00089A5D000898
:103290009F5D0008A45D0008000900206B5F000826
:1032A000B95D0008BC5D0008000F002000000000B0
:1032B000F0B500F10B0700F10A06B1FBF2F302FBD7
:1032C000131101F13005392DC8BF01F1370534461E
:1032D00035701946013E002BEFD13A1BE15CC15419
:1032E00001339342FAD1C018F0BD00000000000085
:1032F0000EB42DE9F04785B00DAB53F8044B0646EC
:1033000003932178002900F0E9800134252906D0B3
:10331000336830461B694FF0FF329847F1E7237856
:103320002D2B03D101344FF0010A01E04FF0000AC8
:1033300023782E2B03D101344FF0300801E04FF0F9
:10334000200803992246002712F8013BA3F1300020
:10335000C0B20928144603D92A2B05D108780431B4
:103360000A2303FB0707EFE72E2B039114D1154621
:1033700000222C4614F8013BA3F13000C0B209280A
:10338000254605D92A2B01D0039106E0087804319F
:103390000A2303FB0202ECE700226C2B01D04C2B2A
:1033A00003D1217809B101340B46632B18D009D819
:1033B0004F2B44D002D8442B4DD130E0552B40D078
:1033C000582B0AE0732B15D004D8642B27D06F2B11
:1033D00041D134E0752B34D0782B3CD1102231E030
:1033E000039B04AD1A1D1B68039205F8103D4FF0B6
:1033F000200833E0039B191D1D683B4B0391002DF2
:1034000008BF1D4647F6FF73002A08BF1A462B4621
:1034100019781846013321B3013AF9D521E0039B0D
:103420001A1D03921968002906DA2D238DF8003041
:1034300049420DF1010000E068460A2207E0082237
:1034400000E00A22039B6846191D03911968FFF7E3
:103450002FFF6D4607E004AD05F8103D0DF10100AA
:1034600001E04FF02008C5EB0009C9EB070727EA88
:10347000E777BAF1000F22D17F4207B329782D29CF
:103480000BD1B8F1300F08D1336830461B694FF0CB
:10349000FF329847013509F1FF39336830461B691F
:1034A00041464FF0FF3298470137F6D107E03368C5
:1034B00030461B6915F8011B4FF0FF329847B9F1F0
:1034C0000109F4D507E0336830461B6941464FF0E7
:1034D000FF329847013F002FF5D112E705B0BDE854
:1034E000F04703B0704700BFD05D00080000000047
:1034F000024B034A5A60034A5A6070470020024058
:1035000023016745AB89EFCD0000000000000000FB
:10351000024B1A6942F080021A6170470020024093
:103520000A4BDA6812F0010F0BD1DA6812F0040FBF
:1035300009D1D86800F0100000280CBF0420032037
:103540007047012070470220704700BF00200240F2
:1035500010B50446FFF7E4FF02E0FFF7E1FF013C8E
:10356000012803D1002CF8D1043010BD002C08BF75
:10357000052010BD00000000000000000000000059
:1035800073B5002304464FF400500E460193FFF735
:10359000DFFF04281AD10E4D4FF400502B6943F081
:1035A00001032B612680FFF7D3FF042808D10234E2
:1035B0000194019B360C1E804FF40050FFF7C8FFAA
:1035C0002A6941F6FE7302EA03032B617CBD00BF4A
:1035D0000020024000000000000000000000000089
:1035E00038B505464FF43020FFF7B2FF042813D159
:1035F0000A4C4FF43020236943F0020323616561D4
:10360000236943F040032361FFF7A2FF226941F6DB
:10361000FD7302EA0303236138BD00BF00200240AE
:1036200008B5FEF705FBFDF703FB01F029FE00F0EE
:103630005FF901F0A5FE00F073F9FA20FDF798FE9E
:10364000F9E700000000000000000000000000009A
:1036500002290CD0032904D00748012918BF0020F3
:103660007047032A05D8054800EBC200704704489C
:1036700070470020704700BF00610008C06000086C
:10368000505E000800000000000000000000000084
:1036900010B5044601F0BCFE034902462046BDE8D1
:1036A0001040FFF725BE00BFE05E000800000000EC
:1036B00010B5044601F0A4FE034902462046BDE8C9
:1036C0001040FFF715BE00BFE05E000800000000DC
:1036D00010B5044601F07CFE02492046BDE81040CA
:1036E000FFF706BEE55E00080000000000000000D5
:1036F00010B5044601F05CFE10B12046034901E01C
:1037000003492046BDE81040FFF7F2BDEF5E000818
:10371000F65E00080000000000000000000000004D
:1037200010B5044601F02CFE02492046BDE81040C9
:10373000FFF7DEBDFE5E0008000000000000000094
:10374000002910B504460CDD1068FCF7D1FCC0B2AE
:1037500001F0E6FD054902462046BDE81040FFF7AE
:10376000C7BD0349BDE81040FFF7C2BDE05E0008D9
:103770000B5F0008000000000000000000000000D7
:10378000002910B504460BDD1068FCF7B1FC01F010
:10379000BFFD0649C2B22046BDE81040FFF7A8BDF4
:1037A0000349BDE81040FFF7A3BD00BFE05E00087D
:1037B000305F000800000000000000000000000072
:1037C0000129F7B50F46164615DD1068FCF790FC89
:1037D000012485B256F8040FFCF78AFC02AA02F80D
:1037E000010D294601200134013501F081FDBC4263
:1037F000ADB2EFD102E00249FFF77AFDFEBD00BF96
:10380000305F000800000000000000000000000021
:10381000002970B5064613DD1068FCF769FC0B49FA
:103820000546C0B201F054FD002406E0074B3046C7
:103830001A5D0749FFF75CFD0134AC42F6DB70BD51
:103840000449BDE87040FFF753BD00BFD80F00200A
:10385000E05E0008515F000800000000000000006A
:1038600070B50E1E0FDD1546002455F8040BFCF74D
:103870003FFC074908550134B442F6D1E0B2BDE837
:10388000704001F015BD0349BDE87040FFF730BD41
:10389000D80F0020515F0008000000000000000069
:1038A000022938B504460D4616D1FDF7F9F8FDF7A3
:1038B000E7FA20460121094AFEF72AFA204629465E
:1038C000074AFEF725FA20460321064AFEF720FAAA
:1038D000FDF7BEFAFDF7ECF838BD00BFE05D00086B
:1038E000605E0008006000080000000000000000AA
:1038F00010B5084C4FF47A70FDF73AFD2046FEF7FC
:103900007FFD20460449FEF7A3FDBDE81040FFF708
:10391000AFBB00BF040F0020E06000080000000003
:1039200038B50E4C2068254670B90D4BD3F8D03011
:103930001B681B78042B07D10A484FF44B614022C7
:10394000FFF79EFB206038BD90F820300E2B03D18E
:10395000FDF75EFD00232B6038BD00BFE80F00209F
:10396000040F00202060000800000000000000009C
:1039700070B5002915460446026804DA1348C943A5
:1039800050F8212005E0B2F90A60506A06FB0122D6
:103990001258E06E58B1A169666804397118266B37
:1039A00016F4006F18BF043941F8040C0A600021B6
:1039B00084F8541084F8551084F8561084F8571081
:1039C0002046194690472860606D70BD1061000860
:1039D0000020704700000000000000000000000010
:1039E0000020AF2308601360704700000000000053
:1039F0002DE9F347026B036842F4804202635A697F
:103A00001E699D690446961BAD1A694601AAFFF717
:103A1000E7FFE06E00234B28009304D04C280CBF36
:103A20000220184600E0012084F86C3084F86D30E4
:103A300084F86E3084F86F30676FDDF804800023FF
:103A400044E162689A46D1581FFA81FCC44580F26D
:103A500037810433BCF1AE0F00F23281DFE81CF095
:103A60003601E300E300E900E900E900E90036017E
:103A70002E012E012E012E012E01E300E900E900A6
:103A800036012E012E012E012E013601360136019E
:103A90003601360136012E012E012E013601360186
:103AA0003601EF00EF00EF00EF003601360136017E
:103AB0002E012E013601360136013601360136015E
:103AC000360136013601360136013601360136013E
:103AD000360136013601360136013601360136012E
:103AE0002E012E012E012E012E010901EF003601BB
:103AF00036013601110130013001FC00FD00F600F5
:103B0000010136012E0136012E012E01E300E900EC
:103B10002E012E01E9002E01EF00EF00EF00EF0073
:103B2000EF00EF00360136012E012E01360136017D
:103B30002E012E012E012E01E300E900E300E90031
:103B40000D01AF00AF00AF00AF00AF00AF00AF009E
:103B5000B400BC00C600CC00D300D300D800D8000D
:103B6000D800D80036013601360136013601D300BF
:103B7000D800D8003601360136013601360136014B
:103B800036013601360136013601DF00DF00DF0085
:103B9000DF00DF00DF00DF003601360136013601CD
:103BA000360136013601360136013601D300D80020
:103BB000D300D80036013601360136013601D2581D
:103BC000013203EB820381E0D15800296ADBB14264
:103BD00068DAD21852680AE052F803C069428C458C
:103BE00060DBAC455EDCD218526807E0D258002A90
:103BF00058DBB2423BDB55E0D25869428A4251DB86
:103C0000AA4234DD4EE009144CD4B1425EDB49E0F7
:103C100009146A42914245DBA94257DD42E009148A
:103C200003EB810352E0D258002A3BDBB24245DB72
:103C300038E0D25869428A4234DBAA4204E0D258C2
:103C40009A18043A2ED4BA4238DD2BE0D2589A188A
:103C5000043A27D4BA4225DC04336269002A35D1FC
:103C600045E06169D258002941D003EBC203083313
:103C70002CE0043340F0010028E0083340F002005B
:103C800024E052F803900AF1080104334FF0000CCD
:103C900010E052F801A08A44BAF1040A02D40831B3
:103CA000BA4505DD236B042023F4804323631FE022
:103CB0000CF1010CCC45ECDD03EBC903043305E04A
:103CC000236B062023F48043236311E0BB42FFF6FD
:103CD000B8AE236B10F0020023F4804343F400429B
:103CE000226305D043F408432363002000E01C2036
:103CF000BDE8FC870000000000000000000000009C
:103D000070B5036B054613F4004F0C4661D18988EA
:103D10004FF2E012914260D1A2790B2A5BD8E2798E
:103D20000A2A58D9B4F90A20082A56D1626BA25A35
:103D30001F2A52D8A069002851DD2C6021696269D0
:103D4000401A0438E862A862E868521A6A622A6275
:103D500008B92448E860686810B9E068201868600D
:103D6000686F10B9E068081A6867AE684EB113F062
:103D7000200F07D16B692BB930466118FCF7F8F9B1
:103D800000E06618A2692369D31AF318002643F8E5
:103D9000046C238913F0010F04D12846BDE870405C
:103DA000FFF726BE686900280CBF1C20002008E031
:103DB0006B6928463146984710B92846FFF718FE28
:103DC000013668B9626BA36BD31AB6EBD30FEFDB86
:103DD00070BD162070BD122070BD112070BD112065
:103DE00070BD00BF71390008000000000000000035
:103DF0002DE9F04F89B00591036B054613F4004F90
:103E0000144601F0A481C268002A01F0A281006872
:103E100013F4805C03901AD1039A416A976AB0F94F
:103E20000A007F1A064600B2511897FBF0F062466E
:103E300002E037B2C9190132824205DA0F68002F59
:103E4000F7D1132001F08EB943F480532B63AE6891
:103E500016B9039B1E699E190023B4F1FF3FD5F8E4
:103E600028B0D5F820C085F8543085F8553085F84D
:103E7000563085F8573005D10398C16999422BDA3D
:103E800001F069B914F1020F13D10399D5F864B0A8
:103E90008A6B4B6BD5F868C09A4231D06B69296F39
:103EA0002846CDF800C09847DDF800C040B301F0C7
:103EB00059B9002CC1F24F81039B1A6A596AB3F9B0
:103EC0000A30891A91FBF3F18C4281F24481039804
:103ED000821803FB04231968A961826B436B9A4221
:103EE0000ED029676B692846CDF800C09847DDF8E9
:103EF00000C0002841F0368128766876A876E876FA
:103F0000AB6AEA6A934201F32881296A6A6A91429C
:103F1000C1F2278114F1020F12D0AA6D043B920066
:103F2000AB62F2509344AA6A0023043A85F85830F1
:103F300085F8593085F85A3085F85B30AA62B3505D
:103F4000296A0491D5F8288001F13F03434581F2A5
:103F50000681EB6D0793D5F860906A68AB69D5F878
:103F60001CA04F46CDF804B0D218CDF808C08B463F
:103F7000A94605E0002702E01F4600E01F46224652
:103F8000144654F8041BCBB2AE2B01F2D58001A02D
:103F900050F823F07F3F0008514200085B420008C0
:103FA00063420008714200087D4200088B4200080D
:103FB00097420008B3420008ED420008F5420008AD
:103FC000FB420008054300080D43000817430008A2
:103FD00025430008334300084D4300088743000889
:103FE0009F430008E94300082D44000835440008B9
:103FF000414400084B440008594400086544000847
:104000006F4400087D4400089D440008BD4400083A
:10401000D3440008F544000821450008394500084C
:104020004145000851450008614500086945000800
:104030007145000879450008874500088F4500084C
:1040400097450008BF450008C7450008CF45000850
:10405000D7450008DF450008E7450008F54500089A
:10406000FD45000805460008134600081F460008E5
:104070002D4600083B460008494600085746000800
:104080005F460008634600086D4600087546000854
:104090007946000883460008DB46000835470008DB
:1040A00071470008AF470008BF470008E94700080C
:1040B0001948000829480008374800083951000805
:1040C000395100083951000879480008AB48000808
:1040D000EF480008395100083749000859490008DD
:1040E000814900088D4900089F490008AF49000830
:1040F000C1490008D7490008E9490008FB49000800
:10410000134A0008294A00083F4A0008554A000897
:104110006B4A0008814A0008974A0008AD4A000827
:10412000ED4A0008F74A0008054B0008134B000849
:10413000753F00081B4B0008274B0008374B000851
:104140004B4B00085D4B00086B4B00087B4B000895
:10415000894B0008994B00080D4C0008354C0008AD
:104160005F4C0008914C0008BB4C0008E54C00086F
:10417000194D0008454D0008574D0008714D0008C5
:104180007F4D0008914D00089B4D0008A34D00088D
:10419000B14D0008BD4D0008CB4D0008D74D0008BB
:1041A000DD4D0008E54D0008EB4D0008F54D000819
:1041B000FD4D0008074E0008154E0008234E00086C
:1041C000294E0008614E0008714E0008894E000813
:1041D000974E0008A74E0008BB4E0008CB4E0008C3
:1041E000DB4E0008F14E0008534F0008054F000851
:1041F000294F0008754F0008994F0008BD4F00086F
:10420000E94F00080F5000082F5000084F500008D9
:104210005D50000865500008715000087D5000088E
:104220008750000895500008A7500008B7500008B4
:10423000C3500008D1500008DD500008EB500008C2
:10424000F1500008F7500008FD5000081351000815
:1042500053680434F358079391E653680434F758CD
:104260008DE6536806EB0A02D3580434079386E6BA
:10427000536806EB0A020434D75880E653680434C6
:104280005344F358F358079379E65368043453447E
:10429000F358F75873E6079B5B4502DB4345C0F2D2
:1042A000D085D9F82C20934280F0CB85F358079322
:1042B00065E651680434079B5B4502DB4345C0F269
:1042C000C085D9F82C20934280F0BB85022907D005
:1042D000042908D001297FF452AEF35C07934EE61F
:1042E000F35A07934BE6F358079348E653680434B0
:1042F000079344E65768043441E653680434534452
:1043000007933CE657680434574438E65368079AE5
:104310000434F25033E65368079906EB0A0204347A
:10432000D1502CE65368079A5344F3580434F250A2
:1043300025E65F4502DB4745C0F28385D9F82C307E
:104340009F4280F07E85079BF35118E65168043444
:104350005F4502DB4745C0F27485D9F82C309F4297
:1043600080F06F85022907D0042909D001297FF444
:1043700006AE079BF35502E6BDF81C10F153FEE5AF
:10438000079BF351FBE553680434032B3FF6F7AD6D
:10439000079AC3F1040382EA03030793EFE5536826
:1043A0000434062B3FF6EBADDFE803F004080C0FF6
:1043B000131619000398C3680793E0E503990B6986
:1043C0000793DCE5CDF81CB0D9E5D9F82C3007937C
:1043D000D5E5CDF81C80D2E5CDF81CA0CFE5D9F805
:1043E0000430E31A0793CAE553680434023B042BF4
:1043F0003FF6C5AD01A252F823F000BF11440008FA
:104400007F3F0008174400081D44000823440008AB
:10441000DDF81CB0B3E5DDF81C80B0E5DDF81CA0CC
:10442000ADE5D9F80440079BE418A8E5079B07977A
:104430001F46A4E5079BA8F1040846F808309EE54E
:10444000A8F1040846F8087099E5079BA8F104084C
:10445000F31846F8083092E556F8083008F10408D9
:1044600007938CE556F8087008F1040887E553684F
:1044700006EB0802D3580434079380E553680BF128
:104480003F0243449A4280F26A86D9F82C20934234
:1044900000F3638647460434984670E553685B44EE
:1044A00003F13F02424580F25A86D9F82420934214
:1044B000C0F257865F4604349B4660E5A8F10408C5
:1044C0000BF13F03434546F808A080F24886C246F8
:1044D00055E556F808A008F1040856F80830D9F850
:1044E0007420934280F2AD84D9F8044008F10408A6
:1044F000E41844E556F808A008F1040856F8082026
:10450000D9F874309A4280F29C8408F10403D9F8F7
:104510000440F358A41808F1080202EB03082EE542
:10452000D9F80430A8F10408E31A043346F8083037
:104530005368E418043C22E55368E418043C1EE583
:10454000079B1BB92368E418043C18E5043416E5FE
:10455000079B1BB12368E418043C10E504340EE506
:10456000079BBB4007930AE5079BFB40079306E5C3
:10457000079B3B41079302E55368079A043412FAFC
:1045800003F30793FBE4536804349F40F7E4079B6D
:104590007B430793F3E4079B002B00F0888297FB93
:1045A000F3F203FB12770792002F3FF4E8AC97EA8F
:1045B000030F7FF5E4AC013A0792FF18DFE4079B95
:1045C000DB190793DBE4079BFB1A0793D7E4079BF0
:1045D0003B400793D3E4079B3B430793CFE4079B00
:1045E0007B400793CBE4079BD3F1010338BF002343
:1045F0000793C4E4079B5B420793C0E4079BDB433C
:104600000793BCE4079BD81B434243EB000307938B
:10461000B5E4079BDB1B18BF01230793AFE4079B9F
:10462000BB42ACBF002301230793A8E4079BBB4216
:10463000CCBF002301230793A1E4079BBB42D4BF57
:104640000023012307939AE4079BBB42B4BF0023D6
:104650000123079393E4079B013307938FE401370A
:104660008DE4079BF2580132F25088E4079B013B2E
:10467000079384E4013F82E4079BF258013AF25029
:104680007DE4526804340799594502DB4145C0F284
:10469000D883D9F82C30994280F0D38350185845EC
:1046A00002DD4045C0F2CD83984200F2CA835F45E7
:1046B00002DB4745C0F2C5839F4280F0C283D01918
:1046C000584502DD4045C0F2BC83984200F2B983F0
:1046D000F0197118FBF74CFD51E452680434079946
:1046E000594502DB4145C0F2AC83D9F82C309942E0
:1046F00080F0A7835018584502DD4045C0F2A183E1
:10470000984200F29E835F4502DB4745C0F29983E1
:104710009F4280F09683D019584502DD4045C0F293
:104720009083984200F28D83F0197118FBF7E8FC32
:10473000079024E4516804345F4502DB4745C0F22A
:104740008083D9F82C20974280F07B83CB195B457E
:1047500002DD4345C0F27583934200F272833B460B
:1047600003E0079A0439F25004330329F9D806E428
:10477000CDF810B0DDF808C0DDF804B054F8040B33
:104780004D46B946059E079B06B13360EB656B68E5
:104790000C28C3EB0404C5F81CA0C5F86090AC61FC
:1047A00040F02F82C5F828800499296224E25368DA
:1047B000079A04349A427FF6E2AB00F0AFBCD9F816
:1047C00004300434E31A5168D9F80C50C9F8183091
:1047D000C9F820B0C9F81CA0C9F82880484607AA23
:1047E00006EB0803A84738E052680798A318191D7C
:1047F000D3F804C0A25801E0013A2B46002A03F185
:10480000080504DC01EB0C04043CFFF7B8BB9C6812
:104810008442F1D100F0A9BC56F80830079A46F856
:1048200008200793FFF7ABBB56F8083046F808702E
:104830001F46FFF7A4BBD9F81030002B3FF49FAB05
:10484000D9F80420C9F81CA0A21AC9F82880C9F810
:1048500020B0C9F818204846984700283FF48FAB8D
:104860000C28DDF804B0DDF808C04D4640F0C981E1
:10487000079B2F66EB65BFE1D9F80430A8F1040867
:10488000E41AD9F87030043443EA044446F8084086
:104890005168D9F81430C9F8701048469847002874
:1048A0003FD1D9F80440FFF76ABB56F808A008F1D9
:1048B000040856F80840D9F81430A1B208F10408E9
:1048C000C9F87010484656F808509847002840F03C
:1048D000B882D9F87430240C9C4280F2B282D9F8A4
:1048E000043008F10408A8441C19FFF748BB5268BB
:1048F000A3185968C9F87010A258079801E0013A46
:104900000B46002A03F1080104DD9B688342F6D1BF
:1049100000F030BCD9F814304846D9F870109847E8
:1049200028B1DDF804B0DDF808C04D4669E1D9F8DA
:104930000440FFF724BB079B07EB83035B4502DBC7
:104940004345C0F27E82D9F82C20934280F07982D0
:10495000F3580793FFF713BB5368079A12FA03F350
:10496000DB195B4502DB4345C0F26B82D9F82C2092
:10497000934280F06682F35804340793FFF7FFBA3E
:10498000079B07EB83030793FFF7F9BA5368079A6E
:10499000043412FA03F3DB190793FFF7F0BA5368F4
:1049A000A8F10408043446F80830FFF7E8BA536861
:1049B000A8F10408F358043446F80830FFF7DFBACA
:1049C000536806EB0A02D358A8F10408043446F8E9
:1049D0000830FFF7D4BA5368A8F1040853440434EC
:1049E00046F80830FFF7CBBA5368A8F10408F3186B
:1049F000043446F80830FFF7C2BA536806EB0A02DF
:104A0000D358A8F10408F318043446F80830FFF727
:104A1000B6BA536806EB0A02A8F10408D3180434A6
:104A200046F80830FFF7ABBA079BBB4204D12368B6
:104A3000E418043CFFF7A3BA0434FFF7A0BA079BBD
:104A4000BB4204D02368E418043CFFF798BA04344E
:104A5000FFF795BA079BBB4204DA2368E418043CCD
:104A6000FFF78DBA0434FFF78ABA079BBB4204DC18
:104A70002368E418043CFFF782BA0434FFF77FBAD6
:104A8000079BBB4204DD2368E418043CFFF777BAB8
:104A90000434FFF774BA079BBB4204DB2368E418B5
:104AA000043CFFF76CBA0434FFF769BA57B9DDF874
:104AB00004B0DDF808C04D46C5F828B0C5F820C0E0
:104AC0000B204FE3079A92FBF7F292FBF7F307FBF9
:104AD00013230792002B3FF44FAA93EA070F7FF5A9
:104AE0004DAA013A0792FF18FFF749BA079BDB1B53
:104AF0000793FFF744BA5368079A0434D31807930F
:104B0000FFF73DBA5268079B043453430793FFF7FE
:104B100036BA00230793FFF732BA536800220434F1
:104B2000F250FFF72CBA5368002106EB0A02043456
:104B3000D150FFF724BA5368079A0434D11A4B4274
:104B400043EB01030793FFF71ABA53680434FA1AC8
:104B5000534243EB02030793FFF711BA536804343F
:104B6000F2580132F250FFF70ABA53680434534442
:104B7000F2580132F250FFF702BA53680434F25887
:104B8000013AF250FFF7FBB9536804345344F2582A
:104B9000013AF250FFF7F3B9D4F804C0A8F10408C1
:104BA000516846F808C0D9F804300834E31AC9F847
:104BB0001830C9F82880C9F820B0C9F81CA0D9F865
:104BC0000C5006EB0803CDF800C0484607AAA847DA
:104BD000DDF800C0E04408F1040800283FF4CFA944
:104BE0000C28DDF804B0DDF808C04D4609D1079B5C
:104BF0002F66EB65C5F82880C5F864B0C5F868C0B5
:104C0000B0E2C5F828B0C5F820C0ABE25168043462
:104C100006EB08000B4602E0556840F8045D013BD6
:104C20000432B3F1FF3FF7D18900C1EB08086418E3
:104C3000FFF7A5B95168043406EB08000B4603E002
:104C40005568755940F8045D013B0432B3F1FF3FEC
:104C5000F6D18900C1EB08086418FFF790B95168D4
:104C6000043406EB08000B4607E0D2F804C006EB5C
:104C70000A0555F80C5040F8045D013B0432B3F1CD
:104C8000FF3FF2D18900C1EB08086418FFF777B93C
:104C90005168043406EB08000B4603E055685544A0
:104CA00040F8045D013B0432B3F1FF3FF6D18900C7
:104CB000C1EB08086418FFF762B95168043406EBC9
:104CC00008000B4603E05568751940F8045D013B88
:104CD0000432B3F1FF3FF6D18900C1EB0808641834
:104CE000FFF74DB95168043406EB08000B4608E0A5
:104CF000D2F804C006EB0A0555F80C50751940F8B7
:104D0000045D013B0432B3F1FF3FF1D18900C1EBF7
:104D100008086418FFF733B95168043406EB08003B
:104D20000B4604E055687519554440F8045D013B95
:104D30000432B3F1FF3FF5D18900C1EB08086418D4
:104D4000FFF71DB95268231DB258083407921B683B
:104D5000F758FFF714B95268231DB21852F80A2009
:104D6000083407921B68F31853F80A70FFF707B965
:104D7000231D52681B680834B350FFF700B9231D88
:104D800052681B6806EB0A0108348B50FFF7F7B82E
:104D9000091473580793FFF7F2B809147758FFF70F
:104DA000EEB806EB214151F80A300793FFF7E7B858
:104DB00006EB214151F80A70FFF7E1B80AEB2141F7
:104DC0007358F3580793FFF7DAB80AEB2141735889
:104DD000F758FFF7D4B80914FFF76DBA0914079113
:104DE000FFF7CDB80F14FFF7CAB80AEB21410791BE
:104DF000FFF7C5B80AEB2147FFF7C1B8079B0914B5
:104E00007350FFF7BCB8079B06EB214141F80A300D
:104E1000FFF7B5B80AEB21417358079AF250FFF734
:104E2000AEB80914FFF794BA079A091412FA01F1FF
:104E3000C919594501DB414503DBD9F82C309942AA
:104E40000AD3DDF804B0DDF808C04D46C5F828B037
:104E5000C5F820C0052085E173580793FFF78FB888
:104E6000079A091412FA01F1C9190791FFF787B8D7
:104E7000091403293FF683A8079BC1F1040183EAC3
:104E800001010791FFF77BB8A8F10408091446F85F
:104E90000810FFF774B809147358A8F1040846F80D
:104EA0000830FFF76CB806EB214151F80A30A8F141
:104EB000040846F80830FFF762B8A8F104080AEBC6
:104EC000214146F80810FFF75AB8A8F1040806EB8C
:104ED000214146F80810FFF752B806EB214151F87E
:104EE0000A30A8F10408F31846F80830FFF747B86D
:104EF00006EB0A02A8F1040802EB214146F808106B
:104F0000FFF73DB8091406EB08000B4604E052F821
:104F1000045F755940F8045D013BF8D28900C1EB8C
:104F200008086418FFF72BB8091406EB08000B46B5
:104F300007E052F804CF06EB0A0555F80C5040F88C
:104F4000045D013BF5D28900C1EB08086418FFF746
:104F500016B8091406EB08000B4603E052F8045F8C
:104F600040F8045D013BF9D28900C1EB08086418E0
:104F7000FFF705B8091406EB08000B4604E052F8E9
:104F8000045F554440F8045D013BF8D28900C1EB51
:104F900008086418FEF7F3BF091406EB08000B4677
:104FA00004E052F8045F751940F8045D013BF8D243
:104FB0008900C1EB08086418FEF7E1BF091406EB8D
:104FC00008000B4608E052F804CF06EB0A0555F836
:104FD0000C50751940F8045D013BF4D28900C1EB17
:104FE00008086418FEF7CBBF091406EB08000B464F
:104FF00005E052F8045F7519554440F8045D013B23
:10500000F7D28900C1EB08086418FEF7B8BF08EBB7
:1050100021410BF13F038B4280F2A180D9F82C3063
:10502000994200F39A8047468846FEF7A8BF0BEBEB
:10503000214101F13F03434580F29180D9F82430AA
:105040009942C0F28E805F468B46FEF798BF079A62
:10505000091412FA01F10791FEF791BF09148F406C
:10506000FEF78DBF079A02EB21410791FEF787BF3C
:10507000079B091459430791FEF781BF09140023C8
:105080007350FEF77CBF091406EB0A0300225A5046
:10509000FEF775BF079BB3EB214F14BF002301231D
:1050A0000793FEF76CBFB7EB214F14BF002301231A
:1050B0000793FEF764BF0914735801337350FEF76A
:1050C0005EBF0AEB2141735801337350FEF757BF9F
:1050D00009147358013B7350FEF751BF0AEB21418D
:1050E0007358013B7350FEF74ABF0A14FFF7CBBA5F
:1050F0000A14FFF7F4BA0914FFF71EBBCDF810B07D
:105100004D46DDF808C0DDF804B0B9460814FFF7D5
:1051100039BB079BB3EB214F7EF631AF4D466B6831
:10512000DDF804B0DDF808C0E41AAC61C5F828B0B9
:10513000C5F820C0042015E0DDF804B0DDF808C093
:105140004D46C5F828B0C5F820C006200AE0162054
:1051500008E0092006E0142004E0072002E0032014
:1051600000E0082009B0BDE8F08FDC681C190834A5
:10517000FEF705BF4B68C9F87030FFF7CBBB00BF27
:1051800001610020704700000000000000000000E6
:105190000120704700000000000000000000000037
:1051A0004B68024AD31893F884087047AC18002063
:1051B0000B79034A0020D3188A6883F88428704743
:1051C000AC180020000000000000000000000000FB
:1051D000244B254ADB6970B59A612448FCF7C8F96D
:1051E000FBF75EFC224C0025FBF77AFE84F8785032
:1051F000FBF75EFEFBF75CFC234600225A550135A7
:10520000782D1B4CF9D104F1840320461949A36081
:10521000FEF776FD0546E0670028DED1FBF740FC8F
:10522000FBF75EFE012384F87830FBF741FEFBF7C5
:105230003FFC114E4FF0FF3231462046FEF7D8FDBD
:105240003368C4F880002046E367FEF7C1FBFBF734
:1052500027FCFBF745FE84F87850FBF729FEFBF7A7
:1052600027FCBAE74C0E0020C35C0008EC0F0020BE
:10527000AC18002000A00008A818002000000000C2
:1052800007B500210648FCF733F9002300934FF4DB
:105290000B614022034B0448FCF742F80EBD00BFEF
:1052A000EC0F0020D1510008F80F00200000000092
:1052B00010B5002306E0054A11F8014BD21882F818
:1052C00084480133DAB28242F5D310BDAC18002015
:1052D000002305E0044AD21892F88428CA54013306
:1052E000DAB28242F6D37047AC180020000000000A
:1052F000064B10B5CB18002403E0115D013403F810
:10530000011FA1B28142F8D310BD00BF2F190020A8
:10531000024B1B1893F88400704700BFAC180020A4
:10532000F8B5064606F500362836B602FEF7E0F870
:105330003046FEF755F90428044603D0FEF7E8F896
:105340002046F8BD0B4D0024A01955F8041FFEF7A8
:1053500017F90428074605D0FEF7DAF807F10A0026
:1053600080B2F8BD0434B4F5006FEDD1FEF7D0F88B
:105370000020F8BD2C1900200000000000000000F3
:1053800008B5FBF78DFBFBF7ABFD06488368002BE8
:1053900001DCFCF7FDF8FBF753FFFBF789FDFBF79A
:1053A00087FB08BDEC0F002000000000000000009B
:1053B00010B5FBF775FBFBF793FD044B93F87840B2
:1053C000FBF776FDFBF774FB204610BDAC18002000
:1053D00008B5FBF765FBFBF783FD04490448FFF7BD
:1053E000CFFEFBF765FDFBF763FB08BD915100089D
:1053F000AC180020000000000000000000000000C9
:10540000014BD86F704700BFAC18002000000000AF
:10541000014BD3F880007047AC180020000000005A
:105420002000390000000000000000000000000023
:105430000020202020202020202028282828282064
:10544000202020202020202020202020202020205C
:1054500020881010101010101010101010101010C4
:1054600010040404040404040404041010101010B4
:10547000101041414141414101010101010101017E
:1054800001010101010101010101010110101010D0
:105490001010424242424242020202020202020250
:1054A00002020202020202020202020210101010A4
:1054B00020000000000000000000000000000000CC
:1054C00000000000000000000000000000000000DC
:1054D00000000000000000000000000000000000CC
:1054E00000000000000000000000000000000000BC
:1054F00000000000000000000000000000000000AC
:10550000000000000000000000000000000000009B
:10551000000000000000000000000000000000008B
:10552000000000000000000000000000000000007B
:10553000000000000000000000000000000000006B
:1055400069646C65006D61696E0000000000000018
:1055500053562331310053562331300053562339EB
:105560000053562338005356233700535623360032
:1055700053562335005356233400535623330053D8
:105580005623320053562331000000000000000073
:10559000226368565453657449222829002263689F
:1055A000565452657365744922282900636856541D
:1055B00052657365744928292C20233100000000AE
:1055C000636853636852656164794928292C2023F4
:1055D0003100737461636B206F766572666C6F77F0
:1055E00000000000000000000000000000000000BB
:1055F000226368546864437265617465492228298E
:10560000002263685468645365745072696F7269EC
:105610007479222829006368546864526573756D33
:105620006528292C20233100226368546864536C58
:105630006565702228290063685468644578697438
:105640005328292C20233100226368546864576151
:105650006974222829006368546864576169742852
:10566000292C2023310063685468645761697428C9
:10567000292C202332000000000000000000000060
:10568000636854686441646452656628292C202349
:105690003100636854686452656C656173652829DC
:1056A0002C2023310022636854686443726561745E
:1056B0006546726F6D4D656D6F7279506F6F6C22BC
:1056C0002829000000000000000000000000000089
:1056D00022636853656D496E69742228290022632C
:1056E0006853656D526573657449222829006368A3
:1056F00053656D52657365744928292C2023310048
:1057000022636853656D57616974532228290063C9
:105710006853656D576169745328292C2023310023
:1057200022636853656D5761697454696D656F755F
:10573000745322282900636853656D576169745456
:10574000696D656F75745328292C202331002263FD
:105750006853656D5369676E616C22282900636820
:1057600053656D5369676E616C28292C20233100C5
:1057700022636853656D5369676E616C49222829FD
:1057800000636853656D5369676E616C4928292C05
:105790002023310022636853656D416464436F7553
:1057A0006E7465724922282900636853656D4164EF
:1057B00064436F756E7465724928292C202331006B
:1057C00022636853656D5369676E616C57616974D4
:1057D00022282900636853656D5369676E616C57B1
:1057E00061697428292C20233100636853656D5347
:1057F00069676E616C5761697428292C2023320017
:105800002263684D7478496E6974222829002263E6
:10581000684D74784C6F636B532228290063684D80
:1058200074784C6F636B5328292C202331006368F4
:105830004D74784C6F636B5328292C20233200223F
:1058400063684D74785472794C6F636B53222829C6
:105850000063684D7478556E6C6F636B28292C203B
:1058600023310063684D7478556E6C6F636B282923
:105870002C2023320063684D7478556E6C6F636B17
:105880005328292C2023310063684D7478556E6CA1
:105890006F636B5328292C20233200000000000086
:1058A00022636845767452656769737465724D61E9
:1058B000736B22282900226368457674556E7265E1
:1058C00067697374657222282900226368457674BB
:1058D0005369676E616C4922282900226368457606
:1058E000745369676E616C222829002263684576CB
:1058F0007442726F6164636173744D61736B4922AA
:105900002829002263684576744469737061746362
:10591000682228290063684576744469737061744D
:10592000636828292C2023310000000000000000BB
:1059300022636849515265616454696D656F75747D
:10594000222829002263684F51577269746554698F
:105950006D656F75742228290000000000000000AA
:1059600022636848656170496E69742228290022A3
:10597000636848656170467265652228290063681E
:10598000486561704672656528292C202331000026
:10599000226368506F6F6C496E6974222829002257
:1059A0006368506F6F6C416C6C6F634922282900EB
:1059B000226368506F6F6C46726565492228290022
:1059C00000000000000000000000000000000000D7
:1059D0002275736253746172742228290075736290
:1059E000537461727428292C20233100227573624C
:1059F00053746F702228290075736253746F702876
:105A0000292C2023310022757362496E6974456E1A
:105A100064706F696E744922282900757362456E3F
:105A200061626C65456E64706F696E744928292CDB
:105A300020233100757362456E61626C65456E644A
:105A4000706F696E744928292C20233200227573E7
:105A50006244697361626C65456E64706F696E74EF
:105A600073492228290075736244697361626C6509
:105A7000456E64706F696E74734928292C20233138
:105A8000002275736253746172745265636569763E
:105A90006549222829002275736253746172745417
:105AA00072616E736D6974492228290022757362D0
:105AB0005374616C6C526563656976654922282967
:105AC00000227573625374616C6C5472616E736DF5
:105AD000697449222829000000000000000000002D
